{
	"Function.sol": {
		"Function": {
			"abi": [
				{
					"inputs": [],
					"name": "_number",
					"outputs": [
						{
							"internalType": "int256",
							"name": "",
							"type": "int256"
						}
					],
					"stateMutability": "view",
					"type": "function"
				},
				{
					"inputs": [],
					"name": "add",
					"outputs": [],
					"stateMutability": "nonpayable",
					"type": "function"
				},
				{
					"inputs": [
						{
							"internalType": "int256",
							"name": "_n",
							"type": "int256"
						}
					],
					"name": "addPure",
					"outputs": [
						{
							"internalType": "int256",
							"name": "new_number",
							"type": "int256"
						}
					],
					"stateMutability": "pure",
					"type": "function"
				},
				{
					"inputs": [],
					"name": "addView",
					"outputs": [
						{
							"internalType": "int256",
							"name": "new_number",
							"type": "int256"
						}
					],
					"stateMutability": "view",
					"type": "function"
				}
			],
			"devdoc": {
				"kind": "dev",
				"methods": {},
				"version": 1
			},
			"evm": {
				"assembly": "    /* \"Function.sol\":57:1449  contract Function {... */\n  mstore(0x40, 0x80)\n    /* \"Function.sol\":1090:1091  1 */\n  0x01\n    /* \"Function.sol\":1066:1091  int256 public _number = 1 */\n  0x00\n  sstore\n    /* \"Function.sol\":57:1449  contract Function {... */\n  callvalue\n  dup1\n  iszero\n  tag_1\n  jumpi\n  0x00\n  dup1\n  revert\ntag_1:\n  pop\n  dataSize(sub_0)\n  dup1\n  dataOffset(sub_0)\n  0x00\n  codecopy\n  0x00\n  return\nstop\n\nsub_0: assembly {\n        /* \"Function.sol\":57:1449  contract Function {... */\n      mstore(0x40, 0x80)\n      callvalue\n      dup1\n      iszero\n      tag_1\n      jumpi\n      0x00\n      dup1\n      revert\n    tag_1:\n      pop\n      jumpi(tag_2, lt(calldatasize, 0x04))\n      shr(0xe0, calldataload(0x00))\n      dup1\n      0x4341ecdd\n      eq\n      tag_3\n      jumpi\n      dup1\n      0x4f2be91f\n      eq\n      tag_4\n      jumpi\n      dup1\n      0xb262eb7f\n      eq\n      tag_5\n      jumpi\n      dup1\n      0xf9bd55cc\n      eq\n      tag_6\n      jumpi\n    tag_2:\n      0x00\n      dup1\n      revert\n        /* \"Function.sol\":1203:1308  function addPure(int256 _n) external pure returns(int256 new_number) {... */\n    tag_3:\n      tag_7\n      0x04\n      dup1\n      calldatasize\n      sub\n      dup2\n      add\n      swap1\n      tag_8\n      swap2\n      swap1\n      tag_9\n      jump\t// in\n    tag_8:\n      tag_10\n      jump\t// in\n    tag_7:\n      mload(0x40)\n      tag_11\n      swap2\n      swap1\n      tag_12\n      jump\t// in\n    tag_11:\n      mload(0x40)\n      dup1\n      swap2\n      sub\n      swap1\n      return\n        /* \"Function.sol\":1097:1150  function add() external {... */\n    tag_4:\n      tag_13\n      tag_14\n      jump\t// in\n    tag_13:\n      stop\n        /* \"Function.sol\":1346:1447  function addView() external view returns(int256 new_number) {... */\n    tag_5:\n      tag_15\n      tag_16\n      jump\t// in\n    tag_15:\n      mload(0x40)\n      tag_17\n      swap2\n      swap1\n      tag_12\n      jump\t// in\n    tag_17:\n      mload(0x40)\n      dup1\n      swap2\n      sub\n      swap1\n      return\n        /* \"Function.sol\":1066:1091  int256 public _number = 1 */\n    tag_6:\n      tag_18\n      tag_19\n      jump\t// in\n    tag_18:\n      mload(0x40)\n      tag_20\n      swap2\n      swap1\n      tag_12\n      jump\t// in\n    tag_20:\n      mload(0x40)\n      dup1\n      swap2\n      sub\n      swap1\n      return\n        /* \"Function.sol\":1203:1308  function addPure(int256 _n) external pure returns(int256 new_number) {... */\n    tag_10:\n        /* \"Function.sol\":1253:1270  int256 new_number */\n      0x00\n        /* \"Function.sol\":1300:1301  5 */\n      0x05\n        /* \"Function.sol\":1295:1297  _n */\n      dup3\n        /* \"Function.sol\":1295:1301  _n + 5 */\n      tag_22\n      swap2\n      swap1\n      tag_23\n      jump\t// in\n    tag_22:\n        /* \"Function.sol\":1282:1301  new_number = _n + 5 */\n      swap1\n      pop\n        /* \"Function.sol\":1203:1308  function addPure(int256 _n) external pure returns(int256 new_number) {... */\n      swap2\n      swap1\n      pop\n      jump\t// out\n        /* \"Function.sol\":1097:1150  function add() external {... */\n    tag_14:\n        /* \"Function.sol\":1142:1143  1 */\n      0x01\n        /* \"Function.sol\":1131:1138  _number */\n      0x00\n      dup1\n        /* \"Function.sol\":1131:1143  _number += 1 */\n      dup3\n      dup3\n      sload\n      tag_25\n      swap2\n      swap1\n      tag_23\n      jump\t// in\n    tag_25:\n      swap3\n      pop\n      pop\n      dup2\n      swap1\n      sstore\n      pop\n        /* \"Function.sol\":1097:1150  function add() external {... */\n      jump\t// out\n        /* \"Function.sol\":1346:1447  function addView() external view returns(int256 new_number) {... */\n    tag_16:\n        /* \"Function.sol\":1387:1404  int256 new_number */\n      0x00\n        /* \"Function.sol\":1439:1440  5 */\n      0x05\n        /* \"Function.sol\":1429:1436  _number */\n      sload(0x00)\n        /* \"Function.sol\":1429:1440  _number + 5 */\n      tag_27\n      swap2\n      swap1\n      tag_23\n      jump\t// in\n    tag_27:\n        /* \"Function.sol\":1416:1440  new_number = _number + 5 */\n      swap1\n      pop\n        /* \"Function.sol\":1346:1447  function addView() external view returns(int256 new_number) {... */\n      swap1\n      jump\t// out\n        /* \"Function.sol\":1066:1091  int256 public _number = 1 */\n    tag_19:\n      sload(0x00)\n      dup2\n      jump\t// out\n        /* \"#utility.yul\":88:205   */\n    tag_29:\n        /* \"#utility.yul\":197:198   */\n      0x00\n        /* \"#utility.yul\":194:195   */\n      dup1\n        /* \"#utility.yul\":187:199   */\n      revert\n        /* \"#utility.yul\":334:410   */\n    tag_31:\n        /* \"#utility.yul\":370:377   */\n      0x00\n        /* \"#utility.yul\":399:404   */\n      dup2\n        /* \"#utility.yul\":388:404   */\n      swap1\n      pop\n        /* \"#utility.yul\":334:410   */\n      swap2\n      swap1\n      pop\n      jump\t// out\n        /* \"#utility.yul\":416:536   */\n    tag_32:\n        /* \"#utility.yul\":488:511   */\n      tag_42\n        /* \"#utility.yul\":505:510   */\n      dup2\n        /* \"#utility.yul\":488:511   */\n      tag_31\n      jump\t// in\n    tag_42:\n        /* \"#utility.yul\":481:486   */\n      dup2\n        /* \"#utility.yul\":478:512   */\n      eq\n        /* \"#utility.yul\":468:530   */\n      tag_43\n      jumpi\n        /* \"#utility.yul\":526:527   */\n      0x00\n        /* \"#utility.yul\":523:524   */\n      dup1\n        /* \"#utility.yul\":516:528   */\n      revert\n        /* \"#utility.yul\":468:530   */\n    tag_43:\n        /* \"#utility.yul\":416:536   */\n      pop\n      jump\t// out\n        /* \"#utility.yul\":542:679   */\n    tag_33:\n        /* \"#utility.yul\":587:592   */\n      0x00\n        /* \"#utility.yul\":625:631   */\n      dup2\n        /* \"#utility.yul\":612:632   */\n      calldataload\n        /* \"#utility.yul\":603:632   */\n      swap1\n      pop\n        /* \"#utility.yul\":641:673   */\n      tag_45\n        /* \"#utility.yul\":667:672   */\n      dup2\n        /* \"#utility.yul\":641:673   */\n      tag_32\n      jump\t// in\n    tag_45:\n        /* \"#utility.yul\":542:679   */\n      swap3\n      swap2\n      pop\n      pop\n      jump\t// out\n        /* \"#utility.yul\":685:1012   */\n    tag_9:\n        /* \"#utility.yul\":743:749   */\n      0x00\n        /* \"#utility.yul\":792:794   */\n      0x20\n        /* \"#utility.yul\":780:789   */\n      dup3\n        /* \"#utility.yul\":771:778   */\n      dup5\n        /* \"#utility.yul\":767:790   */\n      sub\n        /* \"#utility.yul\":763:795   */\n      slt\n        /* \"#utility.yul\":760:879   */\n      iszero\n      tag_47\n      jumpi\n        /* \"#utility.yul\":798:877   */\n      tag_48\n      tag_29\n      jump\t// in\n    tag_48:\n        /* \"#utility.yul\":760:879   */\n    tag_47:\n        /* \"#utility.yul\":918:919   */\n      0x00\n        /* \"#utility.yul\":943:995   */\n      tag_49\n        /* \"#utility.yul\":987:994   */\n      dup5\n        /* \"#utility.yul\":978:984   */\n      dup3\n        /* \"#utility.yul\":967:976   */\n      dup6\n        /* \"#utility.yul\":963:985   */\n      add\n        /* \"#utility.yul\":943:995   */\n      tag_33\n      jump\t// in\n    tag_49:\n        /* \"#utility.yul\":933:995   */\n      swap2\n      pop\n        /* \"#utility.yul\":889:1005   */\n      pop\n        /* \"#utility.yul\":685:1012   */\n      swap3\n      swap2\n      pop\n      pop\n      jump\t// out\n        /* \"#utility.yul\":1018:1133   */\n    tag_34:\n        /* \"#utility.yul\":1103:1126   */\n      tag_51\n        /* \"#utility.yul\":1120:1125   */\n      dup2\n        /* \"#utility.yul\":1103:1126   */\n      tag_31\n      jump\t// in\n    tag_51:\n        /* \"#utility.yul\":1098:1101   */\n      dup3\n        /* \"#utility.yul\":1091:1127   */\n      mstore\n        /* \"#utility.yul\":1018:1133   */\n      pop\n      pop\n      jump\t// out\n        /* \"#utility.yul\":1139:1357   */\n    tag_12:\n        /* \"#utility.yul\":1230:1234   */\n      0x00\n        /* \"#utility.yul\":1268:1270   */\n      0x20\n        /* \"#utility.yul\":1257:1266   */\n      dup3\n        /* \"#utility.yul\":1253:1271   */\n      add\n        /* \"#utility.yul\":1245:1271   */\n      swap1\n      pop\n        /* \"#utility.yul\":1281:1350   */\n      tag_53\n        /* \"#utility.yul\":1347:1348   */\n      0x00\n        /* \"#utility.yul\":1336:1345   */\n      dup4\n        /* \"#utility.yul\":1332:1349   */\n      add\n        /* \"#utility.yul\":1323:1329   */\n      dup5\n        /* \"#utility.yul\":1281:1350   */\n      tag_34\n      jump\t// in\n    tag_53:\n        /* \"#utility.yul\":1139:1357   */\n      swap3\n      swap2\n      pop\n      pop\n      jump\t// out\n        /* \"#utility.yul\":1363:1543   */\n    tag_35:\n        /* \"#utility.yul\":1411:1488   */\n      0x4e487b7100000000000000000000000000000000000000000000000000000000\n        /* \"#utility.yul\":1408:1409   */\n      0x00\n        /* \"#utility.yul\":1401:1489   */\n      mstore\n        /* \"#utility.yul\":1508:1512   */\n      0x11\n        /* \"#utility.yul\":1505:1506   */\n      0x04\n        /* \"#utility.yul\":1498:1513   */\n      mstore\n        /* \"#utility.yul\":1532:1536   */\n      0x24\n        /* \"#utility.yul\":1529:1530   */\n      0x00\n        /* \"#utility.yul\":1522:1537   */\n      revert\n        /* \"#utility.yul\":1549:1924   */\n    tag_23:\n        /* \"#utility.yul\":1588:1591   */\n      0x00\n        /* \"#utility.yul\":1607:1626   */\n      tag_56\n        /* \"#utility.yul\":1624:1625   */\n      dup3\n        /* \"#utility.yul\":1607:1626   */\n      tag_31\n      jump\t// in\n    tag_56:\n        /* \"#utility.yul\":1602:1626   */\n      swap2\n      pop\n        /* \"#utility.yul\":1640:1659   */\n      tag_57\n        /* \"#utility.yul\":1657:1658   */\n      dup4\n        /* \"#utility.yul\":1640:1659   */\n      tag_31\n      jump\t// in\n    tag_57:\n        /* \"#utility.yul\":1635:1659   */\n      swap3\n      pop\n        /* \"#utility.yul\":1682:1683   */\n      dup3\n        /* \"#utility.yul\":1679:1680   */\n      dup3\n        /* \"#utility.yul\":1675:1684   */\n      add\n        /* \"#utility.yul\":1668:1684   */\n      swap1\n      pop\n        /* \"#utility.yul\":1880:1881   */\n      dup3\n        /* \"#utility.yul\":1875:1878   */\n      dup2\n        /* \"#utility.yul\":1871:1882   */\n      slt\n        /* \"#utility.yul\":1864:1883   */\n      iszero\n        /* \"#utility.yul\":1860:1861   */\n      0x00\n        /* \"#utility.yul\":1857:1858   */\n      dup4\n        /* \"#utility.yul\":1853:1862   */\n      slt\n        /* \"#utility.yul\":1849:1884   */\n      and\n        /* \"#utility.yul\":1832:1833   */\n      dup4\n        /* \"#utility.yul\":1827:1830   */\n      dup3\n        /* \"#utility.yul\":1823:1834   */\n      slt\n        /* \"#utility.yul\":1818:1819   */\n      0x00\n        /* \"#utility.yul\":1815:1816   */\n      dup5\n        /* \"#utility.yul\":1811:1820   */\n      slt\n        /* \"#utility.yul\":1804:1821   */\n      iszero\n        /* \"#utility.yul\":1800:1835   */\n      and\n        /* \"#utility.yul\":1784:1894   */\n      or\n        /* \"#utility.yul\":1781:1917   */\n      iszero\n      tag_58\n      jumpi\n        /* \"#utility.yul\":1897:1915   */\n      tag_59\n      tag_35\n      jump\t// in\n    tag_59:\n        /* \"#utility.yul\":1781:1917   */\n    tag_58:\n        /* \"#utility.yul\":1549:1924   */\n      swap3\n      swap2\n      pop\n      pop\n      jump\t// out\n\n    auxdata: 0xa26469706673582212205826491681b1f1340f2583342f1bec0eac839b271bb48e4d138be285930602b364736f6c63430008190033\n}\n",
				"bytecode": {
					"linkReferences": {},
					"object": "608060405260015f553480156012575f80fd5b5061023a806100205f395ff3fe608060405234801561000f575f80fd5b506004361061004a575f3560e01c80634341ecdd1461004e5780634f2be91f1461007e578063b262eb7f14610088578063f9bd55cc146100a6575b5f80fd5b61006860048036038101906100639190610143565b6100c4565b604051610075919061017d565b60405180910390f35b6100866100d9565b005b6100906100f3565b60405161009d919061017d565b60405180910390f35b6100ae610107565b6040516100bb919061017d565b60405180910390f35b5f6005826100d291906101c3565b9050919050565b60015f808282546100ea91906101c3565b92505081905550565b5f60055f5461010291906101c3565b905090565b5f5481565b5f80fd5b5f819050919050565b61012281610110565b811461012c575f80fd5b50565b5f8135905061013d81610119565b92915050565b5f602082840312156101585761015761010c565b5b5f6101658482850161012f565b91505092915050565b61017781610110565b82525050565b5f6020820190506101905f83018461016e565b92915050565b7f4e487b71000000000000000000000000000000000000000000000000000000005f52601160045260245ffd5b5f6101cd82610110565b91506101d883610110565b92508282019050828112155f8312168382125f8412151617156101fe576101fd610196565b5b9291505056fea26469706673582212205826491681b1f1340f2583342f1bec0eac839b271bb48e4d138be285930602b364736f6c63430008190033",
					"opcodes": "PUSH1 0x80 PUSH1 0x40 MSTORE PUSH1 0x1 PUSH0 SSTORE CALLVALUE DUP1 ISZERO PUSH1 0x12 JUMPI PUSH0 DUP1 REVERT JUMPDEST POP PUSH2 0x23A DUP1 PUSH2 0x20 PUSH0 CODECOPY PUSH0 RETURN INVALID PUSH1 0x80 PUSH1 0x40 MSTORE CALLVALUE DUP1 ISZERO PUSH2 0xF JUMPI PUSH0 DUP1 REVERT JUMPDEST POP PUSH1 0x4 CALLDATASIZE LT PUSH2 0x4A JUMPI PUSH0 CALLDATALOAD PUSH1 0xE0 SHR DUP1 PUSH4 0x4341ECDD EQ PUSH2 0x4E JUMPI DUP1 PUSH4 0x4F2BE91F EQ PUSH2 0x7E JUMPI DUP1 PUSH4 0xB262EB7F EQ PUSH2 0x88 JUMPI DUP1 PUSH4 0xF9BD55CC EQ PUSH2 0xA6 JUMPI JUMPDEST PUSH0 DUP1 REVERT JUMPDEST PUSH2 0x68 PUSH1 0x4 DUP1 CALLDATASIZE SUB DUP2 ADD SWAP1 PUSH2 0x63 SWAP2 SWAP1 PUSH2 0x143 JUMP JUMPDEST PUSH2 0xC4 JUMP JUMPDEST PUSH1 0x40 MLOAD PUSH2 0x75 SWAP2 SWAP1 PUSH2 0x17D JUMP JUMPDEST PUSH1 0x40 MLOAD DUP1 SWAP2 SUB SWAP1 RETURN JUMPDEST PUSH2 0x86 PUSH2 0xD9 JUMP JUMPDEST STOP JUMPDEST PUSH2 0x90 PUSH2 0xF3 JUMP JUMPDEST PUSH1 0x40 MLOAD PUSH2 0x9D SWAP2 SWAP1 PUSH2 0x17D JUMP JUMPDEST PUSH1 0x40 MLOAD DUP1 SWAP2 SUB SWAP1 RETURN JUMPDEST PUSH2 0xAE PUSH2 0x107 JUMP JUMPDEST PUSH1 0x40 MLOAD PUSH2 0xBB SWAP2 SWAP1 PUSH2 0x17D JUMP JUMPDEST PUSH1 0x40 MLOAD DUP1 SWAP2 SUB SWAP1 RETURN JUMPDEST PUSH0 PUSH1 0x5 DUP3 PUSH2 0xD2 SWAP2 SWAP1 PUSH2 0x1C3 JUMP JUMPDEST SWAP1 POP SWAP2 SWAP1 POP JUMP JUMPDEST PUSH1 0x1 PUSH0 DUP1 DUP3 DUP3 SLOAD PUSH2 0xEA SWAP2 SWAP1 PUSH2 0x1C3 JUMP JUMPDEST SWAP3 POP POP DUP2 SWAP1 SSTORE POP JUMP JUMPDEST PUSH0 PUSH1 0x5 PUSH0 SLOAD PUSH2 0x102 SWAP2 SWAP1 PUSH2 0x1C3 JUMP JUMPDEST SWAP1 POP SWAP1 JUMP JUMPDEST PUSH0 SLOAD DUP2 JUMP JUMPDEST PUSH0 DUP1 REVERT JUMPDEST PUSH0 DUP2 SWAP1 POP SWAP2 SWAP1 POP JUMP JUMPDEST PUSH2 0x122 DUP2 PUSH2 0x110 JUMP JUMPDEST DUP2 EQ PUSH2 0x12C JUMPI PUSH0 DUP1 REVERT JUMPDEST POP JUMP JUMPDEST PUSH0 DUP2 CALLDATALOAD SWAP1 POP PUSH2 0x13D DUP2 PUSH2 0x119 JUMP JUMPDEST SWAP3 SWAP2 POP POP JUMP JUMPDEST PUSH0 PUSH1 0x20 DUP3 DUP5 SUB SLT ISZERO PUSH2 0x158 JUMPI PUSH2 0x157 PUSH2 0x10C JUMP JUMPDEST JUMPDEST PUSH0 PUSH2 0x165 DUP5 DUP3 DUP6 ADD PUSH2 0x12F JUMP JUMPDEST SWAP2 POP POP SWAP3 SWAP2 POP POP JUMP JUMPDEST PUSH2 0x177 DUP2 PUSH2 0x110 JUMP JUMPDEST DUP3 MSTORE POP POP JUMP JUMPDEST PUSH0 PUSH1 0x20 DUP3 ADD SWAP1 POP PUSH2 0x190 PUSH0 DUP4 ADD DUP5 PUSH2 0x16E JUMP JUMPDEST SWAP3 SWAP2 POP POP JUMP JUMPDEST PUSH32 0x4E487B7100000000000000000000000000000000000000000000000000000000 PUSH0 MSTORE PUSH1 0x11 PUSH1 0x4 MSTORE PUSH1 0x24 PUSH0 REVERT JUMPDEST PUSH0 PUSH2 0x1CD DUP3 PUSH2 0x110 JUMP JUMPDEST SWAP2 POP PUSH2 0x1D8 DUP4 PUSH2 0x110 JUMP JUMPDEST SWAP3 POP DUP3 DUP3 ADD SWAP1 POP DUP3 DUP2 SLT ISZERO PUSH0 DUP4 SLT AND DUP4 DUP3 SLT PUSH0 DUP5 SLT ISZERO AND OR ISZERO PUSH2 0x1FE JUMPI PUSH2 0x1FD PUSH2 0x196 JUMP JUMPDEST JUMPDEST SWAP3 SWAP2 POP POP JUMP INVALID LOG2 PUSH5 0x6970667358 0x22 SLT KECCAK256 PC 0x26 BLOBHASH AND DUP2 0xB1 CALL CALLVALUE 0xF 0x25 DUP4 CALLVALUE 0x2F SHL 0xEC 0xE 0xAC DUP4 SWAP12 0x27 SHL 0xB4 DUP15 0x4D SGT DUP12 0xE2 DUP6 SWAP4 MOD MUL 0xB3 PUSH5 0x736F6C6343 STOP ADDMOD NOT STOP CALLER "
				},
				"gasEstimates": {
					"creation": {
						"codeDepositCost": "114000",
						"executionCost": "22262",
						"totalCost": "136262"
					},
					"external": {
						"_number()": "2468",
						"add()": "infinite",
						"addPure(int256)": "infinite",
						"addView()": "infinite"
					}
				},
				"methodIdentifiers": {
					"_number()": "f9bd55cc",
					"add()": "4f2be91f",
					"addPure(int256)": "4341ecdd",
					"addView()": "b262eb7f"
				}
			},
			"storageLayout": {
				"storage": [
					{
						"astId": 4,
						"contract": "Function.sol:Function",
						"label": "_number",
						"offset": 0,
						"slot": "0",
						"type": "t_int256"
					}
				],
				"types": {
					"t_int256": {
						"encoding": "inplace",
						"label": "int256",
						"numberOfBytes": "32"
					}
				}
			},
			"userdoc": {
				"kind": "user",
				"methods": {},
				"version": 1
			}
		}
	}
}