{
	"Abstract.sol": {
		"MainContract": {
			"abi": [
				{
					"inputs": [],
					"stateMutability": "nonpayable",
					"type": "constructor"
				},
				{
					"inputs": [],
					"name": "call",
					"outputs": [],
					"stateMutability": "view",
					"type": "function"
				},
				{
					"inputs": [],
					"name": "use1",
					"outputs": [
						{
							"internalType": "contract Use1",
							"name": "",
							"type": "address"
						}
					],
					"stateMutability": "view",
					"type": "function"
				}
			],
			"devdoc": {
				"kind": "dev",
				"methods": {},
				"version": 1
			},
			"evm": {
				"assembly": "    /* \"Abstract.sol\":568:731  contract MainContract {... */\n  mstore(0x40, 0x80)\n    /* \"Abstract.sol\":619:667  constructor() {... */\n  callvalue\n  dup1\n  iszero\n  tag_1\n  jumpi\n  0x00\n  dup1\n  revert\ntag_1:\n  pop\n    /* \"Abstract.sol\":650:660  new Use1() */\n  mload(0x40)\n  tag_4\n  swap1\n  tag_5\n  jump\t// in\ntag_4:\n  mload(0x40)\n  dup1\n  swap2\n  sub\n  swap1\n  0x00\n  create\n  dup1\n  iszero\n  dup1\n  iszero\n  tag_6\n  jumpi\n  returndatasize\n  0x00\n  dup1\n  returndatacopy\n  revert(0x00, returndatasize)\ntag_6:\n  pop\n    /* \"Abstract.sol\":643:647  use1 */\n  0x00\n  dup1\n    /* \"Abstract.sol\":643:660  use1 = new Use1() */\n  0x0100\n  exp\n  dup2\n  sload\n  dup2\n  0xffffffffffffffffffffffffffffffffffffffff\n  mul\n  not\n  and\n  swap1\n  dup4\n  0xffffffffffffffffffffffffffffffffffffffff\n  and\n  mul\n  or\n  swap1\n  sstore\n  pop\n    /* \"Abstract.sol\":568:731  contract MainContract {... */\n  jump(tag_7)\ntag_5:\n  dataSize(sub_1)\n  dup1\n  dataOffset(sub_1)\n  dup4\n  codecopy\n  add\n  swap1\n  jump\t// out\ntag_7:\n  dataSize(sub_0)\n  dup1\n  dataOffset(sub_0)\n  0x00\n  codecopy\n  0x00\n  return\nstop\n\nsub_0: assembly {\n        /* \"Abstract.sol\":568:731  contract MainContract {... */\n      mstore(0x40, 0x80)\n      callvalue\n      dup1\n      iszero\n      tag_1\n      jumpi\n      0x00\n      dup1\n      revert\n    tag_1:\n      pop\n      jumpi(tag_2, lt(calldatasize, 0x04))\n      shr(0xe0, calldataload(0x00))\n      dup1\n      0x2181692b\n      eq\n      tag_3\n      jumpi\n      dup1\n      0x28b5e32b\n      eq\n      tag_4\n      jumpi\n    tag_2:\n      0x00\n      dup1\n      revert\n        /* \"Abstract.sol\":596:612  Use1 public use1 */\n    tag_3:\n      tag_5\n      tag_6\n      jump\t// in\n    tag_5:\n      mload(0x40)\n      tag_7\n      swap2\n      swap1\n      tag_8\n      jump\t// in\n    tag_7:\n      mload(0x40)\n      dup1\n      swap2\n      sub\n      swap1\n      return\n        /* \"Abstract.sol\":673:729  function call() public view {... */\n    tag_4:\n      tag_9\n      tag_10\n      jump\t// in\n    tag_9:\n      stop\n        /* \"Abstract.sol\":596:612  Use1 public use1 */\n    tag_6:\n      0x00\n      dup1\n      sload\n      swap1\n      0x0100\n      exp\n      swap1\n      div\n      0xffffffffffffffffffffffffffffffffffffffff\n      and\n      dup2\n      jump\t// out\n        /* \"Abstract.sol\":673:729  function call() public view {... */\n    tag_10:\n        /* \"Abstract.sol\":711:715  use1 */\n      0x00\n      dup1\n      sload\n      swap1\n      0x0100\n      exp\n      swap1\n      div\n      0xffffffffffffffffffffffffffffffffffffffff\n      and\n        /* \"Abstract.sol\":711:719  use1.do1 */\n      0xffffffffffffffffffffffffffffffffffffffff\n      and\n      0x60b7aea0\n        /* \"Abstract.sol\":720:721  1 */\n      0x01\n        /* \"Abstract.sol\":711:722  use1.do1(1) */\n      mload(0x40)\n      dup3\n      0xffffffff\n      and\n      0xe0\n      shl\n      dup2\n      mstore\n      0x04\n      add\n      tag_12\n      swap2\n      swap1\n      tag_13\n      jump\t// in\n    tag_12:\n      0x00\n      mload(0x40)\n      dup1\n      dup4\n      sub\n      dup2\n      dup7\n      dup1\n      extcodesize\n      iszero\n      dup1\n      iszero\n      tag_14\n      jumpi\n      0x00\n      dup1\n      revert\n    tag_14:\n      pop\n      gas\n      staticcall\n      iszero\n      dup1\n      iszero\n      tag_16\n      jumpi\n      returndatasize\n      0x00\n      dup1\n      returndatacopy\n      revert(0x00, returndatasize)\n    tag_16:\n      pop\n      pop\n      pop\n      pop\n        /* \"Abstract.sol\":673:729  function call() public view {... */\n      jump\t// out\n        /* \"#utility.yul\":7:133   */\n    tag_17:\n        /* \"#utility.yul\":44:51   */\n      0x00\n        /* \"#utility.yul\":84:126   */\n      0xffffffffffffffffffffffffffffffffffffffff\n        /* \"#utility.yul\":77:82   */\n      dup3\n        /* \"#utility.yul\":73:127   */\n      and\n        /* \"#utility.yul\":62:127   */\n      swap1\n      pop\n        /* \"#utility.yul\":7:133   */\n      swap2\n      swap1\n      pop\n      jump\t// out\n        /* \"#utility.yul\":139:199   */\n    tag_18:\n        /* \"#utility.yul\":167:170   */\n      0x00\n        /* \"#utility.yul\":188:193   */\n      dup2\n        /* \"#utility.yul\":181:193   */\n      swap1\n      pop\n        /* \"#utility.yul\":139:199   */\n      swap2\n      swap1\n      pop\n      jump\t// out\n        /* \"#utility.yul\":205:347   */\n    tag_19:\n        /* \"#utility.yul\":255:264   */\n      0x00\n        /* \"#utility.yul\":288:341   */\n      tag_31\n        /* \"#utility.yul\":306:340   */\n      tag_32\n        /* \"#utility.yul\":315:339   */\n      tag_33\n        /* \"#utility.yul\":333:338   */\n      dup5\n        /* \"#utility.yul\":315:339   */\n      tag_17\n      jump\t// in\n    tag_33:\n        /* \"#utility.yul\":306:340   */\n      tag_18\n      jump\t// in\n    tag_32:\n        /* \"#utility.yul\":288:341   */\n      tag_17\n      jump\t// in\n    tag_31:\n        /* \"#utility.yul\":275:341   */\n      swap1\n      pop\n        /* \"#utility.yul\":205:347   */\n      swap2\n      swap1\n      pop\n      jump\t// out\n        /* \"#utility.yul\":353:479   */\n    tag_20:\n        /* \"#utility.yul\":403:412   */\n      0x00\n        /* \"#utility.yul\":436:473   */\n      tag_35\n        /* \"#utility.yul\":467:472   */\n      dup3\n        /* \"#utility.yul\":436:473   */\n      tag_19\n      jump\t// in\n    tag_35:\n        /* \"#utility.yul\":423:473   */\n      swap1\n      pop\n        /* \"#utility.yul\":353:479   */\n      swap2\n      swap1\n      pop\n      jump\t// out\n        /* \"#utility.yul\":485:622   */\n    tag_21:\n        /* \"#utility.yul\":546:555   */\n      0x00\n        /* \"#utility.yul\":579:616   */\n      tag_37\n        /* \"#utility.yul\":610:615   */\n      dup3\n        /* \"#utility.yul\":579:616   */\n      tag_20\n      jump\t// in\n    tag_37:\n        /* \"#utility.yul\":566:616   */\n      swap1\n      pop\n        /* \"#utility.yul\":485:622   */\n      swap2\n      swap1\n      pop\n      jump\t// out\n        /* \"#utility.yul\":628:781   */\n    tag_22:\n        /* \"#utility.yul\":726:774   */\n      tag_39\n        /* \"#utility.yul\":768:773   */\n      dup2\n        /* \"#utility.yul\":726:774   */\n      tag_21\n      jump\t// in\n    tag_39:\n        /* \"#utility.yul\":721:724   */\n      dup3\n        /* \"#utility.yul\":714:775   */\n      mstore\n        /* \"#utility.yul\":628:781   */\n      pop\n      pop\n      jump\t// out\n        /* \"#utility.yul\":787:1031   */\n    tag_8:\n        /* \"#utility.yul\":891:895   */\n      0x00\n        /* \"#utility.yul\":929:931   */\n      0x20\n        /* \"#utility.yul\":918:927   */\n      dup3\n        /* \"#utility.yul\":914:932   */\n      add\n        /* \"#utility.yul\":906:932   */\n      swap1\n      pop\n        /* \"#utility.yul\":942:1024   */\n      tag_41\n        /* \"#utility.yul\":1021:1022   */\n      0x00\n        /* \"#utility.yul\":1010:1019   */\n      dup4\n        /* \"#utility.yul\":1006:1023   */\n      add\n        /* \"#utility.yul\":997:1003   */\n      dup5\n        /* \"#utility.yul\":942:1024   */\n      tag_22\n      jump\t// in\n    tag_41:\n        /* \"#utility.yul\":787:1031   */\n      swap3\n      swap2\n      pop\n      pop\n      jump\t// out\n        /* \"#utility.yul\":1037:1122   */\n    tag_23:\n        /* \"#utility.yul\":1082:1089   */\n      0x00\n        /* \"#utility.yul\":1111:1116   */\n      dup2\n        /* \"#utility.yul\":1100:1116   */\n      swap1\n      pop\n        /* \"#utility.yul\":1037:1122   */\n      swap2\n      swap1\n      pop\n      jump\t// out\n        /* \"#utility.yul\":1128:1205   */\n    tag_24:\n        /* \"#utility.yul\":1165:1172   */\n      0x00\n        /* \"#utility.yul\":1194:1199   */\n      dup2\n        /* \"#utility.yul\":1183:1199   */\n      swap1\n      pop\n        /* \"#utility.yul\":1128:1205   */\n      swap2\n      swap1\n      pop\n      jump\t// out\n        /* \"#utility.yul\":1211:1369   */\n    tag_25:\n        /* \"#utility.yul\":1269:1278   */\n      0x00\n        /* \"#utility.yul\":1302:1363   */\n      tag_45\n        /* \"#utility.yul\":1320:1362   */\n      tag_46\n        /* \"#utility.yul\":1329:1361   */\n      tag_47\n        /* \"#utility.yul\":1355:1360   */\n      dup5\n        /* \"#utility.yul\":1329:1361   */\n      tag_23\n      jump\t// in\n    tag_47:\n        /* \"#utility.yul\":1320:1362   */\n      tag_18\n      jump\t// in\n    tag_46:\n        /* \"#utility.yul\":1302:1363   */\n      tag_24\n      jump\t// in\n    tag_45:\n        /* \"#utility.yul\":1289:1363   */\n      swap1\n      pop\n        /* \"#utility.yul\":1211:1369   */\n      swap2\n      swap1\n      pop\n      jump\t// out\n        /* \"#utility.yul\":1375:1522   */\n    tag_26:\n        /* \"#utility.yul\":1470:1515   */\n      tag_49\n        /* \"#utility.yul\":1509:1514   */\n      dup2\n        /* \"#utility.yul\":1470:1515   */\n      tag_25\n      jump\t// in\n    tag_49:\n        /* \"#utility.yul\":1465:1468   */\n      dup3\n        /* \"#utility.yul\":1458:1516   */\n      mstore\n        /* \"#utility.yul\":1375:1522   */\n      pop\n      pop\n      jump\t// out\n        /* \"#utility.yul\":1528:1766   */\n    tag_13:\n        /* \"#utility.yul\":1629:1633   */\n      0x00\n        /* \"#utility.yul\":1667:1669   */\n      0x20\n        /* \"#utility.yul\":1656:1665   */\n      dup3\n        /* \"#utility.yul\":1652:1670   */\n      add\n        /* \"#utility.yul\":1644:1670   */\n      swap1\n      pop\n        /* \"#utility.yul\":1680:1759   */\n      tag_51\n        /* \"#utility.yul\":1756:1757   */\n      0x00\n        /* \"#utility.yul\":1745:1754   */\n      dup4\n        /* \"#utility.yul\":1741:1758   */\n      add\n        /* \"#utility.yul\":1732:1738   */\n      dup5\n        /* \"#utility.yul\":1680:1759   */\n      tag_26\n      jump\t// in\n    tag_51:\n        /* \"#utility.yul\":1528:1766   */\n      swap3\n      swap2\n      pop\n      pop\n      jump\t// out\n\n    auxdata: 0xa26469706673582212209c283b60ccc1ddaa0d9ea31b2d4418fa26f27706fae7b1087c1467340317b65e64736f6c63430008190033\n}\n\nsub_1: assembly {\n        /* \"Abstract.sol\":477:566  contract Use1 is Ab1 {... */\n      mstore(0x40, 0x80)\n      callvalue\n      dup1\n      iszero\n      tag_1\n      jumpi\n      0x00\n      dup1\n      revert\n    tag_1:\n      pop\n      dataSize(sub_0)\n      dup1\n      dataOffset(sub_0)\n      0x00\n      codecopy\n      0x00\n      return\n    stop\n\n    sub_0: assembly {\n            /* \"Abstract.sol\":477:566  contract Use1 is Ab1 {... */\n          mstore(0x40, 0x80)\n          callvalue\n          dup1\n          iszero\n          tag_1\n          jumpi\n          0x00\n          dup1\n          revert\n        tag_1:\n          pop\n          jumpi(tag_2, lt(calldatasize, 0x04))\n          shr(0xe0, calldataload(0x00))\n          dup1\n          0x60b7aea0\n          eq\n          tag_3\n          jumpi\n          dup1\n          0x9e8c1712\n          eq\n          tag_4\n          jumpi\n        tag_2:\n          0x00\n          dup1\n          revert\n            /* \"Abstract.sol\":504:564  function do1(uint n) public pure override {... */\n        tag_3:\n          tag_5\n          0x04\n          dup1\n          calldatasize\n          sub\n          dup2\n          add\n          swap1\n          tag_6\n          swap2\n          swap1\n          tag_7\n          jump\t// in\n        tag_6:\n          tag_8\n          jump\t// in\n        tag_5:\n          stop\n            /* \"Abstract.sol\":407:457  function do2(uint n) public pure{... */\n        tag_4:\n          tag_9\n          0x04\n          dup1\n          calldatasize\n          sub\n          dup2\n          add\n          swap1\n          tag_10\n          swap2\n          swap1\n          tag_7\n          jump\t// in\n        tag_10:\n          tag_11\n          jump\t// in\n        tag_9:\n          stop\n            /* \"Abstract.sol\":504:564  function do1(uint n) public pure override {... */\n        tag_8:\n          pop\n          jump\t// out\n            /* \"Abstract.sol\":407:457  function do2(uint n) public pure{... */\n        tag_11:\n          pop\n          jump\t// out\n            /* \"#utility.yul\":88:205   */\n        tag_15:\n            /* \"#utility.yul\":197:198   */\n          0x00\n            /* \"#utility.yul\":194:195   */\n          dup1\n            /* \"#utility.yul\":187:199   */\n          revert\n            /* \"#utility.yul\":334:411   */\n        tag_17:\n            /* \"#utility.yul\":371:378   */\n          0x00\n            /* \"#utility.yul\":400:405   */\n          dup2\n            /* \"#utility.yul\":389:405   */\n          swap1\n          pop\n            /* \"#utility.yul\":334:411   */\n          swap2\n          swap1\n          pop\n          jump\t// out\n            /* \"#utility.yul\":417:539   */\n        tag_18:\n            /* \"#utility.yul\":490:514   */\n          tag_26\n            /* \"#utility.yul\":508:513   */\n          dup2\n            /* \"#utility.yul\":490:514   */\n          tag_17\n          jump\t// in\n        tag_26:\n            /* \"#utility.yul\":483:488   */\n          dup2\n            /* \"#utility.yul\":480:515   */\n          eq\n            /* \"#utility.yul\":470:533   */\n          tag_27\n          jumpi\n            /* \"#utility.yul\":529:530   */\n          0x00\n            /* \"#utility.yul\":526:527   */\n          dup1\n            /* \"#utility.yul\":519:531   */\n          revert\n            /* \"#utility.yul\":470:533   */\n        tag_27:\n            /* \"#utility.yul\":417:539   */\n          pop\n          jump\t// out\n            /* \"#utility.yul\":545:684   */\n        tag_19:\n            /* \"#utility.yul\":591:596   */\n          0x00\n            /* \"#utility.yul\":629:635   */\n          dup2\n            /* \"#utility.yul\":616:636   */\n          calldataload\n            /* \"#utility.yul\":607:636   */\n          swap1\n          pop\n            /* \"#utility.yul\":645:678   */\n          tag_29\n            /* \"#utility.yul\":672:677   */\n          dup2\n            /* \"#utility.yul\":645:678   */\n          tag_18\n          jump\t// in\n        tag_29:\n            /* \"#utility.yul\":545:684   */\n          swap3\n          swap2\n          pop\n          pop\n          jump\t// out\n            /* \"#utility.yul\":690:1019   */\n        tag_7:\n            /* \"#utility.yul\":749:755   */\n          0x00\n            /* \"#utility.yul\":798:800   */\n          0x20\n            /* \"#utility.yul\":786:795   */\n          dup3\n            /* \"#utility.yul\":777:784   */\n          dup5\n            /* \"#utility.yul\":773:796   */\n          sub\n            /* \"#utility.yul\":769:801   */\n          slt\n            /* \"#utility.yul\":766:885   */\n          iszero\n          tag_31\n          jumpi\n            /* \"#utility.yul\":804:883   */\n          tag_32\n          tag_15\n          jump\t// in\n        tag_32:\n            /* \"#utility.yul\":766:885   */\n        tag_31:\n            /* \"#utility.yul\":924:925   */\n          0x00\n            /* \"#utility.yul\":949:1002   */\n          tag_33\n            /* \"#utility.yul\":994:1001   */\n          dup5\n            /* \"#utility.yul\":985:991   */\n          dup3\n            /* \"#utility.yul\":974:983   */\n          dup6\n            /* \"#utility.yul\":970:992   */\n          add\n            /* \"#utility.yul\":949:1002   */\n          tag_19\n          jump\t// in\n        tag_33:\n            /* \"#utility.yul\":939:1002   */\n          swap2\n          pop\n            /* \"#utility.yul\":895:1012   */\n          pop\n            /* \"#utility.yul\":690:1019   */\n          swap3\n          swap2\n          pop\n          pop\n          jump\t// out\n\n        auxdata: 0xa26469706673582212201f5e221293d42c0b6fba91844fd215f7a61ab567dbcc3cd2cb50f5456a4e655b64736f6c63430008190033\n    }\n}\n",
				"bytecode": {
					"linkReferences": {},
					"object": "6080604052348015600e575f80fd5b506040516019906074565b604051809103905ff0801580156031573d5f803e3d5ffd5b505f806101000a81548173ffffffffffffffffffffffffffffffffffffffff021916908373ffffffffffffffffffffffffffffffffffffffff1602179055506081565b610113806102bc83390190565b61022e8061008e5f395ff3fe608060405234801561000f575f80fd5b5060043610610034575f3560e01c80632181692b1461003857806328b5e32b14610056575b5f80fd5b610040610060565b60405161004d9190610184565b60405180910390f35b61005e610083565b005b5f8054906101000a900473ffffffffffffffffffffffffffffffffffffffff1681565b5f8054906101000a900473ffffffffffffffffffffffffffffffffffffffff1673ffffffffffffffffffffffffffffffffffffffff166360b7aea060016040518263ffffffff1660e01b81526004016100dc91906101df565b5f6040518083038186803b1580156100f2575f80fd5b505afa158015610104573d5f803e3d5ffd5b50505050565b5f73ffffffffffffffffffffffffffffffffffffffff82169050919050565b5f819050919050565b5f61014c6101476101428461010a565b610129565b61010a565b9050919050565b5f61015d82610132565b9050919050565b5f61016e82610153565b9050919050565b61017e81610164565b82525050565b5f6020820190506101975f830184610175565b92915050565b5f819050919050565b5f819050919050565b5f6101c96101c46101bf8461019d565b610129565b6101a6565b9050919050565b6101d9816101af565b82525050565b5f6020820190506101f25f8301846101d0565b9291505056fea26469706673582212209c283b60ccc1ddaa0d9ea31b2d4418fa26f27706fae7b1087c1467340317b65e64736f6c634300081900336080604052348015600e575f80fd5b5060f88061001b5f395ff3fe6080604052348015600e575f80fd5b50600436106030575f3560e01c806360b7aea01460345780639e8c171214604c575b5f80fd5b604a600480360381019060469190609c565b6064565b005b60626004803603810190605e9190609c565b6067565b005b50565b50565b5f80fd5b5f819050919050565b607e81606e565b81146087575f80fd5b50565b5f813590506096816077565b92915050565b5f6020828403121560ae5760ad606a565b5b5f60b984828501608a565b9150509291505056fea26469706673582212201f5e221293d42c0b6fba91844fd215f7a61ab567dbcc3cd2cb50f5456a4e655b64736f6c63430008190033",
					"opcodes": "PUSH1 0x80 PUSH1 0x40 MSTORE CALLVALUE DUP1 ISZERO PUSH1 0xE JUMPI PUSH0 DUP1 REVERT JUMPDEST POP PUSH1 0x40 MLOAD PUSH1 0x19 SWAP1 PUSH1 0x74 JUMP JUMPDEST PUSH1 0x40 MLOAD DUP1 SWAP2 SUB SWAP1 PUSH0 CREATE DUP1 ISZERO DUP1 ISZERO PUSH1 0x31 JUMPI RETURNDATASIZE PUSH0 DUP1 RETURNDATACOPY RETURNDATASIZE PUSH0 REVERT JUMPDEST POP PUSH0 DUP1 PUSH2 0x100 EXP DUP2 SLOAD DUP2 PUSH20 0xFFFFFFFFFFFFFFFFFFFFFFFFFFFFFFFFFFFFFFFF MUL NOT AND SWAP1 DUP4 PUSH20 0xFFFFFFFFFFFFFFFFFFFFFFFFFFFFFFFFFFFFFFFF AND MUL OR SWAP1 SSTORE POP PUSH1 0x81 JUMP JUMPDEST PUSH2 0x113 DUP1 PUSH2 0x2BC DUP4 CODECOPY ADD SWAP1 JUMP JUMPDEST PUSH2 0x22E DUP1 PUSH2 0x8E PUSH0 CODECOPY PUSH0 RETURN INVALID PUSH1 0x80 PUSH1 0x40 MSTORE CALLVALUE DUP1 ISZERO PUSH2 0xF JUMPI PUSH0 DUP1 REVERT JUMPDEST POP PUSH1 0x4 CALLDATASIZE LT PUSH2 0x34 JUMPI PUSH0 CALLDATALOAD PUSH1 0xE0 SHR DUP1 PUSH4 0x2181692B EQ PUSH2 0x38 JUMPI DUP1 PUSH4 0x28B5E32B EQ PUSH2 0x56 JUMPI JUMPDEST PUSH0 DUP1 REVERT JUMPDEST PUSH2 0x40 PUSH2 0x60 JUMP JUMPDEST PUSH1 0x40 MLOAD PUSH2 0x4D SWAP2 SWAP1 PUSH2 0x184 JUMP JUMPDEST PUSH1 0x40 MLOAD DUP1 SWAP2 SUB SWAP1 RETURN JUMPDEST PUSH2 0x5E PUSH2 0x83 JUMP JUMPDEST STOP JUMPDEST PUSH0 DUP1 SLOAD SWAP1 PUSH2 0x100 EXP SWAP1 DIV PUSH20 0xFFFFFFFFFFFFFFFFFFFFFFFFFFFFFFFFFFFFFFFF AND DUP2 JUMP JUMPDEST PUSH0 DUP1 SLOAD SWAP1 PUSH2 0x100 EXP SWAP1 DIV PUSH20 0xFFFFFFFFFFFFFFFFFFFFFFFFFFFFFFFFFFFFFFFF AND PUSH20 0xFFFFFFFFFFFFFFFFFFFFFFFFFFFFFFFFFFFFFFFF AND PUSH4 0x60B7AEA0 PUSH1 0x1 PUSH1 0x40 MLOAD DUP3 PUSH4 0xFFFFFFFF AND PUSH1 0xE0 SHL DUP2 MSTORE PUSH1 0x4 ADD PUSH2 0xDC SWAP2 SWAP1 PUSH2 0x1DF JUMP JUMPDEST PUSH0 PUSH1 0x40 MLOAD DUP1 DUP4 SUB DUP2 DUP7 DUP1 EXTCODESIZE ISZERO DUP1 ISZERO PUSH2 0xF2 JUMPI PUSH0 DUP1 REVERT JUMPDEST POP GAS STATICCALL ISZERO DUP1 ISZERO PUSH2 0x104 JUMPI RETURNDATASIZE PUSH0 DUP1 RETURNDATACOPY RETURNDATASIZE PUSH0 REVERT JUMPDEST POP POP POP POP JUMP JUMPDEST PUSH0 PUSH20 0xFFFFFFFFFFFFFFFFFFFFFFFFFFFFFFFFFFFFFFFF DUP3 AND SWAP1 POP SWAP2 SWAP1 POP JUMP JUMPDEST PUSH0 DUP2 SWAP1 POP SWAP2 SWAP1 POP JUMP JUMPDEST PUSH0 PUSH2 0x14C PUSH2 0x147 PUSH2 0x142 DUP5 PUSH2 0x10A JUMP JUMPDEST PUSH2 0x129 JUMP JUMPDEST PUSH2 0x10A JUMP JUMPDEST SWAP1 POP SWAP2 SWAP1 POP JUMP JUMPDEST PUSH0 PUSH2 0x15D DUP3 PUSH2 0x132 JUMP JUMPDEST SWAP1 POP SWAP2 SWAP1 POP JUMP JUMPDEST PUSH0 PUSH2 0x16E DUP3 PUSH2 0x153 JUMP JUMPDEST SWAP1 POP SWAP2 SWAP1 POP JUMP JUMPDEST PUSH2 0x17E DUP2 PUSH2 0x164 JUMP JUMPDEST DUP3 MSTORE POP POP JUMP JUMPDEST PUSH0 PUSH1 0x20 DUP3 ADD SWAP1 POP PUSH2 0x197 PUSH0 DUP4 ADD DUP5 PUSH2 0x175 JUMP JUMPDEST SWAP3 SWAP2 POP POP JUMP JUMPDEST PUSH0 DUP2 SWAP1 POP SWAP2 SWAP1 POP JUMP JUMPDEST PUSH0 DUP2 SWAP1 POP SWAP2 SWAP1 POP JUMP JUMPDEST PUSH0 PUSH2 0x1C9 PUSH2 0x1C4 PUSH2 0x1BF DUP5 PUSH2 0x19D JUMP JUMPDEST PUSH2 0x129 JUMP JUMPDEST PUSH2 0x1A6 JUMP JUMPDEST SWAP1 POP SWAP2 SWAP1 POP JUMP JUMPDEST PUSH2 0x1D9 DUP2 PUSH2 0x1AF JUMP JUMPDEST DUP3 MSTORE POP POP JUMP JUMPDEST PUSH0 PUSH1 0x20 DUP3 ADD SWAP1 POP PUSH2 0x1F2 PUSH0 DUP4 ADD DUP5 PUSH2 0x1D0 JUMP JUMPDEST SWAP3 SWAP2 POP POP JUMP INVALID LOG2 PUSH5 0x6970667358 0x22 SLT KECCAK256 SWAP13 0x28 EXTCODESIZE PUSH1 0xCC 0xC1 0xDD 0xAA 0xD SWAP15 LOG3 SHL 0x2D PREVRANDAO XOR STATICCALL 0x26 CALLCODE PUSH24 0x6FAE7B1087C1467340317B65E64736F6C63430008190033 PUSH1 0x80 PUSH1 0x40 MSTORE CALLVALUE DUP1 ISZERO PUSH1 0xE JUMPI PUSH0 DUP1 REVERT JUMPDEST POP PUSH1 0xF8 DUP1 PUSH2 0x1B PUSH0 CODECOPY PUSH0 RETURN INVALID PUSH1 0x80 PUSH1 0x40 MSTORE CALLVALUE DUP1 ISZERO PUSH1 0xE JUMPI PUSH0 DUP1 REVERT JUMPDEST POP PUSH1 0x4 CALLDATASIZE LT PUSH1 0x30 JUMPI PUSH0 CALLDATALOAD PUSH1 0xE0 SHR DUP1 PUSH4 0x60B7AEA0 EQ PUSH1 0x34 JUMPI DUP1 PUSH4 0x9E8C1712 EQ PUSH1 0x4C JUMPI JUMPDEST PUSH0 DUP1 REVERT JUMPDEST PUSH1 0x4A PUSH1 0x4 DUP1 CALLDATASIZE SUB DUP2 ADD SWAP1 PUSH1 0x46 SWAP2 SWAP1 PUSH1 0x9C JUMP JUMPDEST PUSH1 0x64 JUMP JUMPDEST STOP JUMPDEST PUSH1 0x62 PUSH1 0x4 DUP1 CALLDATASIZE SUB DUP2 ADD SWAP1 PUSH1 0x5E SWAP2 SWAP1 PUSH1 0x9C JUMP JUMPDEST PUSH1 0x67 JUMP JUMPDEST STOP JUMPDEST POP JUMP JUMPDEST POP JUMP JUMPDEST PUSH0 DUP1 REVERT JUMPDEST PUSH0 DUP2 SWAP1 POP SWAP2 SWAP1 POP JUMP JUMPDEST PUSH1 0x7E DUP2 PUSH1 0x6E JUMP JUMPDEST DUP2 EQ PUSH1 0x87 JUMPI PUSH0 DUP1 REVERT JUMPDEST POP JUMP JUMPDEST PUSH0 DUP2 CALLDATALOAD SWAP1 POP PUSH1 0x96 DUP2 PUSH1 0x77 JUMP JUMPDEST SWAP3 SWAP2 POP POP JUMP JUMPDEST PUSH0 PUSH1 0x20 DUP3 DUP5 SUB SLT ISZERO PUSH1 0xAE JUMPI PUSH1 0xAD PUSH1 0x6A JUMP JUMPDEST JUMPDEST PUSH0 PUSH1 0xB9 DUP5 DUP3 DUP6 ADD PUSH1 0x8A JUMP JUMPDEST SWAP2 POP POP SWAP3 SWAP2 POP POP JUMP INVALID LOG2 PUSH5 0x6970667358 0x22 SLT KECCAK256 0x1F MCOPY 0x22 SLT SWAP4 0xD4 0x2C SIGNEXTEND PUSH16 0xBA91844FD215F7A61AB567DBCC3CD2CB POP CREATE2 GASLIMIT PUSH11 0x4E655B64736F6C63430008 NOT STOP CALLER "
				},
				"gasEstimates": {
					"creation": {
						"codeDepositCost": "111600",
						"executionCost": "infinite",
						"totalCost": "infinite"
					},
					"external": {
						"call()": "infinite",
						"use1()": "infinite"
					}
				},
				"methodIdentifiers": {
					"call()": "28b5e32b",
					"use1()": "2181692b"
				}
			},
			"storageLayout": {
				"storage": [
					{
						"astId": 26,
						"contract": "Abstract.sol:MainContract",
						"label": "use1",
						"offset": 0,
						"slot": "0",
						"type": "t_contract(Use1)23"
					}
				],
				"types": {
					"t_contract(Use1)23": {
						"encoding": "inplace",
						"label": "contract Use1",
						"numberOfBytes": "20"
					}
				}
			},
			"userdoc": {
				"kind": "user",
				"methods": {},
				"version": 1
			}
		}
	}
}