{
	"TryCatch.sol": {
		"External": {
			"abi": [
				{
					"inputs": [
						{
							"internalType": "uint256",
							"name": "n",
							"type": "uint256"
						}
					],
					"stateMutability": "nonpayable",
					"type": "constructor"
				},
				{
					"inputs": [
						{
							"internalType": "uint256",
							"name": "n",
							"type": "uint256"
						}
					],
					"name": "even",
					"outputs": [
						{
							"internalType": "bool",
							"name": "success",
							"type": "bool"
						}
					],
					"stateMutability": "pure",
					"type": "function"
				}
			],
			"devdoc": {
				"kind": "dev",
				"methods": {},
				"version": 1
			},
			"evm": {
				"assembly": "    /* \"TryCatch.sol\":57:333  contract External {... */\n  mstore(0x40, 0x80)\n    /* \"TryCatch.sol\":81:180  constructor(uint n){... */\n  callvalue\n  dup1\n  iszero\n  tag_1\n  jumpi\n  0x00\n  dup1\n  revert\ntag_1:\n  pop\n  mload(0x40)\n  sub(codesize, bytecodeSize)\n  dup1\n  bytecodeSize\n  dup4\n  codecopy\n  dup2\n  dup2\n  add\n  0x40\n  mstore\n  dup2\n  add\n  swap1\n  tag_2\n  swap2\n  swap1\n  tag_3\n  jump\t// in\ntag_2:\n    /* \"TryCatch.sol\":123:124  0 */\n  0x00\n    /* \"TryCatch.sol\":118:119  n */\n  dup2\n    /* \"TryCatch.sol\":118:124  n != 0 */\n  sub\n    /* \"TryCatch.sol\":110:149  require(n != 0, unicode\"不能等于0\") */\n  tag_6\n  jumpi\n  mload(0x40)\n  0x08c379a000000000000000000000000000000000000000000000000000000000\n  dup2\n  mstore\n  0x04\n  add\n  tag_7\n  swap1\n  tag_8\n  jump\t// in\ntag_7:\n  mload(0x40)\n  dup1\n  swap2\n  sub\n  swap1\n  revert\ntag_6:\n    /* \"TryCatch.sol\":171:172  1 */\n  0x01\n    /* \"TryCatch.sol\":166:167  n */\n  dup2\n    /* \"TryCatch.sol\":166:172  n != 1 */\n  sub\n    /* \"TryCatch.sol\":159:173  assert(n != 1) */\n  tag_9\n  jumpi\n  tag_10\n  tag_11\n  jump\t// in\ntag_10:\ntag_9:\n    /* \"TryCatch.sol\":81:180  constructor(uint n){... */\n  pop\n    /* \"TryCatch.sol\":57:333  contract External {... */\n  jump(tag_12)\n    /* \"#utility.yul\":88:205   */\ntag_14:\n    /* \"#utility.yul\":197:198   */\n  0x00\n    /* \"#utility.yul\":194:195   */\n  dup1\n    /* \"#utility.yul\":187:199   */\n  revert\n    /* \"#utility.yul\":334:411   */\ntag_16:\n    /* \"#utility.yul\":371:378   */\n  0x00\n    /* \"#utility.yul\":400:405   */\n  dup2\n    /* \"#utility.yul\":389:405   */\n  swap1\n  pop\n    /* \"#utility.yul\":334:411   */\n  swap2\n  swap1\n  pop\n  jump\t// out\n    /* \"#utility.yul\":417:539   */\ntag_17:\n    /* \"#utility.yul\":490:514   */\n  tag_28\n    /* \"#utility.yul\":508:513   */\n  dup2\n    /* \"#utility.yul\":490:514   */\n  tag_16\n  jump\t// in\ntag_28:\n    /* \"#utility.yul\":483:488   */\n  dup2\n    /* \"#utility.yul\":480:515   */\n  eq\n    /* \"#utility.yul\":470:533   */\n  tag_29\n  jumpi\n    /* \"#utility.yul\":529:530   */\n  0x00\n    /* \"#utility.yul\":526:527   */\n  dup1\n    /* \"#utility.yul\":519:531   */\n  revert\n    /* \"#utility.yul\":470:533   */\ntag_29:\n    /* \"#utility.yul\":417:539   */\n  pop\n  jump\t// out\n    /* \"#utility.yul\":545:688   */\ntag_18:\n    /* \"#utility.yul\":602:607   */\n  0x00\n    /* \"#utility.yul\":633:639   */\n  dup2\n    /* \"#utility.yul\":627:640   */\n  mload\n    /* \"#utility.yul\":618:640   */\n  swap1\n  pop\n    /* \"#utility.yul\":649:682   */\n  tag_31\n    /* \"#utility.yul\":676:681   */\n  dup2\n    /* \"#utility.yul\":649:682   */\n  tag_17\n  jump\t// in\ntag_31:\n    /* \"#utility.yul\":545:688   */\n  swap3\n  swap2\n  pop\n  pop\n  jump\t// out\n    /* \"#utility.yul\":694:1045   */\ntag_3:\n    /* \"#utility.yul\":764:770   */\n  0x00\n    /* \"#utility.yul\":813:815   */\n  0x20\n    /* \"#utility.yul\":801:810   */\n  dup3\n    /* \"#utility.yul\":792:799   */\n  dup5\n    /* \"#utility.yul\":788:811   */\n  sub\n    /* \"#utility.yul\":784:816   */\n  slt\n    /* \"#utility.yul\":781:900   */\n  iszero\n  tag_33\n  jumpi\n    /* \"#utility.yul\":819:898   */\n  tag_34\n  tag_14\n  jump\t// in\ntag_34:\n    /* \"#utility.yul\":781:900   */\ntag_33:\n    /* \"#utility.yul\":939:940   */\n  0x00\n    /* \"#utility.yul\":964:1028   */\n  tag_35\n    /* \"#utility.yul\":1020:1027   */\n  dup5\n    /* \"#utility.yul\":1011:1017   */\n  dup3\n    /* \"#utility.yul\":1000:1009   */\n  dup6\n    /* \"#utility.yul\":996:1018   */\n  add\n    /* \"#utility.yul\":964:1028   */\n  tag_18\n  jump\t// in\ntag_35:\n    /* \"#utility.yul\":954:1028   */\n  swap2\n  pop\n    /* \"#utility.yul\":910:1038   */\n  pop\n    /* \"#utility.yul\":694:1045   */\n  swap3\n  swap2\n  pop\n  pop\n  jump\t// out\n    /* \"#utility.yul\":1051:1220   */\ntag_19:\n    /* \"#utility.yul\":1135:1146   */\n  0x00\n    /* \"#utility.yul\":1169:1175   */\n  dup3\n    /* \"#utility.yul\":1164:1167   */\n  dup3\n    /* \"#utility.yul\":1157:1176   */\n  mstore\n    /* \"#utility.yul\":1209:1213   */\n  0x20\n    /* \"#utility.yul\":1204:1207   */\n  dup3\n    /* \"#utility.yul\":1200:1214   */\n  add\n    /* \"#utility.yul\":1185:1214   */\n  swap1\n  pop\n    /* \"#utility.yul\":1051:1220   */\n  swap3\n  swap2\n  pop\n  pop\n  jump\t// out\n    /* \"#utility.yul\":1226:1440   */\ntag_20:\n    /* \"#utility.yul\":1366:1432   */\n  0xe4b88de883bde7ad89e4ba8e3000000000000000000000000000000000000000\n    /* \"#utility.yul\":1362:1363   */\n  0x00\n    /* \"#utility.yul\":1354:1360   */\n  dup3\n    /* \"#utility.yul\":1350:1364   */\n  add\n    /* \"#utility.yul\":1343:1433   */\n  mstore\n    /* \"#utility.yul\":1226:1440   */\n  pop\n  jump\t// out\n    /* \"#utility.yul\":1446:1812   */\ntag_21:\n    /* \"#utility.yul\":1588:1591   */\n  0x00\n    /* \"#utility.yul\":1609:1676   */\n  tag_39\n    /* \"#utility.yul\":1673:1675   */\n  0x0d\n    /* \"#utility.yul\":1668:1671   */\n  dup4\n    /* \"#utility.yul\":1609:1676   */\n  tag_19\n  jump\t// in\ntag_39:\n    /* \"#utility.yul\":1602:1676   */\n  swap2\n  pop\n    /* \"#utility.yul\":1685:1778   */\n  tag_40\n    /* \"#utility.yul\":1774:1777   */\n  dup3\n    /* \"#utility.yul\":1685:1778   */\n  tag_20\n  jump\t// in\ntag_40:\n    /* \"#utility.yul\":1803:1805   */\n  0x20\n    /* \"#utility.yul\":1798:1801   */\n  dup3\n    /* \"#utility.yul\":1794:1806   */\n  add\n    /* \"#utility.yul\":1787:1806   */\n  swap1\n  pop\n    /* \"#utility.yul\":1446:1812   */\n  swap2\n  swap1\n  pop\n  jump\t// out\n    /* \"#utility.yul\":1818:2237   */\ntag_8:\n    /* \"#utility.yul\":1984:1988   */\n  0x00\n    /* \"#utility.yul\":2022:2024   */\n  0x20\n    /* \"#utility.yul\":2011:2020   */\n  dup3\n    /* \"#utility.yul\":2007:2025   */\n  add\n    /* \"#utility.yul\":1999:2025   */\n  swap1\n  pop\n    /* \"#utility.yul\":2071:2080   */\n  dup2\n    /* \"#utility.yul\":2065:2069   */\n  dup2\n    /* \"#utility.yul\":2061:2081   */\n  sub\n    /* \"#utility.yul\":2057:2058   */\n  0x00\n    /* \"#utility.yul\":2046:2055   */\n  dup4\n    /* \"#utility.yul\":2042:2059   */\n  add\n    /* \"#utility.yul\":2035:2082   */\n  mstore\n    /* \"#utility.yul\":2099:2230   */\n  tag_42\n    /* \"#utility.yul\":2225:2229   */\n  dup2\n    /* \"#utility.yul\":2099:2230   */\n  tag_21\n  jump\t// in\ntag_42:\n    /* \"#utility.yul\":2091:2230   */\n  swap1\n  pop\n    /* \"#utility.yul\":1818:2237   */\n  swap2\n  swap1\n  pop\n  jump\t// out\n    /* \"#utility.yul\":2243:2423   */\ntag_11:\n    /* \"#utility.yul\":2291:2368   */\n  0x4e487b7100000000000000000000000000000000000000000000000000000000\n    /* \"#utility.yul\":2288:2289   */\n  0x00\n    /* \"#utility.yul\":2281:2369   */\n  mstore\n    /* \"#utility.yul\":2388:2392   */\n  0x01\n    /* \"#utility.yul\":2385:2386   */\n  0x04\n    /* \"#utility.yul\":2378:2393   */\n  mstore\n    /* \"#utility.yul\":2412:2416   */\n  0x24\n    /* \"#utility.yul\":2409:2410   */\n  0x00\n    /* \"#utility.yul\":2402:2417   */\n  revert\n    /* \"TryCatch.sol\":57:333  contract External {... */\ntag_12:\n  dataSize(sub_0)\n  dup1\n  dataOffset(sub_0)\n  0x00\n  codecopy\n  0x00\n  return\nstop\n\nsub_0: assembly {\n        /* \"TryCatch.sol\":57:333  contract External {... */\n      mstore(0x40, 0x80)\n      callvalue\n      dup1\n      iszero\n      tag_1\n      jumpi\n      0x00\n      dup1\n      revert\n    tag_1:\n      pop\n      jumpi(tag_2, lt(calldatasize, 0x04))\n      shr(0xe0, calldataload(0x00))\n      dup1\n      0x9aef81fe\n      eq\n      tag_3\n      jumpi\n    tag_2:\n      0x00\n      dup1\n      revert\n        /* \"TryCatch.sol\":186:331  function even(uint256 n) external pure returns(bool success){... */\n    tag_3:\n      tag_4\n      0x04\n      dup1\n      calldatasize\n      sub\n      dup2\n      add\n      swap1\n      tag_5\n      swap2\n      swap1\n      tag_6\n      jump\t// in\n    tag_5:\n      tag_7\n      jump\t// in\n    tag_4:\n      mload(0x40)\n      tag_8\n      swap2\n      swap1\n      tag_9\n      jump\t// in\n    tag_8:\n      mload(0x40)\n      dup1\n      swap2\n      sub\n      swap1\n      return\n    tag_7:\n        /* \"TryCatch.sol\":233:245  bool success */\n      0x00\n        /* \"TryCatch.sol\":273:274  0 */\n      dup1\n        /* \"TryCatch.sol\":268:269  2 */\n      0x02\n        /* \"TryCatch.sol\":264:265  n */\n      dup4\n        /* \"TryCatch.sol\":264:269  n % 2 */\n      tag_11\n      swap2\n      swap1\n      tag_12\n      jump\t// in\n    tag_11:\n        /* \"TryCatch.sol\":264:274  n % 2 == 0 */\n      eq\n        /* \"TryCatch.sol\":256:300  require(n % 2 == 0, unicode\"n 不是偶数\") */\n      tag_13\n      jumpi\n      mload(0x40)\n      0x08c379a000000000000000000000000000000000000000000000000000000000\n      dup2\n      mstore\n      0x04\n      add\n      tag_14\n      swap1\n      tag_15\n      jump\t// in\n    tag_14:\n      mload(0x40)\n      dup1\n      swap2\n      sub\n      swap1\n      revert\n    tag_13:\n        /* \"TryCatch.sol\":320:324  true */\n      0x01\n        /* \"TryCatch.sol\":310:324  success = true */\n      swap1\n      pop\n        /* \"TryCatch.sol\":186:331  function even(uint256 n) external pure returns(bool success){... */\n      swap2\n      swap1\n      pop\n      jump\t// out\n        /* \"#utility.yul\":88:205   */\n    tag_17:\n        /* \"#utility.yul\":197:198   */\n      0x00\n        /* \"#utility.yul\":194:195   */\n      dup1\n        /* \"#utility.yul\":187:199   */\n      revert\n        /* \"#utility.yul\":334:411   */\n    tag_19:\n        /* \"#utility.yul\":371:378   */\n      0x00\n        /* \"#utility.yul\":400:405   */\n      dup2\n        /* \"#utility.yul\":389:405   */\n      swap1\n      pop\n        /* \"#utility.yul\":334:411   */\n      swap2\n      swap1\n      pop\n      jump\t// out\n        /* \"#utility.yul\":417:539   */\n    tag_20:\n        /* \"#utility.yul\":490:514   */\n      tag_34\n        /* \"#utility.yul\":508:513   */\n      dup2\n        /* \"#utility.yul\":490:514   */\n      tag_19\n      jump\t// in\n    tag_34:\n        /* \"#utility.yul\":483:488   */\n      dup2\n        /* \"#utility.yul\":480:515   */\n      eq\n        /* \"#utility.yul\":470:533   */\n      tag_35\n      jumpi\n        /* \"#utility.yul\":529:530   */\n      0x00\n        /* \"#utility.yul\":526:527   */\n      dup1\n        /* \"#utility.yul\":519:531   */\n      revert\n        /* \"#utility.yul\":470:533   */\n    tag_35:\n        /* \"#utility.yul\":417:539   */\n      pop\n      jump\t// out\n        /* \"#utility.yul\":545:684   */\n    tag_21:\n        /* \"#utility.yul\":591:596   */\n      0x00\n        /* \"#utility.yul\":629:635   */\n      dup2\n        /* \"#utility.yul\":616:636   */\n      calldataload\n        /* \"#utility.yul\":607:636   */\n      swap1\n      pop\n        /* \"#utility.yul\":645:678   */\n      tag_37\n        /* \"#utility.yul\":672:677   */\n      dup2\n        /* \"#utility.yul\":645:678   */\n      tag_20\n      jump\t// in\n    tag_37:\n        /* \"#utility.yul\":545:684   */\n      swap3\n      swap2\n      pop\n      pop\n      jump\t// out\n        /* \"#utility.yul\":690:1019   */\n    tag_6:\n        /* \"#utility.yul\":749:755   */\n      0x00\n        /* \"#utility.yul\":798:800   */\n      0x20\n        /* \"#utility.yul\":786:795   */\n      dup3\n        /* \"#utility.yul\":777:784   */\n      dup5\n        /* \"#utility.yul\":773:796   */\n      sub\n        /* \"#utility.yul\":769:801   */\n      slt\n        /* \"#utility.yul\":766:885   */\n      iszero\n      tag_39\n      jumpi\n        /* \"#utility.yul\":804:883   */\n      tag_40\n      tag_17\n      jump\t// in\n    tag_40:\n        /* \"#utility.yul\":766:885   */\n    tag_39:\n        /* \"#utility.yul\":924:925   */\n      0x00\n        /* \"#utility.yul\":949:1002   */\n      tag_41\n        /* \"#utility.yul\":994:1001   */\n      dup5\n        /* \"#utility.yul\":985:991   */\n      dup3\n        /* \"#utility.yul\":974:983   */\n      dup6\n        /* \"#utility.yul\":970:992   */\n      add\n        /* \"#utility.yul\":949:1002   */\n      tag_21\n      jump\t// in\n    tag_41:\n        /* \"#utility.yul\":939:1002   */\n      swap2\n      pop\n        /* \"#utility.yul\":895:1012   */\n      pop\n        /* \"#utility.yul\":690:1019   */\n      swap3\n      swap2\n      pop\n      pop\n      jump\t// out\n        /* \"#utility.yul\":1025:1115   */\n    tag_22:\n        /* \"#utility.yul\":1059:1066   */\n      0x00\n        /* \"#utility.yul\":1102:1107   */\n      dup2\n        /* \"#utility.yul\":1095:1108   */\n      iszero\n        /* \"#utility.yul\":1088:1109   */\n      iszero\n        /* \"#utility.yul\":1077:1109   */\n      swap1\n      pop\n        /* \"#utility.yul\":1025:1115   */\n      swap2\n      swap1\n      pop\n      jump\t// out\n        /* \"#utility.yul\":1121:1230   */\n    tag_23:\n        /* \"#utility.yul\":1202:1223   */\n      tag_44\n        /* \"#utility.yul\":1217:1222   */\n      dup2\n        /* \"#utility.yul\":1202:1223   */\n      tag_22\n      jump\t// in\n    tag_44:\n        /* \"#utility.yul\":1197:1200   */\n      dup3\n        /* \"#utility.yul\":1190:1224   */\n      mstore\n        /* \"#utility.yul\":1121:1230   */\n      pop\n      pop\n      jump\t// out\n        /* \"#utility.yul\":1236:1446   */\n    tag_9:\n        /* \"#utility.yul\":1323:1327   */\n      0x00\n        /* \"#utility.yul\":1361:1363   */\n      0x20\n        /* \"#utility.yul\":1350:1359   */\n      dup3\n        /* \"#utility.yul\":1346:1364   */\n      add\n        /* \"#utility.yul\":1338:1364   */\n      swap1\n      pop\n        /* \"#utility.yul\":1374:1439   */\n      tag_46\n        /* \"#utility.yul\":1436:1437   */\n      0x00\n        /* \"#utility.yul\":1425:1434   */\n      dup4\n        /* \"#utility.yul\":1421:1438   */\n      add\n        /* \"#utility.yul\":1412:1418   */\n      dup5\n        /* \"#utility.yul\":1374:1439   */\n      tag_23\n      jump\t// in\n    tag_46:\n        /* \"#utility.yul\":1236:1446   */\n      swap3\n      swap2\n      pop\n      pop\n      jump\t// out\n        /* \"#utility.yul\":1452:1632   */\n    tag_24:\n        /* \"#utility.yul\":1500:1577   */\n      0x4e487b7100000000000000000000000000000000000000000000000000000000\n        /* \"#utility.yul\":1497:1498   */\n      0x00\n        /* \"#utility.yul\":1490:1578   */\n      mstore\n        /* \"#utility.yul\":1597:1601   */\n      0x12\n        /* \"#utility.yul\":1594:1595   */\n      0x04\n        /* \"#utility.yul\":1587:1602   */\n      mstore\n        /* \"#utility.yul\":1621:1625   */\n      0x24\n        /* \"#utility.yul\":1618:1619   */\n      0x00\n        /* \"#utility.yul\":1611:1626   */\n      revert\n        /* \"#utility.yul\":1638:1814   */\n    tag_12:\n        /* \"#utility.yul\":1670:1671   */\n      0x00\n        /* \"#utility.yul\":1687:1707   */\n      tag_49\n        /* \"#utility.yul\":1705:1706   */\n      dup3\n        /* \"#utility.yul\":1687:1707   */\n      tag_19\n      jump\t// in\n    tag_49:\n        /* \"#utility.yul\":1682:1707   */\n      swap2\n      pop\n        /* \"#utility.yul\":1721:1741   */\n      tag_50\n        /* \"#utility.yul\":1739:1740   */\n      dup4\n        /* \"#utility.yul\":1721:1741   */\n      tag_19\n      jump\t// in\n    tag_50:\n        /* \"#utility.yul\":1716:1741   */\n      swap3\n      pop\n        /* \"#utility.yul\":1760:1761   */\n      dup3\n        /* \"#utility.yul\":1750:1785   */\n      tag_51\n      jumpi\n        /* \"#utility.yul\":1765:1783   */\n      tag_52\n      tag_24\n      jump\t// in\n    tag_52:\n        /* \"#utility.yul\":1750:1785   */\n    tag_51:\n        /* \"#utility.yul\":1806:1807   */\n      dup3\n        /* \"#utility.yul\":1803:1804   */\n      dup3\n        /* \"#utility.yul\":1799:1808   */\n      mod\n        /* \"#utility.yul\":1794:1808   */\n      swap1\n      pop\n        /* \"#utility.yul\":1638:1814   */\n      swap3\n      swap2\n      pop\n      pop\n      jump\t// out\n        /* \"#utility.yul\":1820:1989   */\n    tag_25:\n        /* \"#utility.yul\":1904:1915   */\n      0x00\n        /* \"#utility.yul\":1938:1944   */\n      dup3\n        /* \"#utility.yul\":1933:1936   */\n      dup3\n        /* \"#utility.yul\":1926:1945   */\n      mstore\n        /* \"#utility.yul\":1978:1982   */\n      0x20\n        /* \"#utility.yul\":1973:1976   */\n      dup3\n        /* \"#utility.yul\":1969:1983   */\n      add\n        /* \"#utility.yul\":1954:1983   */\n      swap1\n      pop\n        /* \"#utility.yul\":1820:1989   */\n      swap3\n      swap2\n      pop\n      pop\n      jump\t// out\n        /* \"#utility.yul\":1995:2209   */\n    tag_26:\n        /* \"#utility.yul\":2135:2201   */\n      0x6e20e4b88de698afe581b6e695b0000000000000000000000000000000000000\n        /* \"#utility.yul\":2131:2132   */\n      0x00\n        /* \"#utility.yul\":2123:2129   */\n      dup3\n        /* \"#utility.yul\":2119:2133   */\n      add\n        /* \"#utility.yul\":2112:2202   */\n      mstore\n        /* \"#utility.yul\":1995:2209   */\n      pop\n      jump\t// out\n        /* \"#utility.yul\":2215:2581   */\n    tag_27:\n        /* \"#utility.yul\":2357:2360   */\n      0x00\n        /* \"#utility.yul\":2378:2445   */\n      tag_56\n        /* \"#utility.yul\":2442:2444   */\n      0x0e\n        /* \"#utility.yul\":2437:2440   */\n      dup4\n        /* \"#utility.yul\":2378:2445   */\n      tag_25\n      jump\t// in\n    tag_56:\n        /* \"#utility.yul\":2371:2445   */\n      swap2\n      pop\n        /* \"#utility.yul\":2454:2547   */\n      tag_57\n        /* \"#utility.yul\":2543:2546   */\n      dup3\n        /* \"#utility.yul\":2454:2547   */\n      tag_26\n      jump\t// in\n    tag_57:\n        /* \"#utility.yul\":2572:2574   */\n      0x20\n        /* \"#utility.yul\":2567:2570   */\n      dup3\n        /* \"#utility.yul\":2563:2575   */\n      add\n        /* \"#utility.yul\":2556:2575   */\n      swap1\n      pop\n        /* \"#utility.yul\":2215:2581   */\n      swap2\n      swap1\n      pop\n      jump\t// out\n        /* \"#utility.yul\":2587:3006   */\n    tag_15:\n        /* \"#utility.yul\":2753:2757   */\n      0x00\n        /* \"#utility.yul\":2791:2793   */\n      0x20\n        /* \"#utility.yul\":2780:2789   */\n      dup3\n        /* \"#utility.yul\":2776:2794   */\n      add\n        /* \"#utility.yul\":2768:2794   */\n      swap1\n      pop\n        /* \"#utility.yul\":2840:2849   */\n      dup2\n        /* \"#utility.yul\":2834:2838   */\n      dup2\n        /* \"#utility.yul\":2830:2850   */\n      sub\n        /* \"#utility.yul\":2826:2827   */\n      0x00\n        /* \"#utility.yul\":2815:2824   */\n      dup4\n        /* \"#utility.yul\":2811:2828   */\n      add\n        /* \"#utility.yul\":2804:2851   */\n      mstore\n        /* \"#utility.yul\":2868:2999   */\n      tag_59\n        /* \"#utility.yul\":2994:2998   */\n      dup2\n        /* \"#utility.yul\":2868:2999   */\n      tag_27\n      jump\t// in\n    tag_59:\n        /* \"#utility.yul\":2860:2999   */\n      swap1\n      pop\n        /* \"#utility.yul\":2587:3006   */\n      swap2\n      swap1\n      pop\n      jump\t// out\n\n    auxdata: 0xa2646970667358221220186844ae25af3e192ee6baefeb7d0c56719102df4fbb2253fffa0a0f66e7809764736f6c63430008190033\n}\n",
				"bytecode": {
					"linkReferences": {},
					"object": "608060405234801561000f575f80fd5b506040516103f33803806103f3833981810160405281019061003191906100c1565b5f8103610073576040517f08c379a000000000000000000000000000000000000000000000000000000000815260040161006a90610146565b60405180910390fd5b6001810361008457610083610164565b5b50610191565b5f80fd5b5f819050919050565b6100a08161008e565b81146100aa575f80fd5b50565b5f815190506100bb81610097565b92915050565b5f602082840312156100d6576100d561008a565b5b5f6100e3848285016100ad565b91505092915050565b5f82825260208201905092915050565b7fe4b88de883bde7ad89e4ba8e30000000000000000000000000000000000000005f82015250565b5f610130600d836100ec565b915061013b826100fc565b602082019050919050565b5f6020820190508181035f83015261015d81610124565b9050919050565b7f4e487b71000000000000000000000000000000000000000000000000000000005f52600160045260245ffd5b6102558061019e5f395ff3fe608060405234801561000f575f80fd5b5060043610610029575f3560e01c80639aef81fe1461002d575b5f80fd5b610047600480360381019061004291906100ec565b61005d565b6040516100549190610131565b60405180910390f35b5f8060028361006c9190610177565b146100ac576040517f08c379a00000000000000000000000000000000000000000000000000000000081526004016100a390610201565b60405180910390fd5b60019050919050565b5f80fd5b5f819050919050565b6100cb816100b9565b81146100d5575f80fd5b50565b5f813590506100e6816100c2565b92915050565b5f60208284031215610101576101006100b5565b5b5f61010e848285016100d8565b91505092915050565b5f8115159050919050565b61012b81610117565b82525050565b5f6020820190506101445f830184610122565b92915050565b7f4e487b71000000000000000000000000000000000000000000000000000000005f52601260045260245ffd5b5f610181826100b9565b915061018c836100b9565b92508261019c5761019b61014a565b5b828206905092915050565b5f82825260208201905092915050565b7f6e20e4b88de698afe581b6e695b00000000000000000000000000000000000005f82015250565b5f6101eb600e836101a7565b91506101f6826101b7565b602082019050919050565b5f6020820190508181035f830152610218816101df565b905091905056fea2646970667358221220186844ae25af3e192ee6baefeb7d0c56719102df4fbb2253fffa0a0f66e7809764736f6c63430008190033",
					"opcodes": "PUSH1 0x80 PUSH1 0x40 MSTORE CALLVALUE DUP1 ISZERO PUSH2 0xF JUMPI PUSH0 DUP1 REVERT JUMPDEST POP PUSH1 0x40 MLOAD PUSH2 0x3F3 CODESIZE SUB DUP1 PUSH2 0x3F3 DUP4 CODECOPY DUP2 DUP2 ADD PUSH1 0x40 MSTORE DUP2 ADD SWAP1 PUSH2 0x31 SWAP2 SWAP1 PUSH2 0xC1 JUMP JUMPDEST PUSH0 DUP2 SUB PUSH2 0x73 JUMPI PUSH1 0x40 MLOAD PUSH32 0x8C379A000000000000000000000000000000000000000000000000000000000 DUP2 MSTORE PUSH1 0x4 ADD PUSH2 0x6A SWAP1 PUSH2 0x146 JUMP JUMPDEST PUSH1 0x40 MLOAD DUP1 SWAP2 SUB SWAP1 REVERT JUMPDEST PUSH1 0x1 DUP2 SUB PUSH2 0x84 JUMPI PUSH2 0x83 PUSH2 0x164 JUMP JUMPDEST JUMPDEST POP PUSH2 0x191 JUMP JUMPDEST PUSH0 DUP1 REVERT JUMPDEST PUSH0 DUP2 SWAP1 POP SWAP2 SWAP1 POP JUMP JUMPDEST PUSH2 0xA0 DUP2 PUSH2 0x8E JUMP JUMPDEST DUP2 EQ PUSH2 0xAA JUMPI PUSH0 DUP1 REVERT JUMPDEST POP JUMP JUMPDEST PUSH0 DUP2 MLOAD SWAP1 POP PUSH2 0xBB DUP2 PUSH2 0x97 JUMP JUMPDEST SWAP3 SWAP2 POP POP JUMP JUMPDEST PUSH0 PUSH1 0x20 DUP3 DUP5 SUB SLT ISZERO PUSH2 0xD6 JUMPI PUSH2 0xD5 PUSH2 0x8A JUMP JUMPDEST JUMPDEST PUSH0 PUSH2 0xE3 DUP5 DUP3 DUP6 ADD PUSH2 0xAD JUMP JUMPDEST SWAP2 POP POP SWAP3 SWAP2 POP POP JUMP JUMPDEST PUSH0 DUP3 DUP3 MSTORE PUSH1 0x20 DUP3 ADD SWAP1 POP SWAP3 SWAP2 POP POP JUMP JUMPDEST PUSH32 0xE4B88DE883BDE7AD89E4BA8E3000000000000000000000000000000000000000 PUSH0 DUP3 ADD MSTORE POP JUMP JUMPDEST PUSH0 PUSH2 0x130 PUSH1 0xD DUP4 PUSH2 0xEC JUMP JUMPDEST SWAP2 POP PUSH2 0x13B DUP3 PUSH2 0xFC JUMP JUMPDEST PUSH1 0x20 DUP3 ADD SWAP1 POP SWAP2 SWAP1 POP JUMP JUMPDEST PUSH0 PUSH1 0x20 DUP3 ADD SWAP1 POP DUP2 DUP2 SUB PUSH0 DUP4 ADD MSTORE PUSH2 0x15D DUP2 PUSH2 0x124 JUMP JUMPDEST SWAP1 POP SWAP2 SWAP1 POP JUMP JUMPDEST PUSH32 0x4E487B7100000000000000000000000000000000000000000000000000000000 PUSH0 MSTORE PUSH1 0x1 PUSH1 0x4 MSTORE PUSH1 0x24 PUSH0 REVERT JUMPDEST PUSH2 0x255 DUP1 PUSH2 0x19E PUSH0 CODECOPY PUSH0 RETURN INVALID PUSH1 0x80 PUSH1 0x40 MSTORE CALLVALUE DUP1 ISZERO PUSH2 0xF JUMPI PUSH0 DUP1 REVERT JUMPDEST POP PUSH1 0x4 CALLDATASIZE LT PUSH2 0x29 JUMPI PUSH0 CALLDATALOAD PUSH1 0xE0 SHR DUP1 PUSH4 0x9AEF81FE EQ PUSH2 0x2D JUMPI JUMPDEST PUSH0 DUP1 REVERT JUMPDEST PUSH2 0x47 PUSH1 0x4 DUP1 CALLDATASIZE SUB DUP2 ADD SWAP1 PUSH2 0x42 SWAP2 SWAP1 PUSH2 0xEC JUMP JUMPDEST PUSH2 0x5D JUMP JUMPDEST PUSH1 0x40 MLOAD PUSH2 0x54 SWAP2 SWAP1 PUSH2 0x131 JUMP JUMPDEST PUSH1 0x40 MLOAD DUP1 SWAP2 SUB SWAP1 RETURN JUMPDEST PUSH0 DUP1 PUSH1 0x2 DUP4 PUSH2 0x6C SWAP2 SWAP1 PUSH2 0x177 JUMP JUMPDEST EQ PUSH2 0xAC JUMPI PUSH1 0x40 MLOAD PUSH32 0x8C379A000000000000000000000000000000000000000000000000000000000 DUP2 MSTORE PUSH1 0x4 ADD PUSH2 0xA3 SWAP1 PUSH2 0x201 JUMP JUMPDEST PUSH1 0x40 MLOAD DUP1 SWAP2 SUB SWAP1 REVERT JUMPDEST PUSH1 0x1 SWAP1 POP SWAP2 SWAP1 POP JUMP JUMPDEST PUSH0 DUP1 REVERT JUMPDEST PUSH0 DUP2 SWAP1 POP SWAP2 SWAP1 POP JUMP JUMPDEST PUSH2 0xCB DUP2 PUSH2 0xB9 JUMP JUMPDEST DUP2 EQ PUSH2 0xD5 JUMPI PUSH0 DUP1 REVERT JUMPDEST POP JUMP JUMPDEST PUSH0 DUP2 CALLDATALOAD SWAP1 POP PUSH2 0xE6 DUP2 PUSH2 0xC2 JUMP JUMPDEST SWAP3 SWAP2 POP POP JUMP JUMPDEST PUSH0 PUSH1 0x20 DUP3 DUP5 SUB SLT ISZERO PUSH2 0x101 JUMPI PUSH2 0x100 PUSH2 0xB5 JUMP JUMPDEST JUMPDEST PUSH0 PUSH2 0x10E DUP5 DUP3 DUP6 ADD PUSH2 0xD8 JUMP JUMPDEST SWAP2 POP POP SWAP3 SWAP2 POP POP JUMP JUMPDEST PUSH0 DUP2 ISZERO ISZERO SWAP1 POP SWAP2 SWAP1 POP JUMP JUMPDEST PUSH2 0x12B DUP2 PUSH2 0x117 JUMP JUMPDEST DUP3 MSTORE POP POP JUMP JUMPDEST PUSH0 PUSH1 0x20 DUP3 ADD SWAP1 POP PUSH2 0x144 PUSH0 DUP4 ADD DUP5 PUSH2 0x122 JUMP JUMPDEST SWAP3 SWAP2 POP POP JUMP JUMPDEST PUSH32 0x4E487B7100000000000000000000000000000000000000000000000000000000 PUSH0 MSTORE PUSH1 0x12 PUSH1 0x4 MSTORE PUSH1 0x24 PUSH0 REVERT JUMPDEST PUSH0 PUSH2 0x181 DUP3 PUSH2 0xB9 JUMP JUMPDEST SWAP2 POP PUSH2 0x18C DUP4 PUSH2 0xB9 JUMP JUMPDEST SWAP3 POP DUP3 PUSH2 0x19C JUMPI PUSH2 0x19B PUSH2 0x14A JUMP JUMPDEST JUMPDEST DUP3 DUP3 MOD SWAP1 POP SWAP3 SWAP2 POP POP JUMP JUMPDEST PUSH0 DUP3 DUP3 MSTORE PUSH1 0x20 DUP3 ADD SWAP1 POP SWAP3 SWAP2 POP POP JUMP JUMPDEST PUSH32 0x6E20E4B88DE698AFE581B6E695B0000000000000000000000000000000000000 PUSH0 DUP3 ADD MSTORE POP JUMP JUMPDEST PUSH0 PUSH2 0x1EB PUSH1 0xE DUP4 PUSH2 0x1A7 JUMP JUMPDEST SWAP2 POP PUSH2 0x1F6 DUP3 PUSH2 0x1B7 JUMP JUMPDEST PUSH1 0x20 DUP3 ADD SWAP1 POP SWAP2 SWAP1 POP JUMP JUMPDEST PUSH0 PUSH1 0x20 DUP3 ADD SWAP1 POP DUP2 DUP2 SUB PUSH0 DUP4 ADD MSTORE PUSH2 0x218 DUP2 PUSH2 0x1DF JUMP JUMPDEST SWAP1 POP SWAP2 SWAP1 POP JUMP INVALID LOG2 PUSH5 0x6970667358 0x22 SLT KECCAK256 XOR PUSH9 0x44AE25AF3E192EE6BA 0xEF 0xEB PUSH30 0xC56719102DF4FBB2253FFFA0A0F66E7809764736F6C6343000819003300 "
				},
				"gasEstimates": {
					"creation": {
						"codeDepositCost": "119400",
						"executionCost": "infinite",
						"totalCost": "infinite"
					},
					"external": {
						"even(uint256)": "infinite"
					}
				},
				"methodIdentifiers": {
					"even(uint256)": "9aef81fe"
				}
			},
			"storageLayout": {
				"storage": [],
				"types": null
			},
			"userdoc": {
				"kind": "user",
				"methods": {},
				"version": 1
			}
		}
	}
}