{
	"TryCatch.sol": {
		"TryCatch": {
			"abi": [
				{
					"inputs": [],
					"stateMutability": "nonpayable",
					"type": "constructor"
				},
				{
					"anonymous": false,
					"inputs": [
						{
							"indexed": false,
							"internalType": "bytes",
							"name": "data",
							"type": "bytes"
						}
					],
					"name": "CatchByte",
					"type": "event"
				},
				{
					"anonymous": false,
					"inputs": [
						{
							"indexed": false,
							"internalType": "string",
							"name": "msg",
							"type": "string"
						}
					],
					"name": "CatchEvent",
					"type": "event"
				},
				{
					"anonymous": false,
					"inputs": [],
					"name": "SuccessEvent",
					"type": "event"
				},
				{
					"inputs": [
						{
							"internalType": "uint256",
							"name": "x",
							"type": "uint256"
						}
					],
					"name": "try1",
					"outputs": [],
					"stateMutability": "nonpayable",
					"type": "function"
				},
				{
					"inputs": [
						{
							"internalType": "uint256",
							"name": "x",
							"type": "uint256"
						}
					],
					"name": "try2",
					"outputs": [],
					"stateMutability": "nonpayable",
					"type": "function"
				}
			],
			"devdoc": {
				"kind": "dev",
				"methods": {},
				"version": 1
			},
			"evm": {
				"assembly": "    /* \"TryCatch.sol\":335:1504  contract TryCatch {... */\n  mstore(0x40, 0x80)\n    /* \"TryCatch.sol\":471:521  constructor(){... */\n  callvalue\n  dup1\n  iszero\n  tag_1\n  jumpi\n  0x00\n  dup1\n  revert\ntag_1:\n  pop\n    /* \"TryCatch.sol\":512:513  2 */\n  0x02\n    /* \"TryCatch.sol\":499:514  new External(2) */\n  mload(0x40)\n  tag_4\n  swap1\n  tag_5\n  jump\t// in\ntag_4:\n  tag_6\n  swap2\n  swap1\n  tag_7\n  jump\t// in\ntag_6:\n  mload(0x40)\n  dup1\n  swap2\n  sub\n  swap1\n  0x00\n  create\n  dup1\n  iszero\n  dup1\n  iszero\n  tag_8\n  jumpi\n  returndatasize\n  0x00\n  dup1\n  returndatacopy\n  revert(0x00, returndatasize)\ntag_8:\n  pop\n    /* \"TryCatch.sol\":494:496  ec */\n  0x00\n  dup1\n    /* \"TryCatch.sol\":494:514  ec = new External(2) */\n  0x0100\n  exp\n  dup2\n  sload\n  dup2\n  0xffffffffffffffffffffffffffffffffffffffff\n  mul\n  not\n  and\n  swap1\n  dup4\n  0xffffffffffffffffffffffffffffffffffffffff\n  and\n  mul\n  or\n  swap1\n  sstore\n  pop\n    /* \"TryCatch.sol\":335:1504  contract TryCatch {... */\n  jump(tag_9)\ntag_5:\n  dataSize(sub_1)\n  dup1\n  dataOffset(sub_1)\n  dup4\n  codecopy\n  add\n  swap1\n  jump\t// out\n    /* \"#utility.yul\":7:92   */\ntag_10:\n    /* \"#utility.yul\":52:59   */\n  0x00\n    /* \"#utility.yul\":81:86   */\n  dup2\n    /* \"#utility.yul\":70:86   */\n  swap1\n  pop\n    /* \"#utility.yul\":7:92   */\n  swap2\n  swap1\n  pop\n  jump\t// out\n    /* \"#utility.yul\":98:175   */\ntag_11:\n    /* \"#utility.yul\":135:142   */\n  0x00\n    /* \"#utility.yul\":164:169   */\n  dup2\n    /* \"#utility.yul\":153:169   */\n  swap1\n  pop\n    /* \"#utility.yul\":98:175   */\n  swap2\n  swap1\n  pop\n  jump\t// out\n    /* \"#utility.yul\":181:241   */\ntag_12:\n    /* \"#utility.yul\":209:212   */\n  0x00\n    /* \"#utility.yul\":230:235   */\n  dup2\n    /* \"#utility.yul\":223:235   */\n  swap1\n  pop\n    /* \"#utility.yul\":181:241   */\n  swap2\n  swap1\n  pop\n  jump\t// out\n    /* \"#utility.yul\":247:405   */\ntag_13:\n    /* \"#utility.yul\":305:314   */\n  0x00\n    /* \"#utility.yul\":338:399   */\n  tag_20\n    /* \"#utility.yul\":356:398   */\n  tag_21\n    /* \"#utility.yul\":365:397   */\n  tag_22\n    /* \"#utility.yul\":391:396   */\n  dup5\n    /* \"#utility.yul\":365:397   */\n  tag_10\n  jump\t// in\ntag_22:\n    /* \"#utility.yul\":356:398   */\n  tag_12\n  jump\t// in\ntag_21:\n    /* \"#utility.yul\":338:399   */\n  tag_11\n  jump\t// in\ntag_20:\n    /* \"#utility.yul\":325:399   */\n  swap1\n  pop\n    /* \"#utility.yul\":247:405   */\n  swap2\n  swap1\n  pop\n  jump\t// out\n    /* \"#utility.yul\":411:558   */\ntag_14:\n    /* \"#utility.yul\":506:551   */\n  tag_24\n    /* \"#utility.yul\":545:550   */\n  dup2\n    /* \"#utility.yul\":506:551   */\n  tag_13\n  jump\t// in\ntag_24:\n    /* \"#utility.yul\":501:504   */\n  dup3\n    /* \"#utility.yul\":494:552   */\n  mstore\n    /* \"#utility.yul\":411:558   */\n  pop\n  pop\n  jump\t// out\n    /* \"#utility.yul\":564:802   */\ntag_7:\n    /* \"#utility.yul\":665:669   */\n  0x00\n    /* \"#utility.yul\":703:705   */\n  0x20\n    /* \"#utility.yul\":692:701   */\n  dup3\n    /* \"#utility.yul\":688:706   */\n  add\n    /* \"#utility.yul\":680:706   */\n  swap1\n  pop\n    /* \"#utility.yul\":716:795   */\n  tag_26\n    /* \"#utility.yul\":792:793   */\n  0x00\n    /* \"#utility.yul\":781:790   */\n  dup4\n    /* \"#utility.yul\":777:794   */\n  add\n    /* \"#utility.yul\":768:774   */\n  dup5\n    /* \"#utility.yul\":716:795   */\n  tag_14\n  jump\t// in\ntag_26:\n    /* \"#utility.yul\":564:802   */\n  swap3\n  swap2\n  pop\n  pop\n  jump\t// out\n    /* \"TryCatch.sol\":335:1504  contract TryCatch {... */\ntag_9:\n  dataSize(sub_0)\n  dup1\n  dataOffset(sub_0)\n  0x00\n  codecopy\n  0x00\n  return\nstop\n\nsub_0: assembly {\n        /* \"TryCatch.sol\":335:1504  contract TryCatch {... */\n      mstore(0x40, 0x80)\n      callvalue\n      dup1\n      iszero\n      tag_1\n      jumpi\n      0x00\n      dup1\n      revert\n    tag_1:\n      pop\n      jumpi(tag_2, lt(calldatasize, 0x04))\n      shr(0xe0, calldataload(0x00))\n      dup1\n      0xc2d0acc7\n      eq\n      tag_3\n      jumpi\n      dup1\n      0xd36c9fad\n      eq\n      tag_4\n      jumpi\n    tag_2:\n      0x00\n      dup1\n      revert\n        /* \"TryCatch.sol\":1025:1502  function try2(uint256 x) external {... */\n    tag_3:\n      tag_5\n      0x04\n      dup1\n      calldatasize\n      sub\n      dup2\n      add\n      swap1\n      tag_6\n      swap2\n      swap1\n      tag_7\n      jump\t// in\n    tag_6:\n      tag_8\n      jump\t// in\n    tag_5:\n      stop\n        /* \"TryCatch.sol\":527:1019  function try1(uint256 x) external {... */\n    tag_4:\n      tag_9\n      0x04\n      dup1\n      calldatasize\n      sub\n      dup2\n      add\n      swap1\n      tag_10\n      swap2\n      swap1\n      tag_7\n      jump\t// in\n    tag_10:\n      tag_11\n      jump\t// in\n    tag_9:\n      stop\n        /* \"TryCatch.sol\":1025:1502  function try2(uint256 x) external {... */\n    tag_8:\n        /* \"TryCatch.sol\":1143:1144  x */\n      dup1\n        /* \"TryCatch.sol\":1130:1145  new External(x) */\n      mload(0x40)\n      tag_13\n      swap1\n      tag_14\n      jump\t// in\n    tag_13:\n      tag_15\n      swap2\n      swap1\n      tag_16\n      jump\t// in\n    tag_15:\n      mload(0x40)\n      dup1\n      swap2\n      sub\n      swap1\n      0x00\n      create\n      dup1\n      iszero\n      tag_17\n      jumpi\n      0x01\n    tag_17:\n        /* \"TryCatch.sol\":1126:1495  try new External(x) returns(External _ec) {... */\n      tag_18\n      jumpi\n      tag_22\n      tag_23\n      jump\t// in\n    tag_22:\n      dup1\n      0x08c379a0\n      sub\n      tag_21\n      jumpi\n      pop\n      tag_24\n      tag_25\n      jump\t// in\n    tag_24:\n      dup1\n      tag_26\n      jumpi\n      pop\n      jump(tag_20)\n    tag_26:\n        /* \"TryCatch.sol\":1300:1318  CatchEvent(reason) */\n      0xb761112ad379c509744de8d585702b0d2694d4ceaef85ad50d452ff06821a6a6\n        /* \"TryCatch.sol\":1311:1317  reason */\n      dup2\n        /* \"TryCatch.sol\":1300:1318  CatchEvent(reason) */\n      mload(0x40)\n      tag_27\n      swap2\n      swap1\n      tag_28\n      jump\t// in\n    tag_27:\n      mload(0x40)\n      dup1\n      swap2\n      sub\n      swap1\n      log1\n        /* \"TryCatch.sol\":1248:1329  catch Error(string memory reason){... */\n      pop\n        /* \"TryCatch.sol\":1126:1495  try new External(x) returns(External _ec) {... */\n      jump(tag_19)\n    tag_21:\n      pop\n    tag_20:\n      returndatasize\n      dup1\n      0x00\n      dup2\n      eq\n      tag_30\n      jumpi\n      mload(0x40)\n      swap2\n      pop\n      and(add(returndatasize, 0x3f), not(0x1f))\n      dup3\n      add\n      0x40\n      mstore\n      returndatasize\n      dup3\n      mstore\n      returndatasize\n      0x00\n      0x20\n      dup5\n      add\n      returndatacopy\n      jump(tag_29)\n    tag_30:\n      0x60\n      swap2\n      pop\n    tag_29:\n      pop\n        /* \"TryCatch.sol\":1467:1484  CatchByte(reason) */\n      0xb6f66868478aebcea8c7a15c8c7dd37a513a4127424642ee3573117b52fa3e39\n        /* \"TryCatch.sol\":1477:1483  reason */\n      dup2\n        /* \"TryCatch.sol\":1467:1484  CatchByte(reason) */\n      mload(0x40)\n      tag_31\n      swap2\n      swap1\n      tag_32\n      jump\t// in\n    tag_31:\n      mload(0x40)\n      dup1\n      swap2\n      sub\n      swap1\n      log1\n        /* \"TryCatch.sol\":1330:1495  catch (bytes memory reason) {... */\n      pop\n        /* \"TryCatch.sol\":1126:1495  try new External(x) returns(External _ec) {... */\n    tag_19:\n      jump(tag_33)\n    tag_18:\n        /* \"TryCatch.sol\":1187:1201  SuccessEvent() */\n      0xfd76336752e93f2cc77cf13a41be8b6c156731030376354d634d28a9a87b9162\n      mload(0x40)\n      mload(0x40)\n      dup1\n      swap2\n      sub\n      swap1\n      log1\n        /* \"TryCatch.sol\":1234:1235  x */\n      dup2\n        /* \"TryCatch.sol\":1221:1236  new External(x) */\n      mload(0x40)\n      tag_34\n      swap1\n      tag_14\n      jump\t// in\n    tag_34:\n      tag_35\n      swap2\n      swap1\n      tag_16\n      jump\t// in\n    tag_35:\n      mload(0x40)\n      dup1\n      swap2\n      sub\n      swap1\n      0x00\n      create\n      dup1\n      iszero\n      dup1\n      iszero\n      tag_36\n      jumpi\n      returndatasize\n      0x00\n      dup1\n      returndatacopy\n      revert(0x00, returndatasize)\n    tag_36:\n      pop\n        /* \"TryCatch.sol\":1215:1236  _ec = new External(x) */\n      swap1\n      pop\n        /* \"TryCatch.sol\":1146:1247  returns(External _ec) {... */\n      pop\n        /* \"TryCatch.sol\":1126:1495  try new External(x) returns(External _ec) {... */\n    tag_33:\n        /* \"TryCatch.sol\":1025:1502  function try2(uint256 x) external {... */\n      pop\n      jump\t// out\n        /* \"TryCatch.sol\":527:1019  function try1(uint256 x) external {... */\n    tag_11:\n        /* \"TryCatch.sol\":626:628  ec */\n      0x00\n      dup1\n      sload\n      swap1\n      0x0100\n      exp\n      swap1\n      div\n      0xffffffffffffffffffffffffffffffffffffffff\n      and\n        /* \"TryCatch.sol\":626:633  ec.even */\n      0xffffffffffffffffffffffffffffffffffffffff\n      and\n      0x9aef81fe\n        /* \"TryCatch.sol\":634:635  x */\n      dup3\n        /* \"TryCatch.sol\":626:636  ec.even(x) */\n      mload(0x40)\n      dup3\n      0xffffffff\n      and\n      0xe0\n      shl\n      dup2\n      mstore\n      0x04\n      add\n      tag_38\n      swap2\n      swap1\n      tag_16\n      jump\t// in\n    tag_38:\n      0x20\n      mload(0x40)\n      dup1\n      dup4\n      sub\n      dup2\n      dup7\n      gas\n      staticcall\n      swap3\n      pop\n      pop\n      pop\n      dup1\n      iszero\n      tag_39\n      jumpi\n      pop\n      mload(0x40)\n      returndatasize\n      not(0x1f)\n      0x1f\n      dup3\n      add\n      and\n      dup3\n      add\n      dup1\n      0x40\n      mstore\n      pop\n      dup2\n      add\n      swap1\n      tag_40\n      swap2\n      swap1\n      tag_41\n      jump\t// in\n    tag_40:\n      0x01\n    tag_39:\n        /* \"TryCatch.sol\":622:1013  try ec.even(x) returns(bool _success) {... */\n      tag_42\n      jumpi\n      tag_46\n      tag_23\n      jump\t// in\n    tag_46:\n      dup1\n      0x08c379a0\n      sub\n      tag_45\n      jumpi\n      pop\n      tag_47\n      tag_25\n      jump\t// in\n    tag_47:\n      dup1\n      tag_48\n      jumpi\n      pop\n      jump(tag_44)\n    tag_48:\n        /* \"TryCatch.sol\":984:1002  CatchEvent(reason) */\n      0xb761112ad379c509744de8d585702b0d2694d4ceaef85ad50d452ff06821a6a6\n        /* \"TryCatch.sol\":995:1001  reason */\n      dup2\n        /* \"TryCatch.sol\":984:1002  CatchEvent(reason) */\n      mload(0x40)\n      tag_49\n      swap2\n      swap1\n      tag_28\n      jump\t// in\n    tag_49:\n      mload(0x40)\n      dup1\n      swap2\n      sub\n      swap1\n      log1\n        /* \"TryCatch.sol\":792:1013  catch Error(string memory reason){... */\n      pop\n        /* \"TryCatch.sol\":622:1013  try ec.even(x) returns(bool _success) {... */\n      jump(tag_43)\n    tag_45:\n      pop\n    tag_44:\n      returndatasize\n      0x00\n      dup1\n      returndatacopy\n      revert(0x00, returndatasize)\n    tag_43:\n      jump(tag_50)\n    tag_42:\n        /* \"TryCatch.sol\":737:751  SuccessEvent() */\n      0xfd76336752e93f2cc77cf13a41be8b6c156731030376354d634d28a9a87b9162\n      mload(0x40)\n      mload(0x40)\n      dup1\n      swap2\n      sub\n      swap1\n      log1\n        /* \"TryCatch.sol\":776:780  true */\n      0x01\n        /* \"TryCatch.sol\":765:780  _success = true */\n      swap1\n      pop\n        /* \"TryCatch.sol\":637:791  returns(bool _success) {... */\n      pop\n        /* \"TryCatch.sol\":622:1013  try ec.even(x) returns(bool _success) {... */\n    tag_50:\n        /* \"TryCatch.sol\":527:1019  function try1(uint256 x) external {... */\n      pop\n      jump\t// out\n    tag_14:\n      dataSize(sub_0)\n      dup1\n      dataOffset(sub_0)\n      dup4\n      codecopy\n      add\n      swap1\n      jump\t// out\n        /* \"#utility.yul\":7:82   */\n    tag_51:\n        /* \"#utility.yul\":40:46   */\n      0x00\n        /* \"#utility.yul\":73:75   */\n      0x40\n        /* \"#utility.yul\":67:76   */\n      mload\n        /* \"#utility.yul\":57:76   */\n      swap1\n      pop\n        /* \"#utility.yul\":7:82   */\n      swap1\n      jump\t// out\n        /* \"#utility.yul\":88:205   */\n    tag_52:\n        /* \"#utility.yul\":197:198   */\n      0x00\n        /* \"#utility.yul\":194:195   */\n      dup1\n        /* \"#utility.yul\":187:199   */\n      revert\n        /* \"#utility.yul\":334:411   */\n    tag_54:\n        /* \"#utility.yul\":371:378   */\n      0x00\n        /* \"#utility.yul\":400:405   */\n      dup2\n        /* \"#utility.yul\":389:405   */\n      swap1\n      pop\n        /* \"#utility.yul\":334:411   */\n      swap2\n      swap1\n      pop\n      jump\t// out\n        /* \"#utility.yul\":417:539   */\n    tag_55:\n        /* \"#utility.yul\":490:514   */\n      tag_78\n        /* \"#utility.yul\":508:513   */\n      dup2\n        /* \"#utility.yul\":490:514   */\n      tag_54\n      jump\t// in\n    tag_78:\n        /* \"#utility.yul\":483:488   */\n      dup2\n        /* \"#utility.yul\":480:515   */\n      eq\n        /* \"#utility.yul\":470:533   */\n      tag_79\n      jumpi\n        /* \"#utility.yul\":529:530   */\n      0x00\n        /* \"#utility.yul\":526:527   */\n      dup1\n        /* \"#utility.yul\":519:531   */\n      revert\n        /* \"#utility.yul\":470:533   */\n    tag_79:\n        /* \"#utility.yul\":417:539   */\n      pop\n      jump\t// out\n        /* \"#utility.yul\":545:684   */\n    tag_56:\n        /* \"#utility.yul\":591:596   */\n      0x00\n        /* \"#utility.yul\":629:635   */\n      dup2\n        /* \"#utility.yul\":616:636   */\n      calldataload\n        /* \"#utility.yul\":607:636   */\n      swap1\n      pop\n        /* \"#utility.yul\":645:678   */\n      tag_81\n        /* \"#utility.yul\":672:677   */\n      dup2\n        /* \"#utility.yul\":645:678   */\n      tag_55\n      jump\t// in\n    tag_81:\n        /* \"#utility.yul\":545:684   */\n      swap3\n      swap2\n      pop\n      pop\n      jump\t// out\n        /* \"#utility.yul\":690:1019   */\n    tag_7:\n        /* \"#utility.yul\":749:755   */\n      0x00\n        /* \"#utility.yul\":798:800   */\n      0x20\n        /* \"#utility.yul\":786:795   */\n      dup3\n        /* \"#utility.yul\":777:784   */\n      dup5\n        /* \"#utility.yul\":773:796   */\n      sub\n        /* \"#utility.yul\":769:801   */\n      slt\n        /* \"#utility.yul\":766:885   */\n      iszero\n      tag_83\n      jumpi\n        /* \"#utility.yul\":804:883   */\n      tag_84\n      tag_52\n      jump\t// in\n    tag_84:\n        /* \"#utility.yul\":766:885   */\n    tag_83:\n        /* \"#utility.yul\":924:925   */\n      0x00\n        /* \"#utility.yul\":949:1002   */\n      tag_85\n        /* \"#utility.yul\":994:1001   */\n      dup5\n        /* \"#utility.yul\":985:991   */\n      dup3\n        /* \"#utility.yul\":974:983   */\n      dup6\n        /* \"#utility.yul\":970:992   */\n      add\n        /* \"#utility.yul\":949:1002   */\n      tag_56\n      jump\t// in\n    tag_85:\n        /* \"#utility.yul\":939:1002   */\n      swap2\n      pop\n        /* \"#utility.yul\":895:1012   */\n      pop\n        /* \"#utility.yul\":690:1019   */\n      swap3\n      swap2\n      pop\n      pop\n      jump\t// out\n        /* \"#utility.yul\":1025:1143   */\n    tag_57:\n        /* \"#utility.yul\":1112:1136   */\n      tag_87\n        /* \"#utility.yul\":1130:1135   */\n      dup2\n        /* \"#utility.yul\":1112:1136   */\n      tag_54\n      jump\t// in\n    tag_87:\n        /* \"#utility.yul\":1107:1110   */\n      dup3\n        /* \"#utility.yul\":1100:1137   */\n      mstore\n        /* \"#utility.yul\":1025:1143   */\n      pop\n      pop\n      jump\t// out\n        /* \"#utility.yul\":1149:1371   */\n    tag_16:\n        /* \"#utility.yul\":1242:1246   */\n      0x00\n        /* \"#utility.yul\":1280:1282   */\n      0x20\n        /* \"#utility.yul\":1269:1278   */\n      dup3\n        /* \"#utility.yul\":1265:1283   */\n      add\n        /* \"#utility.yul\":1257:1283   */\n      swap1\n      pop\n        /* \"#utility.yul\":1293:1364   */\n      tag_89\n        /* \"#utility.yul\":1361:1362   */\n      0x00\n        /* \"#utility.yul\":1350:1359   */\n      dup4\n        /* \"#utility.yul\":1346:1363   */\n      add\n        /* \"#utility.yul\":1337:1343   */\n      dup5\n        /* \"#utility.yul\":1293:1364   */\n      tag_57\n      jump\t// in\n    tag_89:\n        /* \"#utility.yul\":1149:1371   */\n      swap3\n      swap2\n      pop\n      pop\n      jump\t// out\n        /* \"#utility.yul\":1377:1483   */\n    tag_58:\n        /* \"#utility.yul\":1421:1429   */\n      0x00\n        /* \"#utility.yul\":1470:1475   */\n      dup2\n        /* \"#utility.yul\":1465:1468   */\n      0xe0\n        /* \"#utility.yul\":1461:1476   */\n      shr\n        /* \"#utility.yul\":1440:1476   */\n      swap1\n      pop\n        /* \"#utility.yul\":1377:1483   */\n      swap2\n      swap1\n      pop\n      jump\t// out\n        /* \"#utility.yul\":1489:1672   */\n    tag_23:\n        /* \"#utility.yul\":1524:1527   */\n      0x00\n        /* \"#utility.yul\":1562:1563   */\n      0x03\n        /* \"#utility.yul\":1544:1560   */\n      returndatasize\n        /* \"#utility.yul\":1541:1564   */\n      gt\n        /* \"#utility.yul\":1538:1666   */\n      iszero\n      tag_92\n      jumpi\n        /* \"#utility.yul\":1600:1601   */\n      0x04\n        /* \"#utility.yul\":1597:1598   */\n      0x00\n        /* \"#utility.yul\":1594:1595   */\n      dup1\n        /* \"#utility.yul\":1579:1602   */\n      returndatacopy\n        /* \"#utility.yul\":1622:1656   */\n      tag_93\n        /* \"#utility.yul\":1653:1654   */\n      0x00\n        /* \"#utility.yul\":1647:1655   */\n      mload\n        /* \"#utility.yul\":1622:1656   */\n      tag_58\n      jump\t// in\n    tag_93:\n        /* \"#utility.yul\":1615:1656   */\n      swap1\n      pop\n        /* \"#utility.yul\":1538:1666   */\n    tag_92:\n        /* \"#utility.yul\":1489:1672   */\n      swap1\n      jump\t// out\n        /* \"#utility.yul\":1678:1780   */\n    tag_59:\n        /* \"#utility.yul\":1719:1725   */\n      0x00\n        /* \"#utility.yul\":1770:1772   */\n      0x1f\n        /* \"#utility.yul\":1766:1773   */\n      not\n        /* \"#utility.yul\":1761:1763   */\n      0x1f\n        /* \"#utility.yul\":1754:1759   */\n      dup4\n        /* \"#utility.yul\":1750:1764   */\n      add\n        /* \"#utility.yul\":1746:1774   */\n      and\n        /* \"#utility.yul\":1736:1774   */\n      swap1\n      pop\n        /* \"#utility.yul\":1678:1780   */\n      swap2\n      swap1\n      pop\n      jump\t// out\n        /* \"#utility.yul\":1786:1966   */\n    tag_60:\n        /* \"#utility.yul\":1834:1911   */\n      0x4e487b7100000000000000000000000000000000000000000000000000000000\n        /* \"#utility.yul\":1831:1832   */\n      0x00\n        /* \"#utility.yul\":1824:1912   */\n      mstore\n        /* \"#utility.yul\":1931:1935   */\n      0x41\n        /* \"#utility.yul\":1928:1929   */\n      0x04\n        /* \"#utility.yul\":1921:1936   */\n      mstore\n        /* \"#utility.yul\":1955:1959   */\n      0x24\n        /* \"#utility.yul\":1952:1953   */\n      0x00\n        /* \"#utility.yul\":1945:1960   */\n      revert\n        /* \"#utility.yul\":1972:2253   */\n    tag_61:\n        /* \"#utility.yul\":2055:2082   */\n      tag_97\n        /* \"#utility.yul\":2077:2081   */\n      dup3\n        /* \"#utility.yul\":2055:2082   */\n      tag_59\n      jump\t// in\n    tag_97:\n        /* \"#utility.yul\":2047:2053   */\n      dup2\n        /* \"#utility.yul\":2043:2083   */\n      add\n        /* \"#utility.yul\":2185:2191   */\n      dup2\n        /* \"#utility.yul\":2173:2183   */\n      dup2\n        /* \"#utility.yul\":2170:2192   */\n      lt\n        /* \"#utility.yul\":2149:2167   */\n      0xffffffffffffffff\n        /* \"#utility.yul\":2137:2147   */\n      dup3\n        /* \"#utility.yul\":2134:2168   */\n      gt\n        /* \"#utility.yul\":2131:2193   */\n      or\n        /* \"#utility.yul\":2128:2216   */\n      iszero\n      tag_98\n      jumpi\n        /* \"#utility.yul\":2196:2214   */\n      tag_99\n      tag_60\n      jump\t// in\n    tag_99:\n        /* \"#utility.yul\":2128:2216   */\n    tag_98:\n        /* \"#utility.yul\":2236:2246   */\n      dup1\n        /* \"#utility.yul\":2232:2234   */\n      0x40\n        /* \"#utility.yul\":2225:2247   */\n      mstore\n        /* \"#utility.yul\":2015:2253   */\n      pop\n        /* \"#utility.yul\":1972:2253   */\n      pop\n      pop\n      jump\t// out\n        /* \"#utility.yul\":2259:2970   */\n    tag_25:\n        /* \"#utility.yul\":2298:2301   */\n      0x00\n        /* \"#utility.yul\":2336:2340   */\n      0x44\n        /* \"#utility.yul\":2318:2334   */\n      returndatasize\n        /* \"#utility.yul\":2315:2341   */\n      lt\n        /* \"#utility.yul\":2344:2349   */\n      tag_100\n        /* \"#utility.yul\":2312:2351   */\n      jumpi\n        /* \"#utility.yul\":2373:2393   */\n      tag_102\n      tag_51\n      jump\t// in\n    tag_102:\n        /* \"#utility.yul\":2448:2449   */\n      0x04\n        /* \"#utility.yul\":2430:2446   */\n      returndatasize\n        /* \"#utility.yul\":2426:2450   */\n      sub\n        /* \"#utility.yul\":2423:2424   */\n      0x04\n        /* \"#utility.yul\":2417:2421   */\n      dup3\n        /* \"#utility.yul\":2402:2451   */\n      returndatacopy\n        /* \"#utility.yul\":2481:2485   */\n      dup1\n        /* \"#utility.yul\":2475:2486   */\n      mload\n        /* \"#utility.yul\":2580:2596   */\n      returndatasize\n        /* \"#utility.yul\":2573:2577   */\n      0x24\n        /* \"#utility.yul\":2565:2571   */\n      dup3\n        /* \"#utility.yul\":2561:2578   */\n      add\n        /* \"#utility.yul\":2558:2597   */\n      gt\n        /* \"#utility.yul\":2525:2543   */\n      0xffffffffffffffff\n        /* \"#utility.yul\":2517:2523   */\n      dup3\n        /* \"#utility.yul\":2514:2544   */\n      gt\n        /* \"#utility.yul\":2498:2611   */\n      or\n        /* \"#utility.yul\":2495:2641   */\n      iszero\n      tag_103\n      jumpi\n        /* \"#utility.yul\":2626:2631   */\n      pop\n      pop\n      jump(tag_100)\n        /* \"#utility.yul\":2495:2641   */\n    tag_103:\n        /* \"#utility.yul\":2672:2678   */\n      dup1\n        /* \"#utility.yul\":2666:2670   */\n      dup3\n        /* \"#utility.yul\":2662:2679   */\n      add\n        /* \"#utility.yul\":2708:2711   */\n      dup1\n        /* \"#utility.yul\":2702:2712   */\n      mload\n        /* \"#utility.yul\":2735:2753   */\n      0xffffffffffffffff\n        /* \"#utility.yul\":2727:2733   */\n      dup2\n        /* \"#utility.yul\":2724:2754   */\n      gt\n        /* \"#utility.yul\":2721:2764   */\n      iszero\n      tag_104\n      jumpi\n        /* \"#utility.yul\":2757:2762   */\n      pop\n      pop\n      pop\n      pop\n      jump(tag_100)\n        /* \"#utility.yul\":2721:2764   */\n    tag_104:\n        /* \"#utility.yul\":2805:2811   */\n      dup1\n        /* \"#utility.yul\":2798:2802   */\n      0x20\n        /* \"#utility.yul\":2793:2796   */\n      dup4\n        /* \"#utility.yul\":2789:2803   */\n      add\n        /* \"#utility.yul\":2785:2812   */\n      add\n        /* \"#utility.yul\":2864:2865   */\n      0x04\n        /* \"#utility.yul\":2846:2862   */\n      returndatasize\n        /* \"#utility.yul\":2842:2866   */\n      sub\n        /* \"#utility.yul\":2836:2840   */\n      dup6\n        /* \"#utility.yul\":2832:2867   */\n      add\n        /* \"#utility.yul\":2827:2830   */\n      dup2\n        /* \"#utility.yul\":2824:2868   */\n      gt\n        /* \"#utility.yul\":2821:2878   */\n      iszero\n      tag_105\n      jumpi\n        /* \"#utility.yul\":2871:2876   */\n      pop\n      pop\n      pop\n      pop\n      pop\n      jump(tag_100)\n        /* \"#utility.yul\":2821:2878   */\n    tag_105:\n        /* \"#utility.yul\":2888:2945   */\n      tag_106\n        /* \"#utility.yul\":2936:2942   */\n      dup3\n        /* \"#utility.yul\":2930:2934   */\n      0x20\n        /* \"#utility.yul\":2926:2943   */\n      add\n        /* \"#utility.yul\":2918:2924   */\n      dup6\n        /* \"#utility.yul\":2914:2944   */\n      add\n        /* \"#utility.yul\":2908:2912   */\n      dup7\n        /* \"#utility.yul\":2888:2945   */\n      tag_61\n      jump\t// in\n    tag_106:\n        /* \"#utility.yul\":2961:2964   */\n      dup3\n        /* \"#utility.yul\":2954:2964   */\n      swap6\n      pop\n        /* \"#utility.yul\":2302:2970   */\n      pop\n      pop\n      pop\n      pop\n      pop\n        /* \"#utility.yul\":2259:2970   */\n    tag_100:\n      swap1\n      jump\t// out\n        /* \"#utility.yul\":2976:3075   */\n    tag_62:\n        /* \"#utility.yul\":3028:3034   */\n      0x00\n        /* \"#utility.yul\":3062:3067   */\n      dup2\n        /* \"#utility.yul\":3056:3068   */\n      mload\n        /* \"#utility.yul\":3046:3068   */\n      swap1\n      pop\n        /* \"#utility.yul\":2976:3075   */\n      swap2\n      swap1\n      pop\n      jump\t// out\n        /* \"#utility.yul\":3081:3250   */\n    tag_63:\n        /* \"#utility.yul\":3165:3176   */\n      0x00\n        /* \"#utility.yul\":3199:3205   */\n      dup3\n        /* \"#utility.yul\":3194:3197   */\n      dup3\n        /* \"#utility.yul\":3187:3206   */\n      mstore\n        /* \"#utility.yul\":3239:3243   */\n      0x20\n        /* \"#utility.yul\":3234:3237   */\n      dup3\n        /* \"#utility.yul\":3230:3244   */\n      add\n        /* \"#utility.yul\":3215:3244   */\n      swap1\n      pop\n        /* \"#utility.yul\":3081:3250   */\n      swap3\n      swap2\n      pop\n      pop\n      jump\t// out\n        /* \"#utility.yul\":3256:3395   */\n    tag_64:\n        /* \"#utility.yul\":3345:3351   */\n      dup3\n        /* \"#utility.yul\":3340:3343   */\n      dup2\n        /* \"#utility.yul\":3335:3338   */\n      dup4\n        /* \"#utility.yul\":3329:3352   */\n      mcopy\n        /* \"#utility.yul\":3386:3387   */\n      0x00\n        /* \"#utility.yul\":3377:3383   */\n      dup4\n        /* \"#utility.yul\":3372:3375   */\n      dup4\n        /* \"#utility.yul\":3368:3384   */\n      add\n        /* \"#utility.yul\":3361:3388   */\n      mstore\n        /* \"#utility.yul\":3256:3395   */\n      pop\n      pop\n      pop\n      jump\t// out\n        /* \"#utility.yul\":3401:3778   */\n    tag_65:\n        /* \"#utility.yul\":3489:3492   */\n      0x00\n        /* \"#utility.yul\":3517:3556   */\n      tag_111\n        /* \"#utility.yul\":3550:3555   */\n      dup3\n        /* \"#utility.yul\":3517:3556   */\n      tag_62\n      jump\t// in\n    tag_111:\n        /* \"#utility.yul\":3572:3643   */\n      tag_112\n        /* \"#utility.yul\":3636:3642   */\n      dup2\n        /* \"#utility.yul\":3631:3634   */\n      dup6\n        /* \"#utility.yul\":3572:3643   */\n      tag_63\n      jump\t// in\n    tag_112:\n        /* \"#utility.yul\":3565:3643   */\n      swap4\n      pop\n        /* \"#utility.yul\":3652:3717   */\n      tag_113\n        /* \"#utility.yul\":3710:3716   */\n      dup2\n        /* \"#utility.yul\":3705:3708   */\n      dup6\n        /* \"#utility.yul\":3698:3702   */\n      0x20\n        /* \"#utility.yul\":3691:3696   */\n      dup7\n        /* \"#utility.yul\":3687:3703   */\n      add\n        /* \"#utility.yul\":3652:3717   */\n      tag_64\n      jump\t// in\n    tag_113:\n        /* \"#utility.yul\":3742:3771   */\n      tag_114\n        /* \"#utility.yul\":3764:3770   */\n      dup2\n        /* \"#utility.yul\":3742:3771   */\n      tag_59\n      jump\t// in\n    tag_114:\n        /* \"#utility.yul\":3737:3740   */\n      dup5\n        /* \"#utility.yul\":3733:3772   */\n      add\n        /* \"#utility.yul\":3726:3772   */\n      swap2\n      pop\n        /* \"#utility.yul\":3493:3778   */\n      pop\n        /* \"#utility.yul\":3401:3778   */\n      swap3\n      swap2\n      pop\n      pop\n      jump\t// out\n        /* \"#utility.yul\":3784:4097   */\n    tag_28:\n        /* \"#utility.yul\":3897:3901   */\n      0x00\n        /* \"#utility.yul\":3935:3937   */\n      0x20\n        /* \"#utility.yul\":3924:3933   */\n      dup3\n        /* \"#utility.yul\":3920:3938   */\n      add\n        /* \"#utility.yul\":3912:3938   */\n      swap1\n      pop\n        /* \"#utility.yul\":3984:3993   */\n      dup2\n        /* \"#utility.yul\":3978:3982   */\n      dup2\n        /* \"#utility.yul\":3974:3994   */\n      sub\n        /* \"#utility.yul\":3970:3971   */\n      0x00\n        /* \"#utility.yul\":3959:3968   */\n      dup4\n        /* \"#utility.yul\":3955:3972   */\n      add\n        /* \"#utility.yul\":3948:3995   */\n      mstore\n        /* \"#utility.yul\":4012:4090   */\n      tag_116\n        /* \"#utility.yul\":4085:4089   */\n      dup2\n        /* \"#utility.yul\":4076:4082   */\n      dup5\n        /* \"#utility.yul\":4012:4090   */\n      tag_65\n      jump\t// in\n    tag_116:\n        /* \"#utility.yul\":4004:4090   */\n      swap1\n      pop\n        /* \"#utility.yul\":3784:4097   */\n      swap3\n      swap2\n      pop\n      pop\n      jump\t// out\n        /* \"#utility.yul\":4103:4201   */\n    tag_66:\n        /* \"#utility.yul\":4154:4160   */\n      0x00\n        /* \"#utility.yul\":4188:4193   */\n      dup2\n        /* \"#utility.yul\":4182:4194   */\n      mload\n        /* \"#utility.yul\":4172:4194   */\n      swap1\n      pop\n        /* \"#utility.yul\":4103:4201   */\n      swap2\n      swap1\n      pop\n      jump\t// out\n        /* \"#utility.yul\":4207:4375   */\n    tag_67:\n        /* \"#utility.yul\":4290:4301   */\n      0x00\n        /* \"#utility.yul\":4324:4330   */\n      dup3\n        /* \"#utility.yul\":4319:4322   */\n      dup3\n        /* \"#utility.yul\":4312:4331   */\n      mstore\n        /* \"#utility.yul\":4364:4368   */\n      0x20\n        /* \"#utility.yul\":4359:4362   */\n      dup3\n        /* \"#utility.yul\":4355:4369   */\n      add\n        /* \"#utility.yul\":4340:4369   */\n      swap1\n      pop\n        /* \"#utility.yul\":4207:4375   */\n      swap3\n      swap2\n      pop\n      pop\n      jump\t// out\n        /* \"#utility.yul\":4381:4754   */\n    tag_68:\n        /* \"#utility.yul\":4467:4470   */\n      0x00\n        /* \"#utility.yul\":4495:4533   */\n      tag_120\n        /* \"#utility.yul\":4527:4532   */\n      dup3\n        /* \"#utility.yul\":4495:4533   */\n      tag_66\n      jump\t// in\n    tag_120:\n        /* \"#utility.yul\":4549:4619   */\n      tag_121\n        /* \"#utility.yul\":4612:4618   */\n      dup2\n        /* \"#utility.yul\":4607:4610   */\n      dup6\n        /* \"#utility.yul\":4549:4619   */\n      tag_67\n      jump\t// in\n    tag_121:\n        /* \"#utility.yul\":4542:4619   */\n      swap4\n      pop\n        /* \"#utility.yul\":4628:4693   */\n      tag_122\n        /* \"#utility.yul\":4686:4692   */\n      dup2\n        /* \"#utility.yul\":4681:4684   */\n      dup6\n        /* \"#utility.yul\":4674:4678   */\n      0x20\n        /* \"#utility.yul\":4667:4672   */\n      dup7\n        /* \"#utility.yul\":4663:4679   */\n      add\n        /* \"#utility.yul\":4628:4693   */\n      tag_64\n      jump\t// in\n    tag_122:\n        /* \"#utility.yul\":4718:4747   */\n      tag_123\n        /* \"#utility.yul\":4740:4746   */\n      dup2\n        /* \"#utility.yul\":4718:4747   */\n      tag_59\n      jump\t// in\n    tag_123:\n        /* \"#utility.yul\":4713:4716   */\n      dup5\n        /* \"#utility.yul\":4709:4748   */\n      add\n        /* \"#utility.yul\":4702:4748   */\n      swap2\n      pop\n        /* \"#utility.yul\":4471:4754   */\n      pop\n        /* \"#utility.yul\":4381:4754   */\n      swap3\n      swap2\n      pop\n      pop\n      jump\t// out\n        /* \"#utility.yul\":4760:5069   */\n    tag_32:\n        /* \"#utility.yul\":4871:4875   */\n      0x00\n        /* \"#utility.yul\":4909:4911   */\n      0x20\n        /* \"#utility.yul\":4898:4907   */\n      dup3\n        /* \"#utility.yul\":4894:4912   */\n      add\n        /* \"#utility.yul\":4886:4912   */\n      swap1\n      pop\n        /* \"#utility.yul\":4958:4967   */\n      dup2\n        /* \"#utility.yul\":4952:4956   */\n      dup2\n        /* \"#utility.yul\":4948:4968   */\n      sub\n        /* \"#utility.yul\":4944:4945   */\n      0x00\n        /* \"#utility.yul\":4933:4942   */\n      dup4\n        /* \"#utility.yul\":4929:4946   */\n      add\n        /* \"#utility.yul\":4922:4969   */\n      mstore\n        /* \"#utility.yul\":4986:5062   */\n      tag_125\n        /* \"#utility.yul\":5057:5061   */\n      dup2\n        /* \"#utility.yul\":5048:5054   */\n      dup5\n        /* \"#utility.yul\":4986:5062   */\n      tag_68\n      jump\t// in\n    tag_125:\n        /* \"#utility.yul\":4978:5062   */\n      swap1\n      pop\n        /* \"#utility.yul\":4760:5069   */\n      swap3\n      swap2\n      pop\n      pop\n      jump\t// out\n        /* \"#utility.yul\":5075:5165   */\n    tag_69:\n        /* \"#utility.yul\":5109:5116   */\n      0x00\n        /* \"#utility.yul\":5152:5157   */\n      dup2\n        /* \"#utility.yul\":5145:5158   */\n      iszero\n        /* \"#utility.yul\":5138:5159   */\n      iszero\n        /* \"#utility.yul\":5127:5159   */\n      swap1\n      pop\n        /* \"#utility.yul\":5075:5165   */\n      swap2\n      swap1\n      pop\n      jump\t// out\n        /* \"#utility.yul\":5171:5287   */\n    tag_70:\n        /* \"#utility.yul\":5241:5262   */\n      tag_128\n        /* \"#utility.yul\":5256:5261   */\n      dup2\n        /* \"#utility.yul\":5241:5262   */\n      tag_69\n      jump\t// in\n    tag_128:\n        /* \"#utility.yul\":5234:5239   */\n      dup2\n        /* \"#utility.yul\":5231:5263   */\n      eq\n        /* \"#utility.yul\":5221:5281   */\n      tag_129\n      jumpi\n        /* \"#utility.yul\":5277:5278   */\n      0x00\n        /* \"#utility.yul\":5274:5275   */\n      dup1\n        /* \"#utility.yul\":5267:5279   */\n      revert\n        /* \"#utility.yul\":5221:5281   */\n    tag_129:\n        /* \"#utility.yul\":5171:5287   */\n      pop\n      jump\t// out\n        /* \"#utility.yul\":5293:5430   */\n    tag_71:\n        /* \"#utility.yul\":5347:5352   */\n      0x00\n        /* \"#utility.yul\":5378:5384   */\n      dup2\n        /* \"#utility.yul\":5372:5385   */\n      mload\n        /* \"#utility.yul\":5363:5385   */\n      swap1\n      pop\n        /* \"#utility.yul\":5394:5424   */\n      tag_131\n        /* \"#utility.yul\":5418:5423   */\n      dup2\n        /* \"#utility.yul\":5394:5424   */\n      tag_70\n      jump\t// in\n    tag_131:\n        /* \"#utility.yul\":5293:5430   */\n      swap3\n      swap2\n      pop\n      pop\n      jump\t// out\n        /* \"#utility.yul\":5436:5781   */\n    tag_41:\n        /* \"#utility.yul\":5503:5509   */\n      0x00\n        /* \"#utility.yul\":5552:5554   */\n      0x20\n        /* \"#utility.yul\":5540:5549   */\n      dup3\n        /* \"#utility.yul\":5531:5538   */\n      dup5\n        /* \"#utility.yul\":5527:5550   */\n      sub\n        /* \"#utility.yul\":5523:5555   */\n      slt\n        /* \"#utility.yul\":5520:5639   */\n      iszero\n      tag_133\n      jumpi\n        /* \"#utility.yul\":5558:5637   */\n      tag_134\n      tag_52\n      jump\t// in\n    tag_134:\n        /* \"#utility.yul\":5520:5639   */\n    tag_133:\n        /* \"#utility.yul\":5678:5679   */\n      0x00\n        /* \"#utility.yul\":5703:5764   */\n      tag_135\n        /* \"#utility.yul\":5756:5763   */\n      dup5\n        /* \"#utility.yul\":5747:5753   */\n      dup3\n        /* \"#utility.yul\":5736:5745   */\n      dup6\n        /* \"#utility.yul\":5732:5754   */\n      add\n        /* \"#utility.yul\":5703:5764   */\n      tag_71\n      jump\t// in\n    tag_135:\n        /* \"#utility.yul\":5693:5764   */\n      swap2\n      pop\n        /* \"#utility.yul\":5649:5774   */\n      pop\n        /* \"#utility.yul\":5436:5781   */\n      swap3\n      swap2\n      pop\n      pop\n      jump\t// out\n    stop\n\n    sub_0: assembly {\n            /* \"TryCatch.sol\":57:333  contract External {... */\n          mstore(0x40, 0x80)\n            /* \"TryCatch.sol\":81:180  constructor(uint n){... */\n          callvalue\n          dup1\n          iszero\n          tag_1\n          jumpi\n          0x00\n          dup1\n          revert\n        tag_1:\n          pop\n          mload(0x40)\n          sub(codesize, bytecodeSize)\n          dup1\n          bytecodeSize\n          dup4\n          codecopy\n          dup2\n          dup2\n          add\n          0x40\n          mstore\n          dup2\n          add\n          swap1\n          tag_2\n          swap2\n          swap1\n          tag_3\n          jump\t// in\n        tag_2:\n            /* \"TryCatch.sol\":123:124  0 */\n          0x00\n            /* \"TryCatch.sol\":118:119  n */\n          dup2\n            /* \"TryCatch.sol\":118:124  n != 0 */\n          sub\n            /* \"TryCatch.sol\":110:149  require(n != 0, unicode\"不能等于0\") */\n          tag_6\n          jumpi\n          mload(0x40)\n          0x08c379a000000000000000000000000000000000000000000000000000000000\n          dup2\n          mstore\n          0x04\n          add\n          tag_7\n          swap1\n          tag_8\n          jump\t// in\n        tag_7:\n          mload(0x40)\n          dup1\n          swap2\n          sub\n          swap1\n          revert\n        tag_6:\n            /* \"TryCatch.sol\":171:172  1 */\n          0x01\n            /* \"TryCatch.sol\":166:167  n */\n          dup2\n            /* \"TryCatch.sol\":166:172  n != 1 */\n          sub\n            /* \"TryCatch.sol\":159:173  assert(n != 1) */\n          tag_9\n          jumpi\n          tag_10\n          tag_11\n          jump\t// in\n        tag_10:\n        tag_9:\n            /* \"TryCatch.sol\":81:180  constructor(uint n){... */\n          pop\n            /* \"TryCatch.sol\":57:333  contract External {... */\n          jump(tag_12)\n            /* \"#utility.yul\":88:205   */\n        tag_14:\n            /* \"#utility.yul\":197:198   */\n          0x00\n            /* \"#utility.yul\":194:195   */\n          dup1\n            /* \"#utility.yul\":187:199   */\n          revert\n            /* \"#utility.yul\":334:411   */\n        tag_16:\n            /* \"#utility.yul\":371:378   */\n          0x00\n            /* \"#utility.yul\":400:405   */\n          dup2\n            /* \"#utility.yul\":389:405   */\n          swap1\n          pop\n            /* \"#utility.yul\":334:411   */\n          swap2\n          swap1\n          pop\n          jump\t// out\n            /* \"#utility.yul\":417:539   */\n        tag_17:\n            /* \"#utility.yul\":490:514   */\n          tag_28\n            /* \"#utility.yul\":508:513   */\n          dup2\n            /* \"#utility.yul\":490:514   */\n          tag_16\n          jump\t// in\n        tag_28:\n            /* \"#utility.yul\":483:488   */\n          dup2\n            /* \"#utility.yul\":480:515   */\n          eq\n            /* \"#utility.yul\":470:533   */\n          tag_29\n          jumpi\n            /* \"#utility.yul\":529:530   */\n          0x00\n            /* \"#utility.yul\":526:527   */\n          dup1\n            /* \"#utility.yul\":519:531   */\n          revert\n            /* \"#utility.yul\":470:533   */\n        tag_29:\n            /* \"#utility.yul\":417:539   */\n          pop\n          jump\t// out\n            /* \"#utility.yul\":545:688   */\n        tag_18:\n            /* \"#utility.yul\":602:607   */\n          0x00\n            /* \"#utility.yul\":633:639   */\n          dup2\n            /* \"#utility.yul\":627:640   */\n          mload\n            /* \"#utility.yul\":618:640   */\n          swap1\n          pop\n            /* \"#utility.yul\":649:682   */\n          tag_31\n            /* \"#utility.yul\":676:681   */\n          dup2\n            /* \"#utility.yul\":649:682   */\n          tag_17\n          jump\t// in\n        tag_31:\n            /* \"#utility.yul\":545:688   */\n          swap3\n          swap2\n          pop\n          pop\n          jump\t// out\n            /* \"#utility.yul\":694:1045   */\n        tag_3:\n            /* \"#utility.yul\":764:770   */\n          0x00\n            /* \"#utility.yul\":813:815   */\n          0x20\n            /* \"#utility.yul\":801:810   */\n          dup3\n            /* \"#utility.yul\":792:799   */\n          dup5\n            /* \"#utility.yul\":788:811   */\n          sub\n            /* \"#utility.yul\":784:816   */\n          slt\n            /* \"#utility.yul\":781:900   */\n          iszero\n          tag_33\n          jumpi\n            /* \"#utility.yul\":819:898   */\n          tag_34\n          tag_14\n          jump\t// in\n        tag_34:\n            /* \"#utility.yul\":781:900   */\n        tag_33:\n            /* \"#utility.yul\":939:940   */\n          0x00\n            /* \"#utility.yul\":964:1028   */\n          tag_35\n            /* \"#utility.yul\":1020:1027   */\n          dup5\n            /* \"#utility.yul\":1011:1017   */\n          dup3\n            /* \"#utility.yul\":1000:1009   */\n          dup6\n            /* \"#utility.yul\":996:1018   */\n          add\n            /* \"#utility.yul\":964:1028   */\n          tag_18\n          jump\t// in\n        tag_35:\n            /* \"#utility.yul\":954:1028   */\n          swap2\n          pop\n            /* \"#utility.yul\":910:1038   */\n          pop\n            /* \"#utility.yul\":694:1045   */\n          swap3\n          swap2\n          pop\n          pop\n          jump\t// out\n            /* \"#utility.yul\":1051:1220   */\n        tag_19:\n            /* \"#utility.yul\":1135:1146   */\n          0x00\n            /* \"#utility.yul\":1169:1175   */\n          dup3\n            /* \"#utility.yul\":1164:1167   */\n          dup3\n            /* \"#utility.yul\":1157:1176   */\n          mstore\n            /* \"#utility.yul\":1209:1213   */\n          0x20\n            /* \"#utility.yul\":1204:1207   */\n          dup3\n            /* \"#utility.yul\":1200:1214   */\n          add\n            /* \"#utility.yul\":1185:1214   */\n          swap1\n          pop\n            /* \"#utility.yul\":1051:1220   */\n          swap3\n          swap2\n          pop\n          pop\n          jump\t// out\n            /* \"#utility.yul\":1226:1440   */\n        tag_20:\n            /* \"#utility.yul\":1366:1432   */\n          0xe4b88de883bde7ad89e4ba8e3000000000000000000000000000000000000000\n            /* \"#utility.yul\":1362:1363   */\n          0x00\n            /* \"#utility.yul\":1354:1360   */\n          dup3\n            /* \"#utility.yul\":1350:1364   */\n          add\n            /* \"#utility.yul\":1343:1433   */\n          mstore\n            /* \"#utility.yul\":1226:1440   */\n          pop\n          jump\t// out\n            /* \"#utility.yul\":1446:1812   */\n        tag_21:\n            /* \"#utility.yul\":1588:1591   */\n          0x00\n            /* \"#utility.yul\":1609:1676   */\n          tag_39\n            /* \"#utility.yul\":1673:1675   */\n          0x0d\n            /* \"#utility.yul\":1668:1671   */\n          dup4\n            /* \"#utility.yul\":1609:1676   */\n          tag_19\n          jump\t// in\n        tag_39:\n            /* \"#utility.yul\":1602:1676   */\n          swap2\n          pop\n            /* \"#utility.yul\":1685:1778   */\n          tag_40\n            /* \"#utility.yul\":1774:1777   */\n          dup3\n            /* \"#utility.yul\":1685:1778   */\n          tag_20\n          jump\t// in\n        tag_40:\n            /* \"#utility.yul\":1803:1805   */\n          0x20\n            /* \"#utility.yul\":1798:1801   */\n          dup3\n            /* \"#utility.yul\":1794:1806   */\n          add\n            /* \"#utility.yul\":1787:1806   */\n          swap1\n          pop\n            /* \"#utility.yul\":1446:1812   */\n          swap2\n          swap1\n          pop\n          jump\t// out\n            /* \"#utility.yul\":1818:2237   */\n        tag_8:\n            /* \"#utility.yul\":1984:1988   */\n          0x00\n            /* \"#utility.yul\":2022:2024   */\n          0x20\n            /* \"#utility.yul\":2011:2020   */\n          dup3\n            /* \"#utility.yul\":2007:2025   */\n          add\n            /* \"#utility.yul\":1999:2025   */\n          swap1\n          pop\n            /* \"#utility.yul\":2071:2080   */\n          dup2\n            /* \"#utility.yul\":2065:2069   */\n          dup2\n            /* \"#utility.yul\":2061:2081   */\n          sub\n            /* \"#utility.yul\":2057:2058   */\n          0x00\n            /* \"#utility.yul\":2046:2055   */\n          dup4\n            /* \"#utility.yul\":2042:2059   */\n          add\n            /* \"#utility.yul\":2035:2082   */\n          mstore\n            /* \"#utility.yul\":2099:2230   */\n          tag_42\n            /* \"#utility.yul\":2225:2229   */\n          dup2\n            /* \"#utility.yul\":2099:2230   */\n          tag_21\n          jump\t// in\n        tag_42:\n            /* \"#utility.yul\":2091:2230   */\n          swap1\n          pop\n            /* \"#utility.yul\":1818:2237   */\n          swap2\n          swap1\n          pop\n          jump\t// out\n            /* \"#utility.yul\":2243:2423   */\n        tag_11:\n            /* \"#utility.yul\":2291:2368   */\n          0x4e487b7100000000000000000000000000000000000000000000000000000000\n            /* \"#utility.yul\":2288:2289   */\n          0x00\n            /* \"#utility.yul\":2281:2369   */\n          mstore\n            /* \"#utility.yul\":2388:2392   */\n          0x01\n            /* \"#utility.yul\":2385:2386   */\n          0x04\n            /* \"#utility.yul\":2378:2393   */\n          mstore\n            /* \"#utility.yul\":2412:2416   */\n          0x24\n            /* \"#utility.yul\":2409:2410   */\n          0x00\n            /* \"#utility.yul\":2402:2417   */\n          revert\n            /* \"TryCatch.sol\":57:333  contract External {... */\n        tag_12:\n          dataSize(sub_0)\n          dup1\n          dataOffset(sub_0)\n          0x00\n          codecopy\n          0x00\n          return\n        stop\n\n        sub_0: assembly {\n                /* \"TryCatch.sol\":57:333  contract External {... */\n              mstore(0x40, 0x80)\n              callvalue\n              dup1\n              iszero\n              tag_1\n              jumpi\n              0x00\n              dup1\n              revert\n            tag_1:\n              pop\n              jumpi(tag_2, lt(calldatasize, 0x04))\n              shr(0xe0, calldataload(0x00))\n              dup1\n              0x9aef81fe\n              eq\n              tag_3\n              jumpi\n            tag_2:\n              0x00\n              dup1\n              revert\n                /* \"TryCatch.sol\":186:331  function even(uint256 n) external pure returns(bool success){... */\n            tag_3:\n              tag_4\n              0x04\n              dup1\n              calldatasize\n              sub\n              dup2\n              add\n              swap1\n              tag_5\n              swap2\n              swap1\n              tag_6\n              jump\t// in\n            tag_5:\n              tag_7\n              jump\t// in\n            tag_4:\n              mload(0x40)\n              tag_8\n              swap2\n              swap1\n              tag_9\n              jump\t// in\n            tag_8:\n              mload(0x40)\n              dup1\n              swap2\n              sub\n              swap1\n              return\n            tag_7:\n                /* \"TryCatch.sol\":233:245  bool success */\n              0x00\n                /* \"TryCatch.sol\":273:274  0 */\n              dup1\n                /* \"TryCatch.sol\":268:269  2 */\n              0x02\n                /* \"TryCatch.sol\":264:265  n */\n              dup4\n                /* \"TryCatch.sol\":264:269  n % 2 */\n              tag_11\n              swap2\n              swap1\n              tag_12\n              jump\t// in\n            tag_11:\n                /* \"TryCatch.sol\":264:274  n % 2 == 0 */\n              eq\n                /* \"TryCatch.sol\":256:300  require(n % 2 == 0, unicode\"n 不是偶数\") */\n              tag_13\n              jumpi\n              mload(0x40)\n              0x08c379a000000000000000000000000000000000000000000000000000000000\n              dup2\n              mstore\n              0x04\n              add\n              tag_14\n              swap1\n              tag_15\n              jump\t// in\n            tag_14:\n              mload(0x40)\n              dup1\n              swap2\n              sub\n              swap1\n              revert\n            tag_13:\n                /* \"TryCatch.sol\":320:324  true */\n              0x01\n                /* \"TryCatch.sol\":310:324  success = true */\n              swap1\n              pop\n                /* \"TryCatch.sol\":186:331  function even(uint256 n) external pure returns(bool success){... */\n              swap2\n              swap1\n              pop\n              jump\t// out\n                /* \"#utility.yul\":88:205   */\n            tag_17:\n                /* \"#utility.yul\":197:198   */\n              0x00\n                /* \"#utility.yul\":194:195   */\n              dup1\n                /* \"#utility.yul\":187:199   */\n              revert\n                /* \"#utility.yul\":334:411   */\n            tag_19:\n                /* \"#utility.yul\":371:378   */\n              0x00\n                /* \"#utility.yul\":400:405   */\n              dup2\n                /* \"#utility.yul\":389:405   */\n              swap1\n              pop\n                /* \"#utility.yul\":334:411   */\n              swap2\n              swap1\n              pop\n              jump\t// out\n                /* \"#utility.yul\":417:539   */\n            tag_20:\n                /* \"#utility.yul\":490:514   */\n              tag_34\n                /* \"#utility.yul\":508:513   */\n              dup2\n                /* \"#utility.yul\":490:514   */\n              tag_19\n              jump\t// in\n            tag_34:\n                /* \"#utility.yul\":483:488   */\n              dup2\n                /* \"#utility.yul\":480:515   */\n              eq\n                /* \"#utility.yul\":470:533   */\n              tag_35\n              jumpi\n                /* \"#utility.yul\":529:530   */\n              0x00\n                /* \"#utility.yul\":526:527   */\n              dup1\n                /* \"#utility.yul\":519:531   */\n              revert\n                /* \"#utility.yul\":470:533   */\n            tag_35:\n                /* \"#utility.yul\":417:539   */\n              pop\n              jump\t// out\n                /* \"#utility.yul\":545:684   */\n            tag_21:\n                /* \"#utility.yul\":591:596   */\n              0x00\n                /* \"#utility.yul\":629:635   */\n              dup2\n                /* \"#utility.yul\":616:636   */\n              calldataload\n                /* \"#utility.yul\":607:636   */\n              swap1\n              pop\n                /* \"#utility.yul\":645:678   */\n              tag_37\n                /* \"#utility.yul\":672:677   */\n              dup2\n                /* \"#utility.yul\":645:678   */\n              tag_20\n              jump\t// in\n            tag_37:\n                /* \"#utility.yul\":545:684   */\n              swap3\n              swap2\n              pop\n              pop\n              jump\t// out\n                /* \"#utility.yul\":690:1019   */\n            tag_6:\n                /* \"#utility.yul\":749:755   */\n              0x00\n                /* \"#utility.yul\":798:800   */\n              0x20\n                /* \"#utility.yul\":786:795   */\n              dup3\n                /* \"#utility.yul\":777:784   */\n              dup5\n                /* \"#utility.yul\":773:796   */\n              sub\n                /* \"#utility.yul\":769:801   */\n              slt\n                /* \"#utility.yul\":766:885   */\n              iszero\n              tag_39\n              jumpi\n                /* \"#utility.yul\":804:883   */\n              tag_40\n              tag_17\n              jump\t// in\n            tag_40:\n                /* \"#utility.yul\":766:885   */\n            tag_39:\n                /* \"#utility.yul\":924:925   */\n              0x00\n                /* \"#utility.yul\":949:1002   */\n              tag_41\n                /* \"#utility.yul\":994:1001   */\n              dup5\n                /* \"#utility.yul\":985:991   */\n              dup3\n                /* \"#utility.yul\":974:983   */\n              dup6\n                /* \"#utility.yul\":970:992   */\n              add\n                /* \"#utility.yul\":949:1002   */\n              tag_21\n              jump\t// in\n            tag_41:\n                /* \"#utility.yul\":939:1002   */\n              swap2\n              pop\n                /* \"#utility.yul\":895:1012   */\n              pop\n                /* \"#utility.yul\":690:1019   */\n              swap3\n              swap2\n              pop\n              pop\n              jump\t// out\n                /* \"#utility.yul\":1025:1115   */\n            tag_22:\n                /* \"#utility.yul\":1059:1066   */\n              0x00\n                /* \"#utility.yul\":1102:1107   */\n              dup2\n                /* \"#utility.yul\":1095:1108   */\n              iszero\n                /* \"#utility.yul\":1088:1109   */\n              iszero\n                /* \"#utility.yul\":1077:1109   */\n              swap1\n              pop\n                /* \"#utility.yul\":1025:1115   */\n              swap2\n              swap1\n              pop\n              jump\t// out\n                /* \"#utility.yul\":1121:1230   */\n            tag_23:\n                /* \"#utility.yul\":1202:1223   */\n              tag_44\n                /* \"#utility.yul\":1217:1222   */\n              dup2\n                /* \"#utility.yul\":1202:1223   */\n              tag_22\n              jump\t// in\n            tag_44:\n                /* \"#utility.yul\":1197:1200   */\n              dup3\n                /* \"#utility.yul\":1190:1224   */\n              mstore\n                /* \"#utility.yul\":1121:1230   */\n              pop\n              pop\n              jump\t// out\n                /* \"#utility.yul\":1236:1446   */\n            tag_9:\n                /* \"#utility.yul\":1323:1327   */\n              0x00\n                /* \"#utility.yul\":1361:1363   */\n              0x20\n                /* \"#utility.yul\":1350:1359   */\n              dup3\n                /* \"#utility.yul\":1346:1364   */\n              add\n                /* \"#utility.yul\":1338:1364   */\n              swap1\n              pop\n                /* \"#utility.yul\":1374:1439   */\n              tag_46\n                /* \"#utility.yul\":1436:1437   */\n              0x00\n                /* \"#utility.yul\":1425:1434   */\n              dup4\n                /* \"#utility.yul\":1421:1438   */\n              add\n                /* \"#utility.yul\":1412:1418   */\n              dup5\n                /* \"#utility.yul\":1374:1439   */\n              tag_23\n              jump\t// in\n            tag_46:\n                /* \"#utility.yul\":1236:1446   */\n              swap3\n              swap2\n              pop\n              pop\n              jump\t// out\n                /* \"#utility.yul\":1452:1632   */\n            tag_24:\n                /* \"#utility.yul\":1500:1577   */\n              0x4e487b7100000000000000000000000000000000000000000000000000000000\n                /* \"#utility.yul\":1497:1498   */\n              0x00\n                /* \"#utility.yul\":1490:1578   */\n              mstore\n                /* \"#utility.yul\":1597:1601   */\n              0x12\n                /* \"#utility.yul\":1594:1595   */\n              0x04\n                /* \"#utility.yul\":1587:1602   */\n              mstore\n                /* \"#utility.yul\":1621:1625   */\n              0x24\n                /* \"#utility.yul\":1618:1619   */\n              0x00\n                /* \"#utility.yul\":1611:1626   */\n              revert\n                /* \"#utility.yul\":1638:1814   */\n            tag_12:\n                /* \"#utility.yul\":1670:1671   */\n              0x00\n                /* \"#utility.yul\":1687:1707   */\n              tag_49\n                /* \"#utility.yul\":1705:1706   */\n              dup3\n                /* \"#utility.yul\":1687:1707   */\n              tag_19\n              jump\t// in\n            tag_49:\n                /* \"#utility.yul\":1682:1707   */\n              swap2\n              pop\n                /* \"#utility.yul\":1721:1741   */\n              tag_50\n                /* \"#utility.yul\":1739:1740   */\n              dup4\n                /* \"#utility.yul\":1721:1741   */\n              tag_19\n              jump\t// in\n            tag_50:\n                /* \"#utility.yul\":1716:1741   */\n              swap3\n              pop\n                /* \"#utility.yul\":1760:1761   */\n              dup3\n                /* \"#utility.yul\":1750:1785   */\n              tag_51\n              jumpi\n                /* \"#utility.yul\":1765:1783   */\n              tag_52\n              tag_24\n              jump\t// in\n            tag_52:\n                /* \"#utility.yul\":1750:1785   */\n            tag_51:\n                /* \"#utility.yul\":1806:1807   */\n              dup3\n                /* \"#utility.yul\":1803:1804   */\n              dup3\n                /* \"#utility.yul\":1799:1808   */\n              mod\n                /* \"#utility.yul\":1794:1808   */\n              swap1\n              pop\n                /* \"#utility.yul\":1638:1814   */\n              swap3\n              swap2\n              pop\n              pop\n              jump\t// out\n                /* \"#utility.yul\":1820:1989   */\n            tag_25:\n                /* \"#utility.yul\":1904:1915   */\n              0x00\n                /* \"#utility.yul\":1938:1944   */\n              dup3\n                /* \"#utility.yul\":1933:1936   */\n              dup3\n                /* \"#utility.yul\":1926:1945   */\n              mstore\n                /* \"#utility.yul\":1978:1982   */\n              0x20\n                /* \"#utility.yul\":1973:1976   */\n              dup3\n                /* \"#utility.yul\":1969:1983   */\n              add\n                /* \"#utility.yul\":1954:1983   */\n              swap1\n              pop\n                /* \"#utility.yul\":1820:1989   */\n              swap3\n              swap2\n              pop\n              pop\n              jump\t// out\n                /* \"#utility.yul\":1995:2209   */\n            tag_26:\n                /* \"#utility.yul\":2135:2201   */\n              0x6e20e4b88de698afe581b6e695b0000000000000000000000000000000000000\n                /* \"#utility.yul\":2131:2132   */\n              0x00\n                /* \"#utility.yul\":2123:2129   */\n              dup3\n                /* \"#utility.yul\":2119:2133   */\n              add\n                /* \"#utility.yul\":2112:2202   */\n              mstore\n                /* \"#utility.yul\":1995:2209   */\n              pop\n              jump\t// out\n                /* \"#utility.yul\":2215:2581   */\n            tag_27:\n                /* \"#utility.yul\":2357:2360   */\n              0x00\n                /* \"#utility.yul\":2378:2445   */\n              tag_56\n                /* \"#utility.yul\":2442:2444   */\n              0x0e\n                /* \"#utility.yul\":2437:2440   */\n              dup4\n                /* \"#utility.yul\":2378:2445   */\n              tag_25\n              jump\t// in\n            tag_56:\n                /* \"#utility.yul\":2371:2445   */\n              swap2\n              pop\n                /* \"#utility.yul\":2454:2547   */\n              tag_57\n                /* \"#utility.yul\":2543:2546   */\n              dup3\n                /* \"#utility.yul\":2454:2547   */\n              tag_26\n              jump\t// in\n            tag_57:\n                /* \"#utility.yul\":2572:2574   */\n              0x20\n                /* \"#utility.yul\":2567:2570   */\n              dup3\n                /* \"#utility.yul\":2563:2575   */\n              add\n                /* \"#utility.yul\":2556:2575   */\n              swap1\n              pop\n                /* \"#utility.yul\":2215:2581   */\n              swap2\n              swap1\n              pop\n              jump\t// out\n                /* \"#utility.yul\":2587:3006   */\n            tag_15:\n                /* \"#utility.yul\":2753:2757   */\n              0x00\n                /* \"#utility.yul\":2791:2793   */\n              0x20\n                /* \"#utility.yul\":2780:2789   */\n              dup3\n                /* \"#utility.yul\":2776:2794   */\n              add\n                /* \"#utility.yul\":2768:2794   */\n              swap1\n              pop\n                /* \"#utility.yul\":2840:2849   */\n              dup2\n                /* \"#utility.yul\":2834:2838   */\n              dup2\n                /* \"#utility.yul\":2830:2850   */\n              sub\n                /* \"#utility.yul\":2826:2827   */\n              0x00\n                /* \"#utility.yul\":2815:2824   */\n              dup4\n                /* \"#utility.yul\":2811:2828   */\n              add\n                /* \"#utility.yul\":2804:2851   */\n              mstore\n                /* \"#utility.yul\":2868:2999   */\n              tag_59\n                /* \"#utility.yul\":2994:2998   */\n              dup2\n                /* \"#utility.yul\":2868:2999   */\n              tag_27\n              jump\t// in\n            tag_59:\n                /* \"#utility.yul\":2860:2999   */\n              swap1\n              pop\n                /* \"#utility.yul\":2587:3006   */\n              swap2\n              swap1\n              pop\n              jump\t// out\n\n            auxdata: 0xa2646970667358221220186844ae25af3e192ee6baefeb7d0c56719102df4fbb2253fffa0a0f66e7809764736f6c63430008190033\n        }\n    }\n\n    auxdata: 0xa2646970667358221220131b70cab4ef1b277340887f5f01d4e7feb99d14c27494831d36f5f04b1c79ae64736f6c63430008190033\n}\n\nsub_1: assembly {\n        /* \"TryCatch.sol\":57:333  contract External {... */\n      mstore(0x40, 0x80)\n        /* \"TryCatch.sol\":81:180  constructor(uint n){... */\n      callvalue\n      dup1\n      iszero\n      tag_1\n      jumpi\n      0x00\n      dup1\n      revert\n    tag_1:\n      pop\n      mload(0x40)\n      sub(codesize, bytecodeSize)\n      dup1\n      bytecodeSize\n      dup4\n      codecopy\n      dup2\n      dup2\n      add\n      0x40\n      mstore\n      dup2\n      add\n      swap1\n      tag_2\n      swap2\n      swap1\n      tag_3\n      jump\t// in\n    tag_2:\n        /* \"TryCatch.sol\":123:124  0 */\n      0x00\n        /* \"TryCatch.sol\":118:119  n */\n      dup2\n        /* \"TryCatch.sol\":118:124  n != 0 */\n      sub\n        /* \"TryCatch.sol\":110:149  require(n != 0, unicode\"不能等于0\") */\n      tag_6\n      jumpi\n      mload(0x40)\n      0x08c379a000000000000000000000000000000000000000000000000000000000\n      dup2\n      mstore\n      0x04\n      add\n      tag_7\n      swap1\n      tag_8\n      jump\t// in\n    tag_7:\n      mload(0x40)\n      dup1\n      swap2\n      sub\n      swap1\n      revert\n    tag_6:\n        /* \"TryCatch.sol\":171:172  1 */\n      0x01\n        /* \"TryCatch.sol\":166:167  n */\n      dup2\n        /* \"TryCatch.sol\":166:172  n != 1 */\n      sub\n        /* \"TryCatch.sol\":159:173  assert(n != 1) */\n      tag_9\n      jumpi\n      tag_10\n      tag_11\n      jump\t// in\n    tag_10:\n    tag_9:\n        /* \"TryCatch.sol\":81:180  constructor(uint n){... */\n      pop\n        /* \"TryCatch.sol\":57:333  contract External {... */\n      jump(tag_12)\n        /* \"#utility.yul\":88:205   */\n    tag_14:\n        /* \"#utility.yul\":197:198   */\n      0x00\n        /* \"#utility.yul\":194:195   */\n      dup1\n        /* \"#utility.yul\":187:199   */\n      revert\n        /* \"#utility.yul\":334:411   */\n    tag_16:\n        /* \"#utility.yul\":371:378   */\n      0x00\n        /* \"#utility.yul\":400:405   */\n      dup2\n        /* \"#utility.yul\":389:405   */\n      swap1\n      pop\n        /* \"#utility.yul\":334:411   */\n      swap2\n      swap1\n      pop\n      jump\t// out\n        /* \"#utility.yul\":417:539   */\n    tag_17:\n        /* \"#utility.yul\":490:514   */\n      tag_28\n        /* \"#utility.yul\":508:513   */\n      dup2\n        /* \"#utility.yul\":490:514   */\n      tag_16\n      jump\t// in\n    tag_28:\n        /* \"#utility.yul\":483:488   */\n      dup2\n        /* \"#utility.yul\":480:515   */\n      eq\n        /* \"#utility.yul\":470:533   */\n      tag_29\n      jumpi\n        /* \"#utility.yul\":529:530   */\n      0x00\n        /* \"#utility.yul\":526:527   */\n      dup1\n        /* \"#utility.yul\":519:531   */\n      revert\n        /* \"#utility.yul\":470:533   */\n    tag_29:\n        /* \"#utility.yul\":417:539   */\n      pop\n      jump\t// out\n        /* \"#utility.yul\":545:688   */\n    tag_18:\n        /* \"#utility.yul\":602:607   */\n      0x00\n        /* \"#utility.yul\":633:639   */\n      dup2\n        /* \"#utility.yul\":627:640   */\n      mload\n        /* \"#utility.yul\":618:640   */\n      swap1\n      pop\n        /* \"#utility.yul\":649:682   */\n      tag_31\n        /* \"#utility.yul\":676:681   */\n      dup2\n        /* \"#utility.yul\":649:682   */\n      tag_17\n      jump\t// in\n    tag_31:\n        /* \"#utility.yul\":545:688   */\n      swap3\n      swap2\n      pop\n      pop\n      jump\t// out\n        /* \"#utility.yul\":694:1045   */\n    tag_3:\n        /* \"#utility.yul\":764:770   */\n      0x00\n        /* \"#utility.yul\":813:815   */\n      0x20\n        /* \"#utility.yul\":801:810   */\n      dup3\n        /* \"#utility.yul\":792:799   */\n      dup5\n        /* \"#utility.yul\":788:811   */\n      sub\n        /* \"#utility.yul\":784:816   */\n      slt\n        /* \"#utility.yul\":781:900   */\n      iszero\n      tag_33\n      jumpi\n        /* \"#utility.yul\":819:898   */\n      tag_34\n      tag_14\n      jump\t// in\n    tag_34:\n        /* \"#utility.yul\":781:900   */\n    tag_33:\n        /* \"#utility.yul\":939:940   */\n      0x00\n        /* \"#utility.yul\":964:1028   */\n      tag_35\n        /* \"#utility.yul\":1020:1027   */\n      dup5\n        /* \"#utility.yul\":1011:1017   */\n      dup3\n        /* \"#utility.yul\":1000:1009   */\n      dup6\n        /* \"#utility.yul\":996:1018   */\n      add\n        /* \"#utility.yul\":964:1028   */\n      tag_18\n      jump\t// in\n    tag_35:\n        /* \"#utility.yul\":954:1028   */\n      swap2\n      pop\n        /* \"#utility.yul\":910:1038   */\n      pop\n        /* \"#utility.yul\":694:1045   */\n      swap3\n      swap2\n      pop\n      pop\n      jump\t// out\n        /* \"#utility.yul\":1051:1220   */\n    tag_19:\n        /* \"#utility.yul\":1135:1146   */\n      0x00\n        /* \"#utility.yul\":1169:1175   */\n      dup3\n        /* \"#utility.yul\":1164:1167   */\n      dup3\n        /* \"#utility.yul\":1157:1176   */\n      mstore\n        /* \"#utility.yul\":1209:1213   */\n      0x20\n        /* \"#utility.yul\":1204:1207   */\n      dup3\n        /* \"#utility.yul\":1200:1214   */\n      add\n        /* \"#utility.yul\":1185:1214   */\n      swap1\n      pop\n        /* \"#utility.yul\":1051:1220   */\n      swap3\n      swap2\n      pop\n      pop\n      jump\t// out\n        /* \"#utility.yul\":1226:1440   */\n    tag_20:\n        /* \"#utility.yul\":1366:1432   */\n      0xe4b88de883bde7ad89e4ba8e3000000000000000000000000000000000000000\n        /* \"#utility.yul\":1362:1363   */\n      0x00\n        /* \"#utility.yul\":1354:1360   */\n      dup3\n        /* \"#utility.yul\":1350:1364   */\n      add\n        /* \"#utility.yul\":1343:1433   */\n      mstore\n        /* \"#utility.yul\":1226:1440   */\n      pop\n      jump\t// out\n        /* \"#utility.yul\":1446:1812   */\n    tag_21:\n        /* \"#utility.yul\":1588:1591   */\n      0x00\n        /* \"#utility.yul\":1609:1676   */\n      tag_39\n        /* \"#utility.yul\":1673:1675   */\n      0x0d\n        /* \"#utility.yul\":1668:1671   */\n      dup4\n        /* \"#utility.yul\":1609:1676   */\n      tag_19\n      jump\t// in\n    tag_39:\n        /* \"#utility.yul\":1602:1676   */\n      swap2\n      pop\n        /* \"#utility.yul\":1685:1778   */\n      tag_40\n        /* \"#utility.yul\":1774:1777   */\n      dup3\n        /* \"#utility.yul\":1685:1778   */\n      tag_20\n      jump\t// in\n    tag_40:\n        /* \"#utility.yul\":1803:1805   */\n      0x20\n        /* \"#utility.yul\":1798:1801   */\n      dup3\n        /* \"#utility.yul\":1794:1806   */\n      add\n        /* \"#utility.yul\":1787:1806   */\n      swap1\n      pop\n        /* \"#utility.yul\":1446:1812   */\n      swap2\n      swap1\n      pop\n      jump\t// out\n        /* \"#utility.yul\":1818:2237   */\n    tag_8:\n        /* \"#utility.yul\":1984:1988   */\n      0x00\n        /* \"#utility.yul\":2022:2024   */\n      0x20\n        /* \"#utility.yul\":2011:2020   */\n      dup3\n        /* \"#utility.yul\":2007:2025   */\n      add\n        /* \"#utility.yul\":1999:2025   */\n      swap1\n      pop\n        /* \"#utility.yul\":2071:2080   */\n      dup2\n        /* \"#utility.yul\":2065:2069   */\n      dup2\n        /* \"#utility.yul\":2061:2081   */\n      sub\n        /* \"#utility.yul\":2057:2058   */\n      0x00\n        /* \"#utility.yul\":2046:2055   */\n      dup4\n        /* \"#utility.yul\":2042:2059   */\n      add\n        /* \"#utility.yul\":2035:2082   */\n      mstore\n        /* \"#utility.yul\":2099:2230   */\n      tag_42\n        /* \"#utility.yul\":2225:2229   */\n      dup2\n        /* \"#utility.yul\":2099:2230   */\n      tag_21\n      jump\t// in\n    tag_42:\n        /* \"#utility.yul\":2091:2230   */\n      swap1\n      pop\n        /* \"#utility.yul\":1818:2237   */\n      swap2\n      swap1\n      pop\n      jump\t// out\n        /* \"#utility.yul\":2243:2423   */\n    tag_11:\n        /* \"#utility.yul\":2291:2368   */\n      0x4e487b7100000000000000000000000000000000000000000000000000000000\n        /* \"#utility.yul\":2288:2289   */\n      0x00\n        /* \"#utility.yul\":2281:2369   */\n      mstore\n        /* \"#utility.yul\":2388:2392   */\n      0x01\n        /* \"#utility.yul\":2385:2386   */\n      0x04\n        /* \"#utility.yul\":2378:2393   */\n      mstore\n        /* \"#utility.yul\":2412:2416   */\n      0x24\n        /* \"#utility.yul\":2409:2410   */\n      0x00\n        /* \"#utility.yul\":2402:2417   */\n      revert\n        /* \"TryCatch.sol\":57:333  contract External {... */\n    tag_12:\n      dataSize(sub_0)\n      dup1\n      dataOffset(sub_0)\n      0x00\n      codecopy\n      0x00\n      return\n    stop\n\n    sub_0: assembly {\n            /* \"TryCatch.sol\":57:333  contract External {... */\n          mstore(0x40, 0x80)\n          callvalue\n          dup1\n          iszero\n          tag_1\n          jumpi\n          0x00\n          dup1\n          revert\n        tag_1:\n          pop\n          jumpi(tag_2, lt(calldatasize, 0x04))\n          shr(0xe0, calldataload(0x00))\n          dup1\n          0x9aef81fe\n          eq\n          tag_3\n          jumpi\n        tag_2:\n          0x00\n          dup1\n          revert\n            /* \"TryCatch.sol\":186:331  function even(uint256 n) external pure returns(bool success){... */\n        tag_3:\n          tag_4\n          0x04\n          dup1\n          calldatasize\n          sub\n          dup2\n          add\n          swap1\n          tag_5\n          swap2\n          swap1\n          tag_6\n          jump\t// in\n        tag_5:\n          tag_7\n          jump\t// in\n        tag_4:\n          mload(0x40)\n          tag_8\n          swap2\n          swap1\n          tag_9\n          jump\t// in\n        tag_8:\n          mload(0x40)\n          dup1\n          swap2\n          sub\n          swap1\n          return\n        tag_7:\n            /* \"TryCatch.sol\":233:245  bool success */\n          0x00\n            /* \"TryCatch.sol\":273:274  0 */\n          dup1\n            /* \"TryCatch.sol\":268:269  2 */\n          0x02\n            /* \"TryCatch.sol\":264:265  n */\n          dup4\n            /* \"TryCatch.sol\":264:269  n % 2 */\n          tag_11\n          swap2\n          swap1\n          tag_12\n          jump\t// in\n        tag_11:\n            /* \"TryCatch.sol\":264:274  n % 2 == 0 */\n          eq\n            /* \"TryCatch.sol\":256:300  require(n % 2 == 0, unicode\"n 不是偶数\") */\n          tag_13\n          jumpi\n          mload(0x40)\n          0x08c379a000000000000000000000000000000000000000000000000000000000\n          dup2\n          mstore\n          0x04\n          add\n          tag_14\n          swap1\n          tag_15\n          jump\t// in\n        tag_14:\n          mload(0x40)\n          dup1\n          swap2\n          sub\n          swap1\n          revert\n        tag_13:\n            /* \"TryCatch.sol\":320:324  true */\n          0x01\n            /* \"TryCatch.sol\":310:324  success = true */\n          swap1\n          pop\n            /* \"TryCatch.sol\":186:331  function even(uint256 n) external pure returns(bool success){... */\n          swap2\n          swap1\n          pop\n          jump\t// out\n            /* \"#utility.yul\":88:205   */\n        tag_17:\n            /* \"#utility.yul\":197:198   */\n          0x00\n            /* \"#utility.yul\":194:195   */\n          dup1\n            /* \"#utility.yul\":187:199   */\n          revert\n            /* \"#utility.yul\":334:411   */\n        tag_19:\n            /* \"#utility.yul\":371:378   */\n          0x00\n            /* \"#utility.yul\":400:405   */\n          dup2\n            /* \"#utility.yul\":389:405   */\n          swap1\n          pop\n            /* \"#utility.yul\":334:411   */\n          swap2\n          swap1\n          pop\n          jump\t// out\n            /* \"#utility.yul\":417:539   */\n        tag_20:\n            /* \"#utility.yul\":490:514   */\n          tag_34\n            /* \"#utility.yul\":508:513   */\n          dup2\n            /* \"#utility.yul\":490:514   */\n          tag_19\n          jump\t// in\n        tag_34:\n            /* \"#utility.yul\":483:488   */\n          dup2\n            /* \"#utility.yul\":480:515   */\n          eq\n            /* \"#utility.yul\":470:533   */\n          tag_35\n          jumpi\n            /* \"#utility.yul\":529:530   */\n          0x00\n            /* \"#utility.yul\":526:527   */\n          dup1\n            /* \"#utility.yul\":519:531   */\n          revert\n            /* \"#utility.yul\":470:533   */\n        tag_35:\n            /* \"#utility.yul\":417:539   */\n          pop\n          jump\t// out\n            /* \"#utility.yul\":545:684   */\n        tag_21:\n            /* \"#utility.yul\":591:596   */\n          0x00\n            /* \"#utility.yul\":629:635   */\n          dup2\n            /* \"#utility.yul\":616:636   */\n          calldataload\n            /* \"#utility.yul\":607:636   */\n          swap1\n          pop\n            /* \"#utility.yul\":645:678   */\n          tag_37\n            /* \"#utility.yul\":672:677   */\n          dup2\n            /* \"#utility.yul\":645:678   */\n          tag_20\n          jump\t// in\n        tag_37:\n            /* \"#utility.yul\":545:684   */\n          swap3\n          swap2\n          pop\n          pop\n          jump\t// out\n            /* \"#utility.yul\":690:1019   */\n        tag_6:\n            /* \"#utility.yul\":749:755   */\n          0x00\n            /* \"#utility.yul\":798:800   */\n          0x20\n            /* \"#utility.yul\":786:795   */\n          dup3\n            /* \"#utility.yul\":777:784   */\n          dup5\n            /* \"#utility.yul\":773:796   */\n          sub\n            /* \"#utility.yul\":769:801   */\n          slt\n            /* \"#utility.yul\":766:885   */\n          iszero\n          tag_39\n          jumpi\n            /* \"#utility.yul\":804:883   */\n          tag_40\n          tag_17\n          jump\t// in\n        tag_40:\n            /* \"#utility.yul\":766:885   */\n        tag_39:\n            /* \"#utility.yul\":924:925   */\n          0x00\n            /* \"#utility.yul\":949:1002   */\n          tag_41\n            /* \"#utility.yul\":994:1001   */\n          dup5\n            /* \"#utility.yul\":985:991   */\n          dup3\n            /* \"#utility.yul\":974:983   */\n          dup6\n            /* \"#utility.yul\":970:992   */\n          add\n            /* \"#utility.yul\":949:1002   */\n          tag_21\n          jump\t// in\n        tag_41:\n            /* \"#utility.yul\":939:1002   */\n          swap2\n          pop\n            /* \"#utility.yul\":895:1012   */\n          pop\n            /* \"#utility.yul\":690:1019   */\n          swap3\n          swap2\n          pop\n          pop\n          jump\t// out\n            /* \"#utility.yul\":1025:1115   */\n        tag_22:\n            /* \"#utility.yul\":1059:1066   */\n          0x00\n            /* \"#utility.yul\":1102:1107   */\n          dup2\n            /* \"#utility.yul\":1095:1108   */\n          iszero\n            /* \"#utility.yul\":1088:1109   */\n          iszero\n            /* \"#utility.yul\":1077:1109   */\n          swap1\n          pop\n            /* \"#utility.yul\":1025:1115   */\n          swap2\n          swap1\n          pop\n          jump\t// out\n            /* \"#utility.yul\":1121:1230   */\n        tag_23:\n            /* \"#utility.yul\":1202:1223   */\n          tag_44\n            /* \"#utility.yul\":1217:1222   */\n          dup2\n            /* \"#utility.yul\":1202:1223   */\n          tag_22\n          jump\t// in\n        tag_44:\n            /* \"#utility.yul\":1197:1200   */\n          dup3\n            /* \"#utility.yul\":1190:1224   */\n          mstore\n            /* \"#utility.yul\":1121:1230   */\n          pop\n          pop\n          jump\t// out\n            /* \"#utility.yul\":1236:1446   */\n        tag_9:\n            /* \"#utility.yul\":1323:1327   */\n          0x00\n            /* \"#utility.yul\":1361:1363   */\n          0x20\n            /* \"#utility.yul\":1350:1359   */\n          dup3\n            /* \"#utility.yul\":1346:1364   */\n          add\n            /* \"#utility.yul\":1338:1364   */\n          swap1\n          pop\n            /* \"#utility.yul\":1374:1439   */\n          tag_46\n            /* \"#utility.yul\":1436:1437   */\n          0x00\n            /* \"#utility.yul\":1425:1434   */\n          dup4\n            /* \"#utility.yul\":1421:1438   */\n          add\n            /* \"#utility.yul\":1412:1418   */\n          dup5\n            /* \"#utility.yul\":1374:1439   */\n          tag_23\n          jump\t// in\n        tag_46:\n            /* \"#utility.yul\":1236:1446   */\n          swap3\n          swap2\n          pop\n          pop\n          jump\t// out\n            /* \"#utility.yul\":1452:1632   */\n        tag_24:\n            /* \"#utility.yul\":1500:1577   */\n          0x4e487b7100000000000000000000000000000000000000000000000000000000\n            /* \"#utility.yul\":1497:1498   */\n          0x00\n            /* \"#utility.yul\":1490:1578   */\n          mstore\n            /* \"#utility.yul\":1597:1601   */\n          0x12\n            /* \"#utility.yul\":1594:1595   */\n          0x04\n            /* \"#utility.yul\":1587:1602   */\n          mstore\n            /* \"#utility.yul\":1621:1625   */\n          0x24\n            /* \"#utility.yul\":1618:1619   */\n          0x00\n            /* \"#utility.yul\":1611:1626   */\n          revert\n            /* \"#utility.yul\":1638:1814   */\n        tag_12:\n            /* \"#utility.yul\":1670:1671   */\n          0x00\n            /* \"#utility.yul\":1687:1707   */\n          tag_49\n            /* \"#utility.yul\":1705:1706   */\n          dup3\n            /* \"#utility.yul\":1687:1707   */\n          tag_19\n          jump\t// in\n        tag_49:\n            /* \"#utility.yul\":1682:1707   */\n          swap2\n          pop\n            /* \"#utility.yul\":1721:1741   */\n          tag_50\n            /* \"#utility.yul\":1739:1740   */\n          dup4\n            /* \"#utility.yul\":1721:1741   */\n          tag_19\n          jump\t// in\n        tag_50:\n            /* \"#utility.yul\":1716:1741   */\n          swap3\n          pop\n            /* \"#utility.yul\":1760:1761   */\n          dup3\n            /* \"#utility.yul\":1750:1785   */\n          tag_51\n          jumpi\n            /* \"#utility.yul\":1765:1783   */\n          tag_52\n          tag_24\n          jump\t// in\n        tag_52:\n            /* \"#utility.yul\":1750:1785   */\n        tag_51:\n            /* \"#utility.yul\":1806:1807   */\n          dup3\n            /* \"#utility.yul\":1803:1804   */\n          dup3\n            /* \"#utility.yul\":1799:1808   */\n          mod\n            /* \"#utility.yul\":1794:1808   */\n          swap1\n          pop\n            /* \"#utility.yul\":1638:1814   */\n          swap3\n          swap2\n          pop\n          pop\n          jump\t// out\n            /* \"#utility.yul\":1820:1989   */\n        tag_25:\n            /* \"#utility.yul\":1904:1915   */\n          0x00\n            /* \"#utility.yul\":1938:1944   */\n          dup3\n            /* \"#utility.yul\":1933:1936   */\n          dup3\n            /* \"#utility.yul\":1926:1945   */\n          mstore\n            /* \"#utility.yul\":1978:1982   */\n          0x20\n            /* \"#utility.yul\":1973:1976   */\n          dup3\n            /* \"#utility.yul\":1969:1983   */\n          add\n            /* \"#utility.yul\":1954:1983   */\n          swap1\n          pop\n            /* \"#utility.yul\":1820:1989   */\n          swap3\n          swap2\n          pop\n          pop\n          jump\t// out\n            /* \"#utility.yul\":1995:2209   */\n        tag_26:\n            /* \"#utility.yul\":2135:2201   */\n          0x6e20e4b88de698afe581b6e695b0000000000000000000000000000000000000\n            /* \"#utility.yul\":2131:2132   */\n          0x00\n            /* \"#utility.yul\":2123:2129   */\n          dup3\n            /* \"#utility.yul\":2119:2133   */\n          add\n            /* \"#utility.yul\":2112:2202   */\n          mstore\n            /* \"#utility.yul\":1995:2209   */\n          pop\n          jump\t// out\n            /* \"#utility.yul\":2215:2581   */\n        tag_27:\n            /* \"#utility.yul\":2357:2360   */\n          0x00\n            /* \"#utility.yul\":2378:2445   */\n          tag_56\n            /* \"#utility.yul\":2442:2444   */\n          0x0e\n            /* \"#utility.yul\":2437:2440   */\n          dup4\n            /* \"#utility.yul\":2378:2445   */\n          tag_25\n          jump\t// in\n        tag_56:\n            /* \"#utility.yul\":2371:2445   */\n          swap2\n          pop\n            /* \"#utility.yul\":2454:2547   */\n          tag_57\n            /* \"#utility.yul\":2543:2546   */\n          dup3\n            /* \"#utility.yul\":2454:2547   */\n          tag_26\n          jump\t// in\n        tag_57:\n            /* \"#utility.yul\":2572:2574   */\n          0x20\n            /* \"#utility.yul\":2567:2570   */\n          dup3\n            /* \"#utility.yul\":2563:2575   */\n          add\n            /* \"#utility.yul\":2556:2575   */\n          swap1\n          pop\n            /* \"#utility.yul\":2215:2581   */\n          swap2\n          swap1\n          pop\n          jump\t// out\n            /* \"#utility.yul\":2587:3006   */\n        tag_15:\n            /* \"#utility.yul\":2753:2757   */\n          0x00\n            /* \"#utility.yul\":2791:2793   */\n          0x20\n            /* \"#utility.yul\":2780:2789   */\n          dup3\n            /* \"#utility.yul\":2776:2794   */\n          add\n            /* \"#utility.yul\":2768:2794   */\n          swap1\n          pop\n            /* \"#utility.yul\":2840:2849   */\n          dup2\n            /* \"#utility.yul\":2834:2838   */\n          dup2\n            /* \"#utility.yul\":2830:2850   */\n          sub\n            /* \"#utility.yul\":2826:2827   */\n          0x00\n            /* \"#utility.yul\":2815:2824   */\n          dup4\n            /* \"#utility.yul\":2811:2828   */\n          add\n            /* \"#utility.yul\":2804:2851   */\n          mstore\n            /* \"#utility.yul\":2868:2999   */\n          tag_59\n            /* \"#utility.yul\":2994:2998   */\n          dup2\n            /* \"#utility.yul\":2868:2999   */\n          tag_27\n          jump\t// in\n        tag_59:\n            /* \"#utility.yul\":2860:2999   */\n          swap1\n          pop\n            /* \"#utility.yul\":2587:3006   */\n          swap2\n          swap1\n          pop\n          jump\t// out\n\n        auxdata: 0xa2646970667358221220186844ae25af3e192ee6baefeb7d0c56719102df4fbb2253fffa0a0f66e7809764736f6c63430008190033\n    }\n}\n",
				"bytecode": {
					"linkReferences": {},
					"object": "608060405234801561000f575f80fd5b50600260405161001e90610085565b61002891906100dd565b604051809103905ff080158015610041573d5f803e3d5ffd5b505f806101000a81548173ffffffffffffffffffffffffffffffffffffffff021916908373ffffffffffffffffffffffffffffffffffffffff1602179055506100f6565b6103f380610b5983390190565b5f819050919050565b5f819050919050565b5f819050919050565b5f6100c76100c26100bd84610092565b6100a4565b61009b565b9050919050565b6100d7816100ad565b82525050565b5f6020820190506100f05f8301846100ce565b92915050565b610a56806101035f395ff3fe608060405234801561000f575f80fd5b5060043610610034575f3560e01c8063c2d0acc714610038578063d36c9fad14610054575b5f80fd5b610052600480360381019061004d9190610360565b610070565b005b61006e60048036038101906100699190610360565b6101d5565b005b8060405161007d90610313565b610087919061039a565b604051809103905ff080156100995760015b610171576100a56103bf565b806308c379a00361010157506100b961044c565b806100c45750610103565b7fb761112ad379c509744de8d585702b0d2694d4ceaef85ad50d452ff06821a6a6816040516100f3919061053b565b60405180910390a15061016c565b505b3d805f811461012d576040519150601f19603f3d011682016040523d82523d5f602084013e610132565b606091505b507fb6f66868478aebcea8c7a15c8c7dd37a513a4127424642ee3573117b52fa3e398160405161016291906105ad565b60405180910390a1505b6101d2565b7ffd76336752e93f2cc77cf13a41be8b6c156731030376354d634d28a9a87b916260405160405180910390a1816040516101aa90610313565b6101b4919061039a565b604051809103905ff0801580156101cd573d5f803e3d5ffd5b509050505b50565b5f8054906101000a900473ffffffffffffffffffffffffffffffffffffffff1673ffffffffffffffffffffffffffffffffffffffff16639aef81fe826040518263ffffffff1660e01b815260040161022d919061039a565b602060405180830381865afa92505050801561026757506040513d601f19601f820116820180604052508101906102649190610602565b60015b6102de576102736103bf565b806308c379a0036102cf575061028761044c565b8061029257506102d1565b7fb761112ad379c509744de8d585702b0d2694d4ceaef85ad50d452ff06821a6a6816040516102c1919061053b565b60405180910390a1506102d9565b505b3d5f803e3d5ffd5b610310565b7ffd76336752e93f2cc77cf13a41be8b6c156731030376354d634d28a9a87b916260405160405180910390a160019050505b50565b6103f38061062e83390190565b5f604051905090565b5f80fd5b5f819050919050565b61033f8161032d565b8114610349575f80fd5b50565b5f8135905061035a81610336565b92915050565b5f6020828403121561037557610374610329565b5b5f6103828482850161034c565b91505092915050565b6103948161032d565b82525050565b5f6020820190506103ad5f83018461038b565b92915050565b5f8160e01c9050919050565b5f60033d11156103db5760045f803e6103d85f516103b3565b90505b90565b5f601f19601f8301169050919050565b7f4e487b71000000000000000000000000000000000000000000000000000000005f52604160045260245ffd5b610424826103de565b810181811067ffffffffffffffff82111715610443576104426103ee565b5b80604052505050565b5f60443d106104d85761045d610320565b60043d036004823e80513d602482011167ffffffffffffffff821117156104855750506104d8565b808201805167ffffffffffffffff8111156104a357505050506104d8565b80602083010160043d0385018111156104c05750505050506104d8565b6104cf8260200185018661041b565b82955050505050505b90565b5f81519050919050565b5f82825260208201905092915050565b8281835e5f83830152505050565b5f61050d826104db565b61051781856104e5565b93506105278185602086016104f5565b610530816103de565b840191505092915050565b5f6020820190508181035f8301526105538184610503565b905092915050565b5f81519050919050565b5f82825260208201905092915050565b5f61057f8261055b565b6105898185610565565b93506105998185602086016104f5565b6105a2816103de565b840191505092915050565b5f6020820190508181035f8301526105c58184610575565b905092915050565b5f8115159050919050565b6105e1816105cd565b81146105eb575f80fd5b50565b5f815190506105fc816105d8565b92915050565b5f6020828403121561061757610616610329565b5b5f610624848285016105ee565b9150509291505056fe608060405234801561000f575f80fd5b506040516103f33803806103f3833981810160405281019061003191906100c1565b5f8103610073576040517f08c379a000000000000000000000000000000000000000000000000000000000815260040161006a90610146565b60405180910390fd5b6001810361008457610083610164565b5b50610191565b5f80fd5b5f819050919050565b6100a08161008e565b81146100aa575f80fd5b50565b5f815190506100bb81610097565b92915050565b5f602082840312156100d6576100d561008a565b5b5f6100e3848285016100ad565b91505092915050565b5f82825260208201905092915050565b7fe4b88de883bde7ad89e4ba8e30000000000000000000000000000000000000005f82015250565b5f610130600d836100ec565b915061013b826100fc565b602082019050919050565b5f6020820190508181035f83015261015d81610124565b9050919050565b7f4e487b71000000000000000000000000000000000000000000000000000000005f52600160045260245ffd5b6102558061019e5f395ff3fe608060405234801561000f575f80fd5b5060043610610029575f3560e01c80639aef81fe1461002d575b5f80fd5b610047600480360381019061004291906100ec565b61005d565b6040516100549190610131565b60405180910390f35b5f8060028361006c9190610177565b146100ac576040517f08c379a00000000000000000000000000000000000000000000000000000000081526004016100a390610201565b60405180910390fd5b60019050919050565b5f80fd5b5f819050919050565b6100cb816100b9565b81146100d5575f80fd5b50565b5f813590506100e6816100c2565b92915050565b5f60208284031215610101576101006100b5565b5b5f61010e848285016100d8565b91505092915050565b5f8115159050919050565b61012b81610117565b82525050565b5f6020820190506101445f830184610122565b92915050565b7f4e487b71000000000000000000000000000000000000000000000000000000005f52601260045260245ffd5b5f610181826100b9565b915061018c836100b9565b92508261019c5761019b61014a565b5b828206905092915050565b5f82825260208201905092915050565b7f6e20e4b88de698afe581b6e695b00000000000000000000000000000000000005f82015250565b5f6101eb600e836101a7565b91506101f6826101b7565b602082019050919050565b5f6020820190508181035f830152610218816101df565b905091905056fea2646970667358221220186844ae25af3e192ee6baefeb7d0c56719102df4fbb2253fffa0a0f66e7809764736f6c63430008190033a2646970667358221220131b70cab4ef1b277340887f5f01d4e7feb99d14c27494831d36f5f04b1c79ae64736f6c63430008190033608060405234801561000f575f80fd5b506040516103f33803806103f3833981810160405281019061003191906100c1565b5f8103610073576040517f08c379a000000000000000000000000000000000000000000000000000000000815260040161006a90610146565b60405180910390fd5b6001810361008457610083610164565b5b50610191565b5f80fd5b5f819050919050565b6100a08161008e565b81146100aa575f80fd5b50565b5f815190506100bb81610097565b92915050565b5f602082840312156100d6576100d561008a565b5b5f6100e3848285016100ad565b91505092915050565b5f82825260208201905092915050565b7fe4b88de883bde7ad89e4ba8e30000000000000000000000000000000000000005f82015250565b5f610130600d836100ec565b915061013b826100fc565b602082019050919050565b5f6020820190508181035f83015261015d81610124565b9050919050565b7f4e487b71000000000000000000000000000000000000000000000000000000005f52600160045260245ffd5b6102558061019e5f395ff3fe608060405234801561000f575f80fd5b5060043610610029575f3560e01c80639aef81fe1461002d575b5f80fd5b610047600480360381019061004291906100ec565b61005d565b6040516100549190610131565b60405180910390f35b5f8060028361006c9190610177565b146100ac576040517f08c379a00000000000000000000000000000000000000000000000000000000081526004016100a390610201565b60405180910390fd5b60019050919050565b5f80fd5b5f819050919050565b6100cb816100b9565b81146100d5575f80fd5b50565b5f813590506100e6816100c2565b92915050565b5f60208284031215610101576101006100b5565b5b5f61010e848285016100d8565b91505092915050565b5f8115159050919050565b61012b81610117565b82525050565b5f6020820190506101445f830184610122565b92915050565b7f4e487b71000000000000000000000000000000000000000000000000000000005f52601260045260245ffd5b5f610181826100b9565b915061018c836100b9565b92508261019c5761019b61014a565b5b828206905092915050565b5f82825260208201905092915050565b7f6e20e4b88de698afe581b6e695b00000000000000000000000000000000000005f82015250565b5f6101eb600e836101a7565b91506101f6826101b7565b602082019050919050565b5f6020820190508181035f830152610218816101df565b905091905056fea2646970667358221220186844ae25af3e192ee6baefeb7d0c56719102df4fbb2253fffa0a0f66e7809764736f6c63430008190033",
					"opcodes": "PUSH1 0x80 PUSH1 0x40 MSTORE CALLVALUE DUP1 ISZERO PUSH2 0xF JUMPI PUSH0 DUP1 REVERT JUMPDEST POP PUSH1 0x2 PUSH1 0x40 MLOAD PUSH2 0x1E SWAP1 PUSH2 0x85 JUMP JUMPDEST PUSH2 0x28 SWAP2 SWAP1 PUSH2 0xDD JUMP JUMPDEST PUSH1 0x40 MLOAD DUP1 SWAP2 SUB SWAP1 PUSH0 CREATE DUP1 ISZERO DUP1 ISZERO PUSH2 0x41 JUMPI RETURNDATASIZE PUSH0 DUP1 RETURNDATACOPY RETURNDATASIZE PUSH0 REVERT JUMPDEST POP PUSH0 DUP1 PUSH2 0x100 EXP DUP2 SLOAD DUP2 PUSH20 0xFFFFFFFFFFFFFFFFFFFFFFFFFFFFFFFFFFFFFFFF MUL NOT AND SWAP1 DUP4 PUSH20 0xFFFFFFFFFFFFFFFFFFFFFFFFFFFFFFFFFFFFFFFF AND MUL OR SWAP1 SSTORE POP PUSH2 0xF6 JUMP JUMPDEST PUSH2 0x3F3 DUP1 PUSH2 0xB59 DUP4 CODECOPY ADD SWAP1 JUMP JUMPDEST PUSH0 DUP2 SWAP1 POP SWAP2 SWAP1 POP JUMP JUMPDEST PUSH0 DUP2 SWAP1 POP SWAP2 SWAP1 POP JUMP JUMPDEST PUSH0 DUP2 SWAP1 POP SWAP2 SWAP1 POP JUMP JUMPDEST PUSH0 PUSH2 0xC7 PUSH2 0xC2 PUSH2 0xBD DUP5 PUSH2 0x92 JUMP JUMPDEST PUSH2 0xA4 JUMP JUMPDEST PUSH2 0x9B JUMP JUMPDEST SWAP1 POP SWAP2 SWAP1 POP JUMP JUMPDEST PUSH2 0xD7 DUP2 PUSH2 0xAD JUMP JUMPDEST DUP3 MSTORE POP POP JUMP JUMPDEST PUSH0 PUSH1 0x20 DUP3 ADD SWAP1 POP PUSH2 0xF0 PUSH0 DUP4 ADD DUP5 PUSH2 0xCE JUMP JUMPDEST SWAP3 SWAP2 POP POP JUMP JUMPDEST PUSH2 0xA56 DUP1 PUSH2 0x103 PUSH0 CODECOPY PUSH0 RETURN INVALID PUSH1 0x80 PUSH1 0x40 MSTORE CALLVALUE DUP1 ISZERO PUSH2 0xF JUMPI PUSH0 DUP1 REVERT JUMPDEST POP PUSH1 0x4 CALLDATASIZE LT PUSH2 0x34 JUMPI PUSH0 CALLDATALOAD PUSH1 0xE0 SHR DUP1 PUSH4 0xC2D0ACC7 EQ PUSH2 0x38 JUMPI DUP1 PUSH4 0xD36C9FAD EQ PUSH2 0x54 JUMPI JUMPDEST PUSH0 DUP1 REVERT JUMPDEST PUSH2 0x52 PUSH1 0x4 DUP1 CALLDATASIZE SUB DUP2 ADD SWAP1 PUSH2 0x4D SWAP2 SWAP1 PUSH2 0x360 JUMP JUMPDEST PUSH2 0x70 JUMP JUMPDEST STOP JUMPDEST PUSH2 0x6E PUSH1 0x4 DUP1 CALLDATASIZE SUB DUP2 ADD SWAP1 PUSH2 0x69 SWAP2 SWAP1 PUSH2 0x360 JUMP JUMPDEST PUSH2 0x1D5 JUMP JUMPDEST STOP JUMPDEST DUP1 PUSH1 0x40 MLOAD PUSH2 0x7D SWAP1 PUSH2 0x313 JUMP JUMPDEST PUSH2 0x87 SWAP2 SWAP1 PUSH2 0x39A JUMP JUMPDEST PUSH1 0x40 MLOAD DUP1 SWAP2 SUB SWAP1 PUSH0 CREATE DUP1 ISZERO PUSH2 0x99 JUMPI PUSH1 0x1 JUMPDEST PUSH2 0x171 JUMPI PUSH2 0xA5 PUSH2 0x3BF JUMP JUMPDEST DUP1 PUSH4 0x8C379A0 SUB PUSH2 0x101 JUMPI POP PUSH2 0xB9 PUSH2 0x44C JUMP JUMPDEST DUP1 PUSH2 0xC4 JUMPI POP PUSH2 0x103 JUMP JUMPDEST PUSH32 0xB761112AD379C509744DE8D585702B0D2694D4CEAEF85AD50D452FF06821A6A6 DUP2 PUSH1 0x40 MLOAD PUSH2 0xF3 SWAP2 SWAP1 PUSH2 0x53B JUMP JUMPDEST PUSH1 0x40 MLOAD DUP1 SWAP2 SUB SWAP1 LOG1 POP PUSH2 0x16C JUMP JUMPDEST POP JUMPDEST RETURNDATASIZE DUP1 PUSH0 DUP2 EQ PUSH2 0x12D JUMPI PUSH1 0x40 MLOAD SWAP2 POP PUSH1 0x1F NOT PUSH1 0x3F RETURNDATASIZE ADD AND DUP3 ADD PUSH1 0x40 MSTORE RETURNDATASIZE DUP3 MSTORE RETURNDATASIZE PUSH0 PUSH1 0x20 DUP5 ADD RETURNDATACOPY PUSH2 0x132 JUMP JUMPDEST PUSH1 0x60 SWAP2 POP JUMPDEST POP PUSH32 0xB6F66868478AEBCEA8C7A15C8C7DD37A513A4127424642EE3573117B52FA3E39 DUP2 PUSH1 0x40 MLOAD PUSH2 0x162 SWAP2 SWAP1 PUSH2 0x5AD JUMP JUMPDEST PUSH1 0x40 MLOAD DUP1 SWAP2 SUB SWAP1 LOG1 POP JUMPDEST PUSH2 0x1D2 JUMP JUMPDEST PUSH32 0xFD76336752E93F2CC77CF13A41BE8B6C156731030376354D634D28A9A87B9162 PUSH1 0x40 MLOAD PUSH1 0x40 MLOAD DUP1 SWAP2 SUB SWAP1 LOG1 DUP2 PUSH1 0x40 MLOAD PUSH2 0x1AA SWAP1 PUSH2 0x313 JUMP JUMPDEST PUSH2 0x1B4 SWAP2 SWAP1 PUSH2 0x39A JUMP JUMPDEST PUSH1 0x40 MLOAD DUP1 SWAP2 SUB SWAP1 PUSH0 CREATE DUP1 ISZERO DUP1 ISZERO PUSH2 0x1CD JUMPI RETURNDATASIZE PUSH0 DUP1 RETURNDATACOPY RETURNDATASIZE PUSH0 REVERT JUMPDEST POP SWAP1 POP POP JUMPDEST POP JUMP JUMPDEST PUSH0 DUP1 SLOAD SWAP1 PUSH2 0x100 EXP SWAP1 DIV PUSH20 0xFFFFFFFFFFFFFFFFFFFFFFFFFFFFFFFFFFFFFFFF AND PUSH20 0xFFFFFFFFFFFFFFFFFFFFFFFFFFFFFFFFFFFFFFFF AND PUSH4 0x9AEF81FE DUP3 PUSH1 0x40 MLOAD DUP3 PUSH4 0xFFFFFFFF AND PUSH1 0xE0 SHL DUP2 MSTORE PUSH1 0x4 ADD PUSH2 0x22D SWAP2 SWAP1 PUSH2 0x39A JUMP JUMPDEST PUSH1 0x20 PUSH1 0x40 MLOAD DUP1 DUP4 SUB DUP2 DUP7 GAS STATICCALL SWAP3 POP POP POP DUP1 ISZERO PUSH2 0x267 JUMPI POP PUSH1 0x40 MLOAD RETURNDATASIZE PUSH1 0x1F NOT PUSH1 0x1F DUP3 ADD AND DUP3 ADD DUP1 PUSH1 0x40 MSTORE POP DUP2 ADD SWAP1 PUSH2 0x264 SWAP2 SWAP1 PUSH2 0x602 JUMP JUMPDEST PUSH1 0x1 JUMPDEST PUSH2 0x2DE JUMPI PUSH2 0x273 PUSH2 0x3BF JUMP JUMPDEST DUP1 PUSH4 0x8C379A0 SUB PUSH2 0x2CF JUMPI POP PUSH2 0x287 PUSH2 0x44C JUMP JUMPDEST DUP1 PUSH2 0x292 JUMPI POP PUSH2 0x2D1 JUMP JUMPDEST PUSH32 0xB761112AD379C509744DE8D585702B0D2694D4CEAEF85AD50D452FF06821A6A6 DUP2 PUSH1 0x40 MLOAD PUSH2 0x2C1 SWAP2 SWAP1 PUSH2 0x53B JUMP JUMPDEST PUSH1 0x40 MLOAD DUP1 SWAP2 SUB SWAP1 LOG1 POP PUSH2 0x2D9 JUMP JUMPDEST POP JUMPDEST RETURNDATASIZE PUSH0 DUP1 RETURNDATACOPY RETURNDATASIZE PUSH0 REVERT JUMPDEST PUSH2 0x310 JUMP JUMPDEST PUSH32 0xFD76336752E93F2CC77CF13A41BE8B6C156731030376354D634D28A9A87B9162 PUSH1 0x40 MLOAD PUSH1 0x40 MLOAD DUP1 SWAP2 SUB SWAP1 LOG1 PUSH1 0x1 SWAP1 POP POP JUMPDEST POP JUMP JUMPDEST PUSH2 0x3F3 DUP1 PUSH2 0x62E DUP4 CODECOPY ADD SWAP1 JUMP JUMPDEST PUSH0 PUSH1 0x40 MLOAD SWAP1 POP SWAP1 JUMP JUMPDEST PUSH0 DUP1 REVERT JUMPDEST PUSH0 DUP2 SWAP1 POP SWAP2 SWAP1 POP JUMP JUMPDEST PUSH2 0x33F DUP2 PUSH2 0x32D JUMP JUMPDEST DUP2 EQ PUSH2 0x349 JUMPI PUSH0 DUP1 REVERT JUMPDEST POP JUMP JUMPDEST PUSH0 DUP2 CALLDATALOAD SWAP1 POP PUSH2 0x35A DUP2 PUSH2 0x336 JUMP JUMPDEST SWAP3 SWAP2 POP POP JUMP JUMPDEST PUSH0 PUSH1 0x20 DUP3 DUP5 SUB SLT ISZERO PUSH2 0x375 JUMPI PUSH2 0x374 PUSH2 0x329 JUMP JUMPDEST JUMPDEST PUSH0 PUSH2 0x382 DUP5 DUP3 DUP6 ADD PUSH2 0x34C JUMP JUMPDEST SWAP2 POP POP SWAP3 SWAP2 POP POP JUMP JUMPDEST PUSH2 0x394 DUP2 PUSH2 0x32D JUMP JUMPDEST DUP3 MSTORE POP POP JUMP JUMPDEST PUSH0 PUSH1 0x20 DUP3 ADD SWAP1 POP PUSH2 0x3AD PUSH0 DUP4 ADD DUP5 PUSH2 0x38B JUMP JUMPDEST SWAP3 SWAP2 POP POP JUMP JUMPDEST PUSH0 DUP2 PUSH1 0xE0 SHR SWAP1 POP SWAP2 SWAP1 POP JUMP JUMPDEST PUSH0 PUSH1 0x3 RETURNDATASIZE GT ISZERO PUSH2 0x3DB JUMPI PUSH1 0x4 PUSH0 DUP1 RETURNDATACOPY PUSH2 0x3D8 PUSH0 MLOAD PUSH2 0x3B3 JUMP JUMPDEST SWAP1 POP JUMPDEST SWAP1 JUMP JUMPDEST PUSH0 PUSH1 0x1F NOT PUSH1 0x1F DUP4 ADD AND SWAP1 POP SWAP2 SWAP1 POP JUMP JUMPDEST PUSH32 0x4E487B7100000000000000000000000000000000000000000000000000000000 PUSH0 MSTORE PUSH1 0x41 PUSH1 0x4 MSTORE PUSH1 0x24 PUSH0 REVERT JUMPDEST PUSH2 0x424 DUP3 PUSH2 0x3DE JUMP JUMPDEST DUP2 ADD DUP2 DUP2 LT PUSH8 0xFFFFFFFFFFFFFFFF DUP3 GT OR ISZERO PUSH2 0x443 JUMPI PUSH2 0x442 PUSH2 0x3EE JUMP JUMPDEST JUMPDEST DUP1 PUSH1 0x40 MSTORE POP POP POP JUMP JUMPDEST PUSH0 PUSH1 0x44 RETURNDATASIZE LT PUSH2 0x4D8 JUMPI PUSH2 0x45D PUSH2 0x320 JUMP JUMPDEST PUSH1 0x4 RETURNDATASIZE SUB PUSH1 0x4 DUP3 RETURNDATACOPY DUP1 MLOAD RETURNDATASIZE PUSH1 0x24 DUP3 ADD GT PUSH8 0xFFFFFFFFFFFFFFFF DUP3 GT OR ISZERO PUSH2 0x485 JUMPI POP POP PUSH2 0x4D8 JUMP JUMPDEST DUP1 DUP3 ADD DUP1 MLOAD PUSH8 0xFFFFFFFFFFFFFFFF DUP2 GT ISZERO PUSH2 0x4A3 JUMPI POP POP POP POP PUSH2 0x4D8 JUMP JUMPDEST DUP1 PUSH1 0x20 DUP4 ADD ADD PUSH1 0x4 RETURNDATASIZE SUB DUP6 ADD DUP2 GT ISZERO PUSH2 0x4C0 JUMPI POP POP POP POP POP PUSH2 0x4D8 JUMP JUMPDEST PUSH2 0x4CF DUP3 PUSH1 0x20 ADD DUP6 ADD DUP7 PUSH2 0x41B JUMP JUMPDEST DUP3 SWAP6 POP POP POP POP POP POP JUMPDEST SWAP1 JUMP JUMPDEST PUSH0 DUP2 MLOAD SWAP1 POP SWAP2 SWAP1 POP JUMP JUMPDEST PUSH0 DUP3 DUP3 MSTORE PUSH1 0x20 DUP3 ADD SWAP1 POP SWAP3 SWAP2 POP POP JUMP JUMPDEST DUP3 DUP2 DUP4 MCOPY PUSH0 DUP4 DUP4 ADD MSTORE POP POP POP JUMP JUMPDEST PUSH0 PUSH2 0x50D DUP3 PUSH2 0x4DB JUMP JUMPDEST PUSH2 0x517 DUP2 DUP6 PUSH2 0x4E5 JUMP JUMPDEST SWAP4 POP PUSH2 0x527 DUP2 DUP6 PUSH1 0x20 DUP7 ADD PUSH2 0x4F5 JUMP JUMPDEST PUSH2 0x530 DUP2 PUSH2 0x3DE JUMP JUMPDEST DUP5 ADD SWAP2 POP POP SWAP3 SWAP2 POP POP JUMP JUMPDEST PUSH0 PUSH1 0x20 DUP3 ADD SWAP1 POP DUP2 DUP2 SUB PUSH0 DUP4 ADD MSTORE PUSH2 0x553 DUP2 DUP5 PUSH2 0x503 JUMP JUMPDEST SWAP1 POP SWAP3 SWAP2 POP POP JUMP JUMPDEST PUSH0 DUP2 MLOAD SWAP1 POP SWAP2 SWAP1 POP JUMP JUMPDEST PUSH0 DUP3 DUP3 MSTORE PUSH1 0x20 DUP3 ADD SWAP1 POP SWAP3 SWAP2 POP POP JUMP JUMPDEST PUSH0 PUSH2 0x57F DUP3 PUSH2 0x55B JUMP JUMPDEST PUSH2 0x589 DUP2 DUP6 PUSH2 0x565 JUMP JUMPDEST SWAP4 POP PUSH2 0x599 DUP2 DUP6 PUSH1 0x20 DUP7 ADD PUSH2 0x4F5 JUMP JUMPDEST PUSH2 0x5A2 DUP2 PUSH2 0x3DE JUMP JUMPDEST DUP5 ADD SWAP2 POP POP SWAP3 SWAP2 POP POP JUMP JUMPDEST PUSH0 PUSH1 0x20 DUP3 ADD SWAP1 POP DUP2 DUP2 SUB PUSH0 DUP4 ADD MSTORE PUSH2 0x5C5 DUP2 DUP5 PUSH2 0x575 JUMP JUMPDEST SWAP1 POP SWAP3 SWAP2 POP POP JUMP JUMPDEST PUSH0 DUP2 ISZERO ISZERO SWAP1 POP SWAP2 SWAP1 POP JUMP JUMPDEST PUSH2 0x5E1 DUP2 PUSH2 0x5CD JUMP JUMPDEST DUP2 EQ PUSH2 0x5EB JUMPI PUSH0 DUP1 REVERT JUMPDEST POP JUMP JUMPDEST PUSH0 DUP2 MLOAD SWAP1 POP PUSH2 0x5FC DUP2 PUSH2 0x5D8 JUMP JUMPDEST SWAP3 SWAP2 POP POP JUMP JUMPDEST PUSH0 PUSH1 0x20 DUP3 DUP5 SUB SLT ISZERO PUSH2 0x617 JUMPI PUSH2 0x616 PUSH2 0x329 JUMP JUMPDEST JUMPDEST PUSH0 PUSH2 0x624 DUP5 DUP3 DUP6 ADD PUSH2 0x5EE JUMP JUMPDEST SWAP2 POP POP SWAP3 SWAP2 POP POP JUMP INVALID PUSH1 0x80 PUSH1 0x40 MSTORE CALLVALUE DUP1 ISZERO PUSH2 0xF JUMPI PUSH0 DUP1 REVERT JUMPDEST POP PUSH1 0x40 MLOAD PUSH2 0x3F3 CODESIZE SUB DUP1 PUSH2 0x3F3 DUP4 CODECOPY DUP2 DUP2 ADD PUSH1 0x40 MSTORE DUP2 ADD SWAP1 PUSH2 0x31 SWAP2 SWAP1 PUSH2 0xC1 JUMP JUMPDEST PUSH0 DUP2 SUB PUSH2 0x73 JUMPI PUSH1 0x40 MLOAD PUSH32 0x8C379A000000000000000000000000000000000000000000000000000000000 DUP2 MSTORE PUSH1 0x4 ADD PUSH2 0x6A SWAP1 PUSH2 0x146 JUMP JUMPDEST PUSH1 0x40 MLOAD DUP1 SWAP2 SUB SWAP1 REVERT JUMPDEST PUSH1 0x1 DUP2 SUB PUSH2 0x84 JUMPI PUSH2 0x83 PUSH2 0x164 JUMP JUMPDEST JUMPDEST POP PUSH2 0x191 JUMP JUMPDEST PUSH0 DUP1 REVERT JUMPDEST PUSH0 DUP2 SWAP1 POP SWAP2 SWAP1 POP JUMP JUMPDEST PUSH2 0xA0 DUP2 PUSH2 0x8E JUMP JUMPDEST DUP2 EQ PUSH2 0xAA JUMPI PUSH0 DUP1 REVERT JUMPDEST POP JUMP JUMPDEST PUSH0 DUP2 MLOAD SWAP1 POP PUSH2 0xBB DUP2 PUSH2 0x97 JUMP JUMPDEST SWAP3 SWAP2 POP POP JUMP JUMPDEST PUSH0 PUSH1 0x20 DUP3 DUP5 SUB SLT ISZERO PUSH2 0xD6 JUMPI PUSH2 0xD5 PUSH2 0x8A JUMP JUMPDEST JUMPDEST PUSH0 PUSH2 0xE3 DUP5 DUP3 DUP6 ADD PUSH2 0xAD JUMP JUMPDEST SWAP2 POP POP SWAP3 SWAP2 POP POP JUMP JUMPDEST PUSH0 DUP3 DUP3 MSTORE PUSH1 0x20 DUP3 ADD SWAP1 POP SWAP3 SWAP2 POP POP JUMP JUMPDEST PUSH32 0xE4B88DE883BDE7AD89E4BA8E3000000000000000000000000000000000000000 PUSH0 DUP3 ADD MSTORE POP JUMP JUMPDEST PUSH0 PUSH2 0x130 PUSH1 0xD DUP4 PUSH2 0xEC JUMP JUMPDEST SWAP2 POP PUSH2 0x13B DUP3 PUSH2 0xFC JUMP JUMPDEST PUSH1 0x20 DUP3 ADD SWAP1 POP SWAP2 SWAP1 POP JUMP JUMPDEST PUSH0 PUSH1 0x20 DUP3 ADD SWAP1 POP DUP2 DUP2 SUB PUSH0 DUP4 ADD MSTORE PUSH2 0x15D DUP2 PUSH2 0x124 JUMP JUMPDEST SWAP1 POP SWAP2 SWAP1 POP JUMP JUMPDEST PUSH32 0x4E487B7100000000000000000000000000000000000000000000000000000000 PUSH0 MSTORE PUSH1 0x1 PUSH1 0x4 MSTORE PUSH1 0x24 PUSH0 REVERT JUMPDEST PUSH2 0x255 DUP1 PUSH2 0x19E PUSH0 CODECOPY PUSH0 RETURN INVALID PUSH1 0x80 PUSH1 0x40 MSTORE CALLVALUE DUP1 ISZERO PUSH2 0xF JUMPI PUSH0 DUP1 REVERT JUMPDEST POP PUSH1 0x4 CALLDATASIZE LT PUSH2 0x29 JUMPI PUSH0 CALLDATALOAD PUSH1 0xE0 SHR DUP1 PUSH4 0x9AEF81FE EQ PUSH2 0x2D JUMPI JUMPDEST PUSH0 DUP1 REVERT JUMPDEST PUSH2 0x47 PUSH1 0x4 DUP1 CALLDATASIZE SUB DUP2 ADD SWAP1 PUSH2 0x42 SWAP2 SWAP1 PUSH2 0xEC JUMP JUMPDEST PUSH2 0x5D JUMP JUMPDEST PUSH1 0x40 MLOAD PUSH2 0x54 SWAP2 SWAP1 PUSH2 0x131 JUMP JUMPDEST PUSH1 0x40 MLOAD DUP1 SWAP2 SUB SWAP1 RETURN JUMPDEST PUSH0 DUP1 PUSH1 0x2 DUP4 PUSH2 0x6C SWAP2 SWAP1 PUSH2 0x177 JUMP JUMPDEST EQ PUSH2 0xAC JUMPI PUSH1 0x40 MLOAD PUSH32 0x8C379A000000000000000000000000000000000000000000000000000000000 DUP2 MSTORE PUSH1 0x4 ADD PUSH2 0xA3 SWAP1 PUSH2 0x201 JUMP JUMPDEST PUSH1 0x40 MLOAD DUP1 SWAP2 SUB SWAP1 REVERT JUMPDEST PUSH1 0x1 SWAP1 POP SWAP2 SWAP1 POP JUMP JUMPDEST PUSH0 DUP1 REVERT JUMPDEST PUSH0 DUP2 SWAP1 POP SWAP2 SWAP1 POP JUMP JUMPDEST PUSH2 0xCB DUP2 PUSH2 0xB9 JUMP JUMPDEST DUP2 EQ PUSH2 0xD5 JUMPI PUSH0 DUP1 REVERT JUMPDEST POP JUMP JUMPDEST PUSH0 DUP2 CALLDATALOAD SWAP1 POP PUSH2 0xE6 DUP2 PUSH2 0xC2 JUMP JUMPDEST SWAP3 SWAP2 POP POP JUMP JUMPDEST PUSH0 PUSH1 0x20 DUP3 DUP5 SUB SLT ISZERO PUSH2 0x101 JUMPI PUSH2 0x100 PUSH2 0xB5 JUMP JUMPDEST JUMPDEST PUSH0 PUSH2 0x10E DUP5 DUP3 DUP6 ADD PUSH2 0xD8 JUMP JUMPDEST SWAP2 POP POP SWAP3 SWAP2 POP POP JUMP JUMPDEST PUSH0 DUP2 ISZERO ISZERO SWAP1 POP SWAP2 SWAP1 POP JUMP JUMPDEST PUSH2 0x12B DUP2 PUSH2 0x117 JUMP JUMPDEST DUP3 MSTORE POP POP JUMP JUMPDEST PUSH0 PUSH1 0x20 DUP3 ADD SWAP1 POP PUSH2 0x144 PUSH0 DUP4 ADD DUP5 PUSH2 0x122 JUMP JUMPDEST SWAP3 SWAP2 POP POP JUMP JUMPDEST PUSH32 0x4E487B7100000000000000000000000000000000000000000000000000000000 PUSH0 MSTORE PUSH1 0x12 PUSH1 0x4 MSTORE PUSH1 0x24 PUSH0 REVERT JUMPDEST PUSH0 PUSH2 0x181 DUP3 PUSH2 0xB9 JUMP JUMPDEST SWAP2 POP PUSH2 0x18C DUP4 PUSH2 0xB9 JUMP JUMPDEST SWAP3 POP DUP3 PUSH2 0x19C JUMPI PUSH2 0x19B PUSH2 0x14A JUMP JUMPDEST JUMPDEST DUP3 DUP3 MOD SWAP1 POP SWAP3 SWAP2 POP POP JUMP JUMPDEST PUSH0 DUP3 DUP3 MSTORE PUSH1 0x20 DUP3 ADD SWAP1 POP SWAP3 SWAP2 POP POP JUMP JUMPDEST PUSH32 0x6E20E4B88DE698AFE581B6E695B0000000000000000000000000000000000000 PUSH0 DUP3 ADD MSTORE POP JUMP JUMPDEST PUSH0 PUSH2 0x1EB PUSH1 0xE DUP4 PUSH2 0x1A7 JUMP JUMPDEST SWAP2 POP PUSH2 0x1F6 DUP3 PUSH2 0x1B7 JUMP JUMPDEST PUSH1 0x20 DUP3 ADD SWAP1 POP SWAP2 SWAP1 POP JUMP JUMPDEST PUSH0 PUSH1 0x20 DUP3 ADD SWAP1 POP DUP2 DUP2 SUB PUSH0 DUP4 ADD MSTORE PUSH2 0x218 DUP2 PUSH2 0x1DF JUMP JUMPDEST SWAP1 POP SWAP2 SWAP1 POP JUMP INVALID LOG2 PUSH5 0x6970667358 0x22 SLT KECCAK256 XOR PUSH9 0x44AE25AF3E192EE6BA 0xEF 0xEB PUSH30 0xC56719102DF4FBB2253FFFA0A0F66E7809764736F6C63430008190033A2 PUSH5 0x6970667358 0x22 SLT KECCAK256 SGT SHL PUSH17 0xCAB4EF1B277340887F5F01D4E7FEB99D14 0xC2 PUSH21 0x94831D36F5F04B1C79AE64736F6C63430008190033 PUSH1 0x80 PUSH1 0x40 MSTORE CALLVALUE DUP1 ISZERO PUSH2 0xF JUMPI PUSH0 DUP1 REVERT JUMPDEST POP PUSH1 0x40 MLOAD PUSH2 0x3F3 CODESIZE SUB DUP1 PUSH2 0x3F3 DUP4 CODECOPY DUP2 DUP2 ADD PUSH1 0x40 MSTORE DUP2 ADD SWAP1 PUSH2 0x31 SWAP2 SWAP1 PUSH2 0xC1 JUMP JUMPDEST PUSH0 DUP2 SUB PUSH2 0x73 JUMPI PUSH1 0x40 MLOAD PUSH32 0x8C379A000000000000000000000000000000000000000000000000000000000 DUP2 MSTORE PUSH1 0x4 ADD PUSH2 0x6A SWAP1 PUSH2 0x146 JUMP JUMPDEST PUSH1 0x40 MLOAD DUP1 SWAP2 SUB SWAP1 REVERT JUMPDEST PUSH1 0x1 DUP2 SUB PUSH2 0x84 JUMPI PUSH2 0x83 PUSH2 0x164 JUMP JUMPDEST JUMPDEST POP PUSH2 0x191 JUMP JUMPDEST PUSH0 DUP1 REVERT JUMPDEST PUSH0 DUP2 SWAP1 POP SWAP2 SWAP1 POP JUMP JUMPDEST PUSH2 0xA0 DUP2 PUSH2 0x8E JUMP JUMPDEST DUP2 EQ PUSH2 0xAA JUMPI PUSH0 DUP1 REVERT JUMPDEST POP JUMP JUMPDEST PUSH0 DUP2 MLOAD SWAP1 POP PUSH2 0xBB DUP2 PUSH2 0x97 JUMP JUMPDEST SWAP3 SWAP2 POP POP JUMP JUMPDEST PUSH0 PUSH1 0x20 DUP3 DUP5 SUB SLT ISZERO PUSH2 0xD6 JUMPI PUSH2 0xD5 PUSH2 0x8A JUMP JUMPDEST JUMPDEST PUSH0 PUSH2 0xE3 DUP5 DUP3 DUP6 ADD PUSH2 0xAD JUMP JUMPDEST SWAP2 POP POP SWAP3 SWAP2 POP POP JUMP JUMPDEST PUSH0 DUP3 DUP3 MSTORE PUSH1 0x20 DUP3 ADD SWAP1 POP SWAP3 SWAP2 POP POP JUMP JUMPDEST PUSH32 0xE4B88DE883BDE7AD89E4BA8E3000000000000000000000000000000000000000 PUSH0 DUP3 ADD MSTORE POP JUMP JUMPDEST PUSH0 PUSH2 0x130 PUSH1 0xD DUP4 PUSH2 0xEC JUMP JUMPDEST SWAP2 POP PUSH2 0x13B DUP3 PUSH2 0xFC JUMP JUMPDEST PUSH1 0x20 DUP3 ADD SWAP1 POP SWAP2 SWAP1 POP JUMP JUMPDEST PUSH0 PUSH1 0x20 DUP3 ADD SWAP1 POP DUP2 DUP2 SUB PUSH0 DUP4 ADD MSTORE PUSH2 0x15D DUP2 PUSH2 0x124 JUMP JUMPDEST SWAP1 POP SWAP2 SWAP1 POP JUMP JUMPDEST PUSH32 0x4E487B7100000000000000000000000000000000000000000000000000000000 PUSH0 MSTORE PUSH1 0x1 PUSH1 0x4 MSTORE PUSH1 0x24 PUSH0 REVERT JUMPDEST PUSH2 0x255 DUP1 PUSH2 0x19E PUSH0 CODECOPY PUSH0 RETURN INVALID PUSH1 0x80 PUSH1 0x40 MSTORE CALLVALUE DUP1 ISZERO PUSH2 0xF JUMPI PUSH0 DUP1 REVERT JUMPDEST POP PUSH1 0x4 CALLDATASIZE LT PUSH2 0x29 JUMPI PUSH0 CALLDATALOAD PUSH1 0xE0 SHR DUP1 PUSH4 0x9AEF81FE EQ PUSH2 0x2D JUMPI JUMPDEST PUSH0 DUP1 REVERT JUMPDEST PUSH2 0x47 PUSH1 0x4 DUP1 CALLDATASIZE SUB DUP2 ADD SWAP1 PUSH2 0x42 SWAP2 SWAP1 PUSH2 0xEC JUMP JUMPDEST PUSH2 0x5D JUMP JUMPDEST PUSH1 0x40 MLOAD PUSH2 0x54 SWAP2 SWAP1 PUSH2 0x131 JUMP JUMPDEST PUSH1 0x40 MLOAD DUP1 SWAP2 SUB SWAP1 RETURN JUMPDEST PUSH0 DUP1 PUSH1 0x2 DUP4 PUSH2 0x6C SWAP2 SWAP1 PUSH2 0x177 JUMP JUMPDEST EQ PUSH2 0xAC JUMPI PUSH1 0x40 MLOAD PUSH32 0x8C379A000000000000000000000000000000000000000000000000000000000 DUP2 MSTORE PUSH1 0x4 ADD PUSH2 0xA3 SWAP1 PUSH2 0x201 JUMP JUMPDEST PUSH1 0x40 MLOAD DUP1 SWAP2 SUB SWAP1 REVERT JUMPDEST PUSH1 0x1 SWAP1 POP SWAP2 SWAP1 POP JUMP JUMPDEST PUSH0 DUP1 REVERT JUMPDEST PUSH0 DUP2 SWAP1 POP SWAP2 SWAP1 POP JUMP JUMPDEST PUSH2 0xCB DUP2 PUSH2 0xB9 JUMP JUMPDEST DUP2 EQ PUSH2 0xD5 JUMPI PUSH0 DUP1 REVERT JUMPDEST POP JUMP JUMPDEST PUSH0 DUP2 CALLDATALOAD SWAP1 POP PUSH2 0xE6 DUP2 PUSH2 0xC2 JUMP JUMPDEST SWAP3 SWAP2 POP POP JUMP JUMPDEST PUSH0 PUSH1 0x20 DUP3 DUP5 SUB SLT ISZERO PUSH2 0x101 JUMPI PUSH2 0x100 PUSH2 0xB5 JUMP JUMPDEST JUMPDEST PUSH0 PUSH2 0x10E DUP5 DUP3 DUP6 ADD PUSH2 0xD8 JUMP JUMPDEST SWAP2 POP POP SWAP3 SWAP2 POP POP JUMP JUMPDEST PUSH0 DUP2 ISZERO ISZERO SWAP1 POP SWAP2 SWAP1 POP JUMP JUMPDEST PUSH2 0x12B DUP2 PUSH2 0x117 JUMP JUMPDEST DUP3 MSTORE POP POP JUMP JUMPDEST PUSH0 PUSH1 0x20 DUP3 ADD SWAP1 POP PUSH2 0x144 PUSH0 DUP4 ADD DUP5 PUSH2 0x122 JUMP JUMPDEST SWAP3 SWAP2 POP POP JUMP JUMPDEST PUSH32 0x4E487B7100000000000000000000000000000000000000000000000000000000 PUSH0 MSTORE PUSH1 0x12 PUSH1 0x4 MSTORE PUSH1 0x24 PUSH0 REVERT JUMPDEST PUSH0 PUSH2 0x181 DUP3 PUSH2 0xB9 JUMP JUMPDEST SWAP2 POP PUSH2 0x18C DUP4 PUSH2 0xB9 JUMP JUMPDEST SWAP3 POP DUP3 PUSH2 0x19C JUMPI PUSH2 0x19B PUSH2 0x14A JUMP JUMPDEST JUMPDEST DUP3 DUP3 MOD SWAP1 POP SWAP3 SWAP2 POP POP JUMP JUMPDEST PUSH0 DUP3 DUP3 MSTORE PUSH1 0x20 DUP3 ADD SWAP1 POP SWAP3 SWAP2 POP POP JUMP JUMPDEST PUSH32 0x6E20E4B88DE698AFE581B6E695B0000000000000000000000000000000000000 PUSH0 DUP3 ADD MSTORE POP JUMP JUMPDEST PUSH0 PUSH2 0x1EB PUSH1 0xE DUP4 PUSH2 0x1A7 JUMP JUMPDEST SWAP2 POP PUSH2 0x1F6 DUP3 PUSH2 0x1B7 JUMP JUMPDEST PUSH1 0x20 DUP3 ADD SWAP1 POP SWAP2 SWAP1 POP JUMP JUMPDEST PUSH0 PUSH1 0x20 DUP3 ADD SWAP1 POP DUP2 DUP2 SUB PUSH0 DUP4 ADD MSTORE PUSH2 0x218 DUP2 PUSH2 0x1DF JUMP JUMPDEST SWAP1 POP SWAP2 SWAP1 POP JUMP INVALID LOG2 PUSH5 0x6970667358 0x22 SLT KECCAK256 XOR PUSH9 0x44AE25AF3E192EE6BA 0xEF 0xEB PUSH30 0xC56719102DF4FBB2253FFFA0A0F66E7809764736F6C6343000819003300 "
				},
				"gasEstimates": {
					"creation": {
						"codeDepositCost": "529200",
						"executionCost": "infinite",
						"totalCost": "infinite"
					},
					"external": {
						"try1(uint256)": "infinite",
						"try2(uint256)": "infinite"
					}
				},
				"methodIdentifiers": {
					"try1(uint256)": "d36c9fad",
					"try2(uint256)": "c2d0acc7"
				}
			},
			"storageLayout": {
				"storage": [
					{
						"astId": 55,
						"contract": "TryCatch.sol:TryCatch",
						"label": "ec",
						"offset": 0,
						"slot": "0",
						"type": "t_contract(External)42"
					}
				],
				"types": {
					"t_contract(External)42": {
						"encoding": "inplace",
						"label": "contract External",
						"numberOfBytes": "20"
					}
				}
			},
			"userdoc": {
				"kind": "user",
				"methods": {},
				"version": 1
			}
		}
	}
}