{
	"SimpleUniswap.sol": {
		"PairFactory": {
			"abi": [
				{
					"inputs": [
						{
							"internalType": "uint256",
							"name": "",
							"type": "uint256"
						}
					],
					"name": "allPairs",
					"outputs": [
						{
							"internalType": "address",
							"name": "",
							"type": "address"
						}
					],
					"stateMutability": "view",
					"type": "function"
				},
				{
					"inputs": [
						{
							"internalType": "address",
							"name": "tokenA",
							"type": "address"
						},
						{
							"internalType": "address",
							"name": "tokenB",
							"type": "address"
						}
					],
					"name": "createPair",
					"outputs": [
						{
							"internalType": "address",
							"name": "pairAddr",
							"type": "address"
						}
					],
					"stateMutability": "nonpayable",
					"type": "function"
				},
				{
					"inputs": [
						{
							"internalType": "address",
							"name": "",
							"type": "address"
						},
						{
							"internalType": "address",
							"name": "",
							"type": "address"
						}
					],
					"name": "getPair",
					"outputs": [
						{
							"internalType": "address",
							"name": "",
							"type": "address"
						}
					],
					"stateMutability": "view",
					"type": "function"
				}
			],
			"devdoc": {
				"kind": "dev",
				"methods": {},
				"version": 1
			},
			"evm": {
				"assembly": "    /* \"SimpleUniswap.sol\":693:1397  contract PairFactory {... */\n  mstore(0x40, 0x80)\n  callvalue\n  dup1\n  iszero\n  tag_1\n  jumpi\n  0x00\n  dup1\n  revert\ntag_1:\n  pop\n  dataSize(sub_0)\n  dup1\n  dataOffset(sub_0)\n  0x00\n  codecopy\n  0x00\n  return\nstop\n\nsub_0: assembly {\n        /* \"SimpleUniswap.sol\":693:1397  contract PairFactory {... */\n      mstore(0x40, 0x80)\n      callvalue\n      dup1\n      iszero\n      tag_1\n      jumpi\n      0x00\n      dup1\n      revert\n    tag_1:\n      pop\n      jumpi(tag_2, lt(calldatasize, 0x04))\n      shr(0xe0, calldataload(0x00))\n      dup1\n      0x1e3dd18b\n      eq\n      tag_3\n      jumpi\n      dup1\n      0xc9c65396\n      eq\n      tag_4\n      jumpi\n      dup1\n      0xe6a43905\n      eq\n      tag_5\n      jumpi\n    tag_2:\n      0x00\n      dup1\n      revert\n        /* \"SimpleUniswap.sol\":867:892  address[] public allPairs */\n    tag_3:\n      tag_6\n      0x04\n      dup1\n      calldatasize\n      sub\n      dup2\n      add\n      swap1\n      tag_7\n      swap2\n      swap1\n      tag_8\n      jump\t// in\n    tag_7:\n      tag_9\n      jump\t// in\n    tag_6:\n      mload(0x40)\n      tag_10\n      swap2\n      swap1\n      tag_11\n      jump\t// in\n    tag_10:\n      mload(0x40)\n      dup1\n      swap2\n      sub\n      swap1\n      return\n        /* \"SimpleUniswap.sol\":925:1395  function createPair(address tokenA, address tokenB) external returns(address pairAddr)  {... */\n    tag_4:\n      tag_12\n      0x04\n      dup1\n      calldatasize\n      sub\n      dup2\n      add\n      swap1\n      tag_13\n      swap2\n      swap1\n      tag_14\n      jump\t// in\n    tag_13:\n      tag_15\n      jump\t// in\n    tag_12:\n      mload(0x40)\n      tag_16\n      swap2\n      swap1\n      tag_11\n      jump\t// in\n    tag_16:\n      mload(0x40)\n      dup1\n      swap2\n      sub\n      swap1\n      return\n        /* \"SimpleUniswap.sol\":767:829  mapping(address => mapping(address => address)) public getPair */\n    tag_5:\n      tag_17\n      0x04\n      dup1\n      calldatasize\n      sub\n      dup2\n      add\n      swap1\n      tag_18\n      swap2\n      swap1\n      tag_14\n      jump\t// in\n    tag_18:\n      tag_19\n      jump\t// in\n    tag_17:\n      mload(0x40)\n      tag_20\n      swap2\n      swap1\n      tag_11\n      jump\t// in\n    tag_20:\n      mload(0x40)\n      dup1\n      swap2\n      sub\n      swap1\n      return\n        /* \"SimpleUniswap.sol\":867:892  address[] public allPairs */\n    tag_9:\n      0x01\n      dup2\n      dup2\n      sload\n      dup2\n      lt\n      tag_21\n      jumpi\n      0x00\n      dup1\n      revert\n    tag_21:\n      swap1\n      0x00\n      mstore\n      keccak256(0x00, 0x20)\n      add\n      0x00\n      swap2\n      pop\n      sload\n      swap1\n      0x0100\n      exp\n      swap1\n      div\n      0xffffffffffffffffffffffffffffffffffffffff\n      and\n      dup2\n      jump\t// out\n        /* \"SimpleUniswap.sol\":925:1395  function createPair(address tokenA, address tokenB) external returns(address pairAddr)  {... */\n    tag_15:\n        /* \"SimpleUniswap.sol\":994:1010  address pairAddr */\n      0x00\n        /* \"SimpleUniswap.sol\":1053:1062  Pair pair */\n      dup1\n        /* \"SimpleUniswap.sol\":1065:1075  new Pair() */\n      mload(0x40)\n      tag_24\n      swap1\n      tag_25\n      jump\t// in\n    tag_24:\n      mload(0x40)\n      dup1\n      swap2\n      sub\n      swap1\n      0x00\n      create\n      dup1\n      iszero\n      dup1\n      iszero\n      tag_26\n      jumpi\n      returndatasize\n      0x00\n      dup1\n      returndatacopy\n      revert(0x00, returndatasize)\n    tag_26:\n      pop\n        /* \"SimpleUniswap.sol\":1053:1075  Pair pair = new Pair() */\n      swap1\n      pop\n        /* \"SimpleUniswap.sol\":1127:1131  pair */\n      dup1\n        /* \"SimpleUniswap.sol\":1127:1142  pair.initialize */\n      0xffffffffffffffffffffffffffffffffffffffff\n      and\n      0x485cc955\n        /* \"SimpleUniswap.sol\":1143:1149  tokenA */\n      dup6\n        /* \"SimpleUniswap.sol\":1151:1157  tokenB */\n      dup6\n        /* \"SimpleUniswap.sol\":1127:1158  pair.initialize(tokenA, tokenB) */\n      mload(0x40)\n      dup4\n      0xffffffff\n      and\n      0xe0\n      shl\n      dup2\n      mstore\n      0x04\n      add\n      tag_27\n      swap3\n      swap2\n      swap1\n      tag_28\n      jump\t// in\n    tag_27:\n      0x00\n      mload(0x40)\n      dup1\n      dup4\n      sub\n      dup2\n      0x00\n      dup8\n      dup1\n      extcodesize\n      iszero\n      dup1\n      iszero\n      tag_29\n      jumpi\n      0x00\n      dup1\n      revert\n    tag_29:\n      pop\n      gas\n      call\n      iszero\n      dup1\n      iszero\n      tag_31\n      jumpi\n      returndatasize\n      0x00\n      dup1\n      returndatacopy\n      revert(0x00, returndatasize)\n    tag_31:\n      pop\n      pop\n      pop\n      pop\n        /* \"SimpleUniswap.sol\":1227:1231  pair */\n      dup1\n        /* \"SimpleUniswap.sol\":1208:1232  pairAddr = address(pair) */\n      swap2\n      pop\n        /* \"SimpleUniswap.sol\":1242:1250  allPairs */\n      0x01\n        /* \"SimpleUniswap.sol\":1256:1264  pairAddr */\n      dup3\n        /* \"SimpleUniswap.sol\":1242:1265  allPairs.push(pairAddr) */\n      swap1\n      dup1\n      0x01\n      dup2\n      sload\n      add\n      dup1\n      dup3\n      sstore\n      dup1\n      swap2\n      pop\n      pop\n      0x01\n      swap1\n      sub\n      swap1\n      0x00\n      mstore\n      keccak256(0x00, 0x20)\n      add\n      0x00\n      swap1\n      swap2\n      swap1\n      swap2\n      swap1\n      swap2\n      0x0100\n      exp\n      dup2\n      sload\n      dup2\n      0xffffffffffffffffffffffffffffffffffffffff\n      mul\n      not\n      and\n      swap1\n      dup4\n      0xffffffffffffffffffffffffffffffffffffffff\n      and\n      mul\n      or\n      swap1\n      sstore\n      pop\n        /* \"SimpleUniswap.sol\":1336:1344  pairAddr */\n      dup2\n        /* \"SimpleUniswap.sol\":1310:1317  getPair */\n      0x00\n        /* \"SimpleUniswap.sol\":1310:1325  getPair[tokenA] */\n      dup1\n        /* \"SimpleUniswap.sol\":1318:1324  tokenA */\n      dup7\n        /* \"SimpleUniswap.sol\":1310:1325  getPair[tokenA] */\n      0xffffffffffffffffffffffffffffffffffffffff\n      and\n      0xffffffffffffffffffffffffffffffffffffffff\n      and\n      dup2\n      mstore\n      0x20\n      add\n      swap1\n      dup2\n      mstore\n      0x20\n      add\n      0x00\n      keccak256\n        /* \"SimpleUniswap.sol\":1310:1333  getPair[tokenA][tokenB] */\n      0x00\n        /* \"SimpleUniswap.sol\":1326:1332  tokenB */\n      dup6\n        /* \"SimpleUniswap.sol\":1310:1333  getPair[tokenA][tokenB] */\n      0xffffffffffffffffffffffffffffffffffffffff\n      and\n      0xffffffffffffffffffffffffffffffffffffffff\n      and\n      dup2\n      mstore\n      0x20\n      add\n      swap1\n      dup2\n      mstore\n      0x20\n      add\n      0x00\n      keccak256\n      0x00\n        /* \"SimpleUniswap.sol\":1310:1344  getPair[tokenA][tokenB] = pairAddr */\n      0x0100\n      exp\n      dup2\n      sload\n      dup2\n      0xffffffffffffffffffffffffffffffffffffffff\n      mul\n      not\n      and\n      swap1\n      dup4\n      0xffffffffffffffffffffffffffffffffffffffff\n      and\n      mul\n      or\n      swap1\n      sstore\n      pop\n        /* \"SimpleUniswap.sol\":1380:1388  pairAddr */\n      dup2\n        /* \"SimpleUniswap.sol\":1354:1361  getPair */\n      0x00\n        /* \"SimpleUniswap.sol\":1354:1369  getPair[tokenB] */\n      dup1\n        /* \"SimpleUniswap.sol\":1362:1368  tokenB */\n      dup6\n        /* \"SimpleUniswap.sol\":1354:1369  getPair[tokenB] */\n      0xffffffffffffffffffffffffffffffffffffffff\n      and\n      0xffffffffffffffffffffffffffffffffffffffff\n      and\n      dup2\n      mstore\n      0x20\n      add\n      swap1\n      dup2\n      mstore\n      0x20\n      add\n      0x00\n      keccak256\n        /* \"SimpleUniswap.sol\":1354:1377  getPair[tokenB][tokenA] */\n      0x00\n        /* \"SimpleUniswap.sol\":1370:1376  tokenA */\n      dup7\n        /* \"SimpleUniswap.sol\":1354:1377  getPair[tokenB][tokenA] */\n      0xffffffffffffffffffffffffffffffffffffffff\n      and\n      0xffffffffffffffffffffffffffffffffffffffff\n      and\n      dup2\n      mstore\n      0x20\n      add\n      swap1\n      dup2\n      mstore\n      0x20\n      add\n      0x00\n      keccak256\n      0x00\n        /* \"SimpleUniswap.sol\":1354:1388  getPair[tokenB][tokenA] = pairAddr */\n      0x0100\n      exp\n      dup2\n      sload\n      dup2\n      0xffffffffffffffffffffffffffffffffffffffff\n      mul\n      not\n      and\n      swap1\n      dup4\n      0xffffffffffffffffffffffffffffffffffffffff\n      and\n      mul\n      or\n      swap1\n      sstore\n      pop\n        /* \"SimpleUniswap.sol\":1013:1395  {... */\n      pop\n        /* \"SimpleUniswap.sol\":925:1395  function createPair(address tokenA, address tokenB) external returns(address pairAddr)  {... */\n      swap3\n      swap2\n      pop\n      pop\n      jump\t// out\n        /* \"SimpleUniswap.sol\":767:829  mapping(address => mapping(address => address)) public getPair */\n    tag_19:\n      mstore(0x20, 0x00)\n      dup2\n      0x00\n      mstore\n      mstore(0x20, keccak256(0x00, 0x40))\n      dup1\n      0x00\n      mstore\n      keccak256(0x00, 0x40)\n      0x00\n      swap2\n      pop\n      swap2\n      pop\n      swap1\n      sload\n      swap1\n      0x0100\n      exp\n      swap1\n      div\n      0xffffffffffffffffffffffffffffffffffffffff\n      and\n      dup2\n      jump\t// out\n    tag_25:\n      dataSize(sub_0)\n      dup1\n      dataOffset(sub_0)\n      dup4\n      codecopy\n      add\n      swap1\n      jump\t// out\n        /* \"#utility.yul\":88:205   */\n    tag_34:\n        /* \"#utility.yul\":197:198   */\n      0x00\n        /* \"#utility.yul\":194:195   */\n      dup1\n        /* \"#utility.yul\":187:199   */\n      revert\n        /* \"#utility.yul\":334:411   */\n    tag_36:\n        /* \"#utility.yul\":371:378   */\n      0x00\n        /* \"#utility.yul\":400:405   */\n      dup2\n        /* \"#utility.yul\":389:405   */\n      swap1\n      pop\n        /* \"#utility.yul\":334:411   */\n      swap2\n      swap1\n      pop\n      jump\t// out\n        /* \"#utility.yul\":417:539   */\n    tag_37:\n        /* \"#utility.yul\":490:514   */\n      tag_50\n        /* \"#utility.yul\":508:513   */\n      dup2\n        /* \"#utility.yul\":490:514   */\n      tag_36\n      jump\t// in\n    tag_50:\n        /* \"#utility.yul\":483:488   */\n      dup2\n        /* \"#utility.yul\":480:515   */\n      eq\n        /* \"#utility.yul\":470:533   */\n      tag_51\n      jumpi\n        /* \"#utility.yul\":529:530   */\n      0x00\n        /* \"#utility.yul\":526:527   */\n      dup1\n        /* \"#utility.yul\":519:531   */\n      revert\n        /* \"#utility.yul\":470:533   */\n    tag_51:\n        /* \"#utility.yul\":417:539   */\n      pop\n      jump\t// out\n        /* \"#utility.yul\":545:684   */\n    tag_38:\n        /* \"#utility.yul\":591:596   */\n      0x00\n        /* \"#utility.yul\":629:635   */\n      dup2\n        /* \"#utility.yul\":616:636   */\n      calldataload\n        /* \"#utility.yul\":607:636   */\n      swap1\n      pop\n        /* \"#utility.yul\":645:678   */\n      tag_53\n        /* \"#utility.yul\":672:677   */\n      dup2\n        /* \"#utility.yul\":645:678   */\n      tag_37\n      jump\t// in\n    tag_53:\n        /* \"#utility.yul\":545:684   */\n      swap3\n      swap2\n      pop\n      pop\n      jump\t// out\n        /* \"#utility.yul\":690:1019   */\n    tag_8:\n        /* \"#utility.yul\":749:755   */\n      0x00\n        /* \"#utility.yul\":798:800   */\n      0x20\n        /* \"#utility.yul\":786:795   */\n      dup3\n        /* \"#utility.yul\":777:784   */\n      dup5\n        /* \"#utility.yul\":773:796   */\n      sub\n        /* \"#utility.yul\":769:801   */\n      slt\n        /* \"#utility.yul\":766:885   */\n      iszero\n      tag_55\n      jumpi\n        /* \"#utility.yul\":804:883   */\n      tag_56\n      tag_34\n      jump\t// in\n    tag_56:\n        /* \"#utility.yul\":766:885   */\n    tag_55:\n        /* \"#utility.yul\":924:925   */\n      0x00\n        /* \"#utility.yul\":949:1002   */\n      tag_57\n        /* \"#utility.yul\":994:1001   */\n      dup5\n        /* \"#utility.yul\":985:991   */\n      dup3\n        /* \"#utility.yul\":974:983   */\n      dup6\n        /* \"#utility.yul\":970:992   */\n      add\n        /* \"#utility.yul\":949:1002   */\n      tag_38\n      jump\t// in\n    tag_57:\n        /* \"#utility.yul\":939:1002   */\n      swap2\n      pop\n        /* \"#utility.yul\":895:1012   */\n      pop\n        /* \"#utility.yul\":690:1019   */\n      swap3\n      swap2\n      pop\n      pop\n      jump\t// out\n        /* \"#utility.yul\":1025:1151   */\n    tag_39:\n        /* \"#utility.yul\":1062:1069   */\n      0x00\n        /* \"#utility.yul\":1102:1144   */\n      0xffffffffffffffffffffffffffffffffffffffff\n        /* \"#utility.yul\":1095:1100   */\n      dup3\n        /* \"#utility.yul\":1091:1145   */\n      and\n        /* \"#utility.yul\":1080:1145   */\n      swap1\n      pop\n        /* \"#utility.yul\":1025:1151   */\n      swap2\n      swap1\n      pop\n      jump\t// out\n        /* \"#utility.yul\":1157:1253   */\n    tag_40:\n        /* \"#utility.yul\":1194:1201   */\n      0x00\n        /* \"#utility.yul\":1223:1247   */\n      tag_60\n        /* \"#utility.yul\":1241:1246   */\n      dup3\n        /* \"#utility.yul\":1223:1247   */\n      tag_39\n      jump\t// in\n    tag_60:\n        /* \"#utility.yul\":1212:1247   */\n      swap1\n      pop\n        /* \"#utility.yul\":1157:1253   */\n      swap2\n      swap1\n      pop\n      jump\t// out\n        /* \"#utility.yul\":1259:1377   */\n    tag_41:\n        /* \"#utility.yul\":1346:1370   */\n      tag_62\n        /* \"#utility.yul\":1364:1369   */\n      dup2\n        /* \"#utility.yul\":1346:1370   */\n      tag_40\n      jump\t// in\n    tag_62:\n        /* \"#utility.yul\":1341:1344   */\n      dup3\n        /* \"#utility.yul\":1334:1371   */\n      mstore\n        /* \"#utility.yul\":1259:1377   */\n      pop\n      pop\n      jump\t// out\n        /* \"#utility.yul\":1383:1605   */\n    tag_11:\n        /* \"#utility.yul\":1476:1480   */\n      0x00\n        /* \"#utility.yul\":1514:1516   */\n      0x20\n        /* \"#utility.yul\":1503:1512   */\n      dup3\n        /* \"#utility.yul\":1499:1517   */\n      add\n        /* \"#utility.yul\":1491:1517   */\n      swap1\n      pop\n        /* \"#utility.yul\":1527:1598   */\n      tag_64\n        /* \"#utility.yul\":1595:1596   */\n      0x00\n        /* \"#utility.yul\":1584:1593   */\n      dup4\n        /* \"#utility.yul\":1580:1597   */\n      add\n        /* \"#utility.yul\":1571:1577   */\n      dup5\n        /* \"#utility.yul\":1527:1598   */\n      tag_41\n      jump\t// in\n    tag_64:\n        /* \"#utility.yul\":1383:1605   */\n      swap3\n      swap2\n      pop\n      pop\n      jump\t// out\n        /* \"#utility.yul\":1611:1733   */\n    tag_42:\n        /* \"#utility.yul\":1684:1708   */\n      tag_66\n        /* \"#utility.yul\":1702:1707   */\n      dup2\n        /* \"#utility.yul\":1684:1708   */\n      tag_40\n      jump\t// in\n    tag_66:\n        /* \"#utility.yul\":1677:1682   */\n      dup2\n        /* \"#utility.yul\":1674:1709   */\n      eq\n        /* \"#utility.yul\":1664:1727   */\n      tag_67\n      jumpi\n        /* \"#utility.yul\":1723:1724   */\n      0x00\n        /* \"#utility.yul\":1720:1721   */\n      dup1\n        /* \"#utility.yul\":1713:1725   */\n      revert\n        /* \"#utility.yul\":1664:1727   */\n    tag_67:\n        /* \"#utility.yul\":1611:1733   */\n      pop\n      jump\t// out\n        /* \"#utility.yul\":1739:1878   */\n    tag_43:\n        /* \"#utility.yul\":1785:1790   */\n      0x00\n        /* \"#utility.yul\":1823:1829   */\n      dup2\n        /* \"#utility.yul\":1810:1830   */\n      calldataload\n        /* \"#utility.yul\":1801:1830   */\n      swap1\n      pop\n        /* \"#utility.yul\":1839:1872   */\n      tag_69\n        /* \"#utility.yul\":1866:1871   */\n      dup2\n        /* \"#utility.yul\":1839:1872   */\n      tag_42\n      jump\t// in\n    tag_69:\n        /* \"#utility.yul\":1739:1878   */\n      swap3\n      swap2\n      pop\n      pop\n      jump\t// out\n        /* \"#utility.yul\":1884:2358   */\n    tag_14:\n        /* \"#utility.yul\":1952:1958   */\n      0x00\n        /* \"#utility.yul\":1960:1966   */\n      dup1\n        /* \"#utility.yul\":2009:2011   */\n      0x40\n        /* \"#utility.yul\":1997:2006   */\n      dup4\n        /* \"#utility.yul\":1988:1995   */\n      dup6\n        /* \"#utility.yul\":1984:2007   */\n      sub\n        /* \"#utility.yul\":1980:2012   */\n      slt\n        /* \"#utility.yul\":1977:2096   */\n      iszero\n      tag_71\n      jumpi\n        /* \"#utility.yul\":2015:2094   */\n      tag_72\n      tag_34\n      jump\t// in\n    tag_72:\n        /* \"#utility.yul\":1977:2096   */\n    tag_71:\n        /* \"#utility.yul\":2135:2136   */\n      0x00\n        /* \"#utility.yul\":2160:2213   */\n      tag_73\n        /* \"#utility.yul\":2205:2212   */\n      dup6\n        /* \"#utility.yul\":2196:2202   */\n      dup3\n        /* \"#utility.yul\":2185:2194   */\n      dup7\n        /* \"#utility.yul\":2181:2203   */\n      add\n        /* \"#utility.yul\":2160:2213   */\n      tag_43\n      jump\t// in\n    tag_73:\n        /* \"#utility.yul\":2150:2213   */\n      swap3\n      pop\n        /* \"#utility.yul\":2106:2223   */\n      pop\n        /* \"#utility.yul\":2262:2264   */\n      0x20\n        /* \"#utility.yul\":2288:2341   */\n      tag_74\n        /* \"#utility.yul\":2333:2340   */\n      dup6\n        /* \"#utility.yul\":2324:2330   */\n      dup3\n        /* \"#utility.yul\":2313:2322   */\n      dup7\n        /* \"#utility.yul\":2309:2331   */\n      add\n        /* \"#utility.yul\":2288:2341   */\n      tag_43\n      jump\t// in\n    tag_74:\n        /* \"#utility.yul\":2278:2341   */\n      swap2\n      pop\n        /* \"#utility.yul\":2233:2351   */\n      pop\n        /* \"#utility.yul\":1884:2358   */\n      swap3\n      pop\n      swap3\n      swap1\n      pop\n      jump\t// out\n        /* \"#utility.yul\":2364:2696   */\n    tag_28:\n        /* \"#utility.yul\":2485:2489   */\n      0x00\n        /* \"#utility.yul\":2523:2525   */\n      0x40\n        /* \"#utility.yul\":2512:2521   */\n      dup3\n        /* \"#utility.yul\":2508:2526   */\n      add\n        /* \"#utility.yul\":2500:2526   */\n      swap1\n      pop\n        /* \"#utility.yul\":2536:2607   */\n      tag_76\n        /* \"#utility.yul\":2604:2605   */\n      0x00\n        /* \"#utility.yul\":2593:2602   */\n      dup4\n        /* \"#utility.yul\":2589:2606   */\n      add\n        /* \"#utility.yul\":2580:2586   */\n      dup6\n        /* \"#utility.yul\":2536:2607   */\n      tag_41\n      jump\t// in\n    tag_76:\n        /* \"#utility.yul\":2617:2689   */\n      tag_77\n        /* \"#utility.yul\":2685:2687   */\n      0x20\n        /* \"#utility.yul\":2674:2683   */\n      dup4\n        /* \"#utility.yul\":2670:2688   */\n      add\n        /* \"#utility.yul\":2661:2667   */\n      dup5\n        /* \"#utility.yul\":2617:2689   */\n      tag_41\n      jump\t// in\n    tag_77:\n        /* \"#utility.yul\":2364:2696   */\n      swap4\n      swap3\n      pop\n      pop\n      pop\n      jump\t// out\n    stop\n\n    sub_0: assembly {\n            /* \"SimpleUniswap.sol\":122:675  contract Pair {... */\n          mstore(0x40, 0x80)\n            /* \"SimpleUniswap.sol\":362:372  msg.sender */\n          caller\n            /* \"SimpleUniswap.sol\":352:359  factory */\n          0x00\n          dup1\n            /* \"SimpleUniswap.sol\":352:372  factory = msg.sender */\n          0x0100\n          exp\n          dup2\n          sload\n          dup2\n          0xffffffffffffffffffffffffffffffffffffffff\n          mul\n          not\n          and\n          swap1\n          dup4\n          0xffffffffffffffffffffffffffffffffffffffff\n          and\n          mul\n          or\n          swap1\n          sstore\n          pop\n            /* \"SimpleUniswap.sol\":122:675  contract Pair {... */\n          dataSize(sub_0)\n          dup1\n          dataOffset(sub_0)\n          0x00\n          codecopy\n          0x00\n          return\n        stop\n\n        sub_0: assembly {\n                /* \"SimpleUniswap.sol\":122:675  contract Pair {... */\n              mstore(0x40, 0x80)\n              callvalue\n              dup1\n              iszero\n              tag_1\n              jumpi\n              0x00\n              dup1\n              revert\n            tag_1:\n              pop\n              jumpi(tag_2, lt(calldatasize, 0x04))\n              shr(0xe0, calldataload(0x00))\n              dup1\n              0x0fc63d10\n              eq\n              tag_3\n              jumpi\n              dup1\n              0x485cc955\n              eq\n              tag_4\n              jumpi\n              dup1\n              0x5f64b55b\n              eq\n              tag_5\n              jumpi\n              dup1\n              0xc45a0155\n              eq\n              tag_6\n              jumpi\n            tag_2:\n              0x00\n              dup1\n              revert\n                /* \"SimpleUniswap.sol\":192:213  address public tokenA */\n            tag_3:\n              tag_7\n              tag_8\n              jump\t// in\n            tag_7:\n              mload(0x40)\n              tag_9\n              swap2\n              swap1\n              tag_10\n              jump\t// in\n            tag_9:\n              mload(0x40)\n              dup1\n              swap2\n              sub\n              swap1\n              return\n                /* \"SimpleUniswap.sol\":413:673  function initialize(address _tokenA, address _tokenB) external {... */\n            tag_4:\n              tag_11\n              0x04\n              dup1\n              calldatasize\n              sub\n              dup2\n              add\n              swap1\n              tag_12\n              swap2\n              swap1\n              tag_13\n              jump\t// in\n            tag_12:\n              tag_14\n              jump\t// in\n            tag_11:\n              stop\n                /* \"SimpleUniswap.sol\":243:264  address public tokenB */\n            tag_5:\n              tag_15\n              tag_16\n              jump\t// in\n            tag_15:\n              mload(0x40)\n              tag_17\n              swap2\n              swap1\n              tag_10\n              jump\t// in\n            tag_17:\n              mload(0x40)\n              dup1\n              swap2\n              sub\n              swap1\n              return\n                /* \"SimpleUniswap.sol\":142:164  address public factory */\n            tag_6:\n              tag_18\n              tag_19\n              jump\t// in\n            tag_18:\n              mload(0x40)\n              tag_20\n              swap2\n              swap1\n              tag_10\n              jump\t// in\n            tag_20:\n              mload(0x40)\n              dup1\n              swap2\n              sub\n              swap1\n              return\n                /* \"SimpleUniswap.sol\":192:213  address public tokenA */\n            tag_8:\n              0x01\n              0x00\n              swap1\n              sload\n              swap1\n              0x0100\n              exp\n              swap1\n              div\n              0xffffffffffffffffffffffffffffffffffffffff\n              and\n              dup2\n              jump\t// out\n                /* \"SimpleUniswap.sol\":413:673  function initialize(address _tokenA, address _tokenB) external {... */\n            tag_14:\n                /* \"SimpleUniswap.sol\":508:515  factory */\n              0x00\n              dup1\n              sload\n              swap1\n              0x0100\n              exp\n              swap1\n              div\n              0xffffffffffffffffffffffffffffffffffffffff\n              and\n                /* \"SimpleUniswap.sol\":494:515  msg.sender == factory */\n              0xffffffffffffffffffffffffffffffffffffffff\n              and\n                /* \"SimpleUniswap.sol\":494:504  msg.sender */\n              caller\n                /* \"SimpleUniswap.sol\":494:515  msg.sender == factory */\n              0xffffffffffffffffffffffffffffffffffffffff\n              and\n              eq\n                /* \"SimpleUniswap.sol\":486:614  require(msg.sender == factory, unicode\"初始化的合约地址必须是和创建 Pari 的合约地址是同一个工厂合约\") */\n              tag_22\n              jumpi\n              mload(0x40)\n              0x08c379a000000000000000000000000000000000000000000000000000000000\n              dup2\n              mstore\n              0x04\n              add\n              tag_23\n              swap1\n              tag_24\n              jump\t// in\n            tag_23:\n              mload(0x40)\n              dup1\n              swap2\n              sub\n              swap1\n              revert\n            tag_22:\n                /* \"SimpleUniswap.sol\":633:640  _tokenA */\n              dup2\n                /* \"SimpleUniswap.sol\":624:630  tokenA */\n              0x01\n              0x00\n                /* \"SimpleUniswap.sol\":624:640  tokenA = _tokenA */\n              0x0100\n              exp\n              dup2\n              sload\n              dup2\n              0xffffffffffffffffffffffffffffffffffffffff\n              mul\n              not\n              and\n              swap1\n              dup4\n              0xffffffffffffffffffffffffffffffffffffffff\n              and\n              mul\n              or\n              swap1\n              sstore\n              pop\n                /* \"SimpleUniswap.sol\":659:666  _tokenB */\n              dup1\n                /* \"SimpleUniswap.sol\":650:656  tokenB */\n              0x02\n              0x00\n                /* \"SimpleUniswap.sol\":650:666  tokenB = _tokenB */\n              0x0100\n              exp\n              dup2\n              sload\n              dup2\n              0xffffffffffffffffffffffffffffffffffffffff\n              mul\n              not\n              and\n              swap1\n              dup4\n              0xffffffffffffffffffffffffffffffffffffffff\n              and\n              mul\n              or\n              swap1\n              sstore\n              pop\n                /* \"SimpleUniswap.sol\":413:673  function initialize(address _tokenA, address _tokenB) external {... */\n              pop\n              pop\n              jump\t// out\n                /* \"SimpleUniswap.sol\":243:264  address public tokenB */\n            tag_16:\n              0x02\n              0x00\n              swap1\n              sload\n              swap1\n              0x0100\n              exp\n              swap1\n              div\n              0xffffffffffffffffffffffffffffffffffffffff\n              and\n              dup2\n              jump\t// out\n                /* \"SimpleUniswap.sol\":142:164  address public factory */\n            tag_19:\n              0x00\n              dup1\n              sload\n              swap1\n              0x0100\n              exp\n              swap1\n              div\n              0xffffffffffffffffffffffffffffffffffffffff\n              and\n              dup2\n              jump\t// out\n                /* \"#utility.yul\":7:133   */\n            tag_25:\n                /* \"#utility.yul\":44:51   */\n              0x00\n                /* \"#utility.yul\":84:126   */\n              0xffffffffffffffffffffffffffffffffffffffff\n                /* \"#utility.yul\":77:82   */\n              dup3\n                /* \"#utility.yul\":73:127   */\n              and\n                /* \"#utility.yul\":62:127   */\n              swap1\n              pop\n                /* \"#utility.yul\":7:133   */\n              swap2\n              swap1\n              pop\n              jump\t// out\n                /* \"#utility.yul\":139:235   */\n            tag_26:\n                /* \"#utility.yul\":176:183   */\n              0x00\n                /* \"#utility.yul\":205:229   */\n              tag_39\n                /* \"#utility.yul\":223:228   */\n              dup3\n                /* \"#utility.yul\":205:229   */\n              tag_25\n              jump\t// in\n            tag_39:\n                /* \"#utility.yul\":194:229   */\n              swap1\n              pop\n                /* \"#utility.yul\":139:235   */\n              swap2\n              swap1\n              pop\n              jump\t// out\n                /* \"#utility.yul\":241:359   */\n            tag_27:\n                /* \"#utility.yul\":328:352   */\n              tag_41\n                /* \"#utility.yul\":346:351   */\n              dup2\n                /* \"#utility.yul\":328:352   */\n              tag_26\n              jump\t// in\n            tag_41:\n                /* \"#utility.yul\":323:326   */\n              dup3\n                /* \"#utility.yul\":316:353   */\n              mstore\n                /* \"#utility.yul\":241:359   */\n              pop\n              pop\n              jump\t// out\n                /* \"#utility.yul\":365:587   */\n            tag_10:\n                /* \"#utility.yul\":458:462   */\n              0x00\n                /* \"#utility.yul\":496:498   */\n              0x20\n                /* \"#utility.yul\":485:494   */\n              dup3\n                /* \"#utility.yul\":481:499   */\n              add\n                /* \"#utility.yul\":473:499   */\n              swap1\n              pop\n                /* \"#utility.yul\":509:580   */\n              tag_43\n                /* \"#utility.yul\":577:578   */\n              0x00\n                /* \"#utility.yul\":566:575   */\n              dup4\n                /* \"#utility.yul\":562:579   */\n              add\n                /* \"#utility.yul\":553:559   */\n              dup5\n                /* \"#utility.yul\":509:580   */\n              tag_27\n              jump\t// in\n            tag_43:\n                /* \"#utility.yul\":365:587   */\n              swap3\n              swap2\n              pop\n              pop\n              jump\t// out\n                /* \"#utility.yul\":674:791   */\n            tag_29:\n                /* \"#utility.yul\":783:784   */\n              0x00\n                /* \"#utility.yul\":780:781   */\n              dup1\n                /* \"#utility.yul\":773:785   */\n              revert\n                /* \"#utility.yul\":920:1042   */\n            tag_31:\n                /* \"#utility.yul\":993:1017   */\n              tag_48\n                /* \"#utility.yul\":1011:1016   */\n              dup2\n                /* \"#utility.yul\":993:1017   */\n              tag_26\n              jump\t// in\n            tag_48:\n                /* \"#utility.yul\":986:991   */\n              dup2\n                /* \"#utility.yul\":983:1018   */\n              eq\n                /* \"#utility.yul\":973:1036   */\n              tag_49\n              jumpi\n                /* \"#utility.yul\":1032:1033   */\n              0x00\n                /* \"#utility.yul\":1029:1030   */\n              dup1\n                /* \"#utility.yul\":1022:1034   */\n              revert\n                /* \"#utility.yul\":973:1036   */\n            tag_49:\n                /* \"#utility.yul\":920:1042   */\n              pop\n              jump\t// out\n                /* \"#utility.yul\":1048:1187   */\n            tag_32:\n                /* \"#utility.yul\":1094:1099   */\n              0x00\n                /* \"#utility.yul\":1132:1138   */\n              dup2\n                /* \"#utility.yul\":1119:1139   */\n              calldataload\n                /* \"#utility.yul\":1110:1139   */\n              swap1\n              pop\n                /* \"#utility.yul\":1148:1181   */\n              tag_51\n                /* \"#utility.yul\":1175:1180   */\n              dup2\n                /* \"#utility.yul\":1148:1181   */\n              tag_31\n              jump\t// in\n            tag_51:\n                /* \"#utility.yul\":1048:1187   */\n              swap3\n              swap2\n              pop\n              pop\n              jump\t// out\n                /* \"#utility.yul\":1193:1667   */\n            tag_13:\n                /* \"#utility.yul\":1261:1267   */\n              0x00\n                /* \"#utility.yul\":1269:1275   */\n              dup1\n                /* \"#utility.yul\":1318:1320   */\n              0x40\n                /* \"#utility.yul\":1306:1315   */\n              dup4\n                /* \"#utility.yul\":1297:1304   */\n              dup6\n                /* \"#utility.yul\":1293:1316   */\n              sub\n                /* \"#utility.yul\":1289:1321   */\n              slt\n                /* \"#utility.yul\":1286:1405   */\n              iszero\n              tag_53\n              jumpi\n                /* \"#utility.yul\":1324:1403   */\n              tag_54\n              tag_29\n              jump\t// in\n            tag_54:\n                /* \"#utility.yul\":1286:1405   */\n            tag_53:\n                /* \"#utility.yul\":1444:1445   */\n              0x00\n                /* \"#utility.yul\":1469:1522   */\n              tag_55\n                /* \"#utility.yul\":1514:1521   */\n              dup6\n                /* \"#utility.yul\":1505:1511   */\n              dup3\n                /* \"#utility.yul\":1494:1503   */\n              dup7\n                /* \"#utility.yul\":1490:1512   */\n              add\n                /* \"#utility.yul\":1469:1522   */\n              tag_32\n              jump\t// in\n            tag_55:\n                /* \"#utility.yul\":1459:1522   */\n              swap3\n              pop\n                /* \"#utility.yul\":1415:1532   */\n              pop\n                /* \"#utility.yul\":1571:1573   */\n              0x20\n                /* \"#utility.yul\":1597:1650   */\n              tag_56\n                /* \"#utility.yul\":1642:1649   */\n              dup6\n                /* \"#utility.yul\":1633:1639   */\n              dup3\n                /* \"#utility.yul\":1622:1631   */\n              dup7\n                /* \"#utility.yul\":1618:1640   */\n              add\n                /* \"#utility.yul\":1597:1650   */\n              tag_32\n              jump\t// in\n            tag_56:\n                /* \"#utility.yul\":1587:1650   */\n              swap2\n              pop\n                /* \"#utility.yul\":1542:1660   */\n              pop\n                /* \"#utility.yul\":1193:1667   */\n              swap3\n              pop\n              swap3\n              swap1\n              pop\n              jump\t// out\n                /* \"#utility.yul\":1673:1842   */\n            tag_33:\n                /* \"#utility.yul\":1757:1768   */\n              0x00\n                /* \"#utility.yul\":1791:1797   */\n              dup3\n                /* \"#utility.yul\":1786:1789   */\n              dup3\n                /* \"#utility.yul\":1779:1798   */\n              mstore\n                /* \"#utility.yul\":1831:1835   */\n              0x20\n                /* \"#utility.yul\":1826:1829   */\n              dup3\n                /* \"#utility.yul\":1822:1836   */\n              add\n                /* \"#utility.yul\":1807:1836   */\n              swap1\n              pop\n                /* \"#utility.yul\":1673:1842   */\n              swap3\n              swap2\n              pop\n              pop\n              jump\t// out\n                /* \"#utility.yul\":1848:2264   */\n            tag_34:\n                /* \"#utility.yul\":1988:2054   */\n              0xe5889de5a78be58c96e79a84e59088e7baa6e59cb0e59d80e5bf85e9a1bbe698\n                /* \"#utility.yul\":1984:1985   */\n              0x00\n                /* \"#utility.yul\":1976:1982   */\n              dup3\n                /* \"#utility.yul\":1972:1986   */\n              add\n                /* \"#utility.yul\":1965:2055   */\n              mstore\n                /* \"#utility.yul\":2089:2155   */\n              0xafe5928ce5889be5bbba205061726920e79a84e59088e7baa6e59cb0e59d80e6\n                /* \"#utility.yul\":2084:2086   */\n              0x20\n                /* \"#utility.yul\":2076:2082   */\n              dup3\n                /* \"#utility.yul\":2072:2087   */\n              add\n                /* \"#utility.yul\":2065:2156   */\n              mstore\n                /* \"#utility.yul\":2190:2256   */\n              0x98afe5908ce4b880e4b8aae5b7a5e58e82e59088e7baa6000000000000000000\n                /* \"#utility.yul\":2185:2187   */\n              0x40\n                /* \"#utility.yul\":2177:2183   */\n              dup3\n                /* \"#utility.yul\":2173:2188   */\n              add\n                /* \"#utility.yul\":2166:2257   */\n              mstore\n                /* \"#utility.yul\":1848:2264   */\n              pop\n              jump\t// out\n                /* \"#utility.yul\":2270:2636   */\n            tag_35:\n                /* \"#utility.yul\":2412:2415   */\n              0x00\n                /* \"#utility.yul\":2433:2500   */\n              tag_60\n                /* \"#utility.yul\":2497:2499   */\n              0x57\n                /* \"#utility.yul\":2492:2495   */\n              dup4\n                /* \"#utility.yul\":2433:2500   */\n              tag_33\n              jump\t// in\n            tag_60:\n                /* \"#utility.yul\":2426:2500   */\n              swap2\n              pop\n                /* \"#utility.yul\":2509:2602   */\n              tag_61\n                /* \"#utility.yul\":2598:2601   */\n              dup3\n                /* \"#utility.yul\":2509:2602   */\n              tag_34\n              jump\t// in\n            tag_61:\n                /* \"#utility.yul\":2627:2629   */\n              0x60\n                /* \"#utility.yul\":2622:2625   */\n              dup3\n                /* \"#utility.yul\":2618:2630   */\n              add\n                /* \"#utility.yul\":2611:2630   */\n              swap1\n              pop\n                /* \"#utility.yul\":2270:2636   */\n              swap2\n              swap1\n              pop\n              jump\t// out\n                /* \"#utility.yul\":2642:3061   */\n            tag_24:\n                /* \"#utility.yul\":2808:2812   */\n              0x00\n                /* \"#utility.yul\":2846:2848   */\n              0x20\n                /* \"#utility.yul\":2835:2844   */\n              dup3\n                /* \"#utility.yul\":2831:2849   */\n              add\n                /* \"#utility.yul\":2823:2849   */\n              swap1\n              pop\n                /* \"#utility.yul\":2895:2904   */\n              dup2\n                /* \"#utility.yul\":2889:2893   */\n              dup2\n                /* \"#utility.yul\":2885:2905   */\n              sub\n                /* \"#utility.yul\":2881:2882   */\n              0x00\n                /* \"#utility.yul\":2870:2879   */\n              dup4\n                /* \"#utility.yul\":2866:2883   */\n              add\n                /* \"#utility.yul\":2859:2906   */\n              mstore\n                /* \"#utility.yul\":2923:3054   */\n              tag_63\n                /* \"#utility.yul\":3049:3053   */\n              dup2\n                /* \"#utility.yul\":2923:3054   */\n              tag_35\n              jump\t// in\n            tag_63:\n                /* \"#utility.yul\":2915:3054   */\n              swap1\n              pop\n                /* \"#utility.yul\":2642:3061   */\n              swap2\n              swap1\n              pop\n              jump\t// out\n\n            auxdata: 0xa26469706673582212203837e416ee33d442c308ccc659dd00f1ff80183edfcada5b3e630ebfb74a88c264736f6c63430008190033\n        }\n    }\n\n    auxdata: 0xa26469706673582212208a9d102308c6eae50611f5fb89655a99c7bf0e6280b3380aacdb17193543392b64736f6c63430008190033\n}\n",
				"bytecode": {
					"linkReferences": {},
					"object": "6080604052348015600e575f80fd5b5061098c8061001c5f395ff3fe608060405234801561000f575f80fd5b506004361061003f575f3560e01c80631e3dd18b14610043578063c9c6539614610073578063e6a43905146100a3575b5f80fd5b61005d600480360381019061005891906103f4565b6100d3565b60405161006a919061045e565b60405180910390f35b61008d600480360381019061008891906104a1565b61010e565b60405161009a919061045e565b60405180910390f35b6100bd60048036038101906100b891906104a1565b610374565b6040516100ca919061045e565b60405180910390f35b600181815481106100e2575f80fd5b905f5260205f20015f915054906101000a900473ffffffffffffffffffffffffffffffffffffffff1681565b5f8060405161011c906103b0565b604051809103905ff080158015610135573d5f803e3d5ffd5b5090508073ffffffffffffffffffffffffffffffffffffffff1663485cc95585856040518363ffffffff1660e01b81526004016101739291906104df565b5f604051808303815f87803b15801561018a575f80fd5b505af115801561019c573d5f803e3d5ffd5b50505050809150600182908060018154018082558091505060019003905f5260205f20015f9091909190916101000a81548173ffffffffffffffffffffffffffffffffffffffff021916908373ffffffffffffffffffffffffffffffffffffffff160217905550815f808673ffffffffffffffffffffffffffffffffffffffff1673ffffffffffffffffffffffffffffffffffffffff1681526020019081526020015f205f8573ffffffffffffffffffffffffffffffffffffffff1673ffffffffffffffffffffffffffffffffffffffff1681526020019081526020015f205f6101000a81548173ffffffffffffffffffffffffffffffffffffffff021916908373ffffffffffffffffffffffffffffffffffffffff160217905550815f808573ffffffffffffffffffffffffffffffffffffffff1673ffffffffffffffffffffffffffffffffffffffff1681526020019081526020015f205f8673ffffffffffffffffffffffffffffffffffffffff1673ffffffffffffffffffffffffffffffffffffffff1681526020019081526020015f205f6101000a81548173ffffffffffffffffffffffffffffffffffffffff021916908373ffffffffffffffffffffffffffffffffffffffff1602179055505092915050565b5f602052815f5260405f20602052805f5260405f205f915091509054906101000a900473ffffffffffffffffffffffffffffffffffffffff1681565b6104508061050783390190565b5f80fd5b5f819050919050565b6103d3816103c1565b81146103dd575f80fd5b50565b5f813590506103ee816103ca565b92915050565b5f60208284031215610409576104086103bd565b5b5f610416848285016103e0565b91505092915050565b5f73ffffffffffffffffffffffffffffffffffffffff82169050919050565b5f6104488261041f565b9050919050565b6104588161043e565b82525050565b5f6020820190506104715f83018461044f565b92915050565b6104808161043e565b811461048a575f80fd5b50565b5f8135905061049b81610477565b92915050565b5f80604083850312156104b7576104b66103bd565b5b5f6104c48582860161048d565b92505060206104d58582860161048d565b9150509250929050565b5f6040820190506104f25f83018561044f565b6104ff602083018461044f565b939250505056fe6080604052335f806101000a81548173ffffffffffffffffffffffffffffffffffffffff021916908373ffffffffffffffffffffffffffffffffffffffff160217905550610400806100505f395ff3fe608060405234801561000f575f80fd5b506004361061004a575f3560e01c80630fc63d101461004e578063485cc9551461006c5780635f64b55b14610088578063c45a0155146100a6575b5f80fd5b6100566100c4565b6040516100639190610281565b60405180910390f35b610086600480360381019061008191906102c8565b6100e9565b005b6100906101fa565b60405161009d9190610281565b60405180910390f35b6100ae61021f565b6040516100bb9190610281565b60405180910390f35b60015f9054906101000a900473ffffffffffffffffffffffffffffffffffffffff1681565b5f8054906101000a900473ffffffffffffffffffffffffffffffffffffffff1673ffffffffffffffffffffffffffffffffffffffff163373ffffffffffffffffffffffffffffffffffffffff1614610176576040517f08c379a000000000000000000000000000000000000000000000000000000000815260040161016d906103ac565b60405180910390fd5b8160015f6101000a81548173ffffffffffffffffffffffffffffffffffffffff021916908373ffffffffffffffffffffffffffffffffffffffff1602179055508060025f6101000a81548173ffffffffffffffffffffffffffffffffffffffff021916908373ffffffffffffffffffffffffffffffffffffffff1602179055505050565b60025f9054906101000a900473ffffffffffffffffffffffffffffffffffffffff1681565b5f8054906101000a900473ffffffffffffffffffffffffffffffffffffffff1681565b5f73ffffffffffffffffffffffffffffffffffffffff82169050919050565b5f61026b82610242565b9050919050565b61027b81610261565b82525050565b5f6020820190506102945f830184610272565b92915050565b5f80fd5b6102a781610261565b81146102b1575f80fd5b50565b5f813590506102c28161029e565b92915050565b5f80604083850312156102de576102dd61029a565b5b5f6102eb858286016102b4565b92505060206102fc858286016102b4565b9150509250929050565b5f82825260208201905092915050565b7fe5889de5a78be58c96e79a84e59088e7baa6e59cb0e59d80e5bf85e9a1bbe6985f8201527fafe5928ce5889be5bbba205061726920e79a84e59088e7baa6e59cb0e59d80e660208201527f98afe5908ce4b880e4b8aae5b7a5e58e82e59088e7baa6000000000000000000604082015250565b5f610396605783610306565b91506103a182610316565b606082019050919050565b5f6020820190508181035f8301526103c38161038a565b905091905056fea26469706673582212203837e416ee33d442c308ccc659dd00f1ff80183edfcada5b3e630ebfb74a88c264736f6c63430008190033a26469706673582212208a9d102308c6eae50611f5fb89655a99c7bf0e6280b3380aacdb17193543392b64736f6c63430008190033",
					"opcodes": "PUSH1 0x80 PUSH1 0x40 MSTORE CALLVALUE DUP1 ISZERO PUSH1 0xE JUMPI PUSH0 DUP1 REVERT JUMPDEST POP PUSH2 0x98C DUP1 PUSH2 0x1C PUSH0 CODECOPY PUSH0 RETURN INVALID PUSH1 0x80 PUSH1 0x40 MSTORE CALLVALUE DUP1 ISZERO PUSH2 0xF JUMPI PUSH0 DUP1 REVERT JUMPDEST POP PUSH1 0x4 CALLDATASIZE LT PUSH2 0x3F JUMPI PUSH0 CALLDATALOAD PUSH1 0xE0 SHR DUP1 PUSH4 0x1E3DD18B EQ PUSH2 0x43 JUMPI DUP1 PUSH4 0xC9C65396 EQ PUSH2 0x73 JUMPI DUP1 PUSH4 0xE6A43905 EQ PUSH2 0xA3 JUMPI JUMPDEST PUSH0 DUP1 REVERT JUMPDEST PUSH2 0x5D PUSH1 0x4 DUP1 CALLDATASIZE SUB DUP2 ADD SWAP1 PUSH2 0x58 SWAP2 SWAP1 PUSH2 0x3F4 JUMP JUMPDEST PUSH2 0xD3 JUMP JUMPDEST PUSH1 0x40 MLOAD PUSH2 0x6A SWAP2 SWAP1 PUSH2 0x45E JUMP JUMPDEST PUSH1 0x40 MLOAD DUP1 SWAP2 SUB SWAP1 RETURN JUMPDEST PUSH2 0x8D PUSH1 0x4 DUP1 CALLDATASIZE SUB DUP2 ADD SWAP1 PUSH2 0x88 SWAP2 SWAP1 PUSH2 0x4A1 JUMP JUMPDEST PUSH2 0x10E JUMP JUMPDEST PUSH1 0x40 MLOAD PUSH2 0x9A SWAP2 SWAP1 PUSH2 0x45E JUMP JUMPDEST PUSH1 0x40 MLOAD DUP1 SWAP2 SUB SWAP1 RETURN JUMPDEST PUSH2 0xBD PUSH1 0x4 DUP1 CALLDATASIZE SUB DUP2 ADD SWAP1 PUSH2 0xB8 SWAP2 SWAP1 PUSH2 0x4A1 JUMP JUMPDEST PUSH2 0x374 JUMP JUMPDEST PUSH1 0x40 MLOAD PUSH2 0xCA SWAP2 SWAP1 PUSH2 0x45E JUMP JUMPDEST PUSH1 0x40 MLOAD DUP1 SWAP2 SUB SWAP1 RETURN JUMPDEST PUSH1 0x1 DUP2 DUP2 SLOAD DUP2 LT PUSH2 0xE2 JUMPI PUSH0 DUP1 REVERT JUMPDEST SWAP1 PUSH0 MSTORE PUSH1 0x20 PUSH0 KECCAK256 ADD PUSH0 SWAP2 POP SLOAD SWAP1 PUSH2 0x100 EXP SWAP1 DIV PUSH20 0xFFFFFFFFFFFFFFFFFFFFFFFFFFFFFFFFFFFFFFFF AND DUP2 JUMP JUMPDEST PUSH0 DUP1 PUSH1 0x40 MLOAD PUSH2 0x11C SWAP1 PUSH2 0x3B0 JUMP JUMPDEST PUSH1 0x40 MLOAD DUP1 SWAP2 SUB SWAP1 PUSH0 CREATE DUP1 ISZERO DUP1 ISZERO PUSH2 0x135 JUMPI RETURNDATASIZE PUSH0 DUP1 RETURNDATACOPY RETURNDATASIZE PUSH0 REVERT JUMPDEST POP SWAP1 POP DUP1 PUSH20 0xFFFFFFFFFFFFFFFFFFFFFFFFFFFFFFFFFFFFFFFF AND PUSH4 0x485CC955 DUP6 DUP6 PUSH1 0x40 MLOAD DUP4 PUSH4 0xFFFFFFFF AND PUSH1 0xE0 SHL DUP2 MSTORE PUSH1 0x4 ADD PUSH2 0x173 SWAP3 SWAP2 SWAP1 PUSH2 0x4DF JUMP JUMPDEST PUSH0 PUSH1 0x40 MLOAD DUP1 DUP4 SUB DUP2 PUSH0 DUP8 DUP1 EXTCODESIZE ISZERO DUP1 ISZERO PUSH2 0x18A JUMPI PUSH0 DUP1 REVERT JUMPDEST POP GAS CALL ISZERO DUP1 ISZERO PUSH2 0x19C JUMPI RETURNDATASIZE PUSH0 DUP1 RETURNDATACOPY RETURNDATASIZE PUSH0 REVERT JUMPDEST POP POP POP POP DUP1 SWAP2 POP PUSH1 0x1 DUP3 SWAP1 DUP1 PUSH1 0x1 DUP2 SLOAD ADD DUP1 DUP3 SSTORE DUP1 SWAP2 POP POP PUSH1 0x1 SWAP1 SUB SWAP1 PUSH0 MSTORE PUSH1 0x20 PUSH0 KECCAK256 ADD PUSH0 SWAP1 SWAP2 SWAP1 SWAP2 SWAP1 SWAP2 PUSH2 0x100 EXP DUP2 SLOAD DUP2 PUSH20 0xFFFFFFFFFFFFFFFFFFFFFFFFFFFFFFFFFFFFFFFF MUL NOT AND SWAP1 DUP4 PUSH20 0xFFFFFFFFFFFFFFFFFFFFFFFFFFFFFFFFFFFFFFFF AND MUL OR SWAP1 SSTORE POP DUP2 PUSH0 DUP1 DUP7 PUSH20 0xFFFFFFFFFFFFFFFFFFFFFFFFFFFFFFFFFFFFFFFF AND PUSH20 0xFFFFFFFFFFFFFFFFFFFFFFFFFFFFFFFFFFFFFFFF AND DUP2 MSTORE PUSH1 0x20 ADD SWAP1 DUP2 MSTORE PUSH1 0x20 ADD PUSH0 KECCAK256 PUSH0 DUP6 PUSH20 0xFFFFFFFFFFFFFFFFFFFFFFFFFFFFFFFFFFFFFFFF AND PUSH20 0xFFFFFFFFFFFFFFFFFFFFFFFFFFFFFFFFFFFFFFFF AND DUP2 MSTORE PUSH1 0x20 ADD SWAP1 DUP2 MSTORE PUSH1 0x20 ADD PUSH0 KECCAK256 PUSH0 PUSH2 0x100 EXP DUP2 SLOAD DUP2 PUSH20 0xFFFFFFFFFFFFFFFFFFFFFFFFFFFFFFFFFFFFFFFF MUL NOT AND SWAP1 DUP4 PUSH20 0xFFFFFFFFFFFFFFFFFFFFFFFFFFFFFFFFFFFFFFFF AND MUL OR SWAP1 SSTORE POP DUP2 PUSH0 DUP1 DUP6 PUSH20 0xFFFFFFFFFFFFFFFFFFFFFFFFFFFFFFFFFFFFFFFF AND PUSH20 0xFFFFFFFFFFFFFFFFFFFFFFFFFFFFFFFFFFFFFFFF AND DUP2 MSTORE PUSH1 0x20 ADD SWAP1 DUP2 MSTORE PUSH1 0x20 ADD PUSH0 KECCAK256 PUSH0 DUP7 PUSH20 0xFFFFFFFFFFFFFFFFFFFFFFFFFFFFFFFFFFFFFFFF AND PUSH20 0xFFFFFFFFFFFFFFFFFFFFFFFFFFFFFFFFFFFFFFFF AND DUP2 MSTORE PUSH1 0x20 ADD SWAP1 DUP2 MSTORE PUSH1 0x20 ADD PUSH0 KECCAK256 PUSH0 PUSH2 0x100 EXP DUP2 SLOAD DUP2 PUSH20 0xFFFFFFFFFFFFFFFFFFFFFFFFFFFFFFFFFFFFFFFF MUL NOT AND SWAP1 DUP4 PUSH20 0xFFFFFFFFFFFFFFFFFFFFFFFFFFFFFFFFFFFFFFFF AND MUL OR SWAP1 SSTORE POP POP SWAP3 SWAP2 POP POP JUMP JUMPDEST PUSH0 PUSH1 0x20 MSTORE DUP2 PUSH0 MSTORE PUSH1 0x40 PUSH0 KECCAK256 PUSH1 0x20 MSTORE DUP1 PUSH0 MSTORE PUSH1 0x40 PUSH0 KECCAK256 PUSH0 SWAP2 POP SWAP2 POP SWAP1 SLOAD SWAP1 PUSH2 0x100 EXP SWAP1 DIV PUSH20 0xFFFFFFFFFFFFFFFFFFFFFFFFFFFFFFFFFFFFFFFF AND DUP2 JUMP JUMPDEST PUSH2 0x450 DUP1 PUSH2 0x507 DUP4 CODECOPY ADD SWAP1 JUMP JUMPDEST PUSH0 DUP1 REVERT JUMPDEST PUSH0 DUP2 SWAP1 POP SWAP2 SWAP1 POP JUMP JUMPDEST PUSH2 0x3D3 DUP2 PUSH2 0x3C1 JUMP JUMPDEST DUP2 EQ PUSH2 0x3DD JUMPI PUSH0 DUP1 REVERT JUMPDEST POP JUMP JUMPDEST PUSH0 DUP2 CALLDATALOAD SWAP1 POP PUSH2 0x3EE DUP2 PUSH2 0x3CA JUMP JUMPDEST SWAP3 SWAP2 POP POP JUMP JUMPDEST PUSH0 PUSH1 0x20 DUP3 DUP5 SUB SLT ISZERO PUSH2 0x409 JUMPI PUSH2 0x408 PUSH2 0x3BD JUMP JUMPDEST JUMPDEST PUSH0 PUSH2 0x416 DUP5 DUP3 DUP6 ADD PUSH2 0x3E0 JUMP JUMPDEST SWAP2 POP POP SWAP3 SWAP2 POP POP JUMP JUMPDEST PUSH0 PUSH20 0xFFFFFFFFFFFFFFFFFFFFFFFFFFFFFFFFFFFFFFFF DUP3 AND SWAP1 POP SWAP2 SWAP1 POP JUMP JUMPDEST PUSH0 PUSH2 0x448 DUP3 PUSH2 0x41F JUMP JUMPDEST SWAP1 POP SWAP2 SWAP1 POP JUMP JUMPDEST PUSH2 0x458 DUP2 PUSH2 0x43E JUMP JUMPDEST DUP3 MSTORE POP POP JUMP JUMPDEST PUSH0 PUSH1 0x20 DUP3 ADD SWAP1 POP PUSH2 0x471 PUSH0 DUP4 ADD DUP5 PUSH2 0x44F JUMP JUMPDEST SWAP3 SWAP2 POP POP JUMP JUMPDEST PUSH2 0x480 DUP2 PUSH2 0x43E JUMP JUMPDEST DUP2 EQ PUSH2 0x48A JUMPI PUSH0 DUP1 REVERT JUMPDEST POP JUMP JUMPDEST PUSH0 DUP2 CALLDATALOAD SWAP1 POP PUSH2 0x49B DUP2 PUSH2 0x477 JUMP JUMPDEST SWAP3 SWAP2 POP POP JUMP JUMPDEST PUSH0 DUP1 PUSH1 0x40 DUP4 DUP6 SUB SLT ISZERO PUSH2 0x4B7 JUMPI PUSH2 0x4B6 PUSH2 0x3BD JUMP JUMPDEST JUMPDEST PUSH0 PUSH2 0x4C4 DUP6 DUP3 DUP7 ADD PUSH2 0x48D JUMP JUMPDEST SWAP3 POP POP PUSH1 0x20 PUSH2 0x4D5 DUP6 DUP3 DUP7 ADD PUSH2 0x48D JUMP JUMPDEST SWAP2 POP POP SWAP3 POP SWAP3 SWAP1 POP JUMP JUMPDEST PUSH0 PUSH1 0x40 DUP3 ADD SWAP1 POP PUSH2 0x4F2 PUSH0 DUP4 ADD DUP6 PUSH2 0x44F JUMP JUMPDEST PUSH2 0x4FF PUSH1 0x20 DUP4 ADD DUP5 PUSH2 0x44F JUMP JUMPDEST SWAP4 SWAP3 POP POP POP JUMP INVALID PUSH1 0x80 PUSH1 0x40 MSTORE CALLER PUSH0 DUP1 PUSH2 0x100 EXP DUP2 SLOAD DUP2 PUSH20 0xFFFFFFFFFFFFFFFFFFFFFFFFFFFFFFFFFFFFFFFF MUL NOT AND SWAP1 DUP4 PUSH20 0xFFFFFFFFFFFFFFFFFFFFFFFFFFFFFFFFFFFFFFFF AND MUL OR SWAP1 SSTORE POP PUSH2 0x400 DUP1 PUSH2 0x50 PUSH0 CODECOPY PUSH0 RETURN INVALID PUSH1 0x80 PUSH1 0x40 MSTORE CALLVALUE DUP1 ISZERO PUSH2 0xF JUMPI PUSH0 DUP1 REVERT JUMPDEST POP PUSH1 0x4 CALLDATASIZE LT PUSH2 0x4A JUMPI PUSH0 CALLDATALOAD PUSH1 0xE0 SHR DUP1 PUSH4 0xFC63D10 EQ PUSH2 0x4E JUMPI DUP1 PUSH4 0x485CC955 EQ PUSH2 0x6C JUMPI DUP1 PUSH4 0x5F64B55B EQ PUSH2 0x88 JUMPI DUP1 PUSH4 0xC45A0155 EQ PUSH2 0xA6 JUMPI JUMPDEST PUSH0 DUP1 REVERT JUMPDEST PUSH2 0x56 PUSH2 0xC4 JUMP JUMPDEST PUSH1 0x40 MLOAD PUSH2 0x63 SWAP2 SWAP1 PUSH2 0x281 JUMP JUMPDEST PUSH1 0x40 MLOAD DUP1 SWAP2 SUB SWAP1 RETURN JUMPDEST PUSH2 0x86 PUSH1 0x4 DUP1 CALLDATASIZE SUB DUP2 ADD SWAP1 PUSH2 0x81 SWAP2 SWAP1 PUSH2 0x2C8 JUMP JUMPDEST PUSH2 0xE9 JUMP JUMPDEST STOP JUMPDEST PUSH2 0x90 PUSH2 0x1FA JUMP JUMPDEST PUSH1 0x40 MLOAD PUSH2 0x9D SWAP2 SWAP1 PUSH2 0x281 JUMP JUMPDEST PUSH1 0x40 MLOAD DUP1 SWAP2 SUB SWAP1 RETURN JUMPDEST PUSH2 0xAE PUSH2 0x21F JUMP JUMPDEST PUSH1 0x40 MLOAD PUSH2 0xBB SWAP2 SWAP1 PUSH2 0x281 JUMP JUMPDEST PUSH1 0x40 MLOAD DUP1 SWAP2 SUB SWAP1 RETURN JUMPDEST PUSH1 0x1 PUSH0 SWAP1 SLOAD SWAP1 PUSH2 0x100 EXP SWAP1 DIV PUSH20 0xFFFFFFFFFFFFFFFFFFFFFFFFFFFFFFFFFFFFFFFF AND DUP2 JUMP JUMPDEST PUSH0 DUP1 SLOAD SWAP1 PUSH2 0x100 EXP SWAP1 DIV PUSH20 0xFFFFFFFFFFFFFFFFFFFFFFFFFFFFFFFFFFFFFFFF AND PUSH20 0xFFFFFFFFFFFFFFFFFFFFFFFFFFFFFFFFFFFFFFFF AND CALLER PUSH20 0xFFFFFFFFFFFFFFFFFFFFFFFFFFFFFFFFFFFFFFFF AND EQ PUSH2 0x176 JUMPI PUSH1 0x40 MLOAD PUSH32 0x8C379A000000000000000000000000000000000000000000000000000000000 DUP2 MSTORE PUSH1 0x4 ADD PUSH2 0x16D SWAP1 PUSH2 0x3AC JUMP JUMPDEST PUSH1 0x40 MLOAD DUP1 SWAP2 SUB SWAP1 REVERT JUMPDEST DUP2 PUSH1 0x1 PUSH0 PUSH2 0x100 EXP DUP2 SLOAD DUP2 PUSH20 0xFFFFFFFFFFFFFFFFFFFFFFFFFFFFFFFFFFFFFFFF MUL NOT AND SWAP1 DUP4 PUSH20 0xFFFFFFFFFFFFFFFFFFFFFFFFFFFFFFFFFFFFFFFF AND MUL OR SWAP1 SSTORE POP DUP1 PUSH1 0x2 PUSH0 PUSH2 0x100 EXP DUP2 SLOAD DUP2 PUSH20 0xFFFFFFFFFFFFFFFFFFFFFFFFFFFFFFFFFFFFFFFF MUL NOT AND SWAP1 DUP4 PUSH20 0xFFFFFFFFFFFFFFFFFFFFFFFFFFFFFFFFFFFFFFFF AND MUL OR SWAP1 SSTORE POP POP POP JUMP JUMPDEST PUSH1 0x2 PUSH0 SWAP1 SLOAD SWAP1 PUSH2 0x100 EXP SWAP1 DIV PUSH20 0xFFFFFFFFFFFFFFFFFFFFFFFFFFFFFFFFFFFFFFFF AND DUP2 JUMP JUMPDEST PUSH0 DUP1 SLOAD SWAP1 PUSH2 0x100 EXP SWAP1 DIV PUSH20 0xFFFFFFFFFFFFFFFFFFFFFFFFFFFFFFFFFFFFFFFF AND DUP2 JUMP JUMPDEST PUSH0 PUSH20 0xFFFFFFFFFFFFFFFFFFFFFFFFFFFFFFFFFFFFFFFF DUP3 AND SWAP1 POP SWAP2 SWAP1 POP JUMP JUMPDEST PUSH0 PUSH2 0x26B DUP3 PUSH2 0x242 JUMP JUMPDEST SWAP1 POP SWAP2 SWAP1 POP JUMP JUMPDEST PUSH2 0x27B DUP2 PUSH2 0x261 JUMP JUMPDEST DUP3 MSTORE POP POP JUMP JUMPDEST PUSH0 PUSH1 0x20 DUP3 ADD SWAP1 POP PUSH2 0x294 PUSH0 DUP4 ADD DUP5 PUSH2 0x272 JUMP JUMPDEST SWAP3 SWAP2 POP POP JUMP JUMPDEST PUSH0 DUP1 REVERT JUMPDEST PUSH2 0x2A7 DUP2 PUSH2 0x261 JUMP JUMPDEST DUP2 EQ PUSH2 0x2B1 JUMPI PUSH0 DUP1 REVERT JUMPDEST POP JUMP JUMPDEST PUSH0 DUP2 CALLDATALOAD SWAP1 POP PUSH2 0x2C2 DUP2 PUSH2 0x29E JUMP JUMPDEST SWAP3 SWAP2 POP POP JUMP JUMPDEST PUSH0 DUP1 PUSH1 0x40 DUP4 DUP6 SUB SLT ISZERO PUSH2 0x2DE JUMPI PUSH2 0x2DD PUSH2 0x29A JUMP JUMPDEST JUMPDEST PUSH0 PUSH2 0x2EB DUP6 DUP3 DUP7 ADD PUSH2 0x2B4 JUMP JUMPDEST SWAP3 POP POP PUSH1 0x20 PUSH2 0x2FC DUP6 DUP3 DUP7 ADD PUSH2 0x2B4 JUMP JUMPDEST SWAP2 POP POP SWAP3 POP SWAP3 SWAP1 POP JUMP JUMPDEST PUSH0 DUP3 DUP3 MSTORE PUSH1 0x20 DUP3 ADD SWAP1 POP SWAP3 SWAP2 POP POP JUMP JUMPDEST PUSH32 0xE5889DE5A78BE58C96E79A84E59088E7BAA6E59CB0E59D80E5BF85E9A1BBE698 PUSH0 DUP3 ADD MSTORE PUSH32 0xAFE5928CE5889BE5BBBA205061726920E79A84E59088E7BAA6E59CB0E59D80E6 PUSH1 0x20 DUP3 ADD MSTORE PUSH32 0x98AFE5908CE4B880E4B8AAE5B7A5E58E82E59088E7BAA6000000000000000000 PUSH1 0x40 DUP3 ADD MSTORE POP JUMP JUMPDEST PUSH0 PUSH2 0x396 PUSH1 0x57 DUP4 PUSH2 0x306 JUMP JUMPDEST SWAP2 POP PUSH2 0x3A1 DUP3 PUSH2 0x316 JUMP JUMPDEST PUSH1 0x60 DUP3 ADD SWAP1 POP SWAP2 SWAP1 POP JUMP JUMPDEST PUSH0 PUSH1 0x20 DUP3 ADD SWAP1 POP DUP2 DUP2 SUB PUSH0 DUP4 ADD MSTORE PUSH2 0x3C3 DUP2 PUSH2 0x38A JUMP JUMPDEST SWAP1 POP SWAP2 SWAP1 POP JUMP INVALID LOG2 PUSH5 0x6970667358 0x22 SLT KECCAK256 CODESIZE CALLDATACOPY 0xE4 AND 0xEE CALLER 0xD4 TIMESTAMP 0xC3 ADDMOD 0xCC 0xC6 MSIZE 0xDD STOP CALL SELFDESTRUCT DUP1 XOR RETURNDATACOPY 0xDF 0xCA 0xDA JUMPDEST RETURNDATACOPY PUSH4 0xEBFB74A DUP9 0xC2 PUSH5 0x736F6C6343 STOP ADDMOD NOT STOP CALLER LOG2 PUSH5 0x6970667358 0x22 SLT KECCAK256 DUP11 SWAP14 LT 0x23 ADDMOD 0xC6 0xEA 0xE5 MOD GT CREATE2 0xFB DUP10 PUSH6 0x5A99C7BF0E62 DUP1 0xB3 CODESIZE EXP 0xAC 0xDB OR NOT CALLDATALOAD NUMBER CODECOPY 0x2B PUSH5 0x736F6C6343 STOP ADDMOD NOT STOP CALLER "
				},
				"gasEstimates": {
					"creation": {
						"codeDepositCost": "488800",
						"executionCost": "522",
						"totalCost": "489322"
					},
					"external": {
						"allPairs(uint256)": "4922",
						"createPair(address,address)": "infinite",
						"getPair(address,address)": "infinite"
					}
				},
				"methodIdentifiers": {
					"allPairs(uint256)": "1e3dd18b",
					"createPair(address,address)": "c9c65396",
					"getPair(address,address)": "e6a43905"
				}
			},
			"storageLayout": {
				"storage": [
					{
						"astId": 47,
						"contract": "SimpleUniswap.sol:PairFactory",
						"label": "getPair",
						"offset": 0,
						"slot": "0",
						"type": "t_mapping(t_address,t_mapping(t_address,t_address))"
					},
					{
						"astId": 50,
						"contract": "SimpleUniswap.sol:PairFactory",
						"label": "allPairs",
						"offset": 0,
						"slot": "1",
						"type": "t_array(t_address)dyn_storage"
					}
				],
				"types": {
					"t_address": {
						"encoding": "inplace",
						"label": "address",
						"numberOfBytes": "20"
					},
					"t_array(t_address)dyn_storage": {
						"base": "t_address",
						"encoding": "dynamic_array",
						"label": "address[]",
						"numberOfBytes": "32"
					},
					"t_mapping(t_address,t_address)": {
						"encoding": "mapping",
						"key": "t_address",
						"label": "mapping(address => address)",
						"numberOfBytes": "32",
						"value": "t_address"
					},
					"t_mapping(t_address,t_mapping(t_address,t_address))": {
						"encoding": "mapping",
						"key": "t_address",
						"label": "mapping(address => mapping(address => address))",
						"numberOfBytes": "32",
						"value": "t_mapping(t_address,t_address)"
					}
				}
			},
			"userdoc": {
				"kind": "user",
				"methods": {},
				"version": 1
			}
		}
	}
}