{
	"Transfer.sol": {
		"Transfer": {
			"abi": [
				{
					"inputs": [],
					"stateMutability": "payable",
					"type": "constructor"
				},
				{
					"inputs": [
						{
							"internalType": "address payable",
							"name": "to",
							"type": "address"
						},
						{
							"internalType": "uint256",
							"name": "value",
							"type": "uint256"
						}
					],
					"name": "callETH",
					"outputs": [],
					"stateMutability": "payable",
					"type": "function"
				},
				{
					"inputs": [
						{
							"internalType": "address payable",
							"name": "to",
							"type": "address"
						},
						{
							"internalType": "uint256",
							"name": "value",
							"type": "uint256"
						}
					],
					"name": "sendETH",
					"outputs": [],
					"stateMutability": "payable",
					"type": "function"
				},
				{
					"inputs": [
						{
							"internalType": "address payable",
							"name": "to",
							"type": "address"
						},
						{
							"internalType": "uint256",
							"name": "value",
							"type": "uint256"
						}
					],
					"name": "transferETH",
					"outputs": [],
					"stateMutability": "payable",
					"type": "function"
				},
				{
					"stateMutability": "payable",
					"type": "receive"
				}
			],
			"devdoc": {
				"kind": "dev",
				"methods": {},
				"version": 1
			},
			"evm": {
				"assembly": "    /* \"Transfer.sol\":57:1452  contract Transfer {... */\n  mstore(0x40, 0x80)\n  dataSize(sub_0)\n  dup1\n  dataOffset(sub_0)\n  0x00\n  codecopy\n  0x00\n  return\nstop\n\nsub_0: assembly {\n        /* \"Transfer.sol\":57:1452  contract Transfer {... */\n      mstore(0x40, 0x80)\n      jumpi(tag_1, lt(calldatasize, 0x04))\n      shr(0xe0, calldataload(0x00))\n      dup1\n      0x64a197f3\n      eq\n      tag_3\n      jumpi\n      dup1\n      0x7b1a4909\n      eq\n      tag_4\n      jumpi\n      dup1\n      0x8419cf50\n      eq\n      tag_5\n      jumpi\n      jump(tag_2)\n    tag_1:\n      jumpi(tag_2, calldatasize)\n      stop\n    tag_2:\n      0x00\n      dup1\n      revert\n        /* \"Transfer.sol\":548:978  function sendETH(address payable to, uint256 value) external payable{... */\n    tag_3:\n      tag_8\n      0x04\n      dup1\n      calldatasize\n      sub\n      dup2\n      add\n      swap1\n      tag_9\n      swap2\n      swap1\n      tag_10\n      jump\t// in\n    tag_9:\n      tag_11\n      jump\t// in\n    tag_8:\n      stop\n        /* \"Transfer.sol\":241:542  function transferETH(address payable to, uint256 value) external payable{... */\n    tag_4:\n      tag_12\n      0x04\n      dup1\n      calldatasize\n      sub\n      dup2\n      add\n      swap1\n      tag_13\n      swap2\n      swap1\n      tag_10\n      jump\t// in\n    tag_13:\n      tag_14\n      jump\t// in\n    tag_12:\n      stop\n        /* \"Transfer.sol\":984:1450  function callETH(address payable to, uint256 value) external payable{... */\n    tag_5:\n      tag_15\n      0x04\n      dup1\n      calldatasize\n      sub\n      dup2\n      add\n      swap1\n      tag_16\n      swap2\n      swap1\n      tag_10\n      jump\t// in\n    tag_16:\n      tag_17\n      jump\t// in\n    tag_15:\n      stop\n        /* \"Transfer.sol\":548:978  function sendETH(address payable to, uint256 value) external payable{... */\n    tag_11:\n        /* \"Transfer.sol\":872:884  bool success */\n      0x00\n        /* \"Transfer.sol\":887:889  to */\n      dup3\n        /* \"Transfer.sol\":887:894  to.send */\n      0xffffffffffffffffffffffffffffffffffffffff\n      and\n        /* \"Transfer.sol\":887:901  to.send(value) */\n      0x08fc\n        /* \"Transfer.sol\":895:900  value */\n      dup4\n        /* \"Transfer.sol\":887:901  to.send(value) */\n      swap1\n      dup2\n      iszero\n      mul\n      swap1\n      mload(0x40)\n      0x00\n      mload(0x40)\n      dup1\n      dup4\n      sub\n      dup2\n      dup6\n      dup9\n      dup9\n      call\n      swap4\n      pop\n      pop\n      pop\n      pop\n        /* \"Transfer.sol\":872:901  bool success = to.send(value) */\n      swap1\n      pop\n        /* \"Transfer.sol\":616:978  {... */\n      pop\n        /* \"Transfer.sol\":548:978  function sendETH(address payable to, uint256 value) external payable{... */\n      pop\n      pop\n      jump\t// out\n        /* \"Transfer.sol\":241:542  function transferETH(address payable to, uint256 value) external payable{... */\n    tag_14:\n        /* \"Transfer.sol\":517:519  to */\n      dup2\n        /* \"Transfer.sol\":517:528  to.transfer */\n      0xffffffffffffffffffffffffffffffffffffffff\n      and\n        /* \"Transfer.sol\":517:535  to.transfer(value) */\n      0x08fc\n        /* \"Transfer.sol\":529:534  value */\n      dup3\n        /* \"Transfer.sol\":517:535  to.transfer(value) */\n      swap1\n      dup2\n      iszero\n      mul\n      swap1\n      mload(0x40)\n      0x00\n      mload(0x40)\n      dup1\n      dup4\n      sub\n      dup2\n      dup6\n      dup9\n      dup9\n      call\n      swap4\n      pop\n      pop\n      pop\n      pop\n      iszero\n      dup1\n      iszero\n      tag_23\n      jumpi\n      returndatasize\n      0x00\n      dup1\n      returndatacopy\n      revert(0x00, returndatasize)\n    tag_23:\n      pop\n        /* \"Transfer.sol\":241:542  function transferETH(address payable to, uint256 value) external payable{... */\n      pop\n      pop\n      jump\t// out\n        /* \"Transfer.sol\":984:1450  function callETH(address payable to, uint256 value) external payable{... */\n    tag_17:\n        /* \"Transfer.sol\":1331:1343  bool success */\n      0x00\n        /* \"Transfer.sol\":1348:1350  to */\n      dup3\n        /* \"Transfer.sol\":1348:1355  to.call */\n      0xffffffffffffffffffffffffffffffffffffffff\n      and\n        /* \"Transfer.sol\":1363:1368  value */\n      dup3\n        /* \"Transfer.sol\":1348:1373  to.call{value: value}(\"\") */\n      mload(0x40)\n      tag_25\n      swap1\n      tag_26\n      jump\t// in\n    tag_25:\n      0x00\n      mload(0x40)\n      dup1\n      dup4\n      sub\n      dup2\n      dup6\n      dup8\n      gas\n      call\n      swap3\n      pop\n      pop\n      pop\n      returndatasize\n      dup1\n      0x00\n      dup2\n      eq\n      tag_29\n      jumpi\n      mload(0x40)\n      swap2\n      pop\n      and(add(returndatasize, 0x3f), not(0x1f))\n      dup3\n      add\n      0x40\n      mstore\n      returndatasize\n      dup3\n      mstore\n      returndatasize\n      0x00\n      0x20\n      dup5\n      add\n      returndatacopy\n      jump(tag_28)\n    tag_29:\n      0x60\n      swap2\n      pop\n    tag_28:\n      pop\n        /* \"Transfer.sol\":1330:1373  (bool success,) = to.call{value: value}(\"\") */\n      pop\n      swap1\n      pop\n        /* \"Transfer.sol\":1052:1450  {... */\n      pop\n        /* \"Transfer.sol\":984:1450  function callETH(address payable to, uint256 value) external payable{... */\n      pop\n      pop\n      jump\t// out\n        /* \"#utility.yul\":88:205   */\n    tag_32:\n        /* \"#utility.yul\":197:198   */\n      0x00\n        /* \"#utility.yul\":194:195   */\n      dup1\n        /* \"#utility.yul\":187:199   */\n      revert\n        /* \"#utility.yul\":334:460   */\n    tag_34:\n        /* \"#utility.yul\":371:378   */\n      0x00\n        /* \"#utility.yul\":411:453   */\n      0xffffffffffffffffffffffffffffffffffffffff\n        /* \"#utility.yul\":404:409   */\n      dup3\n        /* \"#utility.yul\":400:454   */\n      and\n        /* \"#utility.yul\":389:454   */\n      swap1\n      pop\n        /* \"#utility.yul\":334:460   */\n      swap2\n      swap1\n      pop\n      jump\t// out\n        /* \"#utility.yul\":466:570   */\n    tag_35:\n        /* \"#utility.yul\":511:518   */\n      0x00\n        /* \"#utility.yul\":540:564   */\n      tag_50\n        /* \"#utility.yul\":558:563   */\n      dup3\n        /* \"#utility.yul\":540:564   */\n      tag_34\n      jump\t// in\n    tag_50:\n        /* \"#utility.yul\":529:564   */\n      swap1\n      pop\n        /* \"#utility.yul\":466:570   */\n      swap2\n      swap1\n      pop\n      jump\t// out\n        /* \"#utility.yul\":576:714   */\n    tag_36:\n        /* \"#utility.yul\":657:689   */\n      tag_52\n        /* \"#utility.yul\":683:688   */\n      dup2\n        /* \"#utility.yul\":657:689   */\n      tag_35\n      jump\t// in\n    tag_52:\n        /* \"#utility.yul\":650:655   */\n      dup2\n        /* \"#utility.yul\":647:690   */\n      eq\n        /* \"#utility.yul\":637:708   */\n      tag_53\n      jumpi\n        /* \"#utility.yul\":704:705   */\n      0x00\n        /* \"#utility.yul\":701:702   */\n      dup1\n        /* \"#utility.yul\":694:706   */\n      revert\n        /* \"#utility.yul\":637:708   */\n    tag_53:\n        /* \"#utility.yul\":576:714   */\n      pop\n      jump\t// out\n        /* \"#utility.yul\":720:875   */\n    tag_37:\n        /* \"#utility.yul\":774:779   */\n      0x00\n        /* \"#utility.yul\":812:818   */\n      dup2\n        /* \"#utility.yul\":799:819   */\n      calldataload\n        /* \"#utility.yul\":790:819   */\n      swap1\n      pop\n        /* \"#utility.yul\":828:869   */\n      tag_55\n        /* \"#utility.yul\":863:868   */\n      dup2\n        /* \"#utility.yul\":828:869   */\n      tag_36\n      jump\t// in\n    tag_55:\n        /* \"#utility.yul\":720:875   */\n      swap3\n      swap2\n      pop\n      pop\n      jump\t// out\n        /* \"#utility.yul\":881:958   */\n    tag_38:\n        /* \"#utility.yul\":918:925   */\n      0x00\n        /* \"#utility.yul\":947:952   */\n      dup2\n        /* \"#utility.yul\":936:952   */\n      swap1\n      pop\n        /* \"#utility.yul\":881:958   */\n      swap2\n      swap1\n      pop\n      jump\t// out\n        /* \"#utility.yul\":964:1086   */\n    tag_39:\n        /* \"#utility.yul\":1037:1061   */\n      tag_58\n        /* \"#utility.yul\":1055:1060   */\n      dup2\n        /* \"#utility.yul\":1037:1061   */\n      tag_38\n      jump\t// in\n    tag_58:\n        /* \"#utility.yul\":1030:1035   */\n      dup2\n        /* \"#utility.yul\":1027:1062   */\n      eq\n        /* \"#utility.yul\":1017:1080   */\n      tag_59\n      jumpi\n        /* \"#utility.yul\":1076:1077   */\n      0x00\n        /* \"#utility.yul\":1073:1074   */\n      dup1\n        /* \"#utility.yul\":1066:1078   */\n      revert\n        /* \"#utility.yul\":1017:1080   */\n    tag_59:\n        /* \"#utility.yul\":964:1086   */\n      pop\n      jump\t// out\n        /* \"#utility.yul\":1092:1231   */\n    tag_40:\n        /* \"#utility.yul\":1138:1143   */\n      0x00\n        /* \"#utility.yul\":1176:1182   */\n      dup2\n        /* \"#utility.yul\":1163:1183   */\n      calldataload\n        /* \"#utility.yul\":1154:1183   */\n      swap1\n      pop\n        /* \"#utility.yul\":1192:1225   */\n      tag_61\n        /* \"#utility.yul\":1219:1224   */\n      dup2\n        /* \"#utility.yul\":1192:1225   */\n      tag_39\n      jump\t// in\n    tag_61:\n        /* \"#utility.yul\":1092:1231   */\n      swap3\n      swap2\n      pop\n      pop\n      jump\t// out\n        /* \"#utility.yul\":1237:1727   */\n    tag_10:\n        /* \"#utility.yul\":1313:1319   */\n      0x00\n        /* \"#utility.yul\":1321:1327   */\n      dup1\n        /* \"#utility.yul\":1370:1372   */\n      0x40\n        /* \"#utility.yul\":1358:1367   */\n      dup4\n        /* \"#utility.yul\":1349:1356   */\n      dup6\n        /* \"#utility.yul\":1345:1368   */\n      sub\n        /* \"#utility.yul\":1341:1373   */\n      slt\n        /* \"#utility.yul\":1338:1457   */\n      iszero\n      tag_63\n      jumpi\n        /* \"#utility.yul\":1376:1455   */\n      tag_64\n      tag_32\n      jump\t// in\n    tag_64:\n        /* \"#utility.yul\":1338:1457   */\n    tag_63:\n        /* \"#utility.yul\":1496:1497   */\n      0x00\n        /* \"#utility.yul\":1521:1582   */\n      tag_65\n        /* \"#utility.yul\":1574:1581   */\n      dup6\n        /* \"#utility.yul\":1565:1571   */\n      dup3\n        /* \"#utility.yul\":1554:1563   */\n      dup7\n        /* \"#utility.yul\":1550:1572   */\n      add\n        /* \"#utility.yul\":1521:1582   */\n      tag_37\n      jump\t// in\n    tag_65:\n        /* \"#utility.yul\":1511:1582   */\n      swap3\n      pop\n        /* \"#utility.yul\":1467:1592   */\n      pop\n        /* \"#utility.yul\":1631:1633   */\n      0x20\n        /* \"#utility.yul\":1657:1710   */\n      tag_66\n        /* \"#utility.yul\":1702:1709   */\n      dup6\n        /* \"#utility.yul\":1693:1699   */\n      dup3\n        /* \"#utility.yul\":1682:1691   */\n      dup7\n        /* \"#utility.yul\":1678:1700   */\n      add\n        /* \"#utility.yul\":1657:1710   */\n      tag_40\n      jump\t// in\n    tag_66:\n        /* \"#utility.yul\":1647:1710   */\n      swap2\n      pop\n        /* \"#utility.yul\":1602:1720   */\n      pop\n        /* \"#utility.yul\":1237:1727   */\n      swap3\n      pop\n      swap3\n      swap1\n      pop\n      jump\t// out\n        /* \"#utility.yul\":1733:1880   */\n    tag_41:\n        /* \"#utility.yul\":1834:1845   */\n      0x00\n        /* \"#utility.yul\":1871:1874   */\n      dup2\n        /* \"#utility.yul\":1856:1874   */\n      swap1\n      pop\n        /* \"#utility.yul\":1733:1880   */\n      swap3\n      swap2\n      pop\n      pop\n      jump\t// out\n        /* \"#utility.yul\":1886:2000   */\n    tag_42:\n      pop\n      jump\t// out\n        /* \"#utility.yul\":2006:2404   */\n    tag_43:\n        /* \"#utility.yul\":2165:2168   */\n      0x00\n        /* \"#utility.yul\":2186:2269   */\n      tag_70\n        /* \"#utility.yul\":2267:2268   */\n      0x00\n        /* \"#utility.yul\":2262:2265   */\n      dup4\n        /* \"#utility.yul\":2186:2269   */\n      tag_41\n      jump\t// in\n    tag_70:\n        /* \"#utility.yul\":2179:2269   */\n      swap2\n      pop\n        /* \"#utility.yul\":2278:2371   */\n      tag_71\n        /* \"#utility.yul\":2367:2370   */\n      dup3\n        /* \"#utility.yul\":2278:2371   */\n      tag_42\n      jump\t// in\n    tag_71:\n        /* \"#utility.yul\":2396:2397   */\n      0x00\n        /* \"#utility.yul\":2391:2394   */\n      dup3\n        /* \"#utility.yul\":2387:2398   */\n      add\n        /* \"#utility.yul\":2380:2398   */\n      swap1\n      pop\n        /* \"#utility.yul\":2006:2404   */\n      swap2\n      swap1\n      pop\n      jump\t// out\n        /* \"#utility.yul\":2410:2789   */\n    tag_26:\n        /* \"#utility.yul\":2594:2597   */\n      0x00\n        /* \"#utility.yul\":2616:2763   */\n      tag_73\n        /* \"#utility.yul\":2759:2762   */\n      dup3\n        /* \"#utility.yul\":2616:2763   */\n      tag_43\n      jump\t// in\n    tag_73:\n        /* \"#utility.yul\":2609:2763   */\n      swap2\n      pop\n        /* \"#utility.yul\":2780:2783   */\n      dup2\n        /* \"#utility.yul\":2773:2783   */\n      swap1\n      pop\n        /* \"#utility.yul\":2410:2789   */\n      swap2\n      swap1\n      pop\n      jump\t// out\n\n    auxdata: 0xa2646970667358221220d16b23e6ac2f912368961cd3b60873d7074a894ee674e1e2c66adfeeeda2348964736f6c63430008190033\n}\n",
				"bytecode": {
					"linkReferences": {},
					"object": "60806040526102cd806100115f395ff3fe608060405260043610610037575f3560e01c806364a197f3146100425780637b1a49091461005e5780638419cf501461007a5761003e565b3661003e57005b5f80fd5b61005c60048036038101906100579190610218565b610096565b005b61007860048036038101906100739190610218565b6100d2565b005b610094600480360381019061008f9190610218565b61011a565b005b5f8273ffffffffffffffffffffffffffffffffffffffff166108fc8390811502906040515f60405180830381858888f193505050509050505050565b8173ffffffffffffffffffffffffffffffffffffffff166108fc8290811502906040515f60405180830381858888f19350505050158015610115573d5f803e3d5ffd5b505050565b5f8273ffffffffffffffffffffffffffffffffffffffff168260405161013f90610283565b5f6040518083038185875af1925050503d805f8114610179576040519150601f19603f3d011682016040523d82523d5f602084013e61017e565b606091505b50509050505050565b5f80fd5b5f73ffffffffffffffffffffffffffffffffffffffff82169050919050565b5f6101b48261018b565b9050919050565b6101c4816101aa565b81146101ce575f80fd5b50565b5f813590506101df816101bb565b92915050565b5f819050919050565b6101f7816101e5565b8114610201575f80fd5b50565b5f81359050610212816101ee565b92915050565b5f806040838503121561022e5761022d610187565b5b5f61023b858286016101d1565b925050602061024c85828601610204565b9150509250929050565b5f81905092915050565b50565b5f61026e5f83610256565b915061027982610260565b5f82019050919050565b5f61028d82610263565b915081905091905056fea2646970667358221220d16b23e6ac2f912368961cd3b60873d7074a894ee674e1e2c66adfeeeda2348964736f6c63430008190033",
					"opcodes": "PUSH1 0x80 PUSH1 0x40 MSTORE PUSH2 0x2CD DUP1 PUSH2 0x11 PUSH0 CODECOPY PUSH0 RETURN INVALID PUSH1 0x80 PUSH1 0x40 MSTORE PUSH1 0x4 CALLDATASIZE LT PUSH2 0x37 JUMPI PUSH0 CALLDATALOAD PUSH1 0xE0 SHR DUP1 PUSH4 0x64A197F3 EQ PUSH2 0x42 JUMPI DUP1 PUSH4 0x7B1A4909 EQ PUSH2 0x5E JUMPI DUP1 PUSH4 0x8419CF50 EQ PUSH2 0x7A JUMPI PUSH2 0x3E JUMP JUMPDEST CALLDATASIZE PUSH2 0x3E JUMPI STOP JUMPDEST PUSH0 DUP1 REVERT JUMPDEST PUSH2 0x5C PUSH1 0x4 DUP1 CALLDATASIZE SUB DUP2 ADD SWAP1 PUSH2 0x57 SWAP2 SWAP1 PUSH2 0x218 JUMP JUMPDEST PUSH2 0x96 JUMP JUMPDEST STOP JUMPDEST PUSH2 0x78 PUSH1 0x4 DUP1 CALLDATASIZE SUB DUP2 ADD SWAP1 PUSH2 0x73 SWAP2 SWAP1 PUSH2 0x218 JUMP JUMPDEST PUSH2 0xD2 JUMP JUMPDEST STOP JUMPDEST PUSH2 0x94 PUSH1 0x4 DUP1 CALLDATASIZE SUB DUP2 ADD SWAP1 PUSH2 0x8F SWAP2 SWAP1 PUSH2 0x218 JUMP JUMPDEST PUSH2 0x11A JUMP JUMPDEST STOP JUMPDEST PUSH0 DUP3 PUSH20 0xFFFFFFFFFFFFFFFFFFFFFFFFFFFFFFFFFFFFFFFF AND PUSH2 0x8FC DUP4 SWAP1 DUP2 ISZERO MUL SWAP1 PUSH1 0x40 MLOAD PUSH0 PUSH1 0x40 MLOAD DUP1 DUP4 SUB DUP2 DUP6 DUP9 DUP9 CALL SWAP4 POP POP POP POP SWAP1 POP POP POP POP JUMP JUMPDEST DUP2 PUSH20 0xFFFFFFFFFFFFFFFFFFFFFFFFFFFFFFFFFFFFFFFF AND PUSH2 0x8FC DUP3 SWAP1 DUP2 ISZERO MUL SWAP1 PUSH1 0x40 MLOAD PUSH0 PUSH1 0x40 MLOAD DUP1 DUP4 SUB DUP2 DUP6 DUP9 DUP9 CALL SWAP4 POP POP POP POP ISZERO DUP1 ISZERO PUSH2 0x115 JUMPI RETURNDATASIZE PUSH0 DUP1 RETURNDATACOPY RETURNDATASIZE PUSH0 REVERT JUMPDEST POP POP POP JUMP JUMPDEST PUSH0 DUP3 PUSH20 0xFFFFFFFFFFFFFFFFFFFFFFFFFFFFFFFFFFFFFFFF AND DUP3 PUSH1 0x40 MLOAD PUSH2 0x13F SWAP1 PUSH2 0x283 JUMP JUMPDEST PUSH0 PUSH1 0x40 MLOAD DUP1 DUP4 SUB DUP2 DUP6 DUP8 GAS CALL SWAP3 POP POP POP RETURNDATASIZE DUP1 PUSH0 DUP2 EQ PUSH2 0x179 JUMPI PUSH1 0x40 MLOAD SWAP2 POP PUSH1 0x1F NOT PUSH1 0x3F RETURNDATASIZE ADD AND DUP3 ADD PUSH1 0x40 MSTORE RETURNDATASIZE DUP3 MSTORE RETURNDATASIZE PUSH0 PUSH1 0x20 DUP5 ADD RETURNDATACOPY PUSH2 0x17E JUMP JUMPDEST PUSH1 0x60 SWAP2 POP JUMPDEST POP POP SWAP1 POP POP POP POP JUMP JUMPDEST PUSH0 DUP1 REVERT JUMPDEST PUSH0 PUSH20 0xFFFFFFFFFFFFFFFFFFFFFFFFFFFFFFFFFFFFFFFF DUP3 AND SWAP1 POP SWAP2 SWAP1 POP JUMP JUMPDEST PUSH0 PUSH2 0x1B4 DUP3 PUSH2 0x18B JUMP JUMPDEST SWAP1 POP SWAP2 SWAP1 POP JUMP JUMPDEST PUSH2 0x1C4 DUP2 PUSH2 0x1AA JUMP JUMPDEST DUP2 EQ PUSH2 0x1CE JUMPI PUSH0 DUP1 REVERT JUMPDEST POP JUMP JUMPDEST PUSH0 DUP2 CALLDATALOAD SWAP1 POP PUSH2 0x1DF DUP2 PUSH2 0x1BB JUMP JUMPDEST SWAP3 SWAP2 POP POP JUMP JUMPDEST PUSH0 DUP2 SWAP1 POP SWAP2 SWAP1 POP JUMP JUMPDEST PUSH2 0x1F7 DUP2 PUSH2 0x1E5 JUMP JUMPDEST DUP2 EQ PUSH2 0x201 JUMPI PUSH0 DUP1 REVERT JUMPDEST POP JUMP JUMPDEST PUSH0 DUP2 CALLDATALOAD SWAP1 POP PUSH2 0x212 DUP2 PUSH2 0x1EE JUMP JUMPDEST SWAP3 SWAP2 POP POP JUMP JUMPDEST PUSH0 DUP1 PUSH1 0x40 DUP4 DUP6 SUB SLT ISZERO PUSH2 0x22E JUMPI PUSH2 0x22D PUSH2 0x187 JUMP JUMPDEST JUMPDEST PUSH0 PUSH2 0x23B DUP6 DUP3 DUP7 ADD PUSH2 0x1D1 JUMP JUMPDEST SWAP3 POP POP PUSH1 0x20 PUSH2 0x24C DUP6 DUP3 DUP7 ADD PUSH2 0x204 JUMP JUMPDEST SWAP2 POP POP SWAP3 POP SWAP3 SWAP1 POP JUMP JUMPDEST PUSH0 DUP2 SWAP1 POP SWAP3 SWAP2 POP POP JUMP JUMPDEST POP JUMP JUMPDEST PUSH0 PUSH2 0x26E PUSH0 DUP4 PUSH2 0x256 JUMP JUMPDEST SWAP2 POP PUSH2 0x279 DUP3 PUSH2 0x260 JUMP JUMPDEST PUSH0 DUP3 ADD SWAP1 POP SWAP2 SWAP1 POP JUMP JUMPDEST PUSH0 PUSH2 0x28D DUP3 PUSH2 0x263 JUMP JUMPDEST SWAP2 POP DUP2 SWAP1 POP SWAP2 SWAP1 POP JUMP INVALID LOG2 PUSH5 0x6970667358 0x22 SLT KECCAK256 0xD1 PUSH12 0x23E6AC2F912368961CD3B608 PUSH20 0xD7074A894EE674E1E2C66ADFEEEDA2348964736F PUSH13 0x63430008190033000000000000 "
				},
				"gasEstimates": {
					"creation": {
						"codeDepositCost": "143400",
						"executionCost": "164",
						"totalCost": "143564"
					},
					"external": {
						"callETH(address,uint256)": "infinite",
						"sendETH(address,uint256)": "infinite",
						"transferETH(address,uint256)": "infinite"
					}
				},
				"methodIdentifiers": {
					"callETH(address,uint256)": "8419cf50",
					"sendETH(address,uint256)": "64a197f3",
					"transferETH(address,uint256)": "7b1a4909"
				}
			},
			"storageLayout": {
				"storage": [],
				"types": null
			},
			"userdoc": {
				"kind": "user",
				"methods": {},
				"version": 1
			}
		}
	}
}