{
	"Abi.sol": {
		"Abi": {
			"abi": [
				{
					"inputs": [],
					"name": "decode",
					"outputs": [
						{
							"internalType": "uint256",
							"name": "dx",
							"type": "uint256"
						},
						{
							"internalType": "address",
							"name": "daddr",
							"type": "address"
						},
						{
							"internalType": "string",
							"name": "dstring",
							"type": "string"
						},
						{
							"internalType": "uint256[2]",
							"name": "duintArray",
							"type": "uint256[2]"
						}
					],
					"stateMutability": "view",
					"type": "function"
				},
				{
					"inputs": [],
					"name": "encode",
					"outputs": [
						{
							"internalType": "bytes",
							"name": "result",
							"type": "bytes"
						}
					],
					"stateMutability": "nonpayable",
					"type": "function"
				},
				{
					"inputs": [],
					"name": "encodeData",
					"outputs": [
						{
							"internalType": "bytes",
							"name": "",
							"type": "bytes"
						}
					],
					"stateMutability": "view",
					"type": "function"
				},
				{
					"inputs": [],
					"name": "encodePacked",
					"outputs": [
						{
							"internalType": "bytes",
							"name": "result",
							"type": "bytes"
						}
					],
					"stateMutability": "view",
					"type": "function"
				},
				{
					"inputs": [],
					"name": "encodeWithSelector",
					"outputs": [
						{
							"internalType": "bytes",
							"name": "result",
							"type": "bytes"
						}
					],
					"stateMutability": "view",
					"type": "function"
				},
				{
					"inputs": [],
					"name": "encodeWithSignature",
					"outputs": [
						{
							"internalType": "bytes",
							"name": "result",
							"type": "bytes"
						}
					],
					"stateMutability": "view",
					"type": "function"
				}
			],
			"devdoc": {
				"kind": "dev",
				"methods": {},
				"version": 1
			},
			"evm": {
				"assembly": "    /* \"Abi.sol\":57:1589  contract Abi {... */\n  mstore(0x40, 0x80)\n    /* \"Abi.sol\":85:87  10 */\n  0x0a\n    /* \"Abi.sol\":76:87  uint x = 10 */\n  0x00\n  sstore\n    /* \"Abi.sol\":108:150  0x7A58c0Be72BE218B41C608b7Fe7C5bB630736C71 */\n  0x7a58c0be72be218b41c608b7fe7c5bb630736c71\n    /* \"Abi.sol\":93:150  address addr = 0x7A58c0Be72BE218B41C608b7Fe7C5bB630736C71 */\n  0x01\n  exp(0x0100, 0x00)\n  dup2\n  sload\n  dup2\n  0xffffffffffffffffffffffffffffffffffffffff\n  mul\n  not\n  and\n  swap1\n  dup4\n  0xffffffffffffffffffffffffffffffffffffffff\n  and\n  mul\n  or\n  swap1\n  sstore\n  pop\n    /* \"Abi.sol\":156:176  string name = \"0xAA\" */\n  mload(0x40)\n  dup1\n  0x40\n  add\n  0x40\n  mstore\n  dup1\n  0x04\n  dup2\n  mstore\n  0x20\n  add\n  0x3078414100000000000000000000000000000000000000000000000000000000\n  dup2\n  mstore\n  pop\n  0x02\n  swap1\n  dup2\n  tag_1\n  swap2\n  swap1\n  tag_2\n  jump\t// in\ntag_1:\n  pop\n    /* \"Abi.sol\":182:204  uint[2] array = [5, 6] */\n  mload(0x40)\n  dup1\n  0x40\n  add\n  0x40\n  mstore\n  dup1\n    /* \"Abi.sol\":199:200  5 */\n  0x05\n    /* \"Abi.sol\":182:204  uint[2] array = [5, 6] */\n  0xff\n  and\n  dup2\n  mstore\n  0x20\n  add\n    /* \"Abi.sol\":202:203  6 */\n  0x06\n    /* \"Abi.sol\":182:204  uint[2] array = [5, 6] */\n  0xff\n  and\n  dup2\n  mstore\n  pop\n  0x03\n  swap1\n  0x02\n  tag_3\n  swap3\n  swap2\n  swap1\n  tag_4\n  jump\t// in\ntag_3:\n  pop\n    /* \"Abi.sol\":57:1589  contract Abi {... */\n  callvalue\n  dup1\n  iszero\n  tag_5\n  jumpi\n  0x00\n  dup1\n  revert\ntag_5:\n  pop\n  jump(tag_6)\ntag_4:\n  dup3\n  0x02\n  dup2\n  add\n  swap3\n  dup3\n  iszero\n  tag_7\n  jumpi\n  swap2\n  0x20\n  mul\n  dup3\n  add\ntag_8:\n  dup3\n  dup2\n  gt\n  iszero\n  tag_9\n  jumpi\n  dup3\n  mload\n  dup3\n  swap1\n  0xff\n  and\n  swap1\n  sstore\n  swap2\n  0x20\n  add\n  swap2\n  swap1\n  0x01\n  add\n  swap1\n  jump(tag_8)\ntag_9:\ntag_7:\n  pop\n  swap1\n  pop\n  tag_10\n  swap2\n  swap1\n  tag_11\n  jump\t// in\ntag_10:\n  pop\n  swap1\n  jump\t// out\ntag_11:\ntag_12:\n  dup1\n  dup3\n  gt\n  iszero\n  tag_13\n  jumpi\n  0x00\n  dup2\n  0x00\n  swap1\n  sstore\n  pop\n  0x01\n  add\n  jump(tag_12)\ntag_13:\n  pop\n  swap1\n  jump\t// out\n    /* \"#utility.yul\":7:106   */\ntag_14:\n    /* \"#utility.yul\":59:65   */\n  0x00\n    /* \"#utility.yul\":93:98   */\n  dup2\n    /* \"#utility.yul\":87:99   */\n  mload\n    /* \"#utility.yul\":77:99   */\n  swap1\n  pop\n    /* \"#utility.yul\":7:106   */\n  swap2\n  swap1\n  pop\n  jump\t// out\n    /* \"#utility.yul\":112:292   */\ntag_15:\n    /* \"#utility.yul\":160:237   */\n  0x4e487b7100000000000000000000000000000000000000000000000000000000\n    /* \"#utility.yul\":157:158   */\n  0x00\n    /* \"#utility.yul\":150:238   */\n  mstore\n    /* \"#utility.yul\":257:261   */\n  0x41\n    /* \"#utility.yul\":254:255   */\n  0x04\n    /* \"#utility.yul\":247:262   */\n  mstore\n    /* \"#utility.yul\":281:285   */\n  0x24\n    /* \"#utility.yul\":278:279   */\n  0x00\n    /* \"#utility.yul\":271:286   */\n  revert\n    /* \"#utility.yul\":298:478   */\ntag_16:\n    /* \"#utility.yul\":346:423   */\n  0x4e487b7100000000000000000000000000000000000000000000000000000000\n    /* \"#utility.yul\":343:344   */\n  0x00\n    /* \"#utility.yul\":336:424   */\n  mstore\n    /* \"#utility.yul\":443:447   */\n  0x22\n    /* \"#utility.yul\":440:441   */\n  0x04\n    /* \"#utility.yul\":433:448   */\n  mstore\n    /* \"#utility.yul\":467:471   */\n  0x24\n    /* \"#utility.yul\":464:465   */\n  0x00\n    /* \"#utility.yul\":457:472   */\n  revert\n    /* \"#utility.yul\":484:804   */\ntag_17:\n    /* \"#utility.yul\":528:534   */\n  0x00\n    /* \"#utility.yul\":565:566   */\n  0x02\n    /* \"#utility.yul\":559:563   */\n  dup3\n    /* \"#utility.yul\":555:567   */\n  div\n    /* \"#utility.yul\":545:567   */\n  swap1\n  pop\n    /* \"#utility.yul\":612:613   */\n  0x01\n    /* \"#utility.yul\":606:610   */\n  dup3\n    /* \"#utility.yul\":602:614   */\n  and\n    /* \"#utility.yul\":633:651   */\n  dup1\n    /* \"#utility.yul\":623:704   */\n  tag_39\n  jumpi\n    /* \"#utility.yul\":689:693   */\n  0x7f\n    /* \"#utility.yul\":681:687   */\n  dup3\n    /* \"#utility.yul\":677:694   */\n  and\n    /* \"#utility.yul\":667:694   */\n  swap2\n  pop\n    /* \"#utility.yul\":623:704   */\ntag_39:\n    /* \"#utility.yul\":751:753   */\n  0x20\n    /* \"#utility.yul\":743:749   */\n  dup3\n    /* \"#utility.yul\":740:754   */\n  lt\n    /* \"#utility.yul\":720:738   */\n  dup2\n    /* \"#utility.yul\":717:755   */\n  sub\n    /* \"#utility.yul\":714:798   */\n  tag_40\n  jumpi\n    /* \"#utility.yul\":770:788   */\n  tag_41\n  tag_16\n  jump\t// in\ntag_41:\n    /* \"#utility.yul\":714:798   */\ntag_40:\n    /* \"#utility.yul\":535:804   */\n  pop\n    /* \"#utility.yul\":484:804   */\n  swap2\n  swap1\n  pop\n  jump\t// out\n    /* \"#utility.yul\":810:951   */\ntag_18:\n    /* \"#utility.yul\":859:863   */\n  0x00\n    /* \"#utility.yul\":882:885   */\n  dup2\n    /* \"#utility.yul\":874:885   */\n  swap1\n  pop\n    /* \"#utility.yul\":905:908   */\n  dup2\n    /* \"#utility.yul\":902:903   */\n  0x00\n    /* \"#utility.yul\":895:909   */\n  mstore\n    /* \"#utility.yul\":939:943   */\n  0x20\n    /* \"#utility.yul\":936:937   */\n  0x00\n    /* \"#utility.yul\":926:944   */\n  keccak256\n    /* \"#utility.yul\":918:944   */\n  swap1\n  pop\n    /* \"#utility.yul\":810:951   */\n  swap2\n  swap1\n  pop\n  jump\t// out\n    /* \"#utility.yul\":957:1050   */\ntag_19:\n    /* \"#utility.yul\":994:1000   */\n  0x00\n    /* \"#utility.yul\":1041:1043   */\n  0x20\n    /* \"#utility.yul\":1036:1038   */\n  0x1f\n    /* \"#utility.yul\":1029:1034   */\n  dup4\n    /* \"#utility.yul\":1025:1039   */\n  add\n    /* \"#utility.yul\":1021:1044   */\n  div\n    /* \"#utility.yul\":1011:1044   */\n  swap1\n  pop\n    /* \"#utility.yul\":957:1050   */\n  swap2\n  swap1\n  pop\n  jump\t// out\n    /* \"#utility.yul\":1056:1163   */\ntag_20:\n    /* \"#utility.yul\":1100:1108   */\n  0x00\n    /* \"#utility.yul\":1150:1155   */\n  dup3\n    /* \"#utility.yul\":1144:1148   */\n  dup3\n    /* \"#utility.yul\":1140:1156   */\n  shl\n    /* \"#utility.yul\":1119:1156   */\n  swap1\n  pop\n    /* \"#utility.yul\":1056:1163   */\n  swap3\n  swap2\n  pop\n  pop\n  jump\t// out\n    /* \"#utility.yul\":1169:1562   */\ntag_21:\n    /* \"#utility.yul\":1238:1244   */\n  0x00\n    /* \"#utility.yul\":1288:1289   */\n  0x08\n    /* \"#utility.yul\":1276:1286   */\n  dup4\n    /* \"#utility.yul\":1272:1290   */\n  mul\n    /* \"#utility.yul\":1311:1408   */\n  tag_46\n    /* \"#utility.yul\":1341:1407   */\n  0xffffffffffffffffffffffffffffffffffffffffffffffffffffffffffffffff\n    /* \"#utility.yul\":1330:1339   */\n  dup3\n    /* \"#utility.yul\":1311:1408   */\n  tag_20\n  jump\t// in\ntag_46:\n    /* \"#utility.yul\":1429:1468   */\n  tag_47\n    /* \"#utility.yul\":1459:1467   */\n  dup7\n    /* \"#utility.yul\":1448:1457   */\n  dup4\n    /* \"#utility.yul\":1429:1468   */\n  tag_20\n  jump\t// in\ntag_47:\n    /* \"#utility.yul\":1417:1468   */\n  swap6\n  pop\n    /* \"#utility.yul\":1501:1505   */\n  dup1\n    /* \"#utility.yul\":1497:1506   */\n  not\n    /* \"#utility.yul\":1490:1495   */\n  dup5\n    /* \"#utility.yul\":1486:1507   */\n  and\n    /* \"#utility.yul\":1477:1507   */\n  swap4\n  pop\n    /* \"#utility.yul\":1550:1554   */\n  dup1\n    /* \"#utility.yul\":1540:1548   */\n  dup7\n    /* \"#utility.yul\":1536:1555   */\n  and\n    /* \"#utility.yul\":1529:1534   */\n  dup5\n    /* \"#utility.yul\":1526:1556   */\n  or\n    /* \"#utility.yul\":1516:1556   */\n  swap3\n  pop\n    /* \"#utility.yul\":1245:1562   */\n  pop\n  pop\n    /* \"#utility.yul\":1169:1562   */\n  swap4\n  swap3\n  pop\n  pop\n  pop\n  jump\t// out\n    /* \"#utility.yul\":1568:1645   */\ntag_22:\n    /* \"#utility.yul\":1605:1612   */\n  0x00\n    /* \"#utility.yul\":1634:1639   */\n  dup2\n    /* \"#utility.yul\":1623:1639   */\n  swap1\n  pop\n    /* \"#utility.yul\":1568:1645   */\n  swap2\n  swap1\n  pop\n  jump\t// out\n    /* \"#utility.yul\":1651:1711   */\ntag_23:\n    /* \"#utility.yul\":1679:1682   */\n  0x00\n    /* \"#utility.yul\":1700:1705   */\n  dup2\n    /* \"#utility.yul\":1693:1705   */\n  swap1\n  pop\n    /* \"#utility.yul\":1651:1711   */\n  swap2\n  swap1\n  pop\n  jump\t// out\n    /* \"#utility.yul\":1717:1859   */\ntag_24:\n    /* \"#utility.yul\":1767:1776   */\n  0x00\n    /* \"#utility.yul\":1800:1853   */\n  tag_51\n    /* \"#utility.yul\":1818:1852   */\n  tag_52\n    /* \"#utility.yul\":1827:1851   */\n  tag_53\n    /* \"#utility.yul\":1845:1850   */\n  dup5\n    /* \"#utility.yul\":1827:1851   */\n  tag_22\n  jump\t// in\ntag_53:\n    /* \"#utility.yul\":1818:1852   */\n  tag_23\n  jump\t// in\ntag_52:\n    /* \"#utility.yul\":1800:1853   */\n  tag_22\n  jump\t// in\ntag_51:\n    /* \"#utility.yul\":1787:1853   */\n  swap1\n  pop\n    /* \"#utility.yul\":1717:1859   */\n  swap2\n  swap1\n  pop\n  jump\t// out\n    /* \"#utility.yul\":1865:1940   */\ntag_25:\n    /* \"#utility.yul\":1908:1911   */\n  0x00\n    /* \"#utility.yul\":1929:1934   */\n  dup2\n    /* \"#utility.yul\":1922:1934   */\n  swap1\n  pop\n    /* \"#utility.yul\":1865:1940   */\n  swap2\n  swap1\n  pop\n  jump\t// out\n    /* \"#utility.yul\":1946:2215   */\ntag_26:\n    /* \"#utility.yul\":2056:2095   */\n  tag_56\n    /* \"#utility.yul\":2087:2094   */\n  dup4\n    /* \"#utility.yul\":2056:2095   */\n  tag_24\n  jump\t// in\ntag_56:\n    /* \"#utility.yul\":2117:2208   */\n  tag_57\n    /* \"#utility.yul\":2166:2207   */\n  tag_58\n    /* \"#utility.yul\":2190:2206   */\n  dup3\n    /* \"#utility.yul\":2166:2207   */\n  tag_25\n  jump\t// in\ntag_58:\n    /* \"#utility.yul\":2158:2164   */\n  dup5\n    /* \"#utility.yul\":2151:2155   */\n  dup5\n    /* \"#utility.yul\":2145:2156   */\n  sload\n    /* \"#utility.yul\":2117:2208   */\n  tag_21\n  jump\t// in\ntag_57:\n    /* \"#utility.yul\":2111:2115   */\n  dup3\n    /* \"#utility.yul\":2104:2209   */\n  sstore\n    /* \"#utility.yul\":2022:2215   */\n  pop\n    /* \"#utility.yul\":1946:2215   */\n  pop\n  pop\n  pop\n  jump\t// out\n    /* \"#utility.yul\":2221:2294   */\ntag_27:\n    /* \"#utility.yul\":2266:2269   */\n  0x00\n    /* \"#utility.yul\":2221:2294   */\n  swap1\n  jump\t// out\n    /* \"#utility.yul\":2300:2489   */\ntag_28:\n    /* \"#utility.yul\":2377:2409   */\n  tag_61\n  tag_27\n  jump\t// in\ntag_61:\n    /* \"#utility.yul\":2418:2483   */\n  tag_62\n    /* \"#utility.yul\":2476:2482   */\n  dup2\n    /* \"#utility.yul\":2468:2474   */\n  dup5\n    /* \"#utility.yul\":2462:2466   */\n  dup5\n    /* \"#utility.yul\":2418:2483   */\n  tag_26\n  jump\t// in\ntag_62:\n    /* \"#utility.yul\":2353:2489   */\n  pop\n    /* \"#utility.yul\":2300:2489   */\n  pop\n  pop\n  jump\t// out\n    /* \"#utility.yul\":2495:2681   */\ntag_29:\n    /* \"#utility.yul\":2555:2675   */\ntag_64:\n    /* \"#utility.yul\":2572:2575   */\n  dup2\n    /* \"#utility.yul\":2565:2570   */\n  dup2\n    /* \"#utility.yul\":2562:2576   */\n  lt\n    /* \"#utility.yul\":2555:2675   */\n  iszero\n  tag_66\n  jumpi\n    /* \"#utility.yul\":2626:2665   */\n  tag_67\n    /* \"#utility.yul\":2663:2664   */\n  0x00\n    /* \"#utility.yul\":2656:2661   */\n  dup3\n    /* \"#utility.yul\":2626:2665   */\n  tag_28\n  jump\t// in\ntag_67:\n    /* \"#utility.yul\":2599:2600   */\n  0x01\n    /* \"#utility.yul\":2592:2597   */\n  dup2\n    /* \"#utility.yul\":2588:2601   */\n  add\n    /* \"#utility.yul\":2579:2601   */\n  swap1\n  pop\n    /* \"#utility.yul\":2555:2675   */\n  jump(tag_64)\ntag_66:\n    /* \"#utility.yul\":2495:2681   */\n  pop\n  pop\n  jump\t// out\n    /* \"#utility.yul\":2687:3230   */\ntag_30:\n    /* \"#utility.yul\":2788:2790   */\n  0x1f\n    /* \"#utility.yul\":2783:2786   */\n  dup3\n    /* \"#utility.yul\":2780:2791   */\n  gt\n    /* \"#utility.yul\":2777:3223   */\n  iszero\n  tag_69\n  jumpi\n    /* \"#utility.yul\":2822:2860   */\n  tag_70\n    /* \"#utility.yul\":2854:2859   */\n  dup2\n    /* \"#utility.yul\":2822:2860   */\n  tag_18\n  jump\t// in\ntag_70:\n    /* \"#utility.yul\":2906:2935   */\n  tag_71\n    /* \"#utility.yul\":2924:2934   */\n  dup5\n    /* \"#utility.yul\":2906:2935   */\n  tag_19\n  jump\t// in\ntag_71:\n    /* \"#utility.yul\":2896:2904   */\n  dup2\n    /* \"#utility.yul\":2892:2936   */\n  add\n    /* \"#utility.yul\":3089:3091   */\n  0x20\n    /* \"#utility.yul\":3077:3087   */\n  dup6\n    /* \"#utility.yul\":3074:3092   */\n  lt\n    /* \"#utility.yul\":3071:3120   */\n  iszero\n  tag_72\n  jumpi\n    /* \"#utility.yul\":3110:3118   */\n  dup2\n    /* \"#utility.yul\":3095:3118   */\n  swap1\n  pop\n    /* \"#utility.yul\":3071:3120   */\ntag_72:\n    /* \"#utility.yul\":3133:3213   */\n  tag_73\n    /* \"#utility.yul\":3189:3211   */\n  tag_74\n    /* \"#utility.yul\":3207:3210   */\n  dup6\n    /* \"#utility.yul\":3189:3211   */\n  tag_19\n  jump\t// in\ntag_74:\n    /* \"#utility.yul\":3179:3187   */\n  dup4\n    /* \"#utility.yul\":3175:3212   */\n  add\n    /* \"#utility.yul\":3162:3173   */\n  dup3\n    /* \"#utility.yul\":3133:3213   */\n  tag_29\n  jump\t// in\ntag_73:\n    /* \"#utility.yul\":2792:3223   */\n  pop\n  pop\n    /* \"#utility.yul\":2777:3223   */\ntag_69:\n    /* \"#utility.yul\":2687:3230   */\n  pop\n  pop\n  pop\n  jump\t// out\n    /* \"#utility.yul\":3236:3353   */\ntag_31:\n    /* \"#utility.yul\":3290:3298   */\n  0x00\n    /* \"#utility.yul\":3340:3345   */\n  dup3\n    /* \"#utility.yul\":3334:3338   */\n  dup3\n    /* \"#utility.yul\":3330:3346   */\n  shr\n    /* \"#utility.yul\":3309:3346   */\n  swap1\n  pop\n    /* \"#utility.yul\":3236:3353   */\n  swap3\n  swap2\n  pop\n  pop\n  jump\t// out\n    /* \"#utility.yul\":3359:3528   */\ntag_32:\n    /* \"#utility.yul\":3403:3409   */\n  0x00\n    /* \"#utility.yul\":3436:3487   */\n  tag_77\n    /* \"#utility.yul\":3484:3485   */\n  0x00\n    /* \"#utility.yul\":3480:3486   */\n  not\n    /* \"#utility.yul\":3472:3477   */\n  dup5\n    /* \"#utility.yul\":3469:3470   */\n  0x08\n    /* \"#utility.yul\":3465:3478   */\n  mul\n    /* \"#utility.yul\":3436:3487   */\n  tag_31\n  jump\t// in\ntag_77:\n    /* \"#utility.yul\":3432:3488   */\n  not\n    /* \"#utility.yul\":3517:3521   */\n  dup1\n    /* \"#utility.yul\":3511:3515   */\n  dup4\n    /* \"#utility.yul\":3507:3522   */\n  and\n    /* \"#utility.yul\":3497:3522   */\n  swap2\n  pop\n    /* \"#utility.yul\":3410:3528   */\n  pop\n    /* \"#utility.yul\":3359:3528   */\n  swap3\n  swap2\n  pop\n  pop\n  jump\t// out\n    /* \"#utility.yul\":3533:3828   */\ntag_33:\n    /* \"#utility.yul\":3609:3613   */\n  0x00\n    /* \"#utility.yul\":3755:3784   */\n  tag_79\n    /* \"#utility.yul\":3780:3783   */\n  dup4\n    /* \"#utility.yul\":3774:3778   */\n  dup4\n    /* \"#utility.yul\":3755:3784   */\n  tag_32\n  jump\t// in\ntag_79:\n    /* \"#utility.yul\":3747:3784   */\n  swap2\n  pop\n    /* \"#utility.yul\":3817:3820   */\n  dup3\n    /* \"#utility.yul\":3814:3815   */\n  0x02\n    /* \"#utility.yul\":3810:3821   */\n  mul\n    /* \"#utility.yul\":3804:3808   */\n  dup3\n    /* \"#utility.yul\":3801:3822   */\n  or\n    /* \"#utility.yul\":3793:3822   */\n  swap1\n  pop\n    /* \"#utility.yul\":3533:3828   */\n  swap3\n  swap2\n  pop\n  pop\n  jump\t// out\n    /* \"#utility.yul\":3833:5228   */\ntag_2:\n    /* \"#utility.yul\":3950:3987   */\n  tag_81\n    /* \"#utility.yul\":3983:3986   */\n  dup3\n    /* \"#utility.yul\":3950:3987   */\n  tag_14\n  jump\t// in\ntag_81:\n    /* \"#utility.yul\":4052:4070   */\n  0xffffffffffffffff\n    /* \"#utility.yul\":4044:4050   */\n  dup2\n    /* \"#utility.yul\":4041:4071   */\n  gt\n    /* \"#utility.yul\":4038:4094   */\n  iszero\n  tag_82\n  jumpi\n    /* \"#utility.yul\":4074:4092   */\n  tag_83\n  tag_15\n  jump\t// in\ntag_83:\n    /* \"#utility.yul\":4038:4094   */\ntag_82:\n    /* \"#utility.yul\":4118:4156   */\n  tag_84\n    /* \"#utility.yul\":4150:4154   */\n  dup3\n    /* \"#utility.yul\":4144:4155   */\n  sload\n    /* \"#utility.yul\":4118:4156   */\n  tag_17\n  jump\t// in\ntag_84:\n    /* \"#utility.yul\":4203:4270   */\n  tag_85\n    /* \"#utility.yul\":4263:4269   */\n  dup3\n    /* \"#utility.yul\":4255:4261   */\n  dup3\n    /* \"#utility.yul\":4249:4253   */\n  dup6\n    /* \"#utility.yul\":4203:4270   */\n  tag_30\n  jump\t// in\ntag_85:\n    /* \"#utility.yul\":4297:4298   */\n  0x00\n    /* \"#utility.yul\":4321:4325   */\n  0x20\n    /* \"#utility.yul\":4308:4325   */\n  swap1\n  pop\n    /* \"#utility.yul\":4353:4355   */\n  0x1f\n    /* \"#utility.yul\":4345:4351   */\n  dup4\n    /* \"#utility.yul\":4342:4356   */\n  gt\n    /* \"#utility.yul\":4370:4371   */\n  0x01\n    /* \"#utility.yul\":4365:4983   */\n  dup2\n  eq\n  tag_87\n  jumpi\n    /* \"#utility.yul\":5027:5028   */\n  0x00\n    /* \"#utility.yul\":5044:5050   */\n  dup5\n    /* \"#utility.yul\":5041:5118   */\n  iszero\n  tag_88\n  jumpi\n    /* \"#utility.yul\":5093:5102   */\n  dup3\n    /* \"#utility.yul\":5088:5091   */\n  dup8\n    /* \"#utility.yul\":5084:5103   */\n  add\n    /* \"#utility.yul\":5078:5104   */\n  mload\n    /* \"#utility.yul\":5069:5104   */\n  swap1\n  pop\n    /* \"#utility.yul\":5041:5118   */\ntag_88:\n    /* \"#utility.yul\":5144:5211   */\n  tag_89\n    /* \"#utility.yul\":5204:5210   */\n  dup6\n    /* \"#utility.yul\":5197:5202   */\n  dup3\n    /* \"#utility.yul\":5144:5211   */\n  tag_33\n  jump\t// in\ntag_89:\n    /* \"#utility.yul\":5138:5142   */\n  dup7\n    /* \"#utility.yul\":5131:5212   */\n  sstore\n    /* \"#utility.yul\":5000:5222   */\n  pop\n    /* \"#utility.yul\":4335:5222   */\n  jump(tag_86)\n    /* \"#utility.yul\":4365:4983   */\ntag_87:\n    /* \"#utility.yul\":4417:4421   */\n  0x1f\n    /* \"#utility.yul\":4413:4422   */\n  not\n    /* \"#utility.yul\":4405:4411   */\n  dup5\n    /* \"#utility.yul\":4401:4423   */\n  and\n    /* \"#utility.yul\":4451:4488   */\n  tag_90\n    /* \"#utility.yul\":4483:4487   */\n  dup7\n    /* \"#utility.yul\":4451:4488   */\n  tag_18\n  jump\t// in\ntag_90:\n    /* \"#utility.yul\":4510:4511   */\n  0x00\n    /* \"#utility.yul\":4524:4732   */\ntag_91:\n    /* \"#utility.yul\":4538:4545   */\n  dup3\n    /* \"#utility.yul\":4535:4536   */\n  dup2\n    /* \"#utility.yul\":4532:4546   */\n  lt\n    /* \"#utility.yul\":4524:4732   */\n  iszero\n  tag_93\n  jumpi\n    /* \"#utility.yul\":4617:4626   */\n  dup5\n    /* \"#utility.yul\":4612:4615   */\n  dup10\n    /* \"#utility.yul\":4608:4627   */\n  add\n    /* \"#utility.yul\":4602:4628   */\n  mload\n    /* \"#utility.yul\":4594:4600   */\n  dup3\n    /* \"#utility.yul\":4587:4629   */\n  sstore\n    /* \"#utility.yul\":4668:4669   */\n  0x01\n    /* \"#utility.yul\":4660:4666   */\n  dup3\n    /* \"#utility.yul\":4656:4670   */\n  add\n    /* \"#utility.yul\":4646:4670   */\n  swap2\n  pop\n    /* \"#utility.yul\":4715:4717   */\n  0x20\n    /* \"#utility.yul\":4704:4713   */\n  dup6\n    /* \"#utility.yul\":4700:4718   */\n  add\n    /* \"#utility.yul\":4687:4718   */\n  swap5\n  pop\n    /* \"#utility.yul\":4561:4565   */\n  0x20\n    /* \"#utility.yul\":4558:4559   */\n  dup2\n    /* \"#utility.yul\":4554:4566   */\n  add\n    /* \"#utility.yul\":4549:4566   */\n  swap1\n  pop\n    /* \"#utility.yul\":4524:4732   */\n  jump(tag_91)\ntag_93:\n    /* \"#utility.yul\":4760:4766   */\n  dup7\n    /* \"#utility.yul\":4751:4758   */\n  dup4\n    /* \"#utility.yul\":4748:4767   */\n  lt\n    /* \"#utility.yul\":4745:4924   */\n  iszero\n  tag_94\n  jumpi\n    /* \"#utility.yul\":4818:4827   */\n  dup5\n    /* \"#utility.yul\":4813:4816   */\n  dup10\n    /* \"#utility.yul\":4809:4828   */\n  add\n    /* \"#utility.yul\":4803:4829   */\n  mload\n    /* \"#utility.yul\":4861:4909   */\n  tag_95\n    /* \"#utility.yul\":4903:4907   */\n  0x1f\n    /* \"#utility.yul\":4895:4901   */\n  dup10\n    /* \"#utility.yul\":4891:4908   */\n  and\n    /* \"#utility.yul\":4880:4889   */\n  dup3\n    /* \"#utility.yul\":4861:4909   */\n  tag_32\n  jump\t// in\ntag_95:\n    /* \"#utility.yul\":4853:4859   */\n  dup4\n    /* \"#utility.yul\":4846:4910   */\n  sstore\n    /* \"#utility.yul\":4768:4924   */\n  pop\n    /* \"#utility.yul\":4745:4924   */\ntag_94:\n    /* \"#utility.yul\":4970:4971   */\n  0x01\n    /* \"#utility.yul\":4966:4967   */\n  0x02\n    /* \"#utility.yul\":4958:4964   */\n  dup9\n    /* \"#utility.yul\":4954:4968   */\n  mul\n    /* \"#utility.yul\":4950:4972   */\n  add\n    /* \"#utility.yul\":4944:4948   */\n  dup9\n    /* \"#utility.yul\":4937:4973   */\n  sstore\n    /* \"#utility.yul\":4372:4983   */\n  pop\n  pop\n  pop\n    /* \"#utility.yul\":4335:5222   */\ntag_86:\n  pop\n    /* \"#utility.yul\":3925:5228   */\n  pop\n  pop\n  pop\n    /* \"#utility.yul\":3833:5228   */\n  pop\n  pop\n  jump\t// out\n    /* \"Abi.sol\":57:1589  contract Abi {... */\ntag_6:\n  dataSize(sub_0)\n  dup1\n  dataOffset(sub_0)\n  0x00\n  codecopy\n  0x00\n  return\nstop\n\nsub_0: assembly {\n        /* \"Abi.sol\":57:1589  contract Abi {... */\n      mstore(0x40, 0x80)\n      callvalue\n      dup1\n      iszero\n      tag_1\n      jumpi\n      0x00\n      dup1\n      revert\n    tag_1:\n      pop\n      jumpi(tag_2, lt(calldatasize, 0x04))\n      shr(0xe0, calldataload(0x00))\n      dup1\n      0x53d9c506\n      eq\n      tag_3\n      jumpi\n      dup1\n      0xa5003ad1\n      eq\n      tag_4\n      jumpi\n      dup1\n      0xbd14598f\n      eq\n      tag_5\n      jumpi\n      dup1\n      0xc0f8940c\n      eq\n      tag_6\n      jumpi\n      dup1\n      0xd1bd363d\n      eq\n      tag_7\n      jumpi\n      dup1\n      0xe4f2a84a\n      eq\n      tag_8\n      jumpi\n    tag_2:\n      0x00\n      dup1\n      revert\n        /* \"Abi.sol\":473:655  function encodePacked() public view returns(bytes memory result){... */\n    tag_3:\n      tag_9\n      tag_10\n      jump\t// in\n    tag_9:\n      mload(0x40)\n      tag_11\n      swap2\n      swap1\n      tag_12\n      jump\t// in\n    tag_11:\n      mload(0x40)\n      dup1\n      swap2\n      sub\n      swap1\n      return\n        /* \"Abi.sol\":211:234  bytes public encodeData */\n    tag_4:\n      tag_13\n      tag_14\n      jump\t// in\n    tag_13:\n      mload(0x40)\n      tag_15\n      swap2\n      swap1\n      tag_12\n      jump\t// in\n    tag_15:\n      mload(0x40)\n      dup1\n      swap2\n      sub\n      swap1\n      return\n        /* \"Abi.sol\":245:467  function encode() public returns(bytes memory result){... */\n    tag_5:\n      tag_16\n      tag_17\n      jump\t// in\n    tag_16:\n      mload(0x40)\n      tag_18\n      swap2\n      swap1\n      tag_12\n      jump\t// in\n    tag_18:\n      mload(0x40)\n      dup1\n      swap2\n      sub\n      swap1\n      return\n        /* \"Abi.sol\":1271:1587  function decode() public view returns(uint dx, address daddr, string memory dstring, uint[2] memory duintArray){... */\n    tag_6:\n      tag_19\n      tag_20\n      jump\t// in\n    tag_19:\n      mload(0x40)\n      tag_21\n      swap5\n      swap4\n      swap3\n      swap2\n      swap1\n      tag_22\n      jump\t// in\n    tag_21:\n      mload(0x40)\n      dup1\n      swap2\n      sub\n      swap1\n      return\n        /* \"Abi.sol\":929:1265  function encodeWithSelector() public view returns(bytes memory result){... */\n    tag_7:\n      tag_23\n      tag_24\n      jump\t// in\n    tag_23:\n      mload(0x40)\n      tag_25\n      swap2\n      swap1\n      tag_12\n      jump\t// in\n    tag_25:\n      mload(0x40)\n      dup1\n      swap2\n      sub\n      swap1\n      return\n        /* \"Abi.sol\":661:923  function encodeWithSignature() public view returns(bytes memory result){... */\n    tag_8:\n      tag_26\n      tag_27\n      jump\t// in\n    tag_26:\n      mload(0x40)\n      tag_28\n      swap2\n      swap1\n      tag_12\n      jump\t// in\n    tag_28:\n      mload(0x40)\n      dup1\n      swap2\n      sub\n      swap1\n      return\n        /* \"Abi.sol\":473:655  function encodePacked() public view returns(bytes memory result){... */\n    tag_10:\n        /* \"Abi.sol\":517:536  bytes memory result */\n      0x60\n        /* \"Abi.sol\":627:628  x */\n      sload(0x00)\n        /* \"Abi.sol\":630:634  addr */\n      0x01\n      0x00\n      swap1\n      sload\n      swap1\n      0x0100\n      exp\n      swap1\n      div\n      0xffffffffffffffffffffffffffffffffffffffff\n      and\n        /* \"Abi.sol\":636:640  name */\n      0x02\n        /* \"Abi.sol\":642:647  array */\n      0x03\n        /* \"Abi.sol\":610:648  abi.encodePacked(x, addr, name, array) */\n      add(0x20, mload(0x40))\n      tag_30\n      swap5\n      swap4\n      swap3\n      swap2\n      swap1\n      tag_31\n      jump\t// in\n    tag_30:\n      mload(0x40)\n      0x20\n      dup2\n      dup4\n      sub\n      sub\n      dup2\n      mstore\n      swap1\n      0x40\n      mstore\n        /* \"Abi.sol\":601:648  result = abi.encodePacked(x, addr, name, array) */\n      swap1\n      pop\n        /* \"Abi.sol\":473:655  function encodePacked() public view returns(bytes memory result){... */\n      swap1\n      jump\t// out\n        /* \"Abi.sol\":211:234  bytes public encodeData */\n    tag_14:\n      0x05\n      dup1\n      sload\n      tag_32\n      swap1\n      tag_33\n      jump\t// in\n    tag_32:\n      dup1\n      0x1f\n      add\n      0x20\n      dup1\n      swap2\n      div\n      mul\n      0x20\n      add\n      mload(0x40)\n      swap1\n      dup2\n      add\n      0x40\n      mstore\n      dup1\n      swap3\n      swap2\n      swap1\n      dup2\n      dup2\n      mstore\n      0x20\n      add\n      dup3\n      dup1\n      sload\n      tag_34\n      swap1\n      tag_33\n      jump\t// in\n    tag_34:\n      dup1\n      iszero\n      tag_35\n      jumpi\n      dup1\n      0x1f\n      lt\n      tag_36\n      jumpi\n      0x0100\n      dup1\n      dup4\n      sload\n      div\n      mul\n      dup4\n      mstore\n      swap2\n      0x20\n      add\n      swap2\n      jump(tag_35)\n    tag_36:\n      dup3\n      add\n      swap2\n      swap1\n      0x00\n      mstore\n      keccak256(0x00, 0x20)\n      swap1\n    tag_37:\n      dup2\n      sload\n      dup2\n      mstore\n      swap1\n      0x01\n      add\n      swap1\n      0x20\n      add\n      dup1\n      dup4\n      gt\n      tag_37\n      jumpi\n      dup3\n      swap1\n      sub\n      0x1f\n      and\n      dup3\n      add\n      swap2\n    tag_35:\n      pop\n      pop\n      pop\n      pop\n      pop\n      dup2\n      jump\t// out\n        /* \"Abi.sol\":245:467  function encode() public returns(bytes memory result){... */\n    tag_17:\n        /* \"Abi.sol\":278:297  bytes memory result */\n      0x60\n        /* \"Abi.sol\":386:387  x */\n      sload(0x00)\n        /* \"Abi.sol\":389:393  addr */\n      0x01\n      0x00\n      swap1\n      sload\n      swap1\n      0x0100\n      exp\n      swap1\n      div\n      0xffffffffffffffffffffffffffffffffffffffff\n      and\n        /* \"Abi.sol\":395:399  name */\n      0x02\n        /* \"Abi.sol\":401:406  array */\n      0x03\n        /* \"Abi.sol\":375:407  abi.encode(x, addr, name, array) */\n      add(0x20, mload(0x40))\n      tag_39\n      swap5\n      swap4\n      swap3\n      swap2\n      swap1\n      tag_40\n      jump\t// in\n    tag_39:\n      mload(0x40)\n      0x20\n      dup2\n      dup4\n      sub\n      sub\n      dup2\n      mstore\n      swap1\n      0x40\n      mstore\n        /* \"Abi.sol\":366:407  result = abi.encode(x, addr, name, array) */\n      swap1\n      pop\n        /* \"Abi.sol\":430:436  result */\n      dup1\n        /* \"Abi.sol\":417:427  encodeData */\n      0x05\n        /* \"Abi.sol\":417:436  encodeData = result */\n      swap1\n      dup2\n      tag_41\n      swap2\n      swap1\n      tag_42\n      jump\t// in\n    tag_41:\n      pop\n        /* \"Abi.sol\":245:467  function encode() public returns(bytes memory result){... */\n      swap1\n      jump\t// out\n        /* \"Abi.sol\":1271:1587  function decode() public view returns(uint dx, address daddr, string memory dstring, uint[2] memory duintArray){... */\n    tag_20:\n        /* \"Abi.sol\":1309:1316  uint dx */\n      0x00\n        /* \"Abi.sol\":1318:1331  address daddr */\n      dup1\n        /* \"Abi.sol\":1333:1354  string memory dstring */\n      0x60\n        /* \"Abi.sol\":1356:1381  uint[2] memory duintArray */\n      tag_43\n      tag_44\n      jump\t// in\n    tag_43:\n        /* \"Abi.sol\":1421:1422  0 */\n      0x00\n        /* \"Abi.sol\":1400:1410  encodeData */\n      0x05\n        /* \"Abi.sol\":1400:1417  encodeData.length */\n      dup1\n      sload\n      tag_46\n      swap1\n      tag_33\n      jump\t// in\n    tag_46:\n      swap1\n      pop\n        /* \"Abi.sol\":1400:1422  encodeData.length != 0 */\n      sub\n        /* \"Abi.sol\":1392:1457  require(encodeData.length != 0, unicode\"encodeData 不能为空\") */\n      tag_47\n      jumpi\n      mload(0x40)\n      0x08c379a000000000000000000000000000000000000000000000000000000000\n      dup2\n      mstore\n      0x04\n      add\n      tag_48\n      swap1\n      tag_49\n      jump\t// in\n    tag_48:\n      mload(0x40)\n      dup1\n      swap2\n      sub\n      swap1\n      revert\n    tag_47:\n        /* \"Abi.sol\":1535:1545  encodeData */\n      0x05\n        /* \"Abi.sol\":1524:1580  abi.decode(encodeData, (uint, address, string, uint[2])) */\n      dup1\n      sload\n      tag_50\n      swap1\n      tag_33\n      jump\t// in\n    tag_50:\n      dup1\n      0x1f\n      add\n      0x20\n      dup1\n      swap2\n      div\n      mul\n      0x20\n      add\n      mload(0x40)\n      swap1\n      dup2\n      add\n      0x40\n      mstore\n      dup1\n      swap3\n      swap2\n      swap1\n      dup2\n      dup2\n      mstore\n      0x20\n      add\n      dup3\n      dup1\n      sload\n      tag_51\n      swap1\n      tag_33\n      jump\t// in\n    tag_51:\n      dup1\n      iszero\n      tag_52\n      jumpi\n      dup1\n      0x1f\n      lt\n      tag_53\n      jumpi\n      0x0100\n      dup1\n      dup4\n      sload\n      div\n      mul\n      dup4\n      mstore\n      swap2\n      0x20\n      add\n      swap2\n      jump(tag_52)\n    tag_53:\n      dup3\n      add\n      swap2\n      swap1\n      0x00\n      mstore\n      keccak256(0x00, 0x20)\n      swap1\n    tag_54:\n      dup2\n      sload\n      dup2\n      mstore\n      swap1\n      0x01\n      add\n      swap1\n      0x20\n      add\n      dup1\n      dup4\n      gt\n      tag_54\n      jumpi\n      dup3\n      swap1\n      sub\n      0x1f\n      and\n      dup3\n      add\n      swap2\n    tag_52:\n      pop\n      pop\n      pop\n      pop\n      pop\n      dup1\n      0x20\n      add\n      swap1\n      mload\n      dup2\n      add\n      swap1\n      tag_55\n      swap2\n      swap1\n      tag_56\n      jump\t// in\n    tag_55:\n        /* \"Abi.sol\":1489:1580  (dx, daddr, dstring, duintArray) = abi.decode(encodeData, (uint, address, string, uint[2])) */\n      dup1\n      swap5\n      pop\n      dup2\n      swap6\n      pop\n      dup3\n      swap7\n      pop\n      dup4\n      swap8\n      pop\n      pop\n      pop\n      pop\n      pop\n        /* \"Abi.sol\":1271:1587  function decode() public view returns(uint dx, address daddr, string memory dstring, uint[2] memory duintArray){... */\n      swap1\n      swap2\n      swap3\n      swap4\n      jump\t// out\n        /* \"Abi.sol\":929:1265  function encodeWithSelector() public view returns(bytes memory result){... */\n    tag_24:\n        /* \"Abi.sol\":979:998  bytes memory result */\n      0x60\n        /* \"Abi.sol\":1183:1234  keccak256(\"foo(uint256,address,string,uint256[2])\") */\n      0xe87082f1450a46f8f3150d7bda55bda41a2b08d68abde6797ccc68be30567335\n        /* \"Abi.sol\":1237:1238  x */\n      sload(0x00)\n        /* \"Abi.sol\":1240:1244  addr */\n      0x01\n      0x00\n      swap1\n      sload\n      swap1\n      0x0100\n      exp\n      swap1\n      div\n      0xffffffffffffffffffffffffffffffffffffffff\n      and\n        /* \"Abi.sol\":1246:1250  name */\n      0x02\n        /* \"Abi.sol\":1252:1257  array */\n      0x03\n        /* \"Abi.sol\":1153:1258  abi.encodeWithSelector(bytes4(keccak256(\"foo(uint256,address,string,uint256[2])\")), x, addr, name, array) */\n      add(0x24, mload(0x40))\n      tag_58\n      swap5\n      swap4\n      swap3\n      swap2\n      swap1\n      tag_40\n      jump\t// in\n    tag_58:\n      mload(0x40)\n      0x20\n      dup2\n      dup4\n      sub\n      sub\n      dup2\n      mstore\n      swap1\n      0x40\n      mstore\n      swap1\n      not(0xffffffffffffffffffffffffffffffffffffffffffffffffffffffff)\n      and\n      0x20\n      dup3\n      add\n      dup1\n      mload\n      0xffffffffffffffffffffffffffffffffffffffffffffffffffffffff\n      dup4\n      dup2\n      dup4\n      and\n      or\n      dup4\n      mstore\n      pop\n      pop\n      pop\n      pop\n        /* \"Abi.sol\":1144:1258  result = abi.encodeWithSelector(bytes4(keccak256(\"foo(uint256,address,string,uint256[2])\")), x, addr, name, array) */\n      swap1\n      pop\n        /* \"Abi.sol\":929:1265  function encodeWithSelector() public view returns(bytes memory result){... */\n      swap1\n      jump\t// out\n        /* \"Abi.sol\":661:923  function encodeWithSignature() public view returns(bytes memory result){... */\n    tag_27:\n        /* \"Abi.sol\":712:731  bytes memory result */\n      0x60\n        /* \"Abi.sol\":895:896  x */\n      sload(0x00)\n        /* \"Abi.sol\":898:902  addr */\n      0x01\n      0x00\n      swap1\n      sload\n      swap1\n      0x0100\n      exp\n      swap1\n      div\n      0xffffffffffffffffffffffffffffffffffffffff\n      and\n        /* \"Abi.sol\":904:908  name */\n      0x02\n        /* \"Abi.sol\":910:915  array */\n      0x03\n        /* \"Abi.sol\":829:916  abi.encodeWithSignature(\"foo(uint256,address,string,uint256[2])\", x, addr, name, array) */\n      add(0x24, mload(0x40))\n      tag_60\n      swap5\n      swap4\n      swap3\n      swap2\n      swap1\n      tag_40\n      jump\t// in\n    tag_60:\n      mload(0x40)\n      0x20\n      dup2\n      dup4\n      sub\n      sub\n      dup2\n      mstore\n      swap1\n      0x40\n      mstore\n      and(not(0xffffffffffffffffffffffffffffffffffffffffffffffffffffffff), 0xe87082f100000000000000000000000000000000000000000000000000000000)\n      0x20\n      dup3\n      add\n      dup1\n      mload\n      0xffffffffffffffffffffffffffffffffffffffffffffffffffffffff\n      dup4\n      dup2\n      dup4\n      and\n      or\n      dup4\n      mstore\n      pop\n      pop\n      pop\n      pop\n        /* \"Abi.sol\":820:916  result = abi.encodeWithSignature(\"foo(uint256,address,string,uint256[2])\", x, addr, name, array) */\n      swap1\n      pop\n        /* \"Abi.sol\":661:923  function encodeWithSignature() public view returns(bytes memory result){... */\n      swap1\n      jump\t// out\n    tag_44:\n      mload(0x40)\n      dup1\n      0x40\n      add\n      0x40\n      mstore\n      dup1\n      0x02\n      swap1\n      0x20\n      dup3\n      mul\n      dup1\n      calldatasize\n      dup4\n      calldatacopy\n      dup1\n      dup3\n      add\n      swap2\n      pop\n      pop\n      swap1\n      pop\n      pop\n      swap1\n      jump\t// out\n        /* \"#utility.yul\":7:105   */\n    tag_61:\n        /* \"#utility.yul\":58:64   */\n      0x00\n        /* \"#utility.yul\":92:97   */\n      dup2\n        /* \"#utility.yul\":86:98   */\n      mload\n        /* \"#utility.yul\":76:98   */\n      swap1\n      pop\n        /* \"#utility.yul\":7:105   */\n      swap2\n      swap1\n      pop\n      jump\t// out\n        /* \"#utility.yul\":111:279   */\n    tag_62:\n        /* \"#utility.yul\":194:205   */\n      0x00\n        /* \"#utility.yul\":228:234   */\n      dup3\n        /* \"#utility.yul\":223:226   */\n      dup3\n        /* \"#utility.yul\":216:235   */\n      mstore\n        /* \"#utility.yul\":268:272   */\n      0x20\n        /* \"#utility.yul\":263:266   */\n      dup3\n        /* \"#utility.yul\":259:273   */\n      add\n        /* \"#utility.yul\":244:273   */\n      swap1\n      pop\n        /* \"#utility.yul\":111:279   */\n      swap3\n      swap2\n      pop\n      pop\n      jump\t// out\n        /* \"#utility.yul\":285:424   */\n    tag_63:\n        /* \"#utility.yul\":374:380   */\n      dup3\n        /* \"#utility.yul\":369:372   */\n      dup2\n        /* \"#utility.yul\":364:367   */\n      dup4\n        /* \"#utility.yul\":358:381   */\n      mcopy\n        /* \"#utility.yul\":415:416   */\n      0x00\n        /* \"#utility.yul\":406:412   */\n      dup4\n        /* \"#utility.yul\":401:404   */\n      dup4\n        /* \"#utility.yul\":397:413   */\n      add\n        /* \"#utility.yul\":390:417   */\n      mstore\n        /* \"#utility.yul\":285:424   */\n      pop\n      pop\n      pop\n      jump\t// out\n        /* \"#utility.yul\":430:532   */\n    tag_64:\n        /* \"#utility.yul\":471:477   */\n      0x00\n        /* \"#utility.yul\":522:524   */\n      0x1f\n        /* \"#utility.yul\":518:525   */\n      not\n        /* \"#utility.yul\":513:515   */\n      0x1f\n        /* \"#utility.yul\":506:511   */\n      dup4\n        /* \"#utility.yul\":502:516   */\n      add\n        /* \"#utility.yul\":498:526   */\n      and\n        /* \"#utility.yul\":488:526   */\n      swap1\n      pop\n        /* \"#utility.yul\":430:532   */\n      swap2\n      swap1\n      pop\n      jump\t// out\n        /* \"#utility.yul\":538:911   */\n    tag_65:\n        /* \"#utility.yul\":624:627   */\n      0x00\n        /* \"#utility.yul\":652:690   */\n      tag_147\n        /* \"#utility.yul\":684:689   */\n      dup3\n        /* \"#utility.yul\":652:690   */\n      tag_61\n      jump\t// in\n    tag_147:\n        /* \"#utility.yul\":706:776   */\n      tag_148\n        /* \"#utility.yul\":769:775   */\n      dup2\n        /* \"#utility.yul\":764:767   */\n      dup6\n        /* \"#utility.yul\":706:776   */\n      tag_62\n      jump\t// in\n    tag_148:\n        /* \"#utility.yul\":699:776   */\n      swap4\n      pop\n        /* \"#utility.yul\":785:850   */\n      tag_149\n        /* \"#utility.yul\":843:849   */\n      dup2\n        /* \"#utility.yul\":838:841   */\n      dup6\n        /* \"#utility.yul\":831:835   */\n      0x20\n        /* \"#utility.yul\":824:829   */\n      dup7\n        /* \"#utility.yul\":820:836   */\n      add\n        /* \"#utility.yul\":785:850   */\n      tag_63\n      jump\t// in\n    tag_149:\n        /* \"#utility.yul\":875:904   */\n      tag_150\n        /* \"#utility.yul\":897:903   */\n      dup2\n        /* \"#utility.yul\":875:904   */\n      tag_64\n      jump\t// in\n    tag_150:\n        /* \"#utility.yul\":870:873   */\n      dup5\n        /* \"#utility.yul\":866:905   */\n      add\n        /* \"#utility.yul\":859:905   */\n      swap2\n      pop\n        /* \"#utility.yul\":628:911   */\n      pop\n        /* \"#utility.yul\":538:911   */\n      swap3\n      swap2\n      pop\n      pop\n      jump\t// out\n        /* \"#utility.yul\":917:1226   */\n    tag_12:\n        /* \"#utility.yul\":1028:1032   */\n      0x00\n        /* \"#utility.yul\":1066:1068   */\n      0x20\n        /* \"#utility.yul\":1055:1064   */\n      dup3\n        /* \"#utility.yul\":1051:1069   */\n      add\n        /* \"#utility.yul\":1043:1069   */\n      swap1\n      pop\n        /* \"#utility.yul\":1115:1124   */\n      dup2\n        /* \"#utility.yul\":1109:1113   */\n      dup2\n        /* \"#utility.yul\":1105:1125   */\n      sub\n        /* \"#utility.yul\":1101:1102   */\n      0x00\n        /* \"#utility.yul\":1090:1099   */\n      dup4\n        /* \"#utility.yul\":1086:1103   */\n      add\n        /* \"#utility.yul\":1079:1126   */\n      mstore\n        /* \"#utility.yul\":1143:1219   */\n      tag_152\n        /* \"#utility.yul\":1214:1218   */\n      dup2\n        /* \"#utility.yul\":1205:1211   */\n      dup5\n        /* \"#utility.yul\":1143:1219   */\n      tag_65\n      jump\t// in\n    tag_152:\n        /* \"#utility.yul\":1135:1219   */\n      swap1\n      pop\n        /* \"#utility.yul\":917:1226   */\n      swap3\n      swap2\n      pop\n      pop\n      jump\t// out\n        /* \"#utility.yul\":1232:1309   */\n    tag_66:\n        /* \"#utility.yul\":1269:1276   */\n      0x00\n        /* \"#utility.yul\":1298:1303   */\n      dup2\n        /* \"#utility.yul\":1287:1303   */\n      swap1\n      pop\n        /* \"#utility.yul\":1232:1309   */\n      swap2\n      swap1\n      pop\n      jump\t// out\n        /* \"#utility.yul\":1315:1433   */\n    tag_67:\n        /* \"#utility.yul\":1402:1426   */\n      tag_155\n        /* \"#utility.yul\":1420:1425   */\n      dup2\n        /* \"#utility.yul\":1402:1426   */\n      tag_66\n      jump\t// in\n    tag_155:\n        /* \"#utility.yul\":1397:1400   */\n      dup3\n        /* \"#utility.yul\":1390:1427   */\n      mstore\n        /* \"#utility.yul\":1315:1433   */\n      pop\n      pop\n      jump\t// out\n        /* \"#utility.yul\":1439:1565   */\n    tag_68:\n        /* \"#utility.yul\":1476:1483   */\n      0x00\n        /* \"#utility.yul\":1516:1558   */\n      0xffffffffffffffffffffffffffffffffffffffff\n        /* \"#utility.yul\":1509:1514   */\n      dup3\n        /* \"#utility.yul\":1505:1559   */\n      and\n        /* \"#utility.yul\":1494:1559   */\n      swap1\n      pop\n        /* \"#utility.yul\":1439:1565   */\n      swap2\n      swap1\n      pop\n      jump\t// out\n        /* \"#utility.yul\":1571:1667   */\n    tag_69:\n        /* \"#utility.yul\":1608:1615   */\n      0x00\n        /* \"#utility.yul\":1637:1661   */\n      tag_158\n        /* \"#utility.yul\":1655:1660   */\n      dup3\n        /* \"#utility.yul\":1637:1661   */\n      tag_68\n      jump\t// in\n    tag_158:\n        /* \"#utility.yul\":1626:1661   */\n      swap1\n      pop\n        /* \"#utility.yul\":1571:1667   */\n      swap2\n      swap1\n      pop\n      jump\t// out\n        /* \"#utility.yul\":1673:1791   */\n    tag_70:\n        /* \"#utility.yul\":1760:1784   */\n      tag_160\n        /* \"#utility.yul\":1778:1783   */\n      dup2\n        /* \"#utility.yul\":1760:1784   */\n      tag_69\n      jump\t// in\n    tag_160:\n        /* \"#utility.yul\":1755:1758   */\n      dup3\n        /* \"#utility.yul\":1748:1785   */\n      mstore\n        /* \"#utility.yul\":1673:1791   */\n      pop\n      pop\n      jump\t// out\n        /* \"#utility.yul\":1797:1896   */\n    tag_71:\n        /* \"#utility.yul\":1849:1855   */\n      0x00\n        /* \"#utility.yul\":1883:1888   */\n      dup2\n        /* \"#utility.yul\":1877:1889   */\n      mload\n        /* \"#utility.yul\":1867:1889   */\n      swap1\n      pop\n        /* \"#utility.yul\":1797:1896   */\n      swap2\n      swap1\n      pop\n      jump\t// out\n        /* \"#utility.yul\":1902:2071   */\n    tag_72:\n        /* \"#utility.yul\":1986:1997   */\n      0x00\n        /* \"#utility.yul\":2020:2026   */\n      dup3\n        /* \"#utility.yul\":2015:2018   */\n      dup3\n        /* \"#utility.yul\":2008:2027   */\n      mstore\n        /* \"#utility.yul\":2060:2064   */\n      0x20\n        /* \"#utility.yul\":2055:2058   */\n      dup3\n        /* \"#utility.yul\":2051:2065   */\n      add\n        /* \"#utility.yul\":2036:2065   */\n      swap1\n      pop\n        /* \"#utility.yul\":1902:2071   */\n      swap3\n      swap2\n      pop\n      pop\n      jump\t// out\n        /* \"#utility.yul\":2077:2454   */\n    tag_73:\n        /* \"#utility.yul\":2165:2168   */\n      0x00\n        /* \"#utility.yul\":2193:2232   */\n      tag_164\n        /* \"#utility.yul\":2226:2231   */\n      dup3\n        /* \"#utility.yul\":2193:2232   */\n      tag_71\n      jump\t// in\n    tag_164:\n        /* \"#utility.yul\":2248:2319   */\n      tag_165\n        /* \"#utility.yul\":2312:2318   */\n      dup2\n        /* \"#utility.yul\":2307:2310   */\n      dup6\n        /* \"#utility.yul\":2248:2319   */\n      tag_72\n      jump\t// in\n    tag_165:\n        /* \"#utility.yul\":2241:2319   */\n      swap4\n      pop\n        /* \"#utility.yul\":2328:2393   */\n      tag_166\n        /* \"#utility.yul\":2386:2392   */\n      dup2\n        /* \"#utility.yul\":2381:2384   */\n      dup6\n        /* \"#utility.yul\":2374:2378   */\n      0x20\n        /* \"#utility.yul\":2367:2372   */\n      dup7\n        /* \"#utility.yul\":2363:2379   */\n      add\n        /* \"#utility.yul\":2328:2393   */\n      tag_63\n      jump\t// in\n    tag_166:\n        /* \"#utility.yul\":2418:2447   */\n      tag_167\n        /* \"#utility.yul\":2440:2446   */\n      dup2\n        /* \"#utility.yul\":2418:2447   */\n      tag_64\n      jump\t// in\n    tag_167:\n        /* \"#utility.yul\":2413:2416   */\n      dup5\n        /* \"#utility.yul\":2409:2448   */\n      add\n        /* \"#utility.yul\":2402:2448   */\n      swap2\n      pop\n        /* \"#utility.yul\":2169:2454   */\n      pop\n        /* \"#utility.yul\":2077:2454   */\n      swap3\n      swap2\n      pop\n      pop\n      jump\t// out\n        /* \"#utility.yul\":2460:2564   */\n    tag_74:\n        /* \"#utility.yul\":2525:2531   */\n      0x00\n        /* \"#utility.yul\":2553:2557   */\n      0x02\n        /* \"#utility.yul\":2543:2557   */\n      swap1\n      pop\n        /* \"#utility.yul\":2460:2564   */\n      swap2\n      swap1\n      pop\n      jump\t// out\n        /* \"#utility.yul\":2570:2713   */\n    tag_75:\n        /* \"#utility.yul\":2667:2678   */\n      0x00\n        /* \"#utility.yul\":2704:2707   */\n      dup2\n        /* \"#utility.yul\":2689:2707   */\n      swap1\n      pop\n        /* \"#utility.yul\":2570:2713   */\n      swap3\n      swap2\n      pop\n      pop\n      jump\t// out\n        /* \"#utility.yul\":2719:2817   */\n    tag_76:\n        /* \"#utility.yul\":2784:2788   */\n      0x00\n        /* \"#utility.yul\":2807:2810   */\n      dup2\n        /* \"#utility.yul\":2799:2810   */\n      swap1\n      pop\n        /* \"#utility.yul\":2719:2817   */\n      swap2\n      swap1\n      pop\n      jump\t// out\n        /* \"#utility.yul\":2823:2931   */\n    tag_77:\n        /* \"#utility.yul\":2900:2924   */\n      tag_172\n        /* \"#utility.yul\":2918:2923   */\n      dup2\n        /* \"#utility.yul\":2900:2924   */\n      tag_66\n      jump\t// in\n    tag_172:\n        /* \"#utility.yul\":2895:2898   */\n      dup3\n        /* \"#utility.yul\":2888:2925   */\n      mstore\n        /* \"#utility.yul\":2823:2931   */\n      pop\n      pop\n      jump\t// out\n        /* \"#utility.yul\":2937:3116   */\n    tag_78:\n        /* \"#utility.yul\":3006:3016   */\n      0x00\n        /* \"#utility.yul\":3027:3073   */\n      tag_174\n        /* \"#utility.yul\":3069:3072   */\n      dup4\n        /* \"#utility.yul\":3061:3067   */\n      dup4\n        /* \"#utility.yul\":3027:3073   */\n      tag_77\n      jump\t// in\n    tag_174:\n        /* \"#utility.yul\":3105:3109   */\n      0x20\n        /* \"#utility.yul\":3100:3103   */\n      dup4\n        /* \"#utility.yul\":3096:3110   */\n      add\n        /* \"#utility.yul\":3082:3110   */\n      swap1\n      pop\n        /* \"#utility.yul\":2937:3116   */\n      swap3\n      swap2\n      pop\n      pop\n      jump\t// out\n        /* \"#utility.yul\":3122:3233   */\n    tag_79:\n        /* \"#utility.yul\":3190:3194   */\n      0x00\n        /* \"#utility.yul\":3222:3226   */\n      0x20\n        /* \"#utility.yul\":3217:3220   */\n      dup3\n        /* \"#utility.yul\":3213:3227   */\n      add\n        /* \"#utility.yul\":3205:3227   */\n      swap1\n      pop\n        /* \"#utility.yul\":3122:3233   */\n      swap2\n      swap1\n      pop\n      jump\t// out\n        /* \"#utility.yul\":3271:3965   */\n    tag_80:\n        /* \"#utility.yul\":3407:3459   */\n      tag_177\n        /* \"#utility.yul\":3453:3458   */\n      dup2\n        /* \"#utility.yul\":3407:3459   */\n      tag_74\n      jump\t// in\n    tag_177:\n        /* \"#utility.yul\":3475:3559   */\n      tag_178\n        /* \"#utility.yul\":3552:3558   */\n      dup2\n        /* \"#utility.yul\":3547:3550   */\n      dup5\n        /* \"#utility.yul\":3475:3559   */\n      tag_75\n      jump\t// in\n    tag_178:\n        /* \"#utility.yul\":3468:3559   */\n      swap3\n      pop\n        /* \"#utility.yul\":3583:3637   */\n      tag_179\n        /* \"#utility.yul\":3631:3636   */\n      dup3\n        /* \"#utility.yul\":3583:3637   */\n      tag_76\n      jump\t// in\n    tag_179:\n        /* \"#utility.yul\":3660:3667   */\n      dup1\n        /* \"#utility.yul\":3691:3692   */\n      0x00\n        /* \"#utility.yul\":3676:3958   */\n    tag_180:\n        /* \"#utility.yul\":3701:3707   */\n      dup4\n        /* \"#utility.yul\":3698:3699   */\n      dup2\n        /* \"#utility.yul\":3695:3708   */\n      lt\n        /* \"#utility.yul\":3676:3958   */\n      iszero\n      tag_182\n      jumpi\n        /* \"#utility.yul\":3777:3783   */\n      dup2\n        /* \"#utility.yul\":3771:3784   */\n      mload\n        /* \"#utility.yul\":3804:3867   */\n      tag_183\n        /* \"#utility.yul\":3863:3866   */\n      dup8\n        /* \"#utility.yul\":3848:3861   */\n      dup3\n        /* \"#utility.yul\":3804:3867   */\n      tag_78\n      jump\t// in\n    tag_183:\n        /* \"#utility.yul\":3797:3867   */\n      swap7\n      pop\n        /* \"#utility.yul\":3890:3948   */\n      tag_184\n        /* \"#utility.yul\":3941:3947   */\n      dup4\n        /* \"#utility.yul\":3890:3948   */\n      tag_79\n      jump\t// in\n    tag_184:\n        /* \"#utility.yul\":3880:3948   */\n      swap3\n      pop\n        /* \"#utility.yul\":3736:3958   */\n      pop\n        /* \"#utility.yul\":3723:3724   */\n      0x01\n        /* \"#utility.yul\":3720:3721   */\n      dup2\n        /* \"#utility.yul\":3716:3725   */\n      add\n        /* \"#utility.yul\":3711:3725   */\n      swap1\n      pop\n        /* \"#utility.yul\":3676:3958   */\n      jump(tag_180)\n    tag_182:\n        /* \"#utility.yul\":3680:3694   */\n      pop\n        /* \"#utility.yul\":3383:3965   */\n      pop\n      pop\n      pop\n        /* \"#utility.yul\":3271:3965   */\n      pop\n      pop\n      jump\t// out\n        /* \"#utility.yul\":3971:4707   */\n    tag_22:\n        /* \"#utility.yul\":4214:4218   */\n      0x00\n        /* \"#utility.yul\":4252:4255   */\n      0xa0\n        /* \"#utility.yul\":4241:4250   */\n      dup3\n        /* \"#utility.yul\":4237:4256   */\n      add\n        /* \"#utility.yul\":4229:4256   */\n      swap1\n      pop\n        /* \"#utility.yul\":4266:4337   */\n      tag_186\n        /* \"#utility.yul\":4334:4335   */\n      0x00\n        /* \"#utility.yul\":4323:4332   */\n      dup4\n        /* \"#utility.yul\":4319:4336   */\n      add\n        /* \"#utility.yul\":4310:4316   */\n      dup8\n        /* \"#utility.yul\":4266:4337   */\n      tag_67\n      jump\t// in\n    tag_186:\n        /* \"#utility.yul\":4347:4419   */\n      tag_187\n        /* \"#utility.yul\":4415:4417   */\n      0x20\n        /* \"#utility.yul\":4404:4413   */\n      dup4\n        /* \"#utility.yul\":4400:4418   */\n      add\n        /* \"#utility.yul\":4391:4397   */\n      dup7\n        /* \"#utility.yul\":4347:4419   */\n      tag_70\n      jump\t// in\n    tag_187:\n        /* \"#utility.yul\":4466:4475   */\n      dup2\n        /* \"#utility.yul\":4460:4464   */\n      dup2\n        /* \"#utility.yul\":4456:4476   */\n      sub\n        /* \"#utility.yul\":4451:4453   */\n      0x40\n        /* \"#utility.yul\":4440:4449   */\n      dup4\n        /* \"#utility.yul\":4436:4454   */\n      add\n        /* \"#utility.yul\":4429:4477   */\n      mstore\n        /* \"#utility.yul\":4494:4572   */\n      tag_188\n        /* \"#utility.yul\":4567:4571   */\n      dup2\n        /* \"#utility.yul\":4558:4564   */\n      dup6\n        /* \"#utility.yul\":4494:4572   */\n      tag_73\n      jump\t// in\n    tag_188:\n        /* \"#utility.yul\":4486:4572   */\n      swap1\n      pop\n        /* \"#utility.yul\":4582:4700   */\n      tag_189\n        /* \"#utility.yul\":4696:4698   */\n      0x60\n        /* \"#utility.yul\":4685:4694   */\n      dup4\n        /* \"#utility.yul\":4681:4699   */\n      add\n        /* \"#utility.yul\":4672:4678   */\n      dup5\n        /* \"#utility.yul\":4582:4700   */\n      tag_80\n      jump\t// in\n    tag_189:\n        /* \"#utility.yul\":3971:4707   */\n      swap6\n      swap5\n      pop\n      pop\n      pop\n      pop\n      pop\n      jump\t// out\n        /* \"#utility.yul\":4713:4792   */\n    tag_81:\n        /* \"#utility.yul\":4752:4759   */\n      0x00\n        /* \"#utility.yul\":4781:4786   */\n      dup2\n        /* \"#utility.yul\":4770:4786   */\n      swap1\n      pop\n        /* \"#utility.yul\":4713:4792   */\n      swap2\n      swap1\n      pop\n      jump\t// out\n        /* \"#utility.yul\":4798:4955   */\n    tag_82:\n        /* \"#utility.yul\":4903:4948   */\n      tag_192\n        /* \"#utility.yul\":4923:4947   */\n      tag_193\n        /* \"#utility.yul\":4941:4946   */\n      dup3\n        /* \"#utility.yul\":4923:4947   */\n      tag_66\n      jump\t// in\n    tag_193:\n        /* \"#utility.yul\":4903:4948   */\n      tag_81\n      jump\t// in\n    tag_192:\n        /* \"#utility.yul\":4898:4901   */\n      dup3\n        /* \"#utility.yul\":4891:4949   */\n      mstore\n        /* \"#utility.yul\":4798:4955   */\n      pop\n      pop\n      jump\t// out\n        /* \"#utility.yul\":4961:5055   */\n    tag_83:\n        /* \"#utility.yul\":4994:5002   */\n      0x00\n        /* \"#utility.yul\":5042:5047   */\n      dup2\n        /* \"#utility.yul\":5038:5040   */\n      0x60\n        /* \"#utility.yul\":5034:5048   */\n      shl\n        /* \"#utility.yul\":5013:5048   */\n      swap1\n      pop\n        /* \"#utility.yul\":4961:5055   */\n      swap2\n      swap1\n      pop\n      jump\t// out\n        /* \"#utility.yul\":5061:5155   */\n    tag_84:\n        /* \"#utility.yul\":5100:5107   */\n      0x00\n        /* \"#utility.yul\":5129:5149   */\n      tag_196\n        /* \"#utility.yul\":5143:5148   */\n      dup3\n        /* \"#utility.yul\":5129:5149   */\n      tag_83\n      jump\t// in\n    tag_196:\n        /* \"#utility.yul\":5118:5149   */\n      swap1\n      pop\n        /* \"#utility.yul\":5061:5155   */\n      swap2\n      swap1\n      pop\n      jump\t// out\n        /* \"#utility.yul\":5161:5261   */\n    tag_85:\n        /* \"#utility.yul\":5200:5207   */\n      0x00\n        /* \"#utility.yul\":5229:5255   */\n      tag_198\n        /* \"#utility.yul\":5249:5254   */\n      dup3\n        /* \"#utility.yul\":5229:5255   */\n      tag_84\n      jump\t// in\n    tag_198:\n        /* \"#utility.yul\":5218:5255   */\n      swap1\n      pop\n        /* \"#utility.yul\":5161:5261   */\n      swap2\n      swap1\n      pop\n      jump\t// out\n        /* \"#utility.yul\":5267:5424   */\n    tag_86:\n        /* \"#utility.yul\":5372:5417   */\n      tag_200\n        /* \"#utility.yul\":5392:5416   */\n      tag_201\n        /* \"#utility.yul\":5410:5415   */\n      dup3\n        /* \"#utility.yul\":5392:5416   */\n      tag_69\n      jump\t// in\n    tag_201:\n        /* \"#utility.yul\":5372:5417   */\n      tag_85\n      jump\t// in\n    tag_200:\n        /* \"#utility.yul\":5367:5370   */\n      dup3\n        /* \"#utility.yul\":5360:5418   */\n      mstore\n        /* \"#utility.yul\":5267:5424   */\n      pop\n      pop\n      jump\t// out\n        /* \"#utility.yul\":5430:5610   */\n    tag_87:\n        /* \"#utility.yul\":5478:5555   */\n      0x4e487b7100000000000000000000000000000000000000000000000000000000\n        /* \"#utility.yul\":5475:5476   */\n      0x00\n        /* \"#utility.yul\":5468:5556   */\n      mstore\n        /* \"#utility.yul\":5575:5579   */\n      0x22\n        /* \"#utility.yul\":5572:5573   */\n      0x04\n        /* \"#utility.yul\":5565:5580   */\n      mstore\n        /* \"#utility.yul\":5599:5603   */\n      0x24\n        /* \"#utility.yul\":5596:5597   */\n      0x00\n        /* \"#utility.yul\":5589:5604   */\n      revert\n        /* \"#utility.yul\":5616:5936   */\n    tag_33:\n        /* \"#utility.yul\":5660:5666   */\n      0x00\n        /* \"#utility.yul\":5697:5698   */\n      0x02\n        /* \"#utility.yul\":5691:5695   */\n      dup3\n        /* \"#utility.yul\":5687:5699   */\n      div\n        /* \"#utility.yul\":5677:5699   */\n      swap1\n      pop\n        /* \"#utility.yul\":5744:5745   */\n      0x01\n        /* \"#utility.yul\":5738:5742   */\n      dup3\n        /* \"#utility.yul\":5734:5746   */\n      and\n        /* \"#utility.yul\":5765:5783   */\n      dup1\n        /* \"#utility.yul\":5755:5836   */\n      tag_204\n      jumpi\n        /* \"#utility.yul\":5821:5825   */\n      0x7f\n        /* \"#utility.yul\":5813:5819   */\n      dup3\n        /* \"#utility.yul\":5809:5826   */\n      and\n        /* \"#utility.yul\":5799:5826   */\n      swap2\n      pop\n        /* \"#utility.yul\":5755:5836   */\n    tag_204:\n        /* \"#utility.yul\":5883:5885   */\n      0x20\n        /* \"#utility.yul\":5875:5881   */\n      dup3\n        /* \"#utility.yul\":5872:5886   */\n      lt\n        /* \"#utility.yul\":5852:5870   */\n      dup2\n        /* \"#utility.yul\":5849:5887   */\n      sub\n        /* \"#utility.yul\":5846:5930   */\n      tag_205\n      jumpi\n        /* \"#utility.yul\":5902:5920   */\n      tag_206\n      tag_87\n      jump\t// in\n    tag_206:\n        /* \"#utility.yul\":5846:5930   */\n    tag_205:\n        /* \"#utility.yul\":5667:5936   */\n      pop\n        /* \"#utility.yul\":5616:5936   */\n      swap2\n      swap1\n      pop\n      jump\t// out\n        /* \"#utility.yul\":5942:6090   */\n    tag_88:\n        /* \"#utility.yul\":6044:6055   */\n      0x00\n        /* \"#utility.yul\":6081:6084   */\n      dup2\n        /* \"#utility.yul\":6066:6084   */\n      swap1\n      pop\n        /* \"#utility.yul\":5942:6090   */\n      swap3\n      swap2\n      pop\n      pop\n      jump\t// out\n        /* \"#utility.yul\":6096:6237   */\n    tag_89:\n        /* \"#utility.yul\":6145:6149   */\n      0x00\n        /* \"#utility.yul\":6168:6171   */\n      dup2\n        /* \"#utility.yul\":6160:6171   */\n      swap1\n      pop\n        /* \"#utility.yul\":6191:6194   */\n      dup2\n        /* \"#utility.yul\":6188:6189   */\n      0x00\n        /* \"#utility.yul\":6181:6195   */\n      mstore\n        /* \"#utility.yul\":6225:6229   */\n      0x20\n        /* \"#utility.yul\":6222:6223   */\n      0x00\n        /* \"#utility.yul\":6212:6230   */\n      keccak256\n        /* \"#utility.yul\":6204:6230   */\n      swap1\n      pop\n        /* \"#utility.yul\":6096:6237   */\n      swap2\n      swap1\n      pop\n      jump\t// out\n        /* \"#utility.yul\":6267:7141   */\n    tag_90:\n        /* \"#utility.yul\":6370:6373   */\n      0x00\n        /* \"#utility.yul\":6407:6412   */\n      dup2\n        /* \"#utility.yul\":6401:6413   */\n      sload\n        /* \"#utility.yul\":6436:6472   */\n      tag_210\n        /* \"#utility.yul\":6462:6471   */\n      dup2\n        /* \"#utility.yul\":6436:6472   */\n      tag_33\n      jump\t// in\n    tag_210:\n        /* \"#utility.yul\":6488:6577   */\n      tag_211\n        /* \"#utility.yul\":6570:6576   */\n      dup2\n        /* \"#utility.yul\":6565:6568   */\n      dup7\n        /* \"#utility.yul\":6488:6577   */\n      tag_88\n      jump\t// in\n    tag_211:\n        /* \"#utility.yul\":6481:6577   */\n      swap5\n      pop\n        /* \"#utility.yul\":6608:6609   */\n      0x01\n        /* \"#utility.yul\":6597:6606   */\n      dup3\n        /* \"#utility.yul\":6593:6610   */\n      and\n        /* \"#utility.yul\":6624:6625   */\n      0x00\n        /* \"#utility.yul\":6619:6785   */\n      dup2\n      eq\n      tag_213\n      jumpi\n        /* \"#utility.yul\":6799:6800   */\n      0x01\n        /* \"#utility.yul\":6794:7135   */\n      dup2\n      eq\n      tag_214\n      jumpi\n        /* \"#utility.yul\":6586:7135   */\n      jump(tag_212)\n        /* \"#utility.yul\":6619:6785   */\n    tag_213:\n        /* \"#utility.yul\":6703:6707   */\n      0xff\n        /* \"#utility.yul\":6699:6708   */\n      not\n        /* \"#utility.yul\":6688:6697   */\n      dup4\n        /* \"#utility.yul\":6684:6709   */\n      and\n        /* \"#utility.yul\":6679:6682   */\n      dup7\n        /* \"#utility.yul\":6672:6710   */\n      mstore\n        /* \"#utility.yul\":6765:6771   */\n      dup2\n        /* \"#utility.yul\":6758:6772   */\n      iszero\n        /* \"#utility.yul\":6751:6773   */\n      iszero\n        /* \"#utility.yul\":6743:6749   */\n      dup3\n        /* \"#utility.yul\":6739:6774   */\n      mul\n        /* \"#utility.yul\":6734:6737   */\n      dup7\n        /* \"#utility.yul\":6730:6775   */\n      add\n        /* \"#utility.yul\":6723:6775   */\n      swap4\n      pop\n        /* \"#utility.yul\":6619:6785   */\n      jump(tag_212)\n        /* \"#utility.yul\":6794:7135   */\n    tag_214:\n        /* \"#utility.yul\":6861:6899   */\n      tag_215\n        /* \"#utility.yul\":6893:6898   */\n      dup6\n        /* \"#utility.yul\":6861:6899   */\n      tag_89\n      jump\t// in\n    tag_215:\n        /* \"#utility.yul\":6921:6922   */\n      0x00\n        /* \"#utility.yul\":6935:7089   */\n    tag_216:\n        /* \"#utility.yul\":6949:6955   */\n      dup4\n        /* \"#utility.yul\":6946:6947   */\n      dup2\n        /* \"#utility.yul\":6943:6956   */\n      lt\n        /* \"#utility.yul\":6935:7089   */\n      iszero\n      tag_218\n      jumpi\n        /* \"#utility.yul\":7023:7030   */\n      dup2\n        /* \"#utility.yul\":7017:7031   */\n      sload\n        /* \"#utility.yul\":7013:7014   */\n      dup2\n        /* \"#utility.yul\":7008:7011   */\n      dup10\n        /* \"#utility.yul\":7004:7015   */\n      add\n        /* \"#utility.yul\":6997:7032   */\n      mstore\n        /* \"#utility.yul\":7073:7074   */\n      0x01\n        /* \"#utility.yul\":7064:7071   */\n      dup3\n        /* \"#utility.yul\":7060:7075   */\n      add\n        /* \"#utility.yul\":7049:7075   */\n      swap2\n      pop\n        /* \"#utility.yul\":6971:6975   */\n      0x20\n        /* \"#utility.yul\":6968:6969   */\n      dup2\n        /* \"#utility.yul\":6964:6976   */\n      add\n        /* \"#utility.yul\":6959:6976   */\n      swap1\n      pop\n        /* \"#utility.yul\":6935:7089   */\n      jump(tag_216)\n    tag_218:\n        /* \"#utility.yul\":7118:7124   */\n      dup4\n        /* \"#utility.yul\":7113:7116   */\n      dup9\n        /* \"#utility.yul\":7109:7125   */\n      add\n        /* \"#utility.yul\":7102:7125   */\n      swap6\n      pop\n        /* \"#utility.yul\":6801:7135   */\n      pop\n      pop\n        /* \"#utility.yul\":6586:7135   */\n    tag_212:\n      pop\n        /* \"#utility.yul\":6374:7141   */\n      pop\n      pop\n        /* \"#utility.yul\":6267:7141   */\n      swap3\n      swap2\n      pop\n      pop\n      jump\t// out\n        /* \"#utility.yul\":7147:7248   */\n    tag_91:\n        /* \"#utility.yul\":7209:7215   */\n      0x00\n        /* \"#utility.yul\":7237:7241   */\n      0x02\n        /* \"#utility.yul\":7227:7241   */\n      swap1\n      pop\n        /* \"#utility.yul\":7147:7248   */\n      swap2\n      swap1\n      pop\n      jump\t// out\n        /* \"#utility.yul\":7254:7415   */\n    tag_92:\n        /* \"#utility.yul\":7369:7380   */\n      0x00\n        /* \"#utility.yul\":7406:7409   */\n      dup2\n        /* \"#utility.yul\":7391:7409   */\n      swap1\n      pop\n        /* \"#utility.yul\":7254:7415   */\n      swap3\n      swap2\n      pop\n      pop\n      jump\t// out\n        /* \"#utility.yul\":7421:7516   */\n    tag_93:\n        /* \"#utility.yul\":7483:7487   */\n      0x00\n        /* \"#utility.yul\":7506:7509   */\n      dup2\n        /* \"#utility.yul\":7498:7509   */\n      swap1\n      pop\n        /* \"#utility.yul\":7421:7516   */\n      swap2\n      swap1\n      pop\n      jump\t// out\n        /* \"#utility.yul\":7522:7638   */\n    tag_94:\n        /* \"#utility.yul\":7607:7631   */\n      tag_223\n        /* \"#utility.yul\":7625:7630   */\n      dup2\n        /* \"#utility.yul\":7607:7631   */\n      tag_66\n      jump\t// in\n    tag_223:\n        /* \"#utility.yul\":7602:7605   */\n      dup3\n        /* \"#utility.yul\":7595:7632   */\n      mstore\n        /* \"#utility.yul\":7522:7638   */\n      pop\n      pop\n      jump\t// out\n        /* \"#utility.yul\":7644:7839   */\n    tag_95:\n        /* \"#utility.yul\":7721:7731   */\n      0x00\n        /* \"#utility.yul\":7742:7796   */\n      tag_225\n        /* \"#utility.yul\":7792:7795   */\n      dup4\n        /* \"#utility.yul\":7784:7790   */\n      dup4\n        /* \"#utility.yul\":7742:7796   */\n      tag_94\n      jump\t// in\n    tag_225:\n        /* \"#utility.yul\":7828:7832   */\n      0x20\n        /* \"#utility.yul\":7823:7826   */\n      dup4\n        /* \"#utility.yul\":7819:7833   */\n      add\n        /* \"#utility.yul\":7805:7833   */\n      swap1\n      pop\n        /* \"#utility.yul\":7644:7839   */\n      swap3\n      swap2\n      pop\n      pop\n      jump\t// out\n        /* \"#utility.yul\":7845:7947   */\n    tag_96:\n        /* \"#utility.yul\":7887:7895   */\n      0x00\n        /* \"#utility.yul\":7934:7939   */\n      dup2\n        /* \"#utility.yul\":7931:7932   */\n      0x00\n        /* \"#utility.yul\":7927:7940   */\n      shr\n        /* \"#utility.yul\":7906:7940   */\n      swap1\n      pop\n        /* \"#utility.yul\":7845:7947   */\n      swap2\n      swap1\n      pop\n      jump\t// out\n        /* \"#utility.yul\":7953:8043   */\n    tag_97:\n        /* \"#utility.yul\":8003:8010   */\n      0x00\n        /* \"#utility.yul\":8032:8037   */\n      dup2\n        /* \"#utility.yul\":8021:8037   */\n      swap1\n      pop\n        /* \"#utility.yul\":7953:8043   */\n      swap2\n      swap1\n      pop\n      jump\t// out\n        /* \"#utility.yul\":8049:8215   */\n    tag_98:\n        /* \"#utility.yul\":8118:8123   */\n      0x00\n        /* \"#utility.yul\":8143:8209   */\n      tag_229\n        /* \"#utility.yul\":8174:8208   */\n      tag_230\n        /* \"#utility.yul\":8197:8207   */\n      dup4\n        /* \"#utility.yul\":8174:8208   */\n      tag_96\n      jump\t// in\n    tag_230:\n        /* \"#utility.yul\":8143:8209   */\n      tag_97\n      jump\t// in\n    tag_229:\n        /* \"#utility.yul\":8134:8209   */\n      swap1\n      pop\n        /* \"#utility.yul\":8049:8215   */\n      swap2\n      swap1\n      pop\n      jump\t// out\n        /* \"#utility.yul\":8221:8365   */\n    tag_99:\n        /* \"#utility.yul\":8276:8281   */\n      0x00\n        /* \"#utility.yul\":8301:8358   */\n      tag_232\n        /* \"#utility.yul\":8352:8356   */\n      dup3\n        /* \"#utility.yul\":8346:8357   */\n      sload\n        /* \"#utility.yul\":8301:8358   */\n      tag_98\n      jump\t// in\n    tag_232:\n        /* \"#utility.yul\":8292:8358   */\n      swap1\n      pop\n        /* \"#utility.yul\":8221:8365   */\n      swap2\n      swap1\n      pop\n      jump\t// out\n        /* \"#utility.yul\":8371:8479   */\n    tag_100:\n        /* \"#utility.yul\":8436:8440   */\n      0x00\n        /* \"#utility.yul\":8468:8472   */\n      0x01\n        /* \"#utility.yul\":8463:8466   */\n      dup3\n        /* \"#utility.yul\":8459:8473   */\n      add\n        /* \"#utility.yul\":8451:8473   */\n      swap1\n      pop\n        /* \"#utility.yul\":8371:8479   */\n      swap2\n      swap1\n      pop\n      jump\t// out\n        /* \"#utility.yul\":8517:9274   */\n    tag_101:\n        /* \"#utility.yul\":8668:8717   */\n      tag_235\n        /* \"#utility.yul\":8711:8716   */\n      dup2\n        /* \"#utility.yul\":8668:8717   */\n      tag_91\n      jump\t// in\n    tag_235:\n        /* \"#utility.yul\":8733:8835   */\n      tag_236\n        /* \"#utility.yul\":8828:8834   */\n      dup2\n        /* \"#utility.yul\":8823:8826   */\n      dup5\n        /* \"#utility.yul\":8733:8835   */\n      tag_92\n      jump\t// in\n    tag_236:\n        /* \"#utility.yul\":8726:8835   */\n      swap3\n      pop\n        /* \"#utility.yul\":8859:8910   */\n      tag_237\n        /* \"#utility.yul\":8904:8909   */\n      dup3\n        /* \"#utility.yul\":8859:8910   */\n      tag_93\n      jump\t// in\n    tag_237:\n        /* \"#utility.yul\":8933:8940   */\n      dup1\n        /* \"#utility.yul\":8964:8965   */\n      0x00\n        /* \"#utility.yul\":8949:9267   */\n    tag_238:\n        /* \"#utility.yul\":8974:8980   */\n      dup4\n        /* \"#utility.yul\":8971:8972   */\n      dup2\n        /* \"#utility.yul\":8968:8981   */\n      lt\n        /* \"#utility.yul\":8949:9267   */\n      iszero\n      tag_240\n      jumpi\n        /* \"#utility.yul\":9044:9088   */\n      tag_241\n        /* \"#utility.yul\":9081:9087   */\n      dup3\n        /* \"#utility.yul\":9044:9088   */\n      tag_99\n      jump\t// in\n    tag_241:\n        /* \"#utility.yul\":9108:9179   */\n      tag_242\n        /* \"#utility.yul\":9175:9178   */\n      dup8\n        /* \"#utility.yul\":9160:9173   */\n      dup3\n        /* \"#utility.yul\":9108:9179   */\n      tag_95\n      jump\t// in\n    tag_242:\n        /* \"#utility.yul\":9101:9179   */\n      swap7\n      pop\n        /* \"#utility.yul\":9202:9257   */\n      tag_243\n        /* \"#utility.yul\":9250:9256   */\n      dup4\n        /* \"#utility.yul\":9202:9257   */\n      tag_100\n      jump\t// in\n    tag_243:\n        /* \"#utility.yul\":9192:9257   */\n      swap3\n      pop\n        /* \"#utility.yul\":9009:9267   */\n      pop\n        /* \"#utility.yul\":8996:8997   */\n      0x01\n        /* \"#utility.yul\":8993:8994   */\n      dup2\n        /* \"#utility.yul\":8989:8998   */\n      add\n        /* \"#utility.yul\":8984:8998   */\n      swap1\n      pop\n        /* \"#utility.yul\":8949:9267   */\n      jump(tag_238)\n    tag_240:\n        /* \"#utility.yul\":8953:8967   */\n      pop\n        /* \"#utility.yul\":8644:9274   */\n      pop\n      pop\n      pop\n        /* \"#utility.yul\":8517:9274   */\n      pop\n      pop\n      jump\t// out\n        /* \"#utility.yul\":9280:10058   */\n    tag_31:\n        /* \"#utility.yul\":9536:9539   */\n      0x00\n        /* \"#utility.yul\":9551:9626   */\n      tag_245\n        /* \"#utility.yul\":9622:9625   */\n      dup3\n        /* \"#utility.yul\":9613:9619   */\n      dup8\n        /* \"#utility.yul\":9551:9626   */\n      tag_82\n      jump\t// in\n    tag_245:\n        /* \"#utility.yul\":9651:9653   */\n      0x20\n        /* \"#utility.yul\":9646:9649   */\n      dup3\n        /* \"#utility.yul\":9642:9654   */\n      add\n        /* \"#utility.yul\":9635:9654   */\n      swap2\n      pop\n        /* \"#utility.yul\":9664:9739   */\n      tag_246\n        /* \"#utility.yul\":9735:9738   */\n      dup3\n        /* \"#utility.yul\":9726:9732   */\n      dup7\n        /* \"#utility.yul\":9664:9739   */\n      tag_86\n      jump\t// in\n    tag_246:\n        /* \"#utility.yul\":9764:9766   */\n      0x14\n        /* \"#utility.yul\":9759:9762   */\n      dup3\n        /* \"#utility.yul\":9755:9767   */\n      add\n        /* \"#utility.yul\":9748:9767   */\n      swap2\n      pop\n        /* \"#utility.yul\":9784:9876   */\n      tag_247\n        /* \"#utility.yul\":9872:9875   */\n      dup3\n        /* \"#utility.yul\":9863:9869   */\n      dup6\n        /* \"#utility.yul\":9784:9876   */\n      tag_90\n      jump\t// in\n    tag_247:\n        /* \"#utility.yul\":9777:9876   */\n      swap2\n      pop\n        /* \"#utility.yul\":9886:10004   */\n      tag_248\n        /* \"#utility.yul\":10000:10003   */\n      dup3\n        /* \"#utility.yul\":9991:9997   */\n      dup5\n        /* \"#utility.yul\":9886:10004   */\n      tag_101\n      jump\t// in\n    tag_248:\n        /* \"#utility.yul\":10029:10031   */\n      0x40\n        /* \"#utility.yul\":10024:10027   */\n      dup3\n        /* \"#utility.yul\":10020:10032   */\n      add\n        /* \"#utility.yul\":10013:10032   */\n      swap2\n      pop\n        /* \"#utility.yul\":10049:10052   */\n      dup2\n        /* \"#utility.yul\":10042:10052   */\n      swap1\n      pop\n        /* \"#utility.yul\":9280:10058   */\n      swap6\n      swap5\n      pop\n      pop\n      pop\n      pop\n      pop\n      jump\t// out\n        /* \"#utility.yul\":10088:10919   */\n    tag_102:\n        /* \"#utility.yul\":10173:10176   */\n      0x00\n        /* \"#utility.yul\":10210:10215   */\n      dup2\n        /* \"#utility.yul\":10204:10216   */\n      sload\n        /* \"#utility.yul\":10239:10275   */\n      tag_250\n        /* \"#utility.yul\":10265:10274   */\n      dup2\n        /* \"#utility.yul\":10239:10275   */\n      tag_33\n      jump\t// in\n    tag_250:\n        /* \"#utility.yul\":10291:10362   */\n      tag_251\n        /* \"#utility.yul\":10355:10361   */\n      dup2\n        /* \"#utility.yul\":10350:10353   */\n      dup7\n        /* \"#utility.yul\":10291:10362   */\n      tag_72\n      jump\t// in\n    tag_251:\n        /* \"#utility.yul\":10284:10362   */\n      swap5\n      pop\n        /* \"#utility.yul\":10393:10394   */\n      0x01\n        /* \"#utility.yul\":10382:10391   */\n      dup3\n        /* \"#utility.yul\":10378:10395   */\n      and\n        /* \"#utility.yul\":10409:10410   */\n      0x00\n        /* \"#utility.yul\":10404:10568   */\n      dup2\n      eq\n      tag_253\n      jumpi\n        /* \"#utility.yul\":10582:10583   */\n      0x01\n        /* \"#utility.yul\":10577:10913   */\n      dup2\n      eq\n      tag_254\n      jumpi\n        /* \"#utility.yul\":10371:10913   */\n      jump(tag_252)\n        /* \"#utility.yul\":10404:10568   */\n    tag_253:\n        /* \"#utility.yul\":10488:10492   */\n      0xff\n        /* \"#utility.yul\":10484:10493   */\n      not\n        /* \"#utility.yul\":10473:10482   */\n      dup4\n        /* \"#utility.yul\":10469:10494   */\n      and\n        /* \"#utility.yul\":10464:10467   */\n      dup7\n        /* \"#utility.yul\":10457:10495   */\n      mstore\n        /* \"#utility.yul\":10548:10554   */\n      dup2\n        /* \"#utility.yul\":10541:10555   */\n      iszero\n        /* \"#utility.yul\":10534:10556   */\n      iszero\n        /* \"#utility.yul\":10528:10532   */\n      0x20\n        /* \"#utility.yul\":10524:10557   */\n      mul\n        /* \"#utility.yul\":10519:10522   */\n      dup7\n        /* \"#utility.yul\":10515:10558   */\n      add\n        /* \"#utility.yul\":10508:10558   */\n      swap4\n      pop\n        /* \"#utility.yul\":10404:10568   */\n      jump(tag_252)\n        /* \"#utility.yul\":10577:10913   */\n    tag_254:\n        /* \"#utility.yul\":10644:10682   */\n      tag_255\n        /* \"#utility.yul\":10676:10681   */\n      dup6\n        /* \"#utility.yul\":10644:10682   */\n      tag_89\n      jump\t// in\n    tag_255:\n        /* \"#utility.yul\":10704:10705   */\n      0x00\n        /* \"#utility.yul\":10718:10872   */\n    tag_256:\n        /* \"#utility.yul\":10732:10738   */\n      dup4\n        /* \"#utility.yul\":10729:10730   */\n      dup2\n        /* \"#utility.yul\":10726:10739   */\n      lt\n        /* \"#utility.yul\":10718:10872   */\n      iszero\n      tag_258\n      jumpi\n        /* \"#utility.yul\":10806:10813   */\n      dup2\n        /* \"#utility.yul\":10800:10814   */\n      sload\n        /* \"#utility.yul\":10796:10797   */\n      dup2\n        /* \"#utility.yul\":10791:10794   */\n      dup10\n        /* \"#utility.yul\":10787:10798   */\n      add\n        /* \"#utility.yul\":10780:10815   */\n      mstore\n        /* \"#utility.yul\":10856:10857   */\n      0x01\n        /* \"#utility.yul\":10847:10854   */\n      dup3\n        /* \"#utility.yul\":10843:10858   */\n      add\n        /* \"#utility.yul\":10832:10858   */\n      swap2\n      pop\n        /* \"#utility.yul\":10754:10758   */\n      0x20\n        /* \"#utility.yul\":10751:10752   */\n      dup2\n        /* \"#utility.yul\":10747:10759   */\n      add\n        /* \"#utility.yul\":10742:10759   */\n      swap1\n      pop\n        /* \"#utility.yul\":10718:10872   */\n      jump(tag_256)\n    tag_258:\n        /* \"#utility.yul\":10901:10902   */\n      dup1\n        /* \"#utility.yul\":10896:10899   */\n      dup9\n        /* \"#utility.yul\":10892:10903   */\n      add\n        /* \"#utility.yul\":10885:10903   */\n      swap6\n      pop\n        /* \"#utility.yul\":10584:10913   */\n      pop\n      pop\n        /* \"#utility.yul\":10371:10913   */\n    tag_252:\n      pop\n        /* \"#utility.yul\":10177:10919   */\n      pop\n      pop\n        /* \"#utility.yul\":10088:10919   */\n      swap3\n      swap2\n      pop\n      pop\n      jump\t// out\n        /* \"#utility.yul\":10957:11670   */\n    tag_103:\n        /* \"#utility.yul\":11090:11139   */\n      tag_260\n        /* \"#utility.yul\":11133:11138   */\n      dup2\n        /* \"#utility.yul\":11090:11139   */\n      tag_91\n      jump\t// in\n    tag_260:\n        /* \"#utility.yul\":11155:11239   */\n      tag_261\n        /* \"#utility.yul\":11232:11238   */\n      dup2\n        /* \"#utility.yul\":11227:11230   */\n      dup5\n        /* \"#utility.yul\":11155:11239   */\n      tag_75\n      jump\t// in\n    tag_261:\n        /* \"#utility.yul\":11148:11239   */\n      swap3\n      pop\n        /* \"#utility.yul\":11263:11314   */\n      tag_262\n        /* \"#utility.yul\":11308:11313   */\n      dup3\n        /* \"#utility.yul\":11263:11314   */\n      tag_93\n      jump\t// in\n    tag_262:\n        /* \"#utility.yul\":11337:11344   */\n      dup1\n        /* \"#utility.yul\":11368:11369   */\n      0x00\n        /* \"#utility.yul\":11353:11663   */\n    tag_263:\n        /* \"#utility.yul\":11378:11384   */\n      dup4\n        /* \"#utility.yul\":11375:11376   */\n      dup2\n        /* \"#utility.yul\":11372:11385   */\n      lt\n        /* \"#utility.yul\":11353:11663   */\n      iszero\n      tag_265\n      jumpi\n        /* \"#utility.yul\":11448:11492   */\n      tag_266\n        /* \"#utility.yul\":11485:11491   */\n      dup3\n        /* \"#utility.yul\":11448:11492   */\n      tag_99\n      jump\t// in\n    tag_266:\n        /* \"#utility.yul\":11512:11575   */\n      tag_267\n        /* \"#utility.yul\":11571:11574   */\n      dup8\n        /* \"#utility.yul\":11556:11569   */\n      dup3\n        /* \"#utility.yul\":11512:11575   */\n      tag_78\n      jump\t// in\n    tag_267:\n        /* \"#utility.yul\":11505:11575   */\n      swap7\n      pop\n        /* \"#utility.yul\":11598:11653   */\n      tag_268\n        /* \"#utility.yul\":11646:11652   */\n      dup4\n        /* \"#utility.yul\":11598:11653   */\n      tag_100\n      jump\t// in\n    tag_268:\n        /* \"#utility.yul\":11588:11653   */\n      swap3\n      pop\n        /* \"#utility.yul\":11413:11663   */\n      pop\n        /* \"#utility.yul\":11400:11401   */\n      0x01\n        /* \"#utility.yul\":11397:11398   */\n      dup2\n        /* \"#utility.yul\":11393:11402   */\n      add\n        /* \"#utility.yul\":11388:11402   */\n      swap1\n      pop\n        /* \"#utility.yul\":11353:11663   */\n      jump(tag_263)\n    tag_265:\n        /* \"#utility.yul\":11357:11371   */\n      pop\n        /* \"#utility.yul\":11066:11670   */\n      pop\n      pop\n      pop\n        /* \"#utility.yul\":10957:11670   */\n      pop\n      pop\n      jump\t// out\n        /* \"#utility.yul\":11676:12400   */\n    tag_40:\n        /* \"#utility.yul\":11913:11917   */\n      0x00\n        /* \"#utility.yul\":11951:11954   */\n      0xa0\n        /* \"#utility.yul\":11940:11949   */\n      dup3\n        /* \"#utility.yul\":11936:11955   */\n      add\n        /* \"#utility.yul\":11928:11955   */\n      swap1\n      pop\n        /* \"#utility.yul\":11965:12036   */\n      tag_270\n        /* \"#utility.yul\":12033:12034   */\n      0x00\n        /* \"#utility.yul\":12022:12031   */\n      dup4\n        /* \"#utility.yul\":12018:12035   */\n      add\n        /* \"#utility.yul\":12009:12015   */\n      dup8\n        /* \"#utility.yul\":11965:12036   */\n      tag_67\n      jump\t// in\n    tag_270:\n        /* \"#utility.yul\":12046:12118   */\n      tag_271\n        /* \"#utility.yul\":12114:12116   */\n      0x20\n        /* \"#utility.yul\":12103:12112   */\n      dup4\n        /* \"#utility.yul\":12099:12117   */\n      add\n        /* \"#utility.yul\":12090:12096   */\n      dup7\n        /* \"#utility.yul\":12046:12118   */\n      tag_70\n      jump\t// in\n    tag_271:\n        /* \"#utility.yul\":12165:12174   */\n      dup2\n        /* \"#utility.yul\":12159:12163   */\n      dup2\n        /* \"#utility.yul\":12155:12175   */\n      sub\n        /* \"#utility.yul\":12150:12152   */\n      0x40\n        /* \"#utility.yul\":12139:12148   */\n      dup4\n        /* \"#utility.yul\":12135:12153   */\n      add\n        /* \"#utility.yul\":12128:12176   */\n      mstore\n        /* \"#utility.yul\":12193:12268   */\n      tag_272\n        /* \"#utility.yul\":12263:12267   */\n      dup2\n        /* \"#utility.yul\":12254:12260   */\n      dup6\n        /* \"#utility.yul\":12193:12268   */\n      tag_102\n      jump\t// in\n    tag_272:\n        /* \"#utility.yul\":12185:12268   */\n      swap1\n      pop\n        /* \"#utility.yul\":12278:12393   */\n      tag_273\n        /* \"#utility.yul\":12389:12391   */\n      0x60\n        /* \"#utility.yul\":12378:12387   */\n      dup4\n        /* \"#utility.yul\":12374:12392   */\n      add\n        /* \"#utility.yul\":12365:12371   */\n      dup5\n        /* \"#utility.yul\":12278:12393   */\n      tag_103\n      jump\t// in\n    tag_273:\n        /* \"#utility.yul\":11676:12400   */\n      swap6\n      swap5\n      pop\n      pop\n      pop\n      pop\n      pop\n      jump\t// out\n        /* \"#utility.yul\":12406:12586   */\n    tag_104:\n        /* \"#utility.yul\":12454:12531   */\n      0x4e487b7100000000000000000000000000000000000000000000000000000000\n        /* \"#utility.yul\":12451:12452   */\n      0x00\n        /* \"#utility.yul\":12444:12532   */\n      mstore\n        /* \"#utility.yul\":12551:12555   */\n      0x41\n        /* \"#utility.yul\":12548:12549   */\n      0x04\n        /* \"#utility.yul\":12541:12556   */\n      mstore\n        /* \"#utility.yul\":12575:12579   */\n      0x24\n        /* \"#utility.yul\":12572:12573   */\n      0x00\n        /* \"#utility.yul\":12565:12580   */\n      revert\n        /* \"#utility.yul\":12592:12732   */\n    tag_105:\n        /* \"#utility.yul\":12640:12644   */\n      0x00\n        /* \"#utility.yul\":12663:12666   */\n      dup2\n        /* \"#utility.yul\":12655:12666   */\n      swap1\n      pop\n        /* \"#utility.yul\":12686:12689   */\n      dup2\n        /* \"#utility.yul\":12683:12684   */\n      0x00\n        /* \"#utility.yul\":12676:12690   */\n      mstore\n        /* \"#utility.yul\":12720:12724   */\n      0x20\n        /* \"#utility.yul\":12717:12718   */\n      0x00\n        /* \"#utility.yul\":12707:12725   */\n      keccak256\n        /* \"#utility.yul\":12699:12725   */\n      swap1\n      pop\n        /* \"#utility.yul\":12592:12732   */\n      swap2\n      swap1\n      pop\n      jump\t// out\n        /* \"#utility.yul\":12738:12831   */\n    tag_106:\n        /* \"#utility.yul\":12775:12781   */\n      0x00\n        /* \"#utility.yul\":12822:12824   */\n      0x20\n        /* \"#utility.yul\":12817:12819   */\n      0x1f\n        /* \"#utility.yul\":12810:12815   */\n      dup4\n        /* \"#utility.yul\":12806:12820   */\n      add\n        /* \"#utility.yul\":12802:12825   */\n      div\n        /* \"#utility.yul\":12792:12825   */\n      swap1\n      pop\n        /* \"#utility.yul\":12738:12831   */\n      swap2\n      swap1\n      pop\n      jump\t// out\n        /* \"#utility.yul\":12837:12944   */\n    tag_107:\n        /* \"#utility.yul\":12881:12889   */\n      0x00\n        /* \"#utility.yul\":12931:12936   */\n      dup3\n        /* \"#utility.yul\":12925:12929   */\n      dup3\n        /* \"#utility.yul\":12921:12937   */\n      shl\n        /* \"#utility.yul\":12900:12937   */\n      swap1\n      pop\n        /* \"#utility.yul\":12837:12944   */\n      swap3\n      swap2\n      pop\n      pop\n      jump\t// out\n        /* \"#utility.yul\":12950:13343   */\n    tag_108:\n        /* \"#utility.yul\":13019:13025   */\n      0x00\n        /* \"#utility.yul\":13069:13070   */\n      0x08\n        /* \"#utility.yul\":13057:13067   */\n      dup4\n        /* \"#utility.yul\":13053:13071   */\n      mul\n        /* \"#utility.yul\":13092:13189   */\n      tag_279\n        /* \"#utility.yul\":13122:13188   */\n      0xffffffffffffffffffffffffffffffffffffffffffffffffffffffffffffffff\n        /* \"#utility.yul\":13111:13120   */\n      dup3\n        /* \"#utility.yul\":13092:13189   */\n      tag_107\n      jump\t// in\n    tag_279:\n        /* \"#utility.yul\":13210:13249   */\n      tag_280\n        /* \"#utility.yul\":13240:13248   */\n      dup7\n        /* \"#utility.yul\":13229:13238   */\n      dup4\n        /* \"#utility.yul\":13210:13249   */\n      tag_107\n      jump\t// in\n    tag_280:\n        /* \"#utility.yul\":13198:13249   */\n      swap6\n      pop\n        /* \"#utility.yul\":13282:13286   */\n      dup1\n        /* \"#utility.yul\":13278:13287   */\n      not\n        /* \"#utility.yul\":13271:13276   */\n      dup5\n        /* \"#utility.yul\":13267:13288   */\n      and\n        /* \"#utility.yul\":13258:13288   */\n      swap4\n      pop\n        /* \"#utility.yul\":13331:13335   */\n      dup1\n        /* \"#utility.yul\":13321:13329   */\n      dup7\n        /* \"#utility.yul\":13317:13336   */\n      and\n        /* \"#utility.yul\":13310:13315   */\n      dup5\n        /* \"#utility.yul\":13307:13337   */\n      or\n        /* \"#utility.yul\":13297:13337   */\n      swap3\n      pop\n        /* \"#utility.yul\":13026:13343   */\n      pop\n      pop\n        /* \"#utility.yul\":12950:13343   */\n      swap4\n      swap3\n      pop\n      pop\n      pop\n      jump\t// out\n        /* \"#utility.yul\":13349:13409   */\n    tag_109:\n        /* \"#utility.yul\":13377:13380   */\n      0x00\n        /* \"#utility.yul\":13398:13403   */\n      dup2\n        /* \"#utility.yul\":13391:13403   */\n      swap1\n      pop\n        /* \"#utility.yul\":13349:13409   */\n      swap2\n      swap1\n      pop\n      jump\t// out\n        /* \"#utility.yul\":13415:13557   */\n    tag_110:\n        /* \"#utility.yul\":13465:13474   */\n      0x00\n        /* \"#utility.yul\":13498:13551   */\n      tag_283\n        /* \"#utility.yul\":13516:13550   */\n      tag_284\n        /* \"#utility.yul\":13525:13549   */\n      tag_285\n        /* \"#utility.yul\":13543:13548   */\n      dup5\n        /* \"#utility.yul\":13525:13549   */\n      tag_66\n      jump\t// in\n    tag_285:\n        /* \"#utility.yul\":13516:13550   */\n      tag_109\n      jump\t// in\n    tag_284:\n        /* \"#utility.yul\":13498:13551   */\n      tag_66\n      jump\t// in\n    tag_283:\n        /* \"#utility.yul\":13485:13551   */\n      swap1\n      pop\n        /* \"#utility.yul\":13415:13557   */\n      swap2\n      swap1\n      pop\n      jump\t// out\n        /* \"#utility.yul\":13563:13638   */\n    tag_111:\n        /* \"#utility.yul\":13606:13609   */\n      0x00\n        /* \"#utility.yul\":13627:13632   */\n      dup2\n        /* \"#utility.yul\":13620:13632   */\n      swap1\n      pop\n        /* \"#utility.yul\":13563:13638   */\n      swap2\n      swap1\n      pop\n      jump\t// out\n        /* \"#utility.yul\":13644:13913   */\n    tag_112:\n        /* \"#utility.yul\":13754:13793   */\n      tag_288\n        /* \"#utility.yul\":13785:13792   */\n      dup4\n        /* \"#utility.yul\":13754:13793   */\n      tag_110\n      jump\t// in\n    tag_288:\n        /* \"#utility.yul\":13815:13906   */\n      tag_289\n        /* \"#utility.yul\":13864:13905   */\n      tag_290\n        /* \"#utility.yul\":13888:13904   */\n      dup3\n        /* \"#utility.yul\":13864:13905   */\n      tag_111\n      jump\t// in\n    tag_290:\n        /* \"#utility.yul\":13856:13862   */\n      dup5\n        /* \"#utility.yul\":13849:13853   */\n      dup5\n        /* \"#utility.yul\":13843:13854   */\n      sload\n        /* \"#utility.yul\":13815:13906   */\n      tag_108\n      jump\t// in\n    tag_289:\n        /* \"#utility.yul\":13809:13813   */\n      dup3\n        /* \"#utility.yul\":13802:13907   */\n      sstore\n        /* \"#utility.yul\":13720:13913   */\n      pop\n        /* \"#utility.yul\":13644:13913   */\n      pop\n      pop\n      pop\n      jump\t// out\n        /* \"#utility.yul\":13919:13992   */\n    tag_113:\n        /* \"#utility.yul\":13964:13967   */\n      0x00\n        /* \"#utility.yul\":13919:13992   */\n      swap1\n      jump\t// out\n        /* \"#utility.yul\":13998:14187   */\n    tag_114:\n        /* \"#utility.yul\":14075:14107   */\n      tag_293\n      tag_113\n      jump\t// in\n    tag_293:\n        /* \"#utility.yul\":14116:14181   */\n      tag_294\n        /* \"#utility.yul\":14174:14180   */\n      dup2\n        /* \"#utility.yul\":14166:14172   */\n      dup5\n        /* \"#utility.yul\":14160:14164   */\n      dup5\n        /* \"#utility.yul\":14116:14181   */\n      tag_112\n      jump\t// in\n    tag_294:\n        /* \"#utility.yul\":14051:14187   */\n      pop\n        /* \"#utility.yul\":13998:14187   */\n      pop\n      pop\n      jump\t// out\n        /* \"#utility.yul\":14193:14379   */\n    tag_115:\n        /* \"#utility.yul\":14253:14373   */\n    tag_296:\n        /* \"#utility.yul\":14270:14273   */\n      dup2\n        /* \"#utility.yul\":14263:14268   */\n      dup2\n        /* \"#utility.yul\":14260:14274   */\n      lt\n        /* \"#utility.yul\":14253:14373   */\n      iszero\n      tag_298\n      jumpi\n        /* \"#utility.yul\":14324:14363   */\n      tag_299\n        /* \"#utility.yul\":14361:14362   */\n      0x00\n        /* \"#utility.yul\":14354:14359   */\n      dup3\n        /* \"#utility.yul\":14324:14363   */\n      tag_114\n      jump\t// in\n    tag_299:\n        /* \"#utility.yul\":14297:14298   */\n      0x01\n        /* \"#utility.yul\":14290:14295   */\n      dup2\n        /* \"#utility.yul\":14286:14299   */\n      add\n        /* \"#utility.yul\":14277:14299   */\n      swap1\n      pop\n        /* \"#utility.yul\":14253:14373   */\n      jump(tag_296)\n    tag_298:\n        /* \"#utility.yul\":14193:14379   */\n      pop\n      pop\n      jump\t// out\n        /* \"#utility.yul\":14385:14926   */\n    tag_116:\n        /* \"#utility.yul\":14485:14487   */\n      0x1f\n        /* \"#utility.yul\":14480:14483   */\n      dup3\n        /* \"#utility.yul\":14477:14488   */\n      gt\n        /* \"#utility.yul\":14474:14919   */\n      iszero\n      tag_301\n      jumpi\n        /* \"#utility.yul\":14519:14556   */\n      tag_302\n        /* \"#utility.yul\":14550:14555   */\n      dup2\n        /* \"#utility.yul\":14519:14556   */\n      tag_105\n      jump\t// in\n    tag_302:\n        /* \"#utility.yul\":14602:14631   */\n      tag_303\n        /* \"#utility.yul\":14620:14630   */\n      dup5\n        /* \"#utility.yul\":14602:14631   */\n      tag_106\n      jump\t// in\n    tag_303:\n        /* \"#utility.yul\":14592:14600   */\n      dup2\n        /* \"#utility.yul\":14588:14632   */\n      add\n        /* \"#utility.yul\":14785:14787   */\n      0x20\n        /* \"#utility.yul\":14773:14783   */\n      dup6\n        /* \"#utility.yul\":14770:14788   */\n      lt\n        /* \"#utility.yul\":14767:14816   */\n      iszero\n      tag_304\n      jumpi\n        /* \"#utility.yul\":14806:14814   */\n      dup2\n        /* \"#utility.yul\":14791:14814   */\n      swap1\n      pop\n        /* \"#utility.yul\":14767:14816   */\n    tag_304:\n        /* \"#utility.yul\":14829:14909   */\n      tag_305\n        /* \"#utility.yul\":14885:14907   */\n      tag_306\n        /* \"#utility.yul\":14903:14906   */\n      dup6\n        /* \"#utility.yul\":14885:14907   */\n      tag_106\n      jump\t// in\n    tag_306:\n        /* \"#utility.yul\":14875:14883   */\n      dup4\n        /* \"#utility.yul\":14871:14908   */\n      add\n        /* \"#utility.yul\":14858:14869   */\n      dup3\n        /* \"#utility.yul\":14829:14909   */\n      tag_115\n      jump\t// in\n    tag_305:\n        /* \"#utility.yul\":14489:14919   */\n      pop\n      pop\n        /* \"#utility.yul\":14474:14919   */\n    tag_301:\n        /* \"#utility.yul\":14385:14926   */\n      pop\n      pop\n      pop\n      jump\t// out\n        /* \"#utility.yul\":14932:15049   */\n    tag_117:\n        /* \"#utility.yul\":14986:14994   */\n      0x00\n        /* \"#utility.yul\":15036:15041   */\n      dup3\n        /* \"#utility.yul\":15030:15034   */\n      dup3\n        /* \"#utility.yul\":15026:15042   */\n      shr\n        /* \"#utility.yul\":15005:15042   */\n      swap1\n      pop\n        /* \"#utility.yul\":14932:15049   */\n      swap3\n      swap2\n      pop\n      pop\n      jump\t// out\n        /* \"#utility.yul\":15055:15224   */\n    tag_118:\n        /* \"#utility.yul\":15099:15105   */\n      0x00\n        /* \"#utility.yul\":15132:15183   */\n      tag_309\n        /* \"#utility.yul\":15180:15181   */\n      0x00\n        /* \"#utility.yul\":15176:15182   */\n      not\n        /* \"#utility.yul\":15168:15173   */\n      dup5\n        /* \"#utility.yul\":15165:15166   */\n      0x08\n        /* \"#utility.yul\":15161:15174   */\n      mul\n        /* \"#utility.yul\":15132:15183   */\n      tag_117\n      jump\t// in\n    tag_309:\n        /* \"#utility.yul\":15128:15184   */\n      not\n        /* \"#utility.yul\":15213:15217   */\n      dup1\n        /* \"#utility.yul\":15207:15211   */\n      dup4\n        /* \"#utility.yul\":15203:15218   */\n      and\n        /* \"#utility.yul\":15193:15218   */\n      swap2\n      pop\n        /* \"#utility.yul\":15106:15224   */\n      pop\n        /* \"#utility.yul\":15055:15224   */\n      swap3\n      swap2\n      pop\n      pop\n      jump\t// out\n        /* \"#utility.yul\":15229:15524   */\n    tag_119:\n        /* \"#utility.yul\":15305:15309   */\n      0x00\n        /* \"#utility.yul\":15451:15480   */\n      tag_311\n        /* \"#utility.yul\":15476:15479   */\n      dup4\n        /* \"#utility.yul\":15470:15474   */\n      dup4\n        /* \"#utility.yul\":15451:15480   */\n      tag_118\n      jump\t// in\n    tag_311:\n        /* \"#utility.yul\":15443:15480   */\n      swap2\n      pop\n        /* \"#utility.yul\":15513:15516   */\n      dup3\n        /* \"#utility.yul\":15510:15511   */\n      0x02\n        /* \"#utility.yul\":15506:15517   */\n      mul\n        /* \"#utility.yul\":15500:15504   */\n      dup3\n        /* \"#utility.yul\":15497:15518   */\n      or\n        /* \"#utility.yul\":15489:15518   */\n      swap1\n      pop\n        /* \"#utility.yul\":15229:15524   */\n      swap3\n      swap2\n      pop\n      pop\n      jump\t// out\n        /* \"#utility.yul\":15529:16919   */\n    tag_42:\n        /* \"#utility.yul\":15644:15680   */\n      tag_313\n        /* \"#utility.yul\":15676:15679   */\n      dup3\n        /* \"#utility.yul\":15644:15680   */\n      tag_61\n      jump\t// in\n    tag_313:\n        /* \"#utility.yul\":15745:15763   */\n      0xffffffffffffffff\n        /* \"#utility.yul\":15737:15743   */\n      dup2\n        /* \"#utility.yul\":15734:15764   */\n      gt\n        /* \"#utility.yul\":15731:15787   */\n      iszero\n      tag_314\n      jumpi\n        /* \"#utility.yul\":15767:15785   */\n      tag_315\n      tag_104\n      jump\t// in\n    tag_315:\n        /* \"#utility.yul\":15731:15787   */\n    tag_314:\n        /* \"#utility.yul\":15811:15849   */\n      tag_316\n        /* \"#utility.yul\":15843:15847   */\n      dup3\n        /* \"#utility.yul\":15837:15848   */\n      sload\n        /* \"#utility.yul\":15811:15849   */\n      tag_33\n      jump\t// in\n    tag_316:\n        /* \"#utility.yul\":15896:15962   */\n      tag_317\n        /* \"#utility.yul\":15955:15961   */\n      dup3\n        /* \"#utility.yul\":15947:15953   */\n      dup3\n        /* \"#utility.yul\":15941:15945   */\n      dup6\n        /* \"#utility.yul\":15896:15962   */\n      tag_116\n      jump\t// in\n    tag_317:\n        /* \"#utility.yul\":15989:15990   */\n      0x00\n        /* \"#utility.yul\":16013:16017   */\n      0x20\n        /* \"#utility.yul\":16000:16017   */\n      swap1\n      pop\n        /* \"#utility.yul\":16045:16047   */\n      0x1f\n        /* \"#utility.yul\":16037:16043   */\n      dup4\n        /* \"#utility.yul\":16034:16048   */\n      gt\n        /* \"#utility.yul\":16062:16063   */\n      0x01\n        /* \"#utility.yul\":16057:16674   */\n      dup2\n      eq\n      tag_319\n      jumpi\n        /* \"#utility.yul\":16718:16719   */\n      0x00\n        /* \"#utility.yul\":16735:16741   */\n      dup5\n        /* \"#utility.yul\":16732:16809   */\n      iszero\n      tag_320\n      jumpi\n        /* \"#utility.yul\":16784:16793   */\n      dup3\n        /* \"#utility.yul\":16779:16782   */\n      dup8\n        /* \"#utility.yul\":16775:16794   */\n      add\n        /* \"#utility.yul\":16769:16795   */\n      mload\n        /* \"#utility.yul\":16760:16795   */\n      swap1\n      pop\n        /* \"#utility.yul\":16732:16809   */\n    tag_320:\n        /* \"#utility.yul\":16835:16902   */\n      tag_321\n        /* \"#utility.yul\":16895:16901   */\n      dup6\n        /* \"#utility.yul\":16888:16893   */\n      dup3\n        /* \"#utility.yul\":16835:16902   */\n      tag_119\n      jump\t// in\n    tag_321:\n        /* \"#utility.yul\":16829:16833   */\n      dup7\n        /* \"#utility.yul\":16822:16903   */\n      sstore\n        /* \"#utility.yul\":16691:16913   */\n      pop\n        /* \"#utility.yul\":16027:16913   */\n      jump(tag_318)\n        /* \"#utility.yul\":16057:16674   */\n    tag_319:\n        /* \"#utility.yul\":16109:16113   */\n      0x1f\n        /* \"#utility.yul\":16105:16114   */\n      not\n        /* \"#utility.yul\":16097:16103   */\n      dup5\n        /* \"#utility.yul\":16093:16115   */\n      and\n        /* \"#utility.yul\":16143:16179   */\n      tag_322\n        /* \"#utility.yul\":16174:16178   */\n      dup7\n        /* \"#utility.yul\":16143:16179   */\n      tag_105\n      jump\t// in\n    tag_322:\n        /* \"#utility.yul\":16201:16202   */\n      0x00\n        /* \"#utility.yul\":16215:16423   */\n    tag_323:\n        /* \"#utility.yul\":16229:16236   */\n      dup3\n        /* \"#utility.yul\":16226:16227   */\n      dup2\n        /* \"#utility.yul\":16223:16237   */\n      lt\n        /* \"#utility.yul\":16215:16423   */\n      iszero\n      tag_325\n      jumpi\n        /* \"#utility.yul\":16308:16317   */\n      dup5\n        /* \"#utility.yul\":16303:16306   */\n      dup10\n        /* \"#utility.yul\":16299:16318   */\n      add\n        /* \"#utility.yul\":16293:16319   */\n      mload\n        /* \"#utility.yul\":16285:16291   */\n      dup3\n        /* \"#utility.yul\":16278:16320   */\n      sstore\n        /* \"#utility.yul\":16359:16360   */\n      0x01\n        /* \"#utility.yul\":16351:16357   */\n      dup3\n        /* \"#utility.yul\":16347:16361   */\n      add\n        /* \"#utility.yul\":16337:16361   */\n      swap2\n      pop\n        /* \"#utility.yul\":16406:16408   */\n      0x20\n        /* \"#utility.yul\":16395:16404   */\n      dup6\n        /* \"#utility.yul\":16391:16409   */\n      add\n        /* \"#utility.yul\":16378:16409   */\n      swap5\n      pop\n        /* \"#utility.yul\":16252:16256   */\n      0x20\n        /* \"#utility.yul\":16249:16250   */\n      dup2\n        /* \"#utility.yul\":16245:16257   */\n      add\n        /* \"#utility.yul\":16240:16257   */\n      swap1\n      pop\n        /* \"#utility.yul\":16215:16423   */\n      jump(tag_323)\n    tag_325:\n        /* \"#utility.yul\":16451:16457   */\n      dup7\n        /* \"#utility.yul\":16442:16449   */\n      dup4\n        /* \"#utility.yul\":16439:16458   */\n      lt\n        /* \"#utility.yul\":16436:16615   */\n      iszero\n      tag_326\n      jumpi\n        /* \"#utility.yul\":16509:16518   */\n      dup5\n        /* \"#utility.yul\":16504:16507   */\n      dup10\n        /* \"#utility.yul\":16500:16519   */\n      add\n        /* \"#utility.yul\":16494:16520   */\n      mload\n        /* \"#utility.yul\":16552:16600   */\n      tag_327\n        /* \"#utility.yul\":16594:16598   */\n      0x1f\n        /* \"#utility.yul\":16586:16592   */\n      dup10\n        /* \"#utility.yul\":16582:16599   */\n      and\n        /* \"#utility.yul\":16571:16580   */\n      dup3\n        /* \"#utility.yul\":16552:16600   */\n      tag_118\n      jump\t// in\n    tag_327:\n        /* \"#utility.yul\":16544:16550   */\n      dup4\n        /* \"#utility.yul\":16537:16601   */\n      sstore\n        /* \"#utility.yul\":16459:16615   */\n      pop\n        /* \"#utility.yul\":16436:16615   */\n    tag_326:\n        /* \"#utility.yul\":16661:16662   */\n      0x01\n        /* \"#utility.yul\":16657:16658   */\n      0x02\n        /* \"#utility.yul\":16649:16655   */\n      dup9\n        /* \"#utility.yul\":16645:16659   */\n      mul\n        /* \"#utility.yul\":16641:16663   */\n      add\n        /* \"#utility.yul\":16635:16639   */\n      dup9\n        /* \"#utility.yul\":16628:16664   */\n      sstore\n        /* \"#utility.yul\":16064:16674   */\n      pop\n      pop\n      pop\n        /* \"#utility.yul\":16027:16913   */\n    tag_318:\n      pop\n        /* \"#utility.yul\":15619:16919   */\n      pop\n      pop\n      pop\n        /* \"#utility.yul\":15529:16919   */\n      pop\n      pop\n      jump\t// out\n        /* \"#utility.yul\":16925:17139   */\n    tag_120:\n        /* \"#utility.yul\":17065:17131   */\n      0x656e636f64654461746120e4b88de883bde4b8bae7a9ba000000000000000000\n        /* \"#utility.yul\":17061:17062   */\n      0x00\n        /* \"#utility.yul\":17053:17059   */\n      dup3\n        /* \"#utility.yul\":17049:17063   */\n      add\n        /* \"#utility.yul\":17042:17132   */\n      mstore\n        /* \"#utility.yul\":16925:17139   */\n      pop\n      jump\t// out\n        /* \"#utility.yul\":17145:17511   */\n    tag_121:\n        /* \"#utility.yul\":17287:17290   */\n      0x00\n        /* \"#utility.yul\":17308:17375   */\n      tag_330\n        /* \"#utility.yul\":17372:17374   */\n      0x17\n        /* \"#utility.yul\":17367:17370   */\n      dup4\n        /* \"#utility.yul\":17308:17375   */\n      tag_72\n      jump\t// in\n    tag_330:\n        /* \"#utility.yul\":17301:17375   */\n      swap2\n      pop\n        /* \"#utility.yul\":17384:17477   */\n      tag_331\n        /* \"#utility.yul\":17473:17476   */\n      dup3\n        /* \"#utility.yul\":17384:17477   */\n      tag_120\n      jump\t// in\n    tag_331:\n        /* \"#utility.yul\":17502:17504   */\n      0x20\n        /* \"#utility.yul\":17497:17500   */\n      dup3\n        /* \"#utility.yul\":17493:17505   */\n      add\n        /* \"#utility.yul\":17486:17505   */\n      swap1\n      pop\n        /* \"#utility.yul\":17145:17511   */\n      swap2\n      swap1\n      pop\n      jump\t// out\n        /* \"#utility.yul\":17517:17936   */\n    tag_49:\n        /* \"#utility.yul\":17683:17687   */\n      0x00\n        /* \"#utility.yul\":17721:17723   */\n      0x20\n        /* \"#utility.yul\":17710:17719   */\n      dup3\n        /* \"#utility.yul\":17706:17724   */\n      add\n        /* \"#utility.yul\":17698:17724   */\n      swap1\n      pop\n        /* \"#utility.yul\":17770:17779   */\n      dup2\n        /* \"#utility.yul\":17764:17768   */\n      dup2\n        /* \"#utility.yul\":17760:17780   */\n      sub\n        /* \"#utility.yul\":17756:17757   */\n      0x00\n        /* \"#utility.yul\":17745:17754   */\n      dup4\n        /* \"#utility.yul\":17741:17758   */\n      add\n        /* \"#utility.yul\":17734:17781   */\n      mstore\n        /* \"#utility.yul\":17798:17929   */\n      tag_333\n        /* \"#utility.yul\":17924:17928   */\n      dup2\n        /* \"#utility.yul\":17798:17929   */\n      tag_121\n      jump\t// in\n    tag_333:\n        /* \"#utility.yul\":17790:17929   */\n      swap1\n      pop\n        /* \"#utility.yul\":17517:17936   */\n      swap2\n      swap1\n      pop\n      jump\t// out\n        /* \"#utility.yul\":17942:18017   */\n    tag_122:\n        /* \"#utility.yul\":17975:17981   */\n      0x00\n        /* \"#utility.yul\":18008:18010   */\n      0x40\n        /* \"#utility.yul\":18002:18011   */\n      mload\n        /* \"#utility.yul\":17992:18011   */\n      swap1\n      pop\n        /* \"#utility.yul\":17942:18017   */\n      swap1\n      jump\t// out\n        /* \"#utility.yul\":18023:18140   */\n    tag_123:\n        /* \"#utility.yul\":18132:18133   */\n      0x00\n        /* \"#utility.yul\":18129:18130   */\n      dup1\n        /* \"#utility.yul\":18122:18134   */\n      revert\n        /* \"#utility.yul\":18146:18263   */\n    tag_124:\n        /* \"#utility.yul\":18255:18256   */\n      0x00\n        /* \"#utility.yul\":18252:18253   */\n      dup1\n        /* \"#utility.yul\":18245:18257   */\n      revert\n        /* \"#utility.yul\":18269:18391   */\n    tag_125:\n        /* \"#utility.yul\":18342:18366   */\n      tag_338\n        /* \"#utility.yul\":18360:18365   */\n      dup2\n        /* \"#utility.yul\":18342:18366   */\n      tag_66\n      jump\t// in\n    tag_338:\n        /* \"#utility.yul\":18335:18340   */\n      dup2\n        /* \"#utility.yul\":18332:18367   */\n      eq\n        /* \"#utility.yul\":18322:18385   */\n      tag_339\n      jumpi\n        /* \"#utility.yul\":18381:18382   */\n      0x00\n        /* \"#utility.yul\":18378:18379   */\n      dup1\n        /* \"#utility.yul\":18371:18383   */\n      revert\n        /* \"#utility.yul\":18322:18385   */\n    tag_339:\n        /* \"#utility.yul\":18269:18391   */\n      pop\n      jump\t// out\n        /* \"#utility.yul\":18397:18540   */\n    tag_126:\n        /* \"#utility.yul\":18454:18459   */\n      0x00\n        /* \"#utility.yul\":18485:18491   */\n      dup2\n        /* \"#utility.yul\":18479:18492   */\n      mload\n        /* \"#utility.yul\":18470:18492   */\n      swap1\n      pop\n        /* \"#utility.yul\":18501:18534   */\n      tag_341\n        /* \"#utility.yul\":18528:18533   */\n      dup2\n        /* \"#utility.yul\":18501:18534   */\n      tag_125\n      jump\t// in\n    tag_341:\n        /* \"#utility.yul\":18397:18540   */\n      swap3\n      swap2\n      pop\n      pop\n      jump\t// out\n        /* \"#utility.yul\":18546:18650   */\n    tag_127:\n        /* \"#utility.yul\":18591:18598   */\n      0x00\n        /* \"#utility.yul\":18620:18644   */\n      tag_343\n        /* \"#utility.yul\":18638:18643   */\n      dup3\n        /* \"#utility.yul\":18620:18644   */\n      tag_68\n      jump\t// in\n    tag_343:\n        /* \"#utility.yul\":18609:18644   */\n      swap1\n      pop\n        /* \"#utility.yul\":18546:18650   */\n      swap2\n      swap1\n      pop\n      jump\t// out\n        /* \"#utility.yul\":18656:18794   */\n    tag_128:\n        /* \"#utility.yul\":18737:18769   */\n      tag_345\n        /* \"#utility.yul\":18763:18768   */\n      dup2\n        /* \"#utility.yul\":18737:18769   */\n      tag_127\n      jump\t// in\n    tag_345:\n        /* \"#utility.yul\":18730:18735   */\n      dup2\n        /* \"#utility.yul\":18727:18770   */\n      eq\n        /* \"#utility.yul\":18717:18788   */\n      tag_346\n      jumpi\n        /* \"#utility.yul\":18784:18785   */\n      0x00\n        /* \"#utility.yul\":18781:18782   */\n      dup1\n        /* \"#utility.yul\":18774:18786   */\n      revert\n        /* \"#utility.yul\":18717:18788   */\n    tag_346:\n        /* \"#utility.yul\":18656:18794   */\n      pop\n      jump\t// out\n        /* \"#utility.yul\":18800:18959   */\n    tag_129:\n        /* \"#utility.yul\":18865:18870   */\n      0x00\n        /* \"#utility.yul\":18896:18902   */\n      dup2\n        /* \"#utility.yul\":18890:18903   */\n      mload\n        /* \"#utility.yul\":18881:18903   */\n      swap1\n      pop\n        /* \"#utility.yul\":18912:18953   */\n      tag_348\n        /* \"#utility.yul\":18947:18952   */\n      dup2\n        /* \"#utility.yul\":18912:18953   */\n      tag_128\n      jump\t// in\n    tag_348:\n        /* \"#utility.yul\":18800:18959   */\n      swap3\n      swap2\n      pop\n      pop\n      jump\t// out\n        /* \"#utility.yul\":18965:19082   */\n    tag_130:\n        /* \"#utility.yul\":19074:19075   */\n      0x00\n        /* \"#utility.yul\":19071:19072   */\n      dup1\n        /* \"#utility.yul\":19064:19076   */\n      revert\n        /* \"#utility.yul\":19088:19205   */\n    tag_131:\n        /* \"#utility.yul\":19197:19198   */\n      0x00\n        /* \"#utility.yul\":19194:19195   */\n      dup1\n        /* \"#utility.yul\":19187:19199   */\n      revert\n        /* \"#utility.yul\":19211:19492   */\n    tag_132:\n        /* \"#utility.yul\":19294:19321   */\n      tag_352\n        /* \"#utility.yul\":19316:19320   */\n      dup3\n        /* \"#utility.yul\":19294:19321   */\n      tag_64\n      jump\t// in\n    tag_352:\n        /* \"#utility.yul\":19286:19292   */\n      dup2\n        /* \"#utility.yul\":19282:19322   */\n      add\n        /* \"#utility.yul\":19424:19430   */\n      dup2\n        /* \"#utility.yul\":19412:19422   */\n      dup2\n        /* \"#utility.yul\":19409:19431   */\n      lt\n        /* \"#utility.yul\":19388:19406   */\n      0xffffffffffffffff\n        /* \"#utility.yul\":19376:19386   */\n      dup3\n        /* \"#utility.yul\":19373:19407   */\n      gt\n        /* \"#utility.yul\":19370:19432   */\n      or\n        /* \"#utility.yul\":19367:19455   */\n      iszero\n      tag_353\n      jumpi\n        /* \"#utility.yul\":19435:19453   */\n      tag_354\n      tag_104\n      jump\t// in\n    tag_354:\n        /* \"#utility.yul\":19367:19455   */\n    tag_353:\n        /* \"#utility.yul\":19475:19485   */\n      dup1\n        /* \"#utility.yul\":19471:19473   */\n      0x40\n        /* \"#utility.yul\":19464:19486   */\n      mstore\n        /* \"#utility.yul\":19254:19492   */\n      pop\n        /* \"#utility.yul\":19211:19492   */\n      pop\n      pop\n      jump\t// out\n        /* \"#utility.yul\":19498:19627   */\n    tag_133:\n        /* \"#utility.yul\":19532:19538   */\n      0x00\n        /* \"#utility.yul\":19559:19579   */\n      tag_356\n      tag_122\n      jump\t// in\n    tag_356:\n        /* \"#utility.yul\":19549:19579   */\n      swap1\n      pop\n        /* \"#utility.yul\":19588:19621   */\n      tag_357\n        /* \"#utility.yul\":19616:19620   */\n      dup3\n        /* \"#utility.yul\":19608:19614   */\n      dup3\n        /* \"#utility.yul\":19588:19621   */\n      tag_132\n      jump\t// in\n    tag_357:\n        /* \"#utility.yul\":19498:19627   */\n      swap2\n      swap1\n      pop\n      jump\t// out\n        /* \"#utility.yul\":19633:19941   */\n    tag_134:\n        /* \"#utility.yul\":19695:19699   */\n      0x00\n        /* \"#utility.yul\":19785:19803   */\n      0xffffffffffffffff\n        /* \"#utility.yul\":19777:19783   */\n      dup3\n        /* \"#utility.yul\":19774:19804   */\n      gt\n        /* \"#utility.yul\":19771:19827   */\n      iszero\n      tag_359\n      jumpi\n        /* \"#utility.yul\":19807:19825   */\n      tag_360\n      tag_104\n      jump\t// in\n    tag_360:\n        /* \"#utility.yul\":19771:19827   */\n    tag_359:\n        /* \"#utility.yul\":19845:19874   */\n      tag_361\n        /* \"#utility.yul\":19867:19873   */\n      dup3\n        /* \"#utility.yul\":19845:19874   */\n      tag_64\n      jump\t// in\n    tag_361:\n        /* \"#utility.yul\":19837:19874   */\n      swap1\n      pop\n        /* \"#utility.yul\":19929:19933   */\n      0x20\n        /* \"#utility.yul\":19923:19927   */\n      dup2\n        /* \"#utility.yul\":19919:19934   */\n      add\n        /* \"#utility.yul\":19911:19934   */\n      swap1\n      pop\n        /* \"#utility.yul\":19633:19941   */\n      swap2\n      swap1\n      pop\n      jump\t// out\n        /* \"#utility.yul\":19947:20381   */\n    tag_135:\n        /* \"#utility.yul\":20036:20041   */\n      0x00\n        /* \"#utility.yul\":20061:20127   */\n      tag_363\n        /* \"#utility.yul\":20077:20126   */\n      tag_364\n        /* \"#utility.yul\":20119:20125   */\n      dup5\n        /* \"#utility.yul\":20077:20126   */\n      tag_134\n      jump\t// in\n    tag_364:\n        /* \"#utility.yul\":20061:20127   */\n      tag_133\n      jump\t// in\n    tag_363:\n        /* \"#utility.yul\":20052:20127   */\n      swap1\n      pop\n        /* \"#utility.yul\":20150:20156   */\n      dup3\n        /* \"#utility.yul\":20143:20148   */\n      dup2\n        /* \"#utility.yul\":20136:20157   */\n      mstore\n        /* \"#utility.yul\":20188:20192   */\n      0x20\n        /* \"#utility.yul\":20181:20186   */\n      dup2\n        /* \"#utility.yul\":20177:20193   */\n      add\n        /* \"#utility.yul\":20226:20229   */\n      dup5\n        /* \"#utility.yul\":20217:20223   */\n      dup5\n        /* \"#utility.yul\":20212:20215   */\n      dup5\n        /* \"#utility.yul\":20208:20224   */\n      add\n        /* \"#utility.yul\":20205:20230   */\n      gt\n        /* \"#utility.yul\":20202:20314   */\n      iszero\n      tag_365\n      jumpi\n        /* \"#utility.yul\":20233:20312   */\n      tag_366\n      tag_131\n      jump\t// in\n    tag_366:\n        /* \"#utility.yul\":20202:20314   */\n    tag_365:\n        /* \"#utility.yul\":20323:20375   */\n      tag_367\n        /* \"#utility.yul\":20368:20374   */\n      dup5\n        /* \"#utility.yul\":20363:20366   */\n      dup3\n        /* \"#utility.yul\":20358:20361   */\n      dup6\n        /* \"#utility.yul\":20323:20375   */\n      tag_63\n      jump\t// in\n    tag_367:\n        /* \"#utility.yul\":20042:20381   */\n      pop\n        /* \"#utility.yul\":19947:20381   */\n      swap4\n      swap3\n      pop\n      pop\n      pop\n      jump\t// out\n        /* \"#utility.yul\":20401:20756   */\n    tag_136:\n        /* \"#utility.yul\":20468:20473   */\n      0x00\n        /* \"#utility.yul\":20517:20520   */\n      dup3\n        /* \"#utility.yul\":20510:20514   */\n      0x1f\n        /* \"#utility.yul\":20502:20508   */\n      dup4\n        /* \"#utility.yul\":20498:20515   */\n      add\n        /* \"#utility.yul\":20494:20521   */\n      slt\n        /* \"#utility.yul\":20484:20606   */\n      tag_369\n      jumpi\n        /* \"#utility.yul\":20525:20604   */\n      tag_370\n      tag_130\n      jump\t// in\n    tag_370:\n        /* \"#utility.yul\":20484:20606   */\n    tag_369:\n        /* \"#utility.yul\":20635:20641   */\n      dup2\n        /* \"#utility.yul\":20629:20642   */\n      mload\n        /* \"#utility.yul\":20660:20750   */\n      tag_371\n        /* \"#utility.yul\":20746:20749   */\n      dup5\n        /* \"#utility.yul\":20738:20744   */\n      dup3\n        /* \"#utility.yul\":20731:20735   */\n      0x20\n        /* \"#utility.yul\":20723:20729   */\n      dup7\n        /* \"#utility.yul\":20719:20736   */\n      add\n        /* \"#utility.yul\":20660:20750   */\n      tag_135\n      jump\t// in\n    tag_371:\n        /* \"#utility.yul\":20651:20750   */\n      swap2\n      pop\n        /* \"#utility.yul\":20474:20756   */\n      pop\n        /* \"#utility.yul\":20401:20756   */\n      swap3\n      swap2\n      pop\n      pop\n      jump\t// out\n        /* \"#utility.yul\":20762:21011   */\n    tag_137:\n        /* \"#utility.yul\":20837:20841   */\n      0x00\n        /* \"#utility.yul\":20927:20945   */\n      0xffffffffffffffff\n        /* \"#utility.yul\":20919:20925   */\n      dup3\n        /* \"#utility.yul\":20916:20946   */\n      gt\n        /* \"#utility.yul\":20913:20969   */\n      iszero\n      tag_373\n      jumpi\n        /* \"#utility.yul\":20949:20967   */\n      tag_374\n      tag_104\n      jump\t// in\n    tag_374:\n        /* \"#utility.yul\":20913:20969   */\n    tag_373:\n        /* \"#utility.yul\":20999:21003   */\n      0x20\n        /* \"#utility.yul\":20991:20997   */\n      dup3\n        /* \"#utility.yul\":20987:21004   */\n      mul\n        /* \"#utility.yul\":20979:21004   */\n      swap1\n      pop\n        /* \"#utility.yul\":20762:21011   */\n      swap2\n      swap1\n      pop\n      jump\t// out\n        /* \"#utility.yul\":21017:21134   */\n    tag_138:\n        /* \"#utility.yul\":21126:21127   */\n      0x00\n        /* \"#utility.yul\":21123:21124   */\n      dup1\n        /* \"#utility.yul\":21116:21128   */\n      revert\n        /* \"#utility.yul\":21158:21823   */\n    tag_139:\n        /* \"#utility.yul\":21263:21268   */\n      0x00\n        /* \"#utility.yul\":21288:21367   */\n      tag_377\n        /* \"#utility.yul\":21304:21366   */\n      tag_378\n        /* \"#utility.yul\":21359:21365   */\n      dup5\n        /* \"#utility.yul\":21304:21366   */\n      tag_137\n      jump\t// in\n    tag_378:\n        /* \"#utility.yul\":21288:21367   */\n      tag_133\n      jump\t// in\n    tag_377:\n        /* \"#utility.yul\":21279:21367   */\n      swap1\n      pop\n        /* \"#utility.yul\":21387:21392   */\n      dup1\n        /* \"#utility.yul\":21440:21444   */\n      0x20\n        /* \"#utility.yul\":21432:21438   */\n      dup5\n        /* \"#utility.yul\":21428:21445   */\n      mul\n        /* \"#utility.yul\":21420:21426   */\n      dup4\n        /* \"#utility.yul\":21416:21446   */\n      add\n        /* \"#utility.yul\":21469:21472   */\n      dup6\n        /* \"#utility.yul\":21461:21467   */\n      dup2\n        /* \"#utility.yul\":21458:21473   */\n      gt\n        /* \"#utility.yul\":21455:21577   */\n      iszero\n      tag_379\n      jumpi\n        /* \"#utility.yul\":21488:21567   */\n      tag_380\n      tag_138\n      jump\t// in\n    tag_380:\n        /* \"#utility.yul\":21455:21577   */\n    tag_379:\n        /* \"#utility.yul\":21603:21609   */\n      dup4\n        /* \"#utility.yul\":21586:21817   */\n    tag_381:\n        /* \"#utility.yul\":21620:21626   */\n      dup2\n        /* \"#utility.yul\":21615:21618   */\n      dup2\n        /* \"#utility.yul\":21612:21627   */\n      lt\n        /* \"#utility.yul\":21586:21817   */\n      iszero\n      tag_383\n      jumpi\n        /* \"#utility.yul\":21695:21698   */\n      dup1\n        /* \"#utility.yul\":21724:21772   */\n      tag_384\n        /* \"#utility.yul\":21768:21771   */\n      dup9\n        /* \"#utility.yul\":21756:21766   */\n      dup3\n        /* \"#utility.yul\":21724:21772   */\n      tag_126\n      jump\t// in\n    tag_384:\n        /* \"#utility.yul\":21719:21722   */\n      dup5\n        /* \"#utility.yul\":21712:21773   */\n      mstore\n        /* \"#utility.yul\":21802:21806   */\n      0x20\n        /* \"#utility.yul\":21797:21800   */\n      dup5\n        /* \"#utility.yul\":21793:21807   */\n      add\n        /* \"#utility.yul\":21786:21807   */\n      swap4\n      pop\n        /* \"#utility.yul\":21662:21817   */\n      pop\n        /* \"#utility.yul\":21646:21650   */\n      0x20\n        /* \"#utility.yul\":21641:21644   */\n      dup2\n        /* \"#utility.yul\":21637:21651   */\n      add\n        /* \"#utility.yul\":21630:21651   */\n      swap1\n      pop\n        /* \"#utility.yul\":21586:21817   */\n      jump(tag_381)\n    tag_383:\n        /* \"#utility.yul\":21590:21611   */\n      pop\n        /* \"#utility.yul\":21269:21823   */\n      pop\n      pop\n        /* \"#utility.yul\":21158:21823   */\n      swap4\n      swap3\n      pop\n      pop\n      pop\n      jump\t// out\n        /* \"#utility.yul\":21847:22208   */\n    tag_140:\n        /* \"#utility.yul\":21927:21932   */\n      0x00\n        /* \"#utility.yul\":21976:21979   */\n      dup3\n        /* \"#utility.yul\":21969:21973   */\n      0x1f\n        /* \"#utility.yul\":21961:21967   */\n      dup4\n        /* \"#utility.yul\":21957:21974   */\n      add\n        /* \"#utility.yul\":21953:21980   */\n      slt\n        /* \"#utility.yul\":21943:22065   */\n      tag_386\n      jumpi\n        /* \"#utility.yul\":21984:22063   */\n      tag_387\n      tag_130\n      jump\t// in\n    tag_387:\n        /* \"#utility.yul\":21943:22065   */\n    tag_386:\n        /* \"#utility.yul\":22088:22092   */\n      0x02\n        /* \"#utility.yul\":22110:22202   */\n      tag_388\n        /* \"#utility.yul\":22198:22201   */\n      dup5\n        /* \"#utility.yul\":22190:22196   */\n      dup3\n        /* \"#utility.yul\":22182:22188   */\n      dup6\n        /* \"#utility.yul\":22110:22202   */\n      tag_139\n      jump\t// in\n    tag_388:\n        /* \"#utility.yul\":22101:22202   */\n      swap2\n      pop\n        /* \"#utility.yul\":21933:22208   */\n      pop\n        /* \"#utility.yul\":21847:22208   */\n      swap3\n      swap2\n      pop\n      pop\n      jump\t// out\n        /* \"#utility.yul\":22214:23269   */\n    tag_56:\n        /* \"#utility.yul\":22352:22358   */\n      0x00\n        /* \"#utility.yul\":22360:22366   */\n      dup1\n        /* \"#utility.yul\":22368:22374   */\n      0x00\n        /* \"#utility.yul\":22376:22382   */\n      dup1\n        /* \"#utility.yul\":22425:22428   */\n      0xa0\n        /* \"#utility.yul\":22413:22422   */\n      dup6\n        /* \"#utility.yul\":22404:22411   */\n      dup8\n        /* \"#utility.yul\":22400:22423   */\n      sub\n        /* \"#utility.yul\":22396:22429   */\n      slt\n        /* \"#utility.yul\":22393:22513   */\n      iszero\n      tag_390\n      jumpi\n        /* \"#utility.yul\":22432:22511   */\n      tag_391\n      tag_123\n      jump\t// in\n    tag_391:\n        /* \"#utility.yul\":22393:22513   */\n    tag_390:\n        /* \"#utility.yul\":22552:22553   */\n      0x00\n        /* \"#utility.yul\":22577:22641   */\n      tag_392\n        /* \"#utility.yul\":22633:22640   */\n      dup8\n        /* \"#utility.yul\":22624:22630   */\n      dup3\n        /* \"#utility.yul\":22613:22622   */\n      dup9\n        /* \"#utility.yul\":22609:22631   */\n      add\n        /* \"#utility.yul\":22577:22641   */\n      tag_126\n      jump\t// in\n    tag_392:\n        /* \"#utility.yul\":22567:22641   */\n      swap5\n      pop\n        /* \"#utility.yul\":22523:22651   */\n      pop\n        /* \"#utility.yul\":22690:22692   */\n      0x20\n        /* \"#utility.yul\":22716:22788   */\n      tag_393\n        /* \"#utility.yul\":22780:22787   */\n      dup8\n        /* \"#utility.yul\":22771:22777   */\n      dup3\n        /* \"#utility.yul\":22760:22769   */\n      dup9\n        /* \"#utility.yul\":22756:22778   */\n      add\n        /* \"#utility.yul\":22716:22788   */\n      tag_129\n      jump\t// in\n    tag_393:\n        /* \"#utility.yul\":22706:22788   */\n      swap4\n      pop\n        /* \"#utility.yul\":22661:22798   */\n      pop\n        /* \"#utility.yul\":22858:22860   */\n      0x40\n        /* \"#utility.yul\":22847:22856   */\n      dup6\n        /* \"#utility.yul\":22843:22861   */\n      add\n        /* \"#utility.yul\":22837:22862   */\n      mload\n        /* \"#utility.yul\":22889:22907   */\n      0xffffffffffffffff\n        /* \"#utility.yul\":22881:22887   */\n      dup2\n        /* \"#utility.yul\":22878:22908   */\n      gt\n        /* \"#utility.yul\":22875:22992   */\n      iszero\n      tag_394\n      jumpi\n        /* \"#utility.yul\":22911:22990   */\n      tag_395\n      tag_124\n      jump\t// in\n    tag_395:\n        /* \"#utility.yul\":22875:22992   */\n    tag_394:\n        /* \"#utility.yul\":23016:23090   */\n      tag_396\n        /* \"#utility.yul\":23082:23089   */\n      dup8\n        /* \"#utility.yul\":23073:23079   */\n      dup3\n        /* \"#utility.yul\":23062:23071   */\n      dup9\n        /* \"#utility.yul\":23058:23080   */\n      add\n        /* \"#utility.yul\":23016:23090   */\n      tag_136\n      jump\t// in\n    tag_396:\n        /* \"#utility.yul\":23006:23090   */\n      swap3\n      pop\n        /* \"#utility.yul\":22808:23100   */\n      pop\n        /* \"#utility.yul\":23139:23141   */\n      0x60\n        /* \"#utility.yul\":23165:23252   */\n      tag_397\n        /* \"#utility.yul\":23244:23251   */\n      dup8\n        /* \"#utility.yul\":23235:23241   */\n      dup3\n        /* \"#utility.yul\":23224:23233   */\n      dup9\n        /* \"#utility.yul\":23220:23242   */\n      add\n        /* \"#utility.yul\":23165:23252   */\n      tag_140\n      jump\t// in\n    tag_397:\n        /* \"#utility.yul\":23155:23252   */\n      swap2\n      pop\n        /* \"#utility.yul\":23110:23262   */\n      pop\n        /* \"#utility.yul\":22214:23269   */\n      swap3\n      swap6\n      swap2\n      swap5\n      pop\n      swap3\n      pop\n      jump\t// out\n\n    auxdata: 0xa26469706673582212209d5c5cbf2f9177cc6814777c126252f5c9422e065f781b9893a6f53dea677dd564736f6c63430008190033\n}\n",
				"bytecode": {
					"linkReferences": {},
					"object": "6080604052600a5f55737a58c0be72be218b41c608b7fe7c5bb630736c7160015f6101000a81548173ffffffffffffffffffffffffffffffffffffffff021916908373ffffffffffffffffffffffffffffffffffffffff1602179055506040518060400160405280600481526020017f3078414100000000000000000000000000000000000000000000000000000000815250600290816100a0919061037a565b506040518060400160405280600560ff168152602001600660ff1681525060039060026100ce9291906100e0565b503480156100da575f80fd5b50610449565b8260028101928215610114579160200282015b82811115610113578251829060ff169055916020019190600101906100f3565b5b5090506101219190610125565b5090565b5b8082111561013c575f815f905550600101610126565b5090565b5f81519050919050565b7f4e487b71000000000000000000000000000000000000000000000000000000005f52604160045260245ffd5b7f4e487b71000000000000000000000000000000000000000000000000000000005f52602260045260245ffd5b5f60028204905060018216806101bb57607f821691505b6020821081036101ce576101cd610177565b5b50919050565b5f819050815f5260205f209050919050565b5f6020601f8301049050919050565b5f82821b905092915050565b5f600883026102307fffffffffffffffffffffffffffffffffffffffffffffffffffffffffffffffff826101f5565b61023a86836101f5565b95508019841693508086168417925050509392505050565b5f819050919050565b5f819050919050565b5f61027e61027961027484610252565b61025b565b610252565b9050919050565b5f819050919050565b61029783610264565b6102ab6102a382610285565b848454610201565b825550505050565b5f90565b6102bf6102b3565b6102ca81848461028e565b505050565b5b818110156102ed576102e25f826102b7565b6001810190506102d0565b5050565b601f82111561033257610303816101d4565b61030c846101e6565b8101602085101561031b578190505b61032f610327856101e6565b8301826102cf565b50505b505050565b5f82821c905092915050565b5f6103525f1984600802610337565b1980831691505092915050565b5f61036a8383610343565b9150826002028217905092915050565b61038382610140565b67ffffffffffffffff81111561039c5761039b61014a565b5b6103a682546101a4565b6103b18282856102f1565b5f60209050601f8311600181146103e2575f84156103d0578287015190505b6103da858261035f565b865550610441565b601f1984166103f0866101d4565b5f5b82811015610417578489015182556001820191506020850194506020810190506103f2565b868310156104345784890151610430601f891682610343565b8355505b6001600288020188555050505b505050505050565b6110ba806104565f395ff3fe608060405234801561000f575f80fd5b5060043610610060575f3560e01c806353d9c50614610064578063a5003ad114610082578063bd14598f146100a0578063c0f8940c146100be578063d1bd363d146100df578063e4f2a84a146100fd575b5f80fd5b61006c61011b565b6040516100799190610578565b60405180910390f35b61008a61016c565b6040516100979190610578565b60405180910390f35b6100a86101f8565b6040516100b59190610578565b60405180910390f35b6100c6610259565b6040516100d694939291906106e6565b60405180910390f35b6100e7610367565b6040516100f49190610578565b60405180910390f35b610105610427565b6040516101129190610578565b60405180910390f35b60605f5460015f9054906101000a900473ffffffffffffffffffffffffffffffffffffffff16600260036040516020016101589493929190610979565b604051602081830303815290604052905090565b60058054610179906107c2565b80601f01602080910402602001604051908101604052809291908181526020018280546101a5906107c2565b80156101f05780601f106101c7576101008083540402835291602001916101f0565b820191905f5260205f20905b8154815290600101906020018083116101d357829003601f168201915b505050505081565b60605f5460015f9054906101000a900473ffffffffffffffffffffffffffffffffffffffff16600260036040516020016102359493929190610aa0565b604051602081830303815290604052905080600590816102559190610cb4565b5090565b5f8060606102656104e6565b5f60058054610273906107c2565b9050036102b5576040517f08c379a00000000000000000000000000000000000000000000000000000000081526004016102ac90610dcd565b60405180910390fd5b600580546102c2906107c2565b80601f01602080910402602001604051908101604052809291908181526020018280546102ee906107c2565b80156103395780601f1061031057610100808354040283529160200191610339565b820191905f5260205f20905b81548152906001019060200180831161031c57829003601f168201915b50505050508060200190518101906103519190611004565b8094508195508296508397505050505090919293565b60607fe87082f1450a46f8f3150d7bda55bda41a2b08d68abde6797ccc68be305673355f5460015f9054906101000a900473ffffffffffffffffffffffffffffffffffffffff16600260036040516024016103c59493929190610aa0565b604051602081830303815290604052907bffffffffffffffffffffffffffffffffffffffffffffffffffffffff19166020820180517bffffffffffffffffffffffffffffffffffffffffffffffffffffffff8381831617835250505050905090565b60605f5460015f9054906101000a900473ffffffffffffffffffffffffffffffffffffffff16600260036040516024016104649493929190610aa0565b6040516020818303038152906040527fe87082f1000000000000000000000000000000000000000000000000000000007bffffffffffffffffffffffffffffffffffffffffffffffffffffffff19166020820180517bffffffffffffffffffffffffffffffffffffffffffffffffffffffff8381831617835250505050905090565b6040518060400160405280600290602082028036833780820191505090505090565b5f81519050919050565b5f82825260208201905092915050565b8281835e5f83830152505050565b5f601f19601f8301169050919050565b5f61054a82610508565b6105548185610512565b9350610564818560208601610522565b61056d81610530565b840191505092915050565b5f6020820190508181035f8301526105908184610540565b905092915050565b5f819050919050565b6105aa81610598565b82525050565b5f73ffffffffffffffffffffffffffffffffffffffff82169050919050565b5f6105d9826105b0565b9050919050565b6105e9816105cf565b82525050565b5f81519050919050565b5f82825260208201905092915050565b5f610613826105ef565b61061d81856105f9565b935061062d818560208601610522565b61063681610530565b840191505092915050565b5f60029050919050565b5f81905092915050565b5f819050919050565b61066781610598565b82525050565b5f610678838361065e565b60208301905092915050565b5f602082019050919050565b61069981610641565b6106a3818461064b565b92506106ae82610655565b805f5b838110156106de5781516106c5878261066d565b96506106d083610684565b9250506001810190506106b1565b505050505050565b5f60a0820190506106f95f8301876105a1565b61070660208301866105e0565b81810360408301526107188185610609565b90506107276060830184610690565b95945050505050565b5f819050919050565b61074a61074582610598565b610730565b82525050565b5f8160601b9050919050565b5f61076682610750565b9050919050565b5f6107778261075c565b9050919050565b61078f61078a826105cf565b61076d565b82525050565b7f4e487b71000000000000000000000000000000000000000000000000000000005f52602260045260245ffd5b5f60028204905060018216806107d957607f821691505b6020821081036107ec576107eb610795565b5b50919050565b5f81905092915050565b5f819050815f5260205f209050919050565b5f815461081a816107c2565b61082481866107f2565b9450600182165f811461083e576001811461085357610885565b60ff1983168652811515820286019350610885565b61085c856107fc565b5f5b8381101561087d5781548189015260018201915060208101905061085e565b838801955050505b50505092915050565b5f60029050919050565b5f81905092915050565b5f819050919050565b6108b481610598565b82525050565b5f6108c583836108ab565b60208301905092915050565b5f815f1c9050919050565b5f819050919050565b5f6108f76108f2836108d1565b6108dc565b9050919050565b5f61090982546108e5565b9050919050565b5f600182019050919050565b6109258161088e565b61092f8184610898565b925061093a826108a2565b805f5b838110156109715761094e826108fe565b61095887826108ba565b965061096383610910565b92505060018101905061093d565b505050505050565b5f6109848287610739565b602082019150610994828661077e565b6014820191506109a4828561080e565b91506109b0828461091c565b60408201915081905095945050505050565b5f81546109ce816107c2565b6109d881866105f9565b9450600182165f81146109f25760018114610a0857610a3a565b60ff198316865281151560200286019350610a3a565b610a11856107fc565b5f5b83811015610a3257815481890152600182019150602081019050610a13565b808801955050505b50505092915050565b610a4c8161088e565b610a56818461064b565b9250610a61826108a2565b805f5b83811015610a9857610a75826108fe565b610a7f878261066d565b9650610a8a83610910565b925050600181019050610a64565b505050505050565b5f60a082019050610ab35f8301876105a1565b610ac060208301866105e0565b8181036040830152610ad281856109c2565b9050610ae16060830184610a43565b95945050505050565b7f4e487b71000000000000000000000000000000000000000000000000000000005f52604160045260245ffd5b5f819050815f5260205f209050919050565b5f6020601f8301049050919050565b5f82821b905092915050565b5f60088302610b737fffffffffffffffffffffffffffffffffffffffffffffffffffffffffffffffff82610b38565b610b7d8683610b38565b95508019841693508086168417925050509392505050565b5f819050919050565b5f610bb8610bb3610bae84610598565b610b95565b610598565b9050919050565b5f819050919050565b610bd183610b9e565b610be5610bdd82610bbf565b848454610b44565b825550505050565b5f90565b610bf9610bed565b610c04818484610bc8565b505050565b5b81811015610c2757610c1c5f82610bf1565b600181019050610c0a565b5050565b601f821115610c6c57610c3d81610b17565b610c4684610b29565b81016020851015610c55578190505b610c69610c6185610b29565b830182610c09565b50505b505050565b5f82821c905092915050565b5f610c8c5f1984600802610c71565b1980831691505092915050565b5f610ca48383610c7d565b9150826002028217905092915050565b610cbd82610508565b67ffffffffffffffff811115610cd657610cd5610aea565b5b610ce082546107c2565b610ceb828285610c2b565b5f60209050601f831160018114610d1c575f8415610d0a578287015190505b610d148582610c99565b865550610d7b565b601f198416610d2a86610b17565b5f5b82811015610d5157848901518255600182019150602085019450602081019050610d2c565b86831015610d6e5784890151610d6a601f891682610c7d565b8355505b6001600288020188555050505b505050505050565b7f656e636f64654461746120e4b88de883bde4b8bae7a9ba0000000000000000005f82015250565b5f610db76017836105f9565b9150610dc282610d83565b602082019050919050565b5f6020820190508181035f830152610de481610dab565b9050919050565b5f604051905090565b5f80fd5b5f80fd5b610e0581610598565b8114610e0f575f80fd5b50565b5f81519050610e2081610dfc565b92915050565b5f610e30826105b0565b9050919050565b610e4081610e26565b8114610e4a575f80fd5b50565b5f81519050610e5b81610e37565b92915050565b5f80fd5b5f80fd5b610e7282610530565b810181811067ffffffffffffffff82111715610e9157610e90610aea565b5b80604052505050565b5f610ea3610deb565b9050610eaf8282610e69565b919050565b5f67ffffffffffffffff821115610ece57610ecd610aea565b5b610ed782610530565b9050602081019050919050565b5f610ef6610ef184610eb4565b610e9a565b905082815260208101848484011115610f1257610f11610e65565b5b610f1d848285610522565b509392505050565b5f82601f830112610f3957610f38610e61565b5b8151610f49848260208601610ee4565b91505092915050565b5f67ffffffffffffffff821115610f6c57610f6b610aea565b5b602082029050919050565b5f80fd5b5f610f8d610f8884610f52565b610e9a565b90508060208402830185811115610fa757610fa6610f77565b5b835b81811015610fd05780610fbc8882610e12565b845260208401935050602081019050610fa9565b5050509392505050565b5f82601f830112610fee57610fed610e61565b5b6002610ffb848285610f7b565b91505092915050565b5f805f8060a0858703121561101c5761101b610df4565b5b5f61102987828801610e12565b945050602061103a87828801610e4d565b935050604085015167ffffffffffffffff81111561105b5761105a610df8565b5b61106787828801610f25565b925050606061107887828801610fda565b9150509295919450925056fea26469706673582212209d5c5cbf2f9177cc6814777c126252f5c9422e065f781b9893a6f53dea677dd564736f6c63430008190033",
					"opcodes": "PUSH1 0x80 PUSH1 0x40 MSTORE PUSH1 0xA PUSH0 SSTORE PUSH20 0x7A58C0BE72BE218B41C608B7FE7C5BB630736C71 PUSH1 0x1 PUSH0 PUSH2 0x100 EXP DUP2 SLOAD DUP2 PUSH20 0xFFFFFFFFFFFFFFFFFFFFFFFFFFFFFFFFFFFFFFFF MUL NOT AND SWAP1 DUP4 PUSH20 0xFFFFFFFFFFFFFFFFFFFFFFFFFFFFFFFFFFFFFFFF AND MUL OR SWAP1 SSTORE POP PUSH1 0x40 MLOAD DUP1 PUSH1 0x40 ADD PUSH1 0x40 MSTORE DUP1 PUSH1 0x4 DUP2 MSTORE PUSH1 0x20 ADD PUSH32 0x3078414100000000000000000000000000000000000000000000000000000000 DUP2 MSTORE POP PUSH1 0x2 SWAP1 DUP2 PUSH2 0xA0 SWAP2 SWAP1 PUSH2 0x37A JUMP JUMPDEST POP PUSH1 0x40 MLOAD DUP1 PUSH1 0x40 ADD PUSH1 0x40 MSTORE DUP1 PUSH1 0x5 PUSH1 0xFF AND DUP2 MSTORE PUSH1 0x20 ADD PUSH1 0x6 PUSH1 0xFF AND DUP2 MSTORE POP PUSH1 0x3 SWAP1 PUSH1 0x2 PUSH2 0xCE SWAP3 SWAP2 SWAP1 PUSH2 0xE0 JUMP JUMPDEST POP CALLVALUE DUP1 ISZERO PUSH2 0xDA JUMPI PUSH0 DUP1 REVERT JUMPDEST POP PUSH2 0x449 JUMP JUMPDEST DUP3 PUSH1 0x2 DUP2 ADD SWAP3 DUP3 ISZERO PUSH2 0x114 JUMPI SWAP2 PUSH1 0x20 MUL DUP3 ADD JUMPDEST DUP3 DUP2 GT ISZERO PUSH2 0x113 JUMPI DUP3 MLOAD DUP3 SWAP1 PUSH1 0xFF AND SWAP1 SSTORE SWAP2 PUSH1 0x20 ADD SWAP2 SWAP1 PUSH1 0x1 ADD SWAP1 PUSH2 0xF3 JUMP JUMPDEST JUMPDEST POP SWAP1 POP PUSH2 0x121 SWAP2 SWAP1 PUSH2 0x125 JUMP JUMPDEST POP SWAP1 JUMP JUMPDEST JUMPDEST DUP1 DUP3 GT ISZERO PUSH2 0x13C JUMPI PUSH0 DUP2 PUSH0 SWAP1 SSTORE POP PUSH1 0x1 ADD PUSH2 0x126 JUMP JUMPDEST POP SWAP1 JUMP JUMPDEST PUSH0 DUP2 MLOAD SWAP1 POP SWAP2 SWAP1 POP JUMP JUMPDEST PUSH32 0x4E487B7100000000000000000000000000000000000000000000000000000000 PUSH0 MSTORE PUSH1 0x41 PUSH1 0x4 MSTORE PUSH1 0x24 PUSH0 REVERT JUMPDEST PUSH32 0x4E487B7100000000000000000000000000000000000000000000000000000000 PUSH0 MSTORE PUSH1 0x22 PUSH1 0x4 MSTORE PUSH1 0x24 PUSH0 REVERT JUMPDEST PUSH0 PUSH1 0x2 DUP3 DIV SWAP1 POP PUSH1 0x1 DUP3 AND DUP1 PUSH2 0x1BB JUMPI PUSH1 0x7F DUP3 AND SWAP2 POP JUMPDEST PUSH1 0x20 DUP3 LT DUP2 SUB PUSH2 0x1CE JUMPI PUSH2 0x1CD PUSH2 0x177 JUMP JUMPDEST JUMPDEST POP SWAP2 SWAP1 POP JUMP JUMPDEST PUSH0 DUP2 SWAP1 POP DUP2 PUSH0 MSTORE PUSH1 0x20 PUSH0 KECCAK256 SWAP1 POP SWAP2 SWAP1 POP JUMP JUMPDEST PUSH0 PUSH1 0x20 PUSH1 0x1F DUP4 ADD DIV SWAP1 POP SWAP2 SWAP1 POP JUMP JUMPDEST PUSH0 DUP3 DUP3 SHL SWAP1 POP SWAP3 SWAP2 POP POP JUMP JUMPDEST PUSH0 PUSH1 0x8 DUP4 MUL PUSH2 0x230 PUSH32 0xFFFFFFFFFFFFFFFFFFFFFFFFFFFFFFFFFFFFFFFFFFFFFFFFFFFFFFFFFFFFFFFF DUP3 PUSH2 0x1F5 JUMP JUMPDEST PUSH2 0x23A DUP7 DUP4 PUSH2 0x1F5 JUMP JUMPDEST SWAP6 POP DUP1 NOT DUP5 AND SWAP4 POP DUP1 DUP7 AND DUP5 OR SWAP3 POP POP POP SWAP4 SWAP3 POP POP POP JUMP JUMPDEST PUSH0 DUP2 SWAP1 POP SWAP2 SWAP1 POP JUMP JUMPDEST PUSH0 DUP2 SWAP1 POP SWAP2 SWAP1 POP JUMP JUMPDEST PUSH0 PUSH2 0x27E PUSH2 0x279 PUSH2 0x274 DUP5 PUSH2 0x252 JUMP JUMPDEST PUSH2 0x25B JUMP JUMPDEST PUSH2 0x252 JUMP JUMPDEST SWAP1 POP SWAP2 SWAP1 POP JUMP JUMPDEST PUSH0 DUP2 SWAP1 POP SWAP2 SWAP1 POP JUMP JUMPDEST PUSH2 0x297 DUP4 PUSH2 0x264 JUMP JUMPDEST PUSH2 0x2AB PUSH2 0x2A3 DUP3 PUSH2 0x285 JUMP JUMPDEST DUP5 DUP5 SLOAD PUSH2 0x201 JUMP JUMPDEST DUP3 SSTORE POP POP POP POP JUMP JUMPDEST PUSH0 SWAP1 JUMP JUMPDEST PUSH2 0x2BF PUSH2 0x2B3 JUMP JUMPDEST PUSH2 0x2CA DUP2 DUP5 DUP5 PUSH2 0x28E JUMP JUMPDEST POP POP POP JUMP JUMPDEST JUMPDEST DUP2 DUP2 LT ISZERO PUSH2 0x2ED JUMPI PUSH2 0x2E2 PUSH0 DUP3 PUSH2 0x2B7 JUMP JUMPDEST PUSH1 0x1 DUP2 ADD SWAP1 POP PUSH2 0x2D0 JUMP JUMPDEST POP POP JUMP JUMPDEST PUSH1 0x1F DUP3 GT ISZERO PUSH2 0x332 JUMPI PUSH2 0x303 DUP2 PUSH2 0x1D4 JUMP JUMPDEST PUSH2 0x30C DUP5 PUSH2 0x1E6 JUMP JUMPDEST DUP2 ADD PUSH1 0x20 DUP6 LT ISZERO PUSH2 0x31B JUMPI DUP2 SWAP1 POP JUMPDEST PUSH2 0x32F PUSH2 0x327 DUP6 PUSH2 0x1E6 JUMP JUMPDEST DUP4 ADD DUP3 PUSH2 0x2CF JUMP JUMPDEST POP POP JUMPDEST POP POP POP JUMP JUMPDEST PUSH0 DUP3 DUP3 SHR SWAP1 POP SWAP3 SWAP2 POP POP JUMP JUMPDEST PUSH0 PUSH2 0x352 PUSH0 NOT DUP5 PUSH1 0x8 MUL PUSH2 0x337 JUMP JUMPDEST NOT DUP1 DUP4 AND SWAP2 POP POP SWAP3 SWAP2 POP POP JUMP JUMPDEST PUSH0 PUSH2 0x36A DUP4 DUP4 PUSH2 0x343 JUMP JUMPDEST SWAP2 POP DUP3 PUSH1 0x2 MUL DUP3 OR SWAP1 POP SWAP3 SWAP2 POP POP JUMP JUMPDEST PUSH2 0x383 DUP3 PUSH2 0x140 JUMP JUMPDEST PUSH8 0xFFFFFFFFFFFFFFFF DUP2 GT ISZERO PUSH2 0x39C JUMPI PUSH2 0x39B PUSH2 0x14A JUMP JUMPDEST JUMPDEST PUSH2 0x3A6 DUP3 SLOAD PUSH2 0x1A4 JUMP JUMPDEST PUSH2 0x3B1 DUP3 DUP3 DUP6 PUSH2 0x2F1 JUMP JUMPDEST PUSH0 PUSH1 0x20 SWAP1 POP PUSH1 0x1F DUP4 GT PUSH1 0x1 DUP2 EQ PUSH2 0x3E2 JUMPI PUSH0 DUP5 ISZERO PUSH2 0x3D0 JUMPI DUP3 DUP8 ADD MLOAD SWAP1 POP JUMPDEST PUSH2 0x3DA DUP6 DUP3 PUSH2 0x35F JUMP JUMPDEST DUP7 SSTORE POP PUSH2 0x441 JUMP JUMPDEST PUSH1 0x1F NOT DUP5 AND PUSH2 0x3F0 DUP7 PUSH2 0x1D4 JUMP JUMPDEST PUSH0 JUMPDEST DUP3 DUP2 LT ISZERO PUSH2 0x417 JUMPI DUP5 DUP10 ADD MLOAD DUP3 SSTORE PUSH1 0x1 DUP3 ADD SWAP2 POP PUSH1 0x20 DUP6 ADD SWAP5 POP PUSH1 0x20 DUP2 ADD SWAP1 POP PUSH2 0x3F2 JUMP JUMPDEST DUP7 DUP4 LT ISZERO PUSH2 0x434 JUMPI DUP5 DUP10 ADD MLOAD PUSH2 0x430 PUSH1 0x1F DUP10 AND DUP3 PUSH2 0x343 JUMP JUMPDEST DUP4 SSTORE POP JUMPDEST PUSH1 0x1 PUSH1 0x2 DUP9 MUL ADD DUP9 SSTORE POP POP POP JUMPDEST POP POP POP POP POP POP JUMP JUMPDEST PUSH2 0x10BA DUP1 PUSH2 0x456 PUSH0 CODECOPY PUSH0 RETURN INVALID PUSH1 0x80 PUSH1 0x40 MSTORE CALLVALUE DUP1 ISZERO PUSH2 0xF JUMPI PUSH0 DUP1 REVERT JUMPDEST POP PUSH1 0x4 CALLDATASIZE LT PUSH2 0x60 JUMPI PUSH0 CALLDATALOAD PUSH1 0xE0 SHR DUP1 PUSH4 0x53D9C506 EQ PUSH2 0x64 JUMPI DUP1 PUSH4 0xA5003AD1 EQ PUSH2 0x82 JUMPI DUP1 PUSH4 0xBD14598F EQ PUSH2 0xA0 JUMPI DUP1 PUSH4 0xC0F8940C EQ PUSH2 0xBE JUMPI DUP1 PUSH4 0xD1BD363D EQ PUSH2 0xDF JUMPI DUP1 PUSH4 0xE4F2A84A EQ PUSH2 0xFD JUMPI JUMPDEST PUSH0 DUP1 REVERT JUMPDEST PUSH2 0x6C PUSH2 0x11B JUMP JUMPDEST PUSH1 0x40 MLOAD PUSH2 0x79 SWAP2 SWAP1 PUSH2 0x578 JUMP JUMPDEST PUSH1 0x40 MLOAD DUP1 SWAP2 SUB SWAP1 RETURN JUMPDEST PUSH2 0x8A PUSH2 0x16C JUMP JUMPDEST PUSH1 0x40 MLOAD PUSH2 0x97 SWAP2 SWAP1 PUSH2 0x578 JUMP JUMPDEST PUSH1 0x40 MLOAD DUP1 SWAP2 SUB SWAP1 RETURN JUMPDEST PUSH2 0xA8 PUSH2 0x1F8 JUMP JUMPDEST PUSH1 0x40 MLOAD PUSH2 0xB5 SWAP2 SWAP1 PUSH2 0x578 JUMP JUMPDEST PUSH1 0x40 MLOAD DUP1 SWAP2 SUB SWAP1 RETURN JUMPDEST PUSH2 0xC6 PUSH2 0x259 JUMP JUMPDEST PUSH1 0x40 MLOAD PUSH2 0xD6 SWAP5 SWAP4 SWAP3 SWAP2 SWAP1 PUSH2 0x6E6 JUMP JUMPDEST PUSH1 0x40 MLOAD DUP1 SWAP2 SUB SWAP1 RETURN JUMPDEST PUSH2 0xE7 PUSH2 0x367 JUMP JUMPDEST PUSH1 0x40 MLOAD PUSH2 0xF4 SWAP2 SWAP1 PUSH2 0x578 JUMP JUMPDEST PUSH1 0x40 MLOAD DUP1 SWAP2 SUB SWAP1 RETURN JUMPDEST PUSH2 0x105 PUSH2 0x427 JUMP JUMPDEST PUSH1 0x40 MLOAD PUSH2 0x112 SWAP2 SWAP1 PUSH2 0x578 JUMP JUMPDEST PUSH1 0x40 MLOAD DUP1 SWAP2 SUB SWAP1 RETURN JUMPDEST PUSH1 0x60 PUSH0 SLOAD PUSH1 0x1 PUSH0 SWAP1 SLOAD SWAP1 PUSH2 0x100 EXP SWAP1 DIV PUSH20 0xFFFFFFFFFFFFFFFFFFFFFFFFFFFFFFFFFFFFFFFF AND PUSH1 0x2 PUSH1 0x3 PUSH1 0x40 MLOAD PUSH1 0x20 ADD PUSH2 0x158 SWAP5 SWAP4 SWAP3 SWAP2 SWAP1 PUSH2 0x979 JUMP JUMPDEST PUSH1 0x40 MLOAD PUSH1 0x20 DUP2 DUP4 SUB SUB DUP2 MSTORE SWAP1 PUSH1 0x40 MSTORE SWAP1 POP SWAP1 JUMP JUMPDEST PUSH1 0x5 DUP1 SLOAD PUSH2 0x179 SWAP1 PUSH2 0x7C2 JUMP JUMPDEST DUP1 PUSH1 0x1F ADD PUSH1 0x20 DUP1 SWAP2 DIV MUL PUSH1 0x20 ADD PUSH1 0x40 MLOAD SWAP1 DUP2 ADD PUSH1 0x40 MSTORE DUP1 SWAP3 SWAP2 SWAP1 DUP2 DUP2 MSTORE PUSH1 0x20 ADD DUP3 DUP1 SLOAD PUSH2 0x1A5 SWAP1 PUSH2 0x7C2 JUMP JUMPDEST DUP1 ISZERO PUSH2 0x1F0 JUMPI DUP1 PUSH1 0x1F LT PUSH2 0x1C7 JUMPI PUSH2 0x100 DUP1 DUP4 SLOAD DIV MUL DUP4 MSTORE SWAP2 PUSH1 0x20 ADD SWAP2 PUSH2 0x1F0 JUMP JUMPDEST DUP3 ADD SWAP2 SWAP1 PUSH0 MSTORE PUSH1 0x20 PUSH0 KECCAK256 SWAP1 JUMPDEST DUP2 SLOAD DUP2 MSTORE SWAP1 PUSH1 0x1 ADD SWAP1 PUSH1 0x20 ADD DUP1 DUP4 GT PUSH2 0x1D3 JUMPI DUP3 SWAP1 SUB PUSH1 0x1F AND DUP3 ADD SWAP2 JUMPDEST POP POP POP POP POP DUP2 JUMP JUMPDEST PUSH1 0x60 PUSH0 SLOAD PUSH1 0x1 PUSH0 SWAP1 SLOAD SWAP1 PUSH2 0x100 EXP SWAP1 DIV PUSH20 0xFFFFFFFFFFFFFFFFFFFFFFFFFFFFFFFFFFFFFFFF AND PUSH1 0x2 PUSH1 0x3 PUSH1 0x40 MLOAD PUSH1 0x20 ADD PUSH2 0x235 SWAP5 SWAP4 SWAP3 SWAP2 SWAP1 PUSH2 0xAA0 JUMP JUMPDEST PUSH1 0x40 MLOAD PUSH1 0x20 DUP2 DUP4 SUB SUB DUP2 MSTORE SWAP1 PUSH1 0x40 MSTORE SWAP1 POP DUP1 PUSH1 0x5 SWAP1 DUP2 PUSH2 0x255 SWAP2 SWAP1 PUSH2 0xCB4 JUMP JUMPDEST POP SWAP1 JUMP JUMPDEST PUSH0 DUP1 PUSH1 0x60 PUSH2 0x265 PUSH2 0x4E6 JUMP JUMPDEST PUSH0 PUSH1 0x5 DUP1 SLOAD PUSH2 0x273 SWAP1 PUSH2 0x7C2 JUMP JUMPDEST SWAP1 POP SUB PUSH2 0x2B5 JUMPI PUSH1 0x40 MLOAD PUSH32 0x8C379A000000000000000000000000000000000000000000000000000000000 DUP2 MSTORE PUSH1 0x4 ADD PUSH2 0x2AC SWAP1 PUSH2 0xDCD JUMP JUMPDEST PUSH1 0x40 MLOAD DUP1 SWAP2 SUB SWAP1 REVERT JUMPDEST PUSH1 0x5 DUP1 SLOAD PUSH2 0x2C2 SWAP1 PUSH2 0x7C2 JUMP JUMPDEST DUP1 PUSH1 0x1F ADD PUSH1 0x20 DUP1 SWAP2 DIV MUL PUSH1 0x20 ADD PUSH1 0x40 MLOAD SWAP1 DUP2 ADD PUSH1 0x40 MSTORE DUP1 SWAP3 SWAP2 SWAP1 DUP2 DUP2 MSTORE PUSH1 0x20 ADD DUP3 DUP1 SLOAD PUSH2 0x2EE SWAP1 PUSH2 0x7C2 JUMP JUMPDEST DUP1 ISZERO PUSH2 0x339 JUMPI DUP1 PUSH1 0x1F LT PUSH2 0x310 JUMPI PUSH2 0x100 DUP1 DUP4 SLOAD DIV MUL DUP4 MSTORE SWAP2 PUSH1 0x20 ADD SWAP2 PUSH2 0x339 JUMP JUMPDEST DUP3 ADD SWAP2 SWAP1 PUSH0 MSTORE PUSH1 0x20 PUSH0 KECCAK256 SWAP1 JUMPDEST DUP2 SLOAD DUP2 MSTORE SWAP1 PUSH1 0x1 ADD SWAP1 PUSH1 0x20 ADD DUP1 DUP4 GT PUSH2 0x31C JUMPI DUP3 SWAP1 SUB PUSH1 0x1F AND DUP3 ADD SWAP2 JUMPDEST POP POP POP POP POP DUP1 PUSH1 0x20 ADD SWAP1 MLOAD DUP2 ADD SWAP1 PUSH2 0x351 SWAP2 SWAP1 PUSH2 0x1004 JUMP JUMPDEST DUP1 SWAP5 POP DUP2 SWAP6 POP DUP3 SWAP7 POP DUP4 SWAP8 POP POP POP POP POP SWAP1 SWAP2 SWAP3 SWAP4 JUMP JUMPDEST PUSH1 0x60 PUSH32 0xE87082F1450A46F8F3150D7BDA55BDA41A2B08D68ABDE6797CCC68BE30567335 PUSH0 SLOAD PUSH1 0x1 PUSH0 SWAP1 SLOAD SWAP1 PUSH2 0x100 EXP SWAP1 DIV PUSH20 0xFFFFFFFFFFFFFFFFFFFFFFFFFFFFFFFFFFFFFFFF AND PUSH1 0x2 PUSH1 0x3 PUSH1 0x40 MLOAD PUSH1 0x24 ADD PUSH2 0x3C5 SWAP5 SWAP4 SWAP3 SWAP2 SWAP1 PUSH2 0xAA0 JUMP JUMPDEST PUSH1 0x40 MLOAD PUSH1 0x20 DUP2 DUP4 SUB SUB DUP2 MSTORE SWAP1 PUSH1 0x40 MSTORE SWAP1 PUSH28 0xFFFFFFFFFFFFFFFFFFFFFFFFFFFFFFFFFFFFFFFFFFFFFFFFFFFFFFFF NOT AND PUSH1 0x20 DUP3 ADD DUP1 MLOAD PUSH28 0xFFFFFFFFFFFFFFFFFFFFFFFFFFFFFFFFFFFFFFFFFFFFFFFFFFFFFFFF DUP4 DUP2 DUP4 AND OR DUP4 MSTORE POP POP POP POP SWAP1 POP SWAP1 JUMP JUMPDEST PUSH1 0x60 PUSH0 SLOAD PUSH1 0x1 PUSH0 SWAP1 SLOAD SWAP1 PUSH2 0x100 EXP SWAP1 DIV PUSH20 0xFFFFFFFFFFFFFFFFFFFFFFFFFFFFFFFFFFFFFFFF AND PUSH1 0x2 PUSH1 0x3 PUSH1 0x40 MLOAD PUSH1 0x24 ADD PUSH2 0x464 SWAP5 SWAP4 SWAP3 SWAP2 SWAP1 PUSH2 0xAA0 JUMP JUMPDEST PUSH1 0x40 MLOAD PUSH1 0x20 DUP2 DUP4 SUB SUB DUP2 MSTORE SWAP1 PUSH1 0x40 MSTORE PUSH32 0xE87082F100000000000000000000000000000000000000000000000000000000 PUSH28 0xFFFFFFFFFFFFFFFFFFFFFFFFFFFFFFFFFFFFFFFFFFFFFFFFFFFFFFFF NOT AND PUSH1 0x20 DUP3 ADD DUP1 MLOAD PUSH28 0xFFFFFFFFFFFFFFFFFFFFFFFFFFFFFFFFFFFFFFFFFFFFFFFFFFFFFFFF DUP4 DUP2 DUP4 AND OR DUP4 MSTORE POP POP POP POP SWAP1 POP SWAP1 JUMP JUMPDEST PUSH1 0x40 MLOAD DUP1 PUSH1 0x40 ADD PUSH1 0x40 MSTORE DUP1 PUSH1 0x2 SWAP1 PUSH1 0x20 DUP3 MUL DUP1 CALLDATASIZE DUP4 CALLDATACOPY DUP1 DUP3 ADD SWAP2 POP POP SWAP1 POP POP SWAP1 JUMP JUMPDEST PUSH0 DUP2 MLOAD SWAP1 POP SWAP2 SWAP1 POP JUMP JUMPDEST PUSH0 DUP3 DUP3 MSTORE PUSH1 0x20 DUP3 ADD SWAP1 POP SWAP3 SWAP2 POP POP JUMP JUMPDEST DUP3 DUP2 DUP4 MCOPY PUSH0 DUP4 DUP4 ADD MSTORE POP POP POP JUMP JUMPDEST PUSH0 PUSH1 0x1F NOT PUSH1 0x1F DUP4 ADD AND SWAP1 POP SWAP2 SWAP1 POP JUMP JUMPDEST PUSH0 PUSH2 0x54A DUP3 PUSH2 0x508 JUMP JUMPDEST PUSH2 0x554 DUP2 DUP6 PUSH2 0x512 JUMP JUMPDEST SWAP4 POP PUSH2 0x564 DUP2 DUP6 PUSH1 0x20 DUP7 ADD PUSH2 0x522 JUMP JUMPDEST PUSH2 0x56D DUP2 PUSH2 0x530 JUMP JUMPDEST DUP5 ADD SWAP2 POP POP SWAP3 SWAP2 POP POP JUMP JUMPDEST PUSH0 PUSH1 0x20 DUP3 ADD SWAP1 POP DUP2 DUP2 SUB PUSH0 DUP4 ADD MSTORE PUSH2 0x590 DUP2 DUP5 PUSH2 0x540 JUMP JUMPDEST SWAP1 POP SWAP3 SWAP2 POP POP JUMP JUMPDEST PUSH0 DUP2 SWAP1 POP SWAP2 SWAP1 POP JUMP JUMPDEST PUSH2 0x5AA DUP2 PUSH2 0x598 JUMP JUMPDEST DUP3 MSTORE POP POP JUMP JUMPDEST PUSH0 PUSH20 0xFFFFFFFFFFFFFFFFFFFFFFFFFFFFFFFFFFFFFFFF DUP3 AND SWAP1 POP SWAP2 SWAP1 POP JUMP JUMPDEST PUSH0 PUSH2 0x5D9 DUP3 PUSH2 0x5B0 JUMP JUMPDEST SWAP1 POP SWAP2 SWAP1 POP JUMP JUMPDEST PUSH2 0x5E9 DUP2 PUSH2 0x5CF JUMP JUMPDEST DUP3 MSTORE POP POP JUMP JUMPDEST PUSH0 DUP2 MLOAD SWAP1 POP SWAP2 SWAP1 POP JUMP JUMPDEST PUSH0 DUP3 DUP3 MSTORE PUSH1 0x20 DUP3 ADD SWAP1 POP SWAP3 SWAP2 POP POP JUMP JUMPDEST PUSH0 PUSH2 0x613 DUP3 PUSH2 0x5EF JUMP JUMPDEST PUSH2 0x61D DUP2 DUP6 PUSH2 0x5F9 JUMP JUMPDEST SWAP4 POP PUSH2 0x62D DUP2 DUP6 PUSH1 0x20 DUP7 ADD PUSH2 0x522 JUMP JUMPDEST PUSH2 0x636 DUP2 PUSH2 0x530 JUMP JUMPDEST DUP5 ADD SWAP2 POP POP SWAP3 SWAP2 POP POP JUMP JUMPDEST PUSH0 PUSH1 0x2 SWAP1 POP SWAP2 SWAP1 POP JUMP JUMPDEST PUSH0 DUP2 SWAP1 POP SWAP3 SWAP2 POP POP JUMP JUMPDEST PUSH0 DUP2 SWAP1 POP SWAP2 SWAP1 POP JUMP JUMPDEST PUSH2 0x667 DUP2 PUSH2 0x598 JUMP JUMPDEST DUP3 MSTORE POP POP JUMP JUMPDEST PUSH0 PUSH2 0x678 DUP4 DUP4 PUSH2 0x65E JUMP JUMPDEST PUSH1 0x20 DUP4 ADD SWAP1 POP SWAP3 SWAP2 POP POP JUMP JUMPDEST PUSH0 PUSH1 0x20 DUP3 ADD SWAP1 POP SWAP2 SWAP1 POP JUMP JUMPDEST PUSH2 0x699 DUP2 PUSH2 0x641 JUMP JUMPDEST PUSH2 0x6A3 DUP2 DUP5 PUSH2 0x64B JUMP JUMPDEST SWAP3 POP PUSH2 0x6AE DUP3 PUSH2 0x655 JUMP JUMPDEST DUP1 PUSH0 JUMPDEST DUP4 DUP2 LT ISZERO PUSH2 0x6DE JUMPI DUP2 MLOAD PUSH2 0x6C5 DUP8 DUP3 PUSH2 0x66D JUMP JUMPDEST SWAP7 POP PUSH2 0x6D0 DUP4 PUSH2 0x684 JUMP JUMPDEST SWAP3 POP POP PUSH1 0x1 DUP2 ADD SWAP1 POP PUSH2 0x6B1 JUMP JUMPDEST POP POP POP POP POP POP JUMP JUMPDEST PUSH0 PUSH1 0xA0 DUP3 ADD SWAP1 POP PUSH2 0x6F9 PUSH0 DUP4 ADD DUP8 PUSH2 0x5A1 JUMP JUMPDEST PUSH2 0x706 PUSH1 0x20 DUP4 ADD DUP7 PUSH2 0x5E0 JUMP JUMPDEST DUP2 DUP2 SUB PUSH1 0x40 DUP4 ADD MSTORE PUSH2 0x718 DUP2 DUP6 PUSH2 0x609 JUMP JUMPDEST SWAP1 POP PUSH2 0x727 PUSH1 0x60 DUP4 ADD DUP5 PUSH2 0x690 JUMP JUMPDEST SWAP6 SWAP5 POP POP POP POP POP JUMP JUMPDEST PUSH0 DUP2 SWAP1 POP SWAP2 SWAP1 POP JUMP JUMPDEST PUSH2 0x74A PUSH2 0x745 DUP3 PUSH2 0x598 JUMP JUMPDEST PUSH2 0x730 JUMP JUMPDEST DUP3 MSTORE POP POP JUMP JUMPDEST PUSH0 DUP2 PUSH1 0x60 SHL SWAP1 POP SWAP2 SWAP1 POP JUMP JUMPDEST PUSH0 PUSH2 0x766 DUP3 PUSH2 0x750 JUMP JUMPDEST SWAP1 POP SWAP2 SWAP1 POP JUMP JUMPDEST PUSH0 PUSH2 0x777 DUP3 PUSH2 0x75C JUMP JUMPDEST SWAP1 POP SWAP2 SWAP1 POP JUMP JUMPDEST PUSH2 0x78F PUSH2 0x78A DUP3 PUSH2 0x5CF JUMP JUMPDEST PUSH2 0x76D JUMP JUMPDEST DUP3 MSTORE POP POP JUMP JUMPDEST PUSH32 0x4E487B7100000000000000000000000000000000000000000000000000000000 PUSH0 MSTORE PUSH1 0x22 PUSH1 0x4 MSTORE PUSH1 0x24 PUSH0 REVERT JUMPDEST PUSH0 PUSH1 0x2 DUP3 DIV SWAP1 POP PUSH1 0x1 DUP3 AND DUP1 PUSH2 0x7D9 JUMPI PUSH1 0x7F DUP3 AND SWAP2 POP JUMPDEST PUSH1 0x20 DUP3 LT DUP2 SUB PUSH2 0x7EC JUMPI PUSH2 0x7EB PUSH2 0x795 JUMP JUMPDEST JUMPDEST POP SWAP2 SWAP1 POP JUMP JUMPDEST PUSH0 DUP2 SWAP1 POP SWAP3 SWAP2 POP POP JUMP JUMPDEST PUSH0 DUP2 SWAP1 POP DUP2 PUSH0 MSTORE PUSH1 0x20 PUSH0 KECCAK256 SWAP1 POP SWAP2 SWAP1 POP JUMP JUMPDEST PUSH0 DUP2 SLOAD PUSH2 0x81A DUP2 PUSH2 0x7C2 JUMP JUMPDEST PUSH2 0x824 DUP2 DUP7 PUSH2 0x7F2 JUMP JUMPDEST SWAP5 POP PUSH1 0x1 DUP3 AND PUSH0 DUP2 EQ PUSH2 0x83E JUMPI PUSH1 0x1 DUP2 EQ PUSH2 0x853 JUMPI PUSH2 0x885 JUMP JUMPDEST PUSH1 0xFF NOT DUP4 AND DUP7 MSTORE DUP2 ISZERO ISZERO DUP3 MUL DUP7 ADD SWAP4 POP PUSH2 0x885 JUMP JUMPDEST PUSH2 0x85C DUP6 PUSH2 0x7FC JUMP JUMPDEST PUSH0 JUMPDEST DUP4 DUP2 LT ISZERO PUSH2 0x87D JUMPI DUP2 SLOAD DUP2 DUP10 ADD MSTORE PUSH1 0x1 DUP3 ADD SWAP2 POP PUSH1 0x20 DUP2 ADD SWAP1 POP PUSH2 0x85E JUMP JUMPDEST DUP4 DUP9 ADD SWAP6 POP POP POP JUMPDEST POP POP POP SWAP3 SWAP2 POP POP JUMP JUMPDEST PUSH0 PUSH1 0x2 SWAP1 POP SWAP2 SWAP1 POP JUMP JUMPDEST PUSH0 DUP2 SWAP1 POP SWAP3 SWAP2 POP POP JUMP JUMPDEST PUSH0 DUP2 SWAP1 POP SWAP2 SWAP1 POP JUMP JUMPDEST PUSH2 0x8B4 DUP2 PUSH2 0x598 JUMP JUMPDEST DUP3 MSTORE POP POP JUMP JUMPDEST PUSH0 PUSH2 0x8C5 DUP4 DUP4 PUSH2 0x8AB JUMP JUMPDEST PUSH1 0x20 DUP4 ADD SWAP1 POP SWAP3 SWAP2 POP POP JUMP JUMPDEST PUSH0 DUP2 PUSH0 SHR SWAP1 POP SWAP2 SWAP1 POP JUMP JUMPDEST PUSH0 DUP2 SWAP1 POP SWAP2 SWAP1 POP JUMP JUMPDEST PUSH0 PUSH2 0x8F7 PUSH2 0x8F2 DUP4 PUSH2 0x8D1 JUMP JUMPDEST PUSH2 0x8DC JUMP JUMPDEST SWAP1 POP SWAP2 SWAP1 POP JUMP JUMPDEST PUSH0 PUSH2 0x909 DUP3 SLOAD PUSH2 0x8E5 JUMP JUMPDEST SWAP1 POP SWAP2 SWAP1 POP JUMP JUMPDEST PUSH0 PUSH1 0x1 DUP3 ADD SWAP1 POP SWAP2 SWAP1 POP JUMP JUMPDEST PUSH2 0x925 DUP2 PUSH2 0x88E JUMP JUMPDEST PUSH2 0x92F DUP2 DUP5 PUSH2 0x898 JUMP JUMPDEST SWAP3 POP PUSH2 0x93A DUP3 PUSH2 0x8A2 JUMP JUMPDEST DUP1 PUSH0 JUMPDEST DUP4 DUP2 LT ISZERO PUSH2 0x971 JUMPI PUSH2 0x94E DUP3 PUSH2 0x8FE JUMP JUMPDEST PUSH2 0x958 DUP8 DUP3 PUSH2 0x8BA JUMP JUMPDEST SWAP7 POP PUSH2 0x963 DUP4 PUSH2 0x910 JUMP JUMPDEST SWAP3 POP POP PUSH1 0x1 DUP2 ADD SWAP1 POP PUSH2 0x93D JUMP JUMPDEST POP POP POP POP POP POP JUMP JUMPDEST PUSH0 PUSH2 0x984 DUP3 DUP8 PUSH2 0x739 JUMP JUMPDEST PUSH1 0x20 DUP3 ADD SWAP2 POP PUSH2 0x994 DUP3 DUP7 PUSH2 0x77E JUMP JUMPDEST PUSH1 0x14 DUP3 ADD SWAP2 POP PUSH2 0x9A4 DUP3 DUP6 PUSH2 0x80E JUMP JUMPDEST SWAP2 POP PUSH2 0x9B0 DUP3 DUP5 PUSH2 0x91C JUMP JUMPDEST PUSH1 0x40 DUP3 ADD SWAP2 POP DUP2 SWAP1 POP SWAP6 SWAP5 POP POP POP POP POP JUMP JUMPDEST PUSH0 DUP2 SLOAD PUSH2 0x9CE DUP2 PUSH2 0x7C2 JUMP JUMPDEST PUSH2 0x9D8 DUP2 DUP7 PUSH2 0x5F9 JUMP JUMPDEST SWAP5 POP PUSH1 0x1 DUP3 AND PUSH0 DUP2 EQ PUSH2 0x9F2 JUMPI PUSH1 0x1 DUP2 EQ PUSH2 0xA08 JUMPI PUSH2 0xA3A JUMP JUMPDEST PUSH1 0xFF NOT DUP4 AND DUP7 MSTORE DUP2 ISZERO ISZERO PUSH1 0x20 MUL DUP7 ADD SWAP4 POP PUSH2 0xA3A JUMP JUMPDEST PUSH2 0xA11 DUP6 PUSH2 0x7FC JUMP JUMPDEST PUSH0 JUMPDEST DUP4 DUP2 LT ISZERO PUSH2 0xA32 JUMPI DUP2 SLOAD DUP2 DUP10 ADD MSTORE PUSH1 0x1 DUP3 ADD SWAP2 POP PUSH1 0x20 DUP2 ADD SWAP1 POP PUSH2 0xA13 JUMP JUMPDEST DUP1 DUP9 ADD SWAP6 POP POP POP JUMPDEST POP POP POP SWAP3 SWAP2 POP POP JUMP JUMPDEST PUSH2 0xA4C DUP2 PUSH2 0x88E JUMP JUMPDEST PUSH2 0xA56 DUP2 DUP5 PUSH2 0x64B JUMP JUMPDEST SWAP3 POP PUSH2 0xA61 DUP3 PUSH2 0x8A2 JUMP JUMPDEST DUP1 PUSH0 JUMPDEST DUP4 DUP2 LT ISZERO PUSH2 0xA98 JUMPI PUSH2 0xA75 DUP3 PUSH2 0x8FE JUMP JUMPDEST PUSH2 0xA7F DUP8 DUP3 PUSH2 0x66D JUMP JUMPDEST SWAP7 POP PUSH2 0xA8A DUP4 PUSH2 0x910 JUMP JUMPDEST SWAP3 POP POP PUSH1 0x1 DUP2 ADD SWAP1 POP PUSH2 0xA64 JUMP JUMPDEST POP POP POP POP POP POP JUMP JUMPDEST PUSH0 PUSH1 0xA0 DUP3 ADD SWAP1 POP PUSH2 0xAB3 PUSH0 DUP4 ADD DUP8 PUSH2 0x5A1 JUMP JUMPDEST PUSH2 0xAC0 PUSH1 0x20 DUP4 ADD DUP7 PUSH2 0x5E0 JUMP JUMPDEST DUP2 DUP2 SUB PUSH1 0x40 DUP4 ADD MSTORE PUSH2 0xAD2 DUP2 DUP6 PUSH2 0x9C2 JUMP JUMPDEST SWAP1 POP PUSH2 0xAE1 PUSH1 0x60 DUP4 ADD DUP5 PUSH2 0xA43 JUMP JUMPDEST SWAP6 SWAP5 POP POP POP POP POP JUMP JUMPDEST PUSH32 0x4E487B7100000000000000000000000000000000000000000000000000000000 PUSH0 MSTORE PUSH1 0x41 PUSH1 0x4 MSTORE PUSH1 0x24 PUSH0 REVERT JUMPDEST PUSH0 DUP2 SWAP1 POP DUP2 PUSH0 MSTORE PUSH1 0x20 PUSH0 KECCAK256 SWAP1 POP SWAP2 SWAP1 POP JUMP JUMPDEST PUSH0 PUSH1 0x20 PUSH1 0x1F DUP4 ADD DIV SWAP1 POP SWAP2 SWAP1 POP JUMP JUMPDEST PUSH0 DUP3 DUP3 SHL SWAP1 POP SWAP3 SWAP2 POP POP JUMP JUMPDEST PUSH0 PUSH1 0x8 DUP4 MUL PUSH2 0xB73 PUSH32 0xFFFFFFFFFFFFFFFFFFFFFFFFFFFFFFFFFFFFFFFFFFFFFFFFFFFFFFFFFFFFFFFF DUP3 PUSH2 0xB38 JUMP JUMPDEST PUSH2 0xB7D DUP7 DUP4 PUSH2 0xB38 JUMP JUMPDEST SWAP6 POP DUP1 NOT DUP5 AND SWAP4 POP DUP1 DUP7 AND DUP5 OR SWAP3 POP POP POP SWAP4 SWAP3 POP POP POP JUMP JUMPDEST PUSH0 DUP2 SWAP1 POP SWAP2 SWAP1 POP JUMP JUMPDEST PUSH0 PUSH2 0xBB8 PUSH2 0xBB3 PUSH2 0xBAE DUP5 PUSH2 0x598 JUMP JUMPDEST PUSH2 0xB95 JUMP JUMPDEST PUSH2 0x598 JUMP JUMPDEST SWAP1 POP SWAP2 SWAP1 POP JUMP JUMPDEST PUSH0 DUP2 SWAP1 POP SWAP2 SWAP1 POP JUMP JUMPDEST PUSH2 0xBD1 DUP4 PUSH2 0xB9E JUMP JUMPDEST PUSH2 0xBE5 PUSH2 0xBDD DUP3 PUSH2 0xBBF JUMP JUMPDEST DUP5 DUP5 SLOAD PUSH2 0xB44 JUMP JUMPDEST DUP3 SSTORE POP POP POP POP JUMP JUMPDEST PUSH0 SWAP1 JUMP JUMPDEST PUSH2 0xBF9 PUSH2 0xBED JUMP JUMPDEST PUSH2 0xC04 DUP2 DUP5 DUP5 PUSH2 0xBC8 JUMP JUMPDEST POP POP POP JUMP JUMPDEST JUMPDEST DUP2 DUP2 LT ISZERO PUSH2 0xC27 JUMPI PUSH2 0xC1C PUSH0 DUP3 PUSH2 0xBF1 JUMP JUMPDEST PUSH1 0x1 DUP2 ADD SWAP1 POP PUSH2 0xC0A JUMP JUMPDEST POP POP JUMP JUMPDEST PUSH1 0x1F DUP3 GT ISZERO PUSH2 0xC6C JUMPI PUSH2 0xC3D DUP2 PUSH2 0xB17 JUMP JUMPDEST PUSH2 0xC46 DUP5 PUSH2 0xB29 JUMP JUMPDEST DUP2 ADD PUSH1 0x20 DUP6 LT ISZERO PUSH2 0xC55 JUMPI DUP2 SWAP1 POP JUMPDEST PUSH2 0xC69 PUSH2 0xC61 DUP6 PUSH2 0xB29 JUMP JUMPDEST DUP4 ADD DUP3 PUSH2 0xC09 JUMP JUMPDEST POP POP JUMPDEST POP POP POP JUMP JUMPDEST PUSH0 DUP3 DUP3 SHR SWAP1 POP SWAP3 SWAP2 POP POP JUMP JUMPDEST PUSH0 PUSH2 0xC8C PUSH0 NOT DUP5 PUSH1 0x8 MUL PUSH2 0xC71 JUMP JUMPDEST NOT DUP1 DUP4 AND SWAP2 POP POP SWAP3 SWAP2 POP POP JUMP JUMPDEST PUSH0 PUSH2 0xCA4 DUP4 DUP4 PUSH2 0xC7D JUMP JUMPDEST SWAP2 POP DUP3 PUSH1 0x2 MUL DUP3 OR SWAP1 POP SWAP3 SWAP2 POP POP JUMP JUMPDEST PUSH2 0xCBD DUP3 PUSH2 0x508 JUMP JUMPDEST PUSH8 0xFFFFFFFFFFFFFFFF DUP2 GT ISZERO PUSH2 0xCD6 JUMPI PUSH2 0xCD5 PUSH2 0xAEA JUMP JUMPDEST JUMPDEST PUSH2 0xCE0 DUP3 SLOAD PUSH2 0x7C2 JUMP JUMPDEST PUSH2 0xCEB DUP3 DUP3 DUP6 PUSH2 0xC2B JUMP JUMPDEST PUSH0 PUSH1 0x20 SWAP1 POP PUSH1 0x1F DUP4 GT PUSH1 0x1 DUP2 EQ PUSH2 0xD1C JUMPI PUSH0 DUP5 ISZERO PUSH2 0xD0A JUMPI DUP3 DUP8 ADD MLOAD SWAP1 POP JUMPDEST PUSH2 0xD14 DUP6 DUP3 PUSH2 0xC99 JUMP JUMPDEST DUP7 SSTORE POP PUSH2 0xD7B JUMP JUMPDEST PUSH1 0x1F NOT DUP5 AND PUSH2 0xD2A DUP7 PUSH2 0xB17 JUMP JUMPDEST PUSH0 JUMPDEST DUP3 DUP2 LT ISZERO PUSH2 0xD51 JUMPI DUP5 DUP10 ADD MLOAD DUP3 SSTORE PUSH1 0x1 DUP3 ADD SWAP2 POP PUSH1 0x20 DUP6 ADD SWAP5 POP PUSH1 0x20 DUP2 ADD SWAP1 POP PUSH2 0xD2C JUMP JUMPDEST DUP7 DUP4 LT ISZERO PUSH2 0xD6E JUMPI DUP5 DUP10 ADD MLOAD PUSH2 0xD6A PUSH1 0x1F DUP10 AND DUP3 PUSH2 0xC7D JUMP JUMPDEST DUP4 SSTORE POP JUMPDEST PUSH1 0x1 PUSH1 0x2 DUP9 MUL ADD DUP9 SSTORE POP POP POP JUMPDEST POP POP POP POP POP POP JUMP JUMPDEST PUSH32 0x656E636F64654461746120E4B88DE883BDE4B8BAE7A9BA000000000000000000 PUSH0 DUP3 ADD MSTORE POP JUMP JUMPDEST PUSH0 PUSH2 0xDB7 PUSH1 0x17 DUP4 PUSH2 0x5F9 JUMP JUMPDEST SWAP2 POP PUSH2 0xDC2 DUP3 PUSH2 0xD83 JUMP JUMPDEST PUSH1 0x20 DUP3 ADD SWAP1 POP SWAP2 SWAP1 POP JUMP JUMPDEST PUSH0 PUSH1 0x20 DUP3 ADD SWAP1 POP DUP2 DUP2 SUB PUSH0 DUP4 ADD MSTORE PUSH2 0xDE4 DUP2 PUSH2 0xDAB JUMP JUMPDEST SWAP1 POP SWAP2 SWAP1 POP JUMP JUMPDEST PUSH0 PUSH1 0x40 MLOAD SWAP1 POP SWAP1 JUMP JUMPDEST PUSH0 DUP1 REVERT JUMPDEST PUSH0 DUP1 REVERT JUMPDEST PUSH2 0xE05 DUP2 PUSH2 0x598 JUMP JUMPDEST DUP2 EQ PUSH2 0xE0F JUMPI PUSH0 DUP1 REVERT JUMPDEST POP JUMP JUMPDEST PUSH0 DUP2 MLOAD SWAP1 POP PUSH2 0xE20 DUP2 PUSH2 0xDFC JUMP JUMPDEST SWAP3 SWAP2 POP POP JUMP JUMPDEST PUSH0 PUSH2 0xE30 DUP3 PUSH2 0x5B0 JUMP JUMPDEST SWAP1 POP SWAP2 SWAP1 POP JUMP JUMPDEST PUSH2 0xE40 DUP2 PUSH2 0xE26 JUMP JUMPDEST DUP2 EQ PUSH2 0xE4A JUMPI PUSH0 DUP1 REVERT JUMPDEST POP JUMP JUMPDEST PUSH0 DUP2 MLOAD SWAP1 POP PUSH2 0xE5B DUP2 PUSH2 0xE37 JUMP JUMPDEST SWAP3 SWAP2 POP POP JUMP JUMPDEST PUSH0 DUP1 REVERT JUMPDEST PUSH0 DUP1 REVERT JUMPDEST PUSH2 0xE72 DUP3 PUSH2 0x530 JUMP JUMPDEST DUP2 ADD DUP2 DUP2 LT PUSH8 0xFFFFFFFFFFFFFFFF DUP3 GT OR ISZERO PUSH2 0xE91 JUMPI PUSH2 0xE90 PUSH2 0xAEA JUMP JUMPDEST JUMPDEST DUP1 PUSH1 0x40 MSTORE POP POP POP JUMP JUMPDEST PUSH0 PUSH2 0xEA3 PUSH2 0xDEB JUMP JUMPDEST SWAP1 POP PUSH2 0xEAF DUP3 DUP3 PUSH2 0xE69 JUMP JUMPDEST SWAP2 SWAP1 POP JUMP JUMPDEST PUSH0 PUSH8 0xFFFFFFFFFFFFFFFF DUP3 GT ISZERO PUSH2 0xECE JUMPI PUSH2 0xECD PUSH2 0xAEA JUMP JUMPDEST JUMPDEST PUSH2 0xED7 DUP3 PUSH2 0x530 JUMP JUMPDEST SWAP1 POP PUSH1 0x20 DUP2 ADD SWAP1 POP SWAP2 SWAP1 POP JUMP JUMPDEST PUSH0 PUSH2 0xEF6 PUSH2 0xEF1 DUP5 PUSH2 0xEB4 JUMP JUMPDEST PUSH2 0xE9A JUMP JUMPDEST SWAP1 POP DUP3 DUP2 MSTORE PUSH1 0x20 DUP2 ADD DUP5 DUP5 DUP5 ADD GT ISZERO PUSH2 0xF12 JUMPI PUSH2 0xF11 PUSH2 0xE65 JUMP JUMPDEST JUMPDEST PUSH2 0xF1D DUP5 DUP3 DUP6 PUSH2 0x522 JUMP JUMPDEST POP SWAP4 SWAP3 POP POP POP JUMP JUMPDEST PUSH0 DUP3 PUSH1 0x1F DUP4 ADD SLT PUSH2 0xF39 JUMPI PUSH2 0xF38 PUSH2 0xE61 JUMP JUMPDEST JUMPDEST DUP2 MLOAD PUSH2 0xF49 DUP5 DUP3 PUSH1 0x20 DUP7 ADD PUSH2 0xEE4 JUMP JUMPDEST SWAP2 POP POP SWAP3 SWAP2 POP POP JUMP JUMPDEST PUSH0 PUSH8 0xFFFFFFFFFFFFFFFF DUP3 GT ISZERO PUSH2 0xF6C JUMPI PUSH2 0xF6B PUSH2 0xAEA JUMP JUMPDEST JUMPDEST PUSH1 0x20 DUP3 MUL SWAP1 POP SWAP2 SWAP1 POP JUMP JUMPDEST PUSH0 DUP1 REVERT JUMPDEST PUSH0 PUSH2 0xF8D PUSH2 0xF88 DUP5 PUSH2 0xF52 JUMP JUMPDEST PUSH2 0xE9A JUMP JUMPDEST SWAP1 POP DUP1 PUSH1 0x20 DUP5 MUL DUP4 ADD DUP6 DUP2 GT ISZERO PUSH2 0xFA7 JUMPI PUSH2 0xFA6 PUSH2 0xF77 JUMP JUMPDEST JUMPDEST DUP4 JUMPDEST DUP2 DUP2 LT ISZERO PUSH2 0xFD0 JUMPI DUP1 PUSH2 0xFBC DUP9 DUP3 PUSH2 0xE12 JUMP JUMPDEST DUP5 MSTORE PUSH1 0x20 DUP5 ADD SWAP4 POP POP PUSH1 0x20 DUP2 ADD SWAP1 POP PUSH2 0xFA9 JUMP JUMPDEST POP POP POP SWAP4 SWAP3 POP POP POP JUMP JUMPDEST PUSH0 DUP3 PUSH1 0x1F DUP4 ADD SLT PUSH2 0xFEE JUMPI PUSH2 0xFED PUSH2 0xE61 JUMP JUMPDEST JUMPDEST PUSH1 0x2 PUSH2 0xFFB DUP5 DUP3 DUP6 PUSH2 0xF7B JUMP JUMPDEST SWAP2 POP POP SWAP3 SWAP2 POP POP JUMP JUMPDEST PUSH0 DUP1 PUSH0 DUP1 PUSH1 0xA0 DUP6 DUP8 SUB SLT ISZERO PUSH2 0x101C JUMPI PUSH2 0x101B PUSH2 0xDF4 JUMP JUMPDEST JUMPDEST PUSH0 PUSH2 0x1029 DUP8 DUP3 DUP9 ADD PUSH2 0xE12 JUMP JUMPDEST SWAP5 POP POP PUSH1 0x20 PUSH2 0x103A DUP8 DUP3 DUP9 ADD PUSH2 0xE4D JUMP JUMPDEST SWAP4 POP POP PUSH1 0x40 DUP6 ADD MLOAD PUSH8 0xFFFFFFFFFFFFFFFF DUP2 GT ISZERO PUSH2 0x105B JUMPI PUSH2 0x105A PUSH2 0xDF8 JUMP JUMPDEST JUMPDEST PUSH2 0x1067 DUP8 DUP3 DUP9 ADD PUSH2 0xF25 JUMP JUMPDEST SWAP3 POP POP PUSH1 0x60 PUSH2 0x1078 DUP8 DUP3 DUP9 ADD PUSH2 0xFDA JUMP JUMPDEST SWAP2 POP POP SWAP3 SWAP6 SWAP2 SWAP5 POP SWAP3 POP JUMP INVALID LOG2 PUSH5 0x6970667358 0x22 SLT KECCAK256 SWAP14 TLOAD TLOAD 0xBF 0x2F SWAP2 PUSH24 0xCC6814777C126252F5C9422E065F781B9893A6F53DEA677D 0xD5 PUSH5 0x736F6C6343 STOP ADDMOD NOT STOP CALLER "
				},
				"gasEstimates": {
					"creation": {
						"codeDepositCost": "856400",
						"executionCost": "infinite",
						"totalCost": "infinite"
					},
					"external": {
						"decode()": "infinite",
						"encode()": "infinite",
						"encodeData()": "infinite",
						"encodePacked()": "infinite",
						"encodeWithSelector()": "infinite",
						"encodeWithSignature()": "infinite"
					}
				},
				"methodIdentifiers": {
					"decode()": "c0f8940c",
					"encode()": "bd14598f",
					"encodeData()": "a5003ad1",
					"encodePacked()": "53d9c506",
					"encodeWithSelector()": "d1bd363d",
					"encodeWithSignature()": "e4f2a84a"
				}
			},
			"storageLayout": {
				"storage": [
					{
						"astId": 4,
						"contract": "Abi.sol:Abi",
						"label": "x",
						"offset": 0,
						"slot": "0",
						"type": "t_uint256"
					},
					{
						"astId": 7,
						"contract": "Abi.sol:Abi",
						"label": "addr",
						"offset": 0,
						"slot": "1",
						"type": "t_address"
					},
					{
						"astId": 10,
						"contract": "Abi.sol:Abi",
						"label": "name",
						"offset": 0,
						"slot": "2",
						"type": "t_string_storage"
					},
					{
						"astId": 17,
						"contract": "Abi.sol:Abi",
						"label": "array",
						"offset": 0,
						"slot": "3",
						"type": "t_array(t_uint256)2_storage"
					},
					{
						"astId": 19,
						"contract": "Abi.sol:Abi",
						"label": "encodeData",
						"offset": 0,
						"slot": "5",
						"type": "t_bytes_storage"
					}
				],
				"types": {
					"t_address": {
						"encoding": "inplace",
						"label": "address",
						"numberOfBytes": "20"
					},
					"t_array(t_uint256)2_storage": {
						"base": "t_uint256",
						"encoding": "inplace",
						"label": "uint256[2]",
						"numberOfBytes": "64"
					},
					"t_bytes_storage": {
						"encoding": "bytes",
						"label": "bytes",
						"numberOfBytes": "32"
					},
					"t_string_storage": {
						"encoding": "bytes",
						"label": "string",
						"numberOfBytes": "32"
					},
					"t_uint256": {
						"encoding": "inplace",
						"label": "uint256",
						"numberOfBytes": "32"
					}
				}
			},
			"userdoc": {
				"kind": "user",
				"methods": {},
				"version": 1
			}
		}
	}
}