{
	"Flow.sol": {
		"Flow": {
			"abi": [
				{
					"inputs": [],
					"name": "doWhileTest",
					"outputs": [
						{
							"internalType": "uint256",
							"name": "",
							"type": "uint256"
						}
					],
					"stateMutability": "pure",
					"type": "function"
				},
				{
					"inputs": [],
					"name": "forTest",
					"outputs": [
						{
							"internalType": "uint256",
							"name": "",
							"type": "uint256"
						}
					],
					"stateMutability": "pure",
					"type": "function"
				},
				{
					"inputs": [
						{
							"internalType": "uint256",
							"name": "x",
							"type": "uint256"
						}
					],
					"name": "ifTest",
					"outputs": [
						{
							"internalType": "bool",
							"name": "",
							"type": "bool"
						}
					],
					"stateMutability": "pure",
					"type": "function"
				},
				{
					"inputs": [
						{
							"internalType": "bool",
							"name": "x",
							"type": "bool"
						}
					],
					"name": "ternaryTest",
					"outputs": [
						{
							"internalType": "uint256",
							"name": "",
							"type": "uint256"
						}
					],
					"stateMutability": "pure",
					"type": "function"
				},
				{
					"inputs": [],
					"name": "whileTest",
					"outputs": [
						{
							"internalType": "uint256",
							"name": "",
							"type": "uint256"
						}
					],
					"stateMutability": "pure",
					"type": "function"
				}
			],
			"devdoc": {
				"kind": "dev",
				"methods": {},
				"version": 1
			},
			"evm": {
				"assembly": "    /* \"Flow.sol\":57:907  contract Flow {... */\n  mstore(0x40, 0x80)\n  callvalue\n  dup1\n  iszero\n  tag_1\n  jumpi\n  0x00\n  dup1\n  revert\ntag_1:\n  pop\n  dataSize(sub_0)\n  dup1\n  dataOffset(sub_0)\n  0x00\n  codecopy\n  0x00\n  return\nstop\n\nsub_0: assembly {\n        /* \"Flow.sol\":57:907  contract Flow {... */\n      mstore(0x40, 0x80)\n      callvalue\n      dup1\n      iszero\n      tag_1\n      jumpi\n      0x00\n      dup1\n      revert\n    tag_1:\n      pop\n      jumpi(tag_2, lt(calldatasize, 0x04))\n      shr(0xe0, calldataload(0x00))\n      dup1\n      0x2bbacaaa\n      eq\n      tag_3\n      jumpi\n      dup1\n      0x5d14639d\n      eq\n      tag_4\n      jumpi\n      dup1\n      0x689daefd\n      eq\n      tag_5\n      jumpi\n      dup1\n      0x8ab605e5\n      eq\n      tag_6\n      jumpi\n      dup1\n      0xde152f8d\n      eq\n      tag_7\n      jumpi\n    tag_2:\n      0x00\n      dup1\n      revert\n        /* \"Flow.sol\":614:812  function doWhileTest() public pure returns(uint256){... */\n    tag_3:\n      tag_8\n      tag_9\n      jump\t// in\n    tag_8:\n      mload(0x40)\n      tag_10\n      swap2\n      swap1\n      tag_11\n      jump\t// in\n    tag_10:\n      mload(0x40)\n      dup1\n      swap2\n      sub\n      swap1\n      return\n        /* \"Flow.sol\":413:608  function whileTest() public pure returns(uint256){... */\n    tag_4:\n      tag_12\n      tag_13\n      jump\t// in\n    tag_12:\n      mload(0x40)\n      tag_14\n      swap2\n      swap1\n      tag_11\n      jump\t// in\n    tag_14:\n      mload(0x40)\n      dup1\n      swap2\n      sub\n      swap1\n      return\n        /* \"Flow.sol\":818:905  function ternaryTest(bool x) public pure returns(uint){... */\n    tag_5:\n      tag_15\n      0x04\n      dup1\n      calldatasize\n      sub\n      dup2\n      add\n      swap1\n      tag_16\n      swap2\n      swap1\n      tag_17\n      jump\t// in\n    tag_16:\n      tag_18\n      jump\t// in\n    tag_15:\n      mload(0x40)\n      tag_19\n      swap2\n      swap1\n      tag_11\n      jump\t// in\n    tag_19:\n      mload(0x40)\n      dup1\n      swap2\n      sub\n      swap1\n      return\n        /* \"Flow.sol\":77:235  function ifTest(uint x) public  pure returns(bool) {... */\n    tag_6:\n      tag_20\n      0x04\n      dup1\n      calldatasize\n      sub\n      dup2\n      add\n      swap1\n      tag_21\n      swap2\n      swap1\n      tag_22\n      jump\t// in\n    tag_21:\n      tag_23\n      jump\t// in\n    tag_20:\n      mload(0x40)\n      tag_24\n      swap2\n      swap1\n      tag_25\n      jump\t// in\n    tag_24:\n      mload(0x40)\n      dup1\n      swap2\n      sub\n      swap1\n      return\n        /* \"Flow.sol\":241:407  function forTest() public pure returns(uint256){... */\n    tag_7:\n      tag_26\n      tag_27\n      jump\t// in\n    tag_26:\n      mload(0x40)\n      tag_28\n      swap2\n      swap1\n      tag_11\n      jump\t// in\n    tag_28:\n      mload(0x40)\n      dup1\n      swap2\n      sub\n      swap1\n      return\n        /* \"Flow.sol\":614:812  function doWhileTest() public pure returns(uint256){... */\n    tag_9:\n        /* \"Flow.sol\":657:664  uint256 */\n      0x00\n        /* \"Flow.sol\":675:683  uint sum */\n      dup1\n        /* \"Flow.sol\":686:687  0 */\n      0x00\n        /* \"Flow.sol\":675:687  uint sum = 0 */\n      swap1\n      pop\n        /* \"Flow.sol\":697:703  uint i */\n      0x00\n        /* \"Flow.sol\":718:785  do {... */\n    tag_30:\n        /* \"Flow.sol\":742:743  i */\n      dup1\n        /* \"Flow.sol\":735:743  sum += i */\n      dup3\n      tag_33\n      swap2\n      swap1\n      tag_34\n      jump\t// in\n    tag_33:\n      swap2\n      pop\n        /* \"Flow.sol\":757:760  i++ */\n      dup1\n      dup1\n      tag_35\n      swap1\n      tag_36\n      jump\t// in\n    tag_35:\n      swap2\n      pop\n      pop\n        /* \"Flow.sol\":781:783  10 */\n      0x0a\n        /* \"Flow.sol\":779:780  i */\n      dup2\n        /* \"Flow.sol\":779:783  i<10 */\n      lt\n        /* \"Flow.sol\":718:785  do {... */\n      tag_30\n      jumpi\n        /* \"Flow.sol\":802:805  sum */\n      dup2\n        /* \"Flow.sol\":795:805  return sum */\n      swap3\n      pop\n      pop\n      pop\n        /* \"Flow.sol\":614:812  function doWhileTest() public pure returns(uint256){... */\n      swap1\n      jump\t// out\n        /* \"Flow.sol\":413:608  function whileTest() public pure returns(uint256){... */\n    tag_13:\n        /* \"Flow.sol\":454:461  uint256 */\n      0x00\n        /* \"Flow.sol\":472:480  uint sum */\n      dup1\n        /* \"Flow.sol\":483:484  0 */\n      0x00\n        /* \"Flow.sol\":472:484  uint sum = 0 */\n      swap1\n      pop\n        /* \"Flow.sol\":494:500  uint i */\n      0x00\n        /* \"Flow.sol\":515:580  while (i < 10) {... */\n    tag_38:\n        /* \"Flow.sol\":526:528  10 */\n      0x0a\n        /* \"Flow.sol\":522:523  i */\n      dup2\n        /* \"Flow.sol\":522:528  i < 10 */\n      lt\n        /* \"Flow.sol\":515:580  while (i < 10) {... */\n      iszero\n      tag_39\n      jumpi\n        /* \"Flow.sol\":551:552  i */\n      dup1\n        /* \"Flow.sol\":544:552  sum += i */\n      dup3\n      tag_40\n      swap2\n      swap1\n      tag_34\n      jump\t// in\n    tag_40:\n      swap2\n      pop\n        /* \"Flow.sol\":566:569  i++ */\n      dup1\n      dup1\n      tag_41\n      swap1\n      tag_36\n      jump\t// in\n    tag_41:\n      swap2\n      pop\n      pop\n        /* \"Flow.sol\":515:580  while (i < 10) {... */\n      jump(tag_38)\n    tag_39:\n        /* \"Flow.sol\":597:600  sum */\n      dup2\n        /* \"Flow.sol\":590:601  return(sum) */\n      swap3\n      pop\n      pop\n      pop\n        /* \"Flow.sol\":413:608  function whileTest() public pure returns(uint256){... */\n      swap1\n      jump\t// out\n        /* \"Flow.sol\":818:905  function ternaryTest(bool x) public pure returns(uint){... */\n    tag_18:\n        /* \"Flow.sol\":867:871  uint */\n      0x00\n        /* \"Flow.sol\":889:890  x */\n      dup2\n        /* \"Flow.sol\":889:898  x ? 1 : 2 */\n      tag_43\n      jumpi\n        /* \"Flow.sol\":897:898  2 */\n      0x02\n        /* \"Flow.sol\":889:898  x ? 1 : 2 */\n      jump(tag_44)\n    tag_43:\n        /* \"Flow.sol\":893:894  1 */\n      0x01\n        /* \"Flow.sol\":889:898  x ? 1 : 2 */\n    tag_44:\n        /* \"Flow.sol\":882:898  return x ? 1 : 2 */\n      0xff\n      and\n      swap1\n      pop\n        /* \"Flow.sol\":818:905  function ternaryTest(bool x) public pure returns(uint){... */\n      swap2\n      swap1\n      pop\n      jump\t// out\n        /* \"Flow.sol\":77:235  function ifTest(uint x) public  pure returns(bool) {... */\n    tag_23:\n        /* \"Flow.sol\":122:126  bool */\n      0x00\n        /* \"Flow.sol\":147:148  1 */\n      0x01\n        /* \"Flow.sol\":142:143  x */\n      dup3\n        /* \"Flow.sol\":142:148  x == 1 */\n      sub\n        /* \"Flow.sol\":138:229  if (x == 1) {... */\n      tag_46\n      jumpi\n        /* \"Flow.sol\":171:175  true */\n      0x01\n        /* \"Flow.sol\":164:176  return(true) */\n      swap1\n      pop\n      jump(tag_45)\n        /* \"Flow.sol\":138:229  if (x == 1) {... */\n    tag_46:\n        /* \"Flow.sol\":212:217  false */\n      0x00\n        /* \"Flow.sol\":205:218  return(false) */\n      swap1\n      pop\n        /* \"Flow.sol\":77:235  function ifTest(uint x) public  pure returns(bool) {... */\n    tag_45:\n      swap2\n      swap1\n      pop\n      jump\t// out\n        /* \"Flow.sol\":241:407  function forTest() public pure returns(uint256){... */\n    tag_27:\n        /* \"Flow.sol\":280:287  uint256 */\n      0x00\n        /* \"Flow.sol\":298:306  uint sum */\n      dup1\n        /* \"Flow.sol\":309:310  0 */\n      0x00\n        /* \"Flow.sol\":298:310  uint sum = 0 */\n      swap1\n      pop\n        /* \"Flow.sol\":325:331  uint i */\n      0x00\n        /* \"Flow.sol\":320:379  for (uint i; i < 10; i++) {... */\n    tag_49:\n        /* \"Flow.sol\":337:339  10 */\n      0x0a\n        /* \"Flow.sol\":333:334  i */\n      dup2\n        /* \"Flow.sol\":333:339  i < 10 */\n      lt\n        /* \"Flow.sol\":320:379  for (uint i; i < 10; i++) {... */\n      iszero\n      tag_50\n      jumpi\n        /* \"Flow.sol\":367:368  i */\n      dup1\n        /* \"Flow.sol\":360:368  sum += i */\n      dup3\n      tag_52\n      swap2\n      swap1\n      tag_34\n      jump\t// in\n    tag_52:\n      swap2\n      pop\n        /* \"Flow.sol\":341:344  i++ */\n      dup1\n      dup1\n      0x01\n      add\n      swap2\n      pop\n      pop\n        /* \"Flow.sol\":320:379  for (uint i; i < 10; i++) {... */\n      jump(tag_49)\n    tag_50:\n      pop\n        /* \"Flow.sol\":396:399  sum */\n      dup1\n        /* \"Flow.sol\":389:400  return(sum) */\n      swap2\n      pop\n      pop\n        /* \"Flow.sol\":241:407  function forTest() public pure returns(uint256){... */\n      swap1\n      jump\t// out\n        /* \"#utility.yul\":7:84   */\n    tag_53:\n        /* \"#utility.yul\":44:51   */\n      0x00\n        /* \"#utility.yul\":73:78   */\n      dup2\n        /* \"#utility.yul\":62:78   */\n      swap1\n      pop\n        /* \"#utility.yul\":7:84   */\n      swap2\n      swap1\n      pop\n      jump\t// out\n        /* \"#utility.yul\":90:208   */\n    tag_54:\n        /* \"#utility.yul\":177:201   */\n      tag_68\n        /* \"#utility.yul\":195:200   */\n      dup2\n        /* \"#utility.yul\":177:201   */\n      tag_53\n      jump\t// in\n    tag_68:\n        /* \"#utility.yul\":172:175   */\n      dup3\n        /* \"#utility.yul\":165:202   */\n      mstore\n        /* \"#utility.yul\":90:208   */\n      pop\n      pop\n      jump\t// out\n        /* \"#utility.yul\":214:436   */\n    tag_11:\n        /* \"#utility.yul\":307:311   */\n      0x00\n        /* \"#utility.yul\":345:347   */\n      0x20\n        /* \"#utility.yul\":334:343   */\n      dup3\n        /* \"#utility.yul\":330:348   */\n      add\n        /* \"#utility.yul\":322:348   */\n      swap1\n      pop\n        /* \"#utility.yul\":358:429   */\n      tag_70\n        /* \"#utility.yul\":426:427   */\n      0x00\n        /* \"#utility.yul\":415:424   */\n      dup4\n        /* \"#utility.yul\":411:428   */\n      add\n        /* \"#utility.yul\":402:408   */\n      dup5\n        /* \"#utility.yul\":358:429   */\n      tag_54\n      jump\t// in\n    tag_70:\n        /* \"#utility.yul\":214:436   */\n      swap3\n      swap2\n      pop\n      pop\n      jump\t// out\n        /* \"#utility.yul\":523:640   */\n    tag_56:\n        /* \"#utility.yul\":632:633   */\n      0x00\n        /* \"#utility.yul\":629:630   */\n      dup1\n        /* \"#utility.yul\":622:634   */\n      revert\n        /* \"#utility.yul\":769:859   */\n    tag_58:\n        /* \"#utility.yul\":803:810   */\n      0x00\n        /* \"#utility.yul\":846:851   */\n      dup2\n        /* \"#utility.yul\":839:852   */\n      iszero\n        /* \"#utility.yul\":832:853   */\n      iszero\n        /* \"#utility.yul\":821:853   */\n      swap1\n      pop\n        /* \"#utility.yul\":769:859   */\n      swap2\n      swap1\n      pop\n      jump\t// out\n        /* \"#utility.yul\":865:981   */\n    tag_59:\n        /* \"#utility.yul\":935:956   */\n      tag_76\n        /* \"#utility.yul\":950:955   */\n      dup2\n        /* \"#utility.yul\":935:956   */\n      tag_58\n      jump\t// in\n    tag_76:\n        /* \"#utility.yul\":928:933   */\n      dup2\n        /* \"#utility.yul\":925:957   */\n      eq\n        /* \"#utility.yul\":915:975   */\n      tag_77\n      jumpi\n        /* \"#utility.yul\":971:972   */\n      0x00\n        /* \"#utility.yul\":968:969   */\n      dup1\n        /* \"#utility.yul\":961:973   */\n      revert\n        /* \"#utility.yul\":915:975   */\n    tag_77:\n        /* \"#utility.yul\":865:981   */\n      pop\n      jump\t// out\n        /* \"#utility.yul\":987:1120   */\n    tag_60:\n        /* \"#utility.yul\":1030:1035   */\n      0x00\n        /* \"#utility.yul\":1068:1074   */\n      dup2\n        /* \"#utility.yul\":1055:1075   */\n      calldataload\n        /* \"#utility.yul\":1046:1075   */\n      swap1\n      pop\n        /* \"#utility.yul\":1084:1114   */\n      tag_79\n        /* \"#utility.yul\":1108:1113   */\n      dup2\n        /* \"#utility.yul\":1084:1114   */\n      tag_59\n      jump\t// in\n    tag_79:\n        /* \"#utility.yul\":987:1120   */\n      swap3\n      swap2\n      pop\n      pop\n      jump\t// out\n        /* \"#utility.yul\":1126:1449   */\n    tag_17:\n        /* \"#utility.yul\":1182:1188   */\n      0x00\n        /* \"#utility.yul\":1231:1233   */\n      0x20\n        /* \"#utility.yul\":1219:1228   */\n      dup3\n        /* \"#utility.yul\":1210:1217   */\n      dup5\n        /* \"#utility.yul\":1206:1229   */\n      sub\n        /* \"#utility.yul\":1202:1234   */\n      slt\n        /* \"#utility.yul\":1199:1318   */\n      iszero\n      tag_81\n      jumpi\n        /* \"#utility.yul\":1237:1316   */\n      tag_82\n      tag_56\n      jump\t// in\n    tag_82:\n        /* \"#utility.yul\":1199:1318   */\n    tag_81:\n        /* \"#utility.yul\":1357:1358   */\n      0x00\n        /* \"#utility.yul\":1382:1432   */\n      tag_83\n        /* \"#utility.yul\":1424:1431   */\n      dup5\n        /* \"#utility.yul\":1415:1421   */\n      dup3\n        /* \"#utility.yul\":1404:1413   */\n      dup6\n        /* \"#utility.yul\":1400:1422   */\n      add\n        /* \"#utility.yul\":1382:1432   */\n      tag_60\n      jump\t// in\n    tag_83:\n        /* \"#utility.yul\":1372:1432   */\n      swap2\n      pop\n        /* \"#utility.yul\":1328:1442   */\n      pop\n        /* \"#utility.yul\":1126:1449   */\n      swap3\n      swap2\n      pop\n      pop\n      jump\t// out\n        /* \"#utility.yul\":1455:1577   */\n    tag_61:\n        /* \"#utility.yul\":1528:1552   */\n      tag_85\n        /* \"#utility.yul\":1546:1551   */\n      dup2\n        /* \"#utility.yul\":1528:1552   */\n      tag_53\n      jump\t// in\n    tag_85:\n        /* \"#utility.yul\":1521:1526   */\n      dup2\n        /* \"#utility.yul\":1518:1553   */\n      eq\n        /* \"#utility.yul\":1508:1571   */\n      tag_86\n      jumpi\n        /* \"#utility.yul\":1567:1568   */\n      0x00\n        /* \"#utility.yul\":1564:1565   */\n      dup1\n        /* \"#utility.yul\":1557:1569   */\n      revert\n        /* \"#utility.yul\":1508:1571   */\n    tag_86:\n        /* \"#utility.yul\":1455:1577   */\n      pop\n      jump\t// out\n        /* \"#utility.yul\":1583:1722   */\n    tag_62:\n        /* \"#utility.yul\":1629:1634   */\n      0x00\n        /* \"#utility.yul\":1667:1673   */\n      dup2\n        /* \"#utility.yul\":1654:1674   */\n      calldataload\n        /* \"#utility.yul\":1645:1674   */\n      swap1\n      pop\n        /* \"#utility.yul\":1683:1716   */\n      tag_88\n        /* \"#utility.yul\":1710:1715   */\n      dup2\n        /* \"#utility.yul\":1683:1716   */\n      tag_61\n      jump\t// in\n    tag_88:\n        /* \"#utility.yul\":1583:1722   */\n      swap3\n      swap2\n      pop\n      pop\n      jump\t// out\n        /* \"#utility.yul\":1728:2057   */\n    tag_22:\n        /* \"#utility.yul\":1787:1793   */\n      0x00\n        /* \"#utility.yul\":1836:1838   */\n      0x20\n        /* \"#utility.yul\":1824:1833   */\n      dup3\n        /* \"#utility.yul\":1815:1822   */\n      dup5\n        /* \"#utility.yul\":1811:1834   */\n      sub\n        /* \"#utility.yul\":1807:1839   */\n      slt\n        /* \"#utility.yul\":1804:1923   */\n      iszero\n      tag_90\n      jumpi\n        /* \"#utility.yul\":1842:1921   */\n      tag_91\n      tag_56\n      jump\t// in\n    tag_91:\n        /* \"#utility.yul\":1804:1923   */\n    tag_90:\n        /* \"#utility.yul\":1962:1963   */\n      0x00\n        /* \"#utility.yul\":1987:2040   */\n      tag_92\n        /* \"#utility.yul\":2032:2039   */\n      dup5\n        /* \"#utility.yul\":2023:2029   */\n      dup3\n        /* \"#utility.yul\":2012:2021   */\n      dup6\n        /* \"#utility.yul\":2008:2030   */\n      add\n        /* \"#utility.yul\":1987:2040   */\n      tag_62\n      jump\t// in\n    tag_92:\n        /* \"#utility.yul\":1977:2040   */\n      swap2\n      pop\n        /* \"#utility.yul\":1933:2050   */\n      pop\n        /* \"#utility.yul\":1728:2057   */\n      swap3\n      swap2\n      pop\n      pop\n      jump\t// out\n        /* \"#utility.yul\":2063:2172   */\n    tag_63:\n        /* \"#utility.yul\":2144:2165   */\n      tag_94\n        /* \"#utility.yul\":2159:2164   */\n      dup2\n        /* \"#utility.yul\":2144:2165   */\n      tag_58\n      jump\t// in\n    tag_94:\n        /* \"#utility.yul\":2139:2142   */\n      dup3\n        /* \"#utility.yul\":2132:2166   */\n      mstore\n        /* \"#utility.yul\":2063:2172   */\n      pop\n      pop\n      jump\t// out\n        /* \"#utility.yul\":2178:2388   */\n    tag_25:\n        /* \"#utility.yul\":2265:2269   */\n      0x00\n        /* \"#utility.yul\":2303:2305   */\n      0x20\n        /* \"#utility.yul\":2292:2301   */\n      dup3\n        /* \"#utility.yul\":2288:2306   */\n      add\n        /* \"#utility.yul\":2280:2306   */\n      swap1\n      pop\n        /* \"#utility.yul\":2316:2381   */\n      tag_96\n        /* \"#utility.yul\":2378:2379   */\n      0x00\n        /* \"#utility.yul\":2367:2376   */\n      dup4\n        /* \"#utility.yul\":2363:2380   */\n      add\n        /* \"#utility.yul\":2354:2360   */\n      dup5\n        /* \"#utility.yul\":2316:2381   */\n      tag_63\n      jump\t// in\n    tag_96:\n        /* \"#utility.yul\":2178:2388   */\n      swap3\n      swap2\n      pop\n      pop\n      jump\t// out\n        /* \"#utility.yul\":2394:2574   */\n    tag_64:\n        /* \"#utility.yul\":2442:2519   */\n      0x4e487b7100000000000000000000000000000000000000000000000000000000\n        /* \"#utility.yul\":2439:2440   */\n      0x00\n        /* \"#utility.yul\":2432:2520   */\n      mstore\n        /* \"#utility.yul\":2539:2543   */\n      0x11\n        /* \"#utility.yul\":2536:2537   */\n      0x04\n        /* \"#utility.yul\":2529:2544   */\n      mstore\n        /* \"#utility.yul\":2563:2567   */\n      0x24\n        /* \"#utility.yul\":2560:2561   */\n      0x00\n        /* \"#utility.yul\":2553:2568   */\n      revert\n        /* \"#utility.yul\":2580:2771   */\n    tag_34:\n        /* \"#utility.yul\":2620:2623   */\n      0x00\n        /* \"#utility.yul\":2639:2659   */\n      tag_99\n        /* \"#utility.yul\":2657:2658   */\n      dup3\n        /* \"#utility.yul\":2639:2659   */\n      tag_53\n      jump\t// in\n    tag_99:\n        /* \"#utility.yul\":2634:2659   */\n      swap2\n      pop\n        /* \"#utility.yul\":2673:2693   */\n      tag_100\n        /* \"#utility.yul\":2691:2692   */\n      dup4\n        /* \"#utility.yul\":2673:2693   */\n      tag_53\n      jump\t// in\n    tag_100:\n        /* \"#utility.yul\":2668:2693   */\n      swap3\n      pop\n        /* \"#utility.yul\":2716:2717   */\n      dup3\n        /* \"#utility.yul\":2713:2714   */\n      dup3\n        /* \"#utility.yul\":2709:2718   */\n      add\n        /* \"#utility.yul\":2702:2718   */\n      swap1\n      pop\n        /* \"#utility.yul\":2737:2740   */\n      dup1\n        /* \"#utility.yul\":2734:2735   */\n      dup3\n        /* \"#utility.yul\":2731:2741   */\n      gt\n        /* \"#utility.yul\":2728:2764   */\n      iszero\n      tag_101\n      jumpi\n        /* \"#utility.yul\":2744:2762   */\n      tag_102\n      tag_64\n      jump\t// in\n    tag_102:\n        /* \"#utility.yul\":2728:2764   */\n    tag_101:\n        /* \"#utility.yul\":2580:2771   */\n      swap3\n      swap2\n      pop\n      pop\n      jump\t// out\n        /* \"#utility.yul\":2777:3010   */\n    tag_36:\n        /* \"#utility.yul\":2816:2819   */\n      0x00\n        /* \"#utility.yul\":2839:2863   */\n      tag_104\n        /* \"#utility.yul\":2857:2862   */\n      dup3\n        /* \"#utility.yul\":2839:2863   */\n      tag_53\n      jump\t// in\n    tag_104:\n        /* \"#utility.yul\":2830:2863   */\n      swap2\n      pop\n        /* \"#utility.yul\":2885:2951   */\n      0xffffffffffffffffffffffffffffffffffffffffffffffffffffffffffffffff\n        /* \"#utility.yul\":2878:2883   */\n      dup3\n        /* \"#utility.yul\":2875:2952   */\n      sub\n        /* \"#utility.yul\":2872:2975   */\n      tag_105\n      jumpi\n        /* \"#utility.yul\":2955:2973   */\n      tag_106\n      tag_64\n      jump\t// in\n    tag_106:\n        /* \"#utility.yul\":2872:2975   */\n    tag_105:\n        /* \"#utility.yul\":3002:3003   */\n      0x01\n        /* \"#utility.yul\":2995:3000   */\n      dup3\n        /* \"#utility.yul\":2991:3004   */\n      add\n        /* \"#utility.yul\":2984:3004   */\n      swap1\n      pop\n        /* \"#utility.yul\":2777:3010   */\n      swap2\n      swap1\n      pop\n      jump\t// out\n\n    auxdata: 0xa2646970667358221220e1c6af6423b358d4de1a2baa96300775ee722abc5fb473ea84c6dfcd531c702b64736f6c63430008190033\n}\n",
				"bytecode": {
					"linkReferences": {},
					"object": "6080604052348015600e575f80fd5b506103d68061001c5f395ff3fe608060405234801561000f575f80fd5b5060043610610055575f3560e01c80632bbacaaa146100595780635d14639d14610077578063689daefd146100955780638ab605e5146100c5578063de152f8d146100f5575b5f80fd5b610061610113565b60405161006e91906101ff565b60405180910390f35b61007f610146565b60405161008c91906101ff565b60405180910390f35b6100af60048036038101906100aa9190610251565b61017f565b6040516100bc91906101ff565b60405180910390f35b6100df60048036038101906100da91906102a6565b610199565b6040516100ec91906102e0565b60405180910390f35b6100fd6101b4565b60405161010a91906101ff565b60405180910390f35b5f805f90505f5b80826101269190610326565b9150808061013390610359565b915050600a811061011a57819250505090565b5f805f90505f5b600a8110156101775780826101629190610326565b9150808061016f90610359565b91505061014d565b819250505090565b5f8161018c57600261018f565b60015b60ff169050919050565b5f600182036101ab57600190506101af565b5f90505b919050565b5f805f90505f5b600a8110156101df5780826101d09190610326565b915080806001019150506101bb565b508091505090565b5f819050919050565b6101f9816101e7565b82525050565b5f6020820190506102125f8301846101f0565b92915050565b5f80fd5b5f8115159050919050565b6102308161021c565b811461023a575f80fd5b50565b5f8135905061024b81610227565b92915050565b5f6020828403121561026657610265610218565b5b5f6102738482850161023d565b91505092915050565b610285816101e7565b811461028f575f80fd5b50565b5f813590506102a08161027c565b92915050565b5f602082840312156102bb576102ba610218565b5b5f6102c884828501610292565b91505092915050565b6102da8161021c565b82525050565b5f6020820190506102f35f8301846102d1565b92915050565b7f4e487b71000000000000000000000000000000000000000000000000000000005f52601160045260245ffd5b5f610330826101e7565b915061033b836101e7565b9250828201905080821115610353576103526102f9565b5b92915050565b5f610363826101e7565b91507fffffffffffffffffffffffffffffffffffffffffffffffffffffffffffffffff8203610395576103946102f9565b5b60018201905091905056fea2646970667358221220e1c6af6423b358d4de1a2baa96300775ee722abc5fb473ea84c6dfcd531c702b64736f6c63430008190033",
					"opcodes": "PUSH1 0x80 PUSH1 0x40 MSTORE CALLVALUE DUP1 ISZERO PUSH1 0xE JUMPI PUSH0 DUP1 REVERT JUMPDEST POP PUSH2 0x3D6 DUP1 PUSH2 0x1C PUSH0 CODECOPY PUSH0 RETURN INVALID PUSH1 0x80 PUSH1 0x40 MSTORE CALLVALUE DUP1 ISZERO PUSH2 0xF JUMPI PUSH0 DUP1 REVERT JUMPDEST POP PUSH1 0x4 CALLDATASIZE LT PUSH2 0x55 JUMPI PUSH0 CALLDATALOAD PUSH1 0xE0 SHR DUP1 PUSH4 0x2BBACAAA EQ PUSH2 0x59 JUMPI DUP1 PUSH4 0x5D14639D EQ PUSH2 0x77 JUMPI DUP1 PUSH4 0x689DAEFD EQ PUSH2 0x95 JUMPI DUP1 PUSH4 0x8AB605E5 EQ PUSH2 0xC5 JUMPI DUP1 PUSH4 0xDE152F8D EQ PUSH2 0xF5 JUMPI JUMPDEST PUSH0 DUP1 REVERT JUMPDEST PUSH2 0x61 PUSH2 0x113 JUMP JUMPDEST PUSH1 0x40 MLOAD PUSH2 0x6E SWAP2 SWAP1 PUSH2 0x1FF JUMP JUMPDEST PUSH1 0x40 MLOAD DUP1 SWAP2 SUB SWAP1 RETURN JUMPDEST PUSH2 0x7F PUSH2 0x146 JUMP JUMPDEST PUSH1 0x40 MLOAD PUSH2 0x8C SWAP2 SWAP1 PUSH2 0x1FF JUMP JUMPDEST PUSH1 0x40 MLOAD DUP1 SWAP2 SUB SWAP1 RETURN JUMPDEST PUSH2 0xAF PUSH1 0x4 DUP1 CALLDATASIZE SUB DUP2 ADD SWAP1 PUSH2 0xAA SWAP2 SWAP1 PUSH2 0x251 JUMP JUMPDEST PUSH2 0x17F JUMP JUMPDEST PUSH1 0x40 MLOAD PUSH2 0xBC SWAP2 SWAP1 PUSH2 0x1FF JUMP JUMPDEST PUSH1 0x40 MLOAD DUP1 SWAP2 SUB SWAP1 RETURN JUMPDEST PUSH2 0xDF PUSH1 0x4 DUP1 CALLDATASIZE SUB DUP2 ADD SWAP1 PUSH2 0xDA SWAP2 SWAP1 PUSH2 0x2A6 JUMP JUMPDEST PUSH2 0x199 JUMP JUMPDEST PUSH1 0x40 MLOAD PUSH2 0xEC SWAP2 SWAP1 PUSH2 0x2E0 JUMP JUMPDEST PUSH1 0x40 MLOAD DUP1 SWAP2 SUB SWAP1 RETURN JUMPDEST PUSH2 0xFD PUSH2 0x1B4 JUMP JUMPDEST PUSH1 0x40 MLOAD PUSH2 0x10A SWAP2 SWAP1 PUSH2 0x1FF JUMP JUMPDEST PUSH1 0x40 MLOAD DUP1 SWAP2 SUB SWAP1 RETURN JUMPDEST PUSH0 DUP1 PUSH0 SWAP1 POP PUSH0 JUMPDEST DUP1 DUP3 PUSH2 0x126 SWAP2 SWAP1 PUSH2 0x326 JUMP JUMPDEST SWAP2 POP DUP1 DUP1 PUSH2 0x133 SWAP1 PUSH2 0x359 JUMP JUMPDEST SWAP2 POP POP PUSH1 0xA DUP2 LT PUSH2 0x11A JUMPI DUP2 SWAP3 POP POP POP SWAP1 JUMP JUMPDEST PUSH0 DUP1 PUSH0 SWAP1 POP PUSH0 JUMPDEST PUSH1 0xA DUP2 LT ISZERO PUSH2 0x177 JUMPI DUP1 DUP3 PUSH2 0x162 SWAP2 SWAP1 PUSH2 0x326 JUMP JUMPDEST SWAP2 POP DUP1 DUP1 PUSH2 0x16F SWAP1 PUSH2 0x359 JUMP JUMPDEST SWAP2 POP POP PUSH2 0x14D JUMP JUMPDEST DUP2 SWAP3 POP POP POP SWAP1 JUMP JUMPDEST PUSH0 DUP2 PUSH2 0x18C JUMPI PUSH1 0x2 PUSH2 0x18F JUMP JUMPDEST PUSH1 0x1 JUMPDEST PUSH1 0xFF AND SWAP1 POP SWAP2 SWAP1 POP JUMP JUMPDEST PUSH0 PUSH1 0x1 DUP3 SUB PUSH2 0x1AB JUMPI PUSH1 0x1 SWAP1 POP PUSH2 0x1AF JUMP JUMPDEST PUSH0 SWAP1 POP JUMPDEST SWAP2 SWAP1 POP JUMP JUMPDEST PUSH0 DUP1 PUSH0 SWAP1 POP PUSH0 JUMPDEST PUSH1 0xA DUP2 LT ISZERO PUSH2 0x1DF JUMPI DUP1 DUP3 PUSH2 0x1D0 SWAP2 SWAP1 PUSH2 0x326 JUMP JUMPDEST SWAP2 POP DUP1 DUP1 PUSH1 0x1 ADD SWAP2 POP POP PUSH2 0x1BB JUMP JUMPDEST POP DUP1 SWAP2 POP POP SWAP1 JUMP JUMPDEST PUSH0 DUP2 SWAP1 POP SWAP2 SWAP1 POP JUMP JUMPDEST PUSH2 0x1F9 DUP2 PUSH2 0x1E7 JUMP JUMPDEST DUP3 MSTORE POP POP JUMP JUMPDEST PUSH0 PUSH1 0x20 DUP3 ADD SWAP1 POP PUSH2 0x212 PUSH0 DUP4 ADD DUP5 PUSH2 0x1F0 JUMP JUMPDEST SWAP3 SWAP2 POP POP JUMP JUMPDEST PUSH0 DUP1 REVERT JUMPDEST PUSH0 DUP2 ISZERO ISZERO SWAP1 POP SWAP2 SWAP1 POP JUMP JUMPDEST PUSH2 0x230 DUP2 PUSH2 0x21C JUMP JUMPDEST DUP2 EQ PUSH2 0x23A JUMPI PUSH0 DUP1 REVERT JUMPDEST POP JUMP JUMPDEST PUSH0 DUP2 CALLDATALOAD SWAP1 POP PUSH2 0x24B DUP2 PUSH2 0x227 JUMP JUMPDEST SWAP3 SWAP2 POP POP JUMP JUMPDEST PUSH0 PUSH1 0x20 DUP3 DUP5 SUB SLT ISZERO PUSH2 0x266 JUMPI PUSH2 0x265 PUSH2 0x218 JUMP JUMPDEST JUMPDEST PUSH0 PUSH2 0x273 DUP5 DUP3 DUP6 ADD PUSH2 0x23D JUMP JUMPDEST SWAP2 POP POP SWAP3 SWAP2 POP POP JUMP JUMPDEST PUSH2 0x285 DUP2 PUSH2 0x1E7 JUMP JUMPDEST DUP2 EQ PUSH2 0x28F JUMPI PUSH0 DUP1 REVERT JUMPDEST POP JUMP JUMPDEST PUSH0 DUP2 CALLDATALOAD SWAP1 POP PUSH2 0x2A0 DUP2 PUSH2 0x27C JUMP JUMPDEST SWAP3 SWAP2 POP POP JUMP JUMPDEST PUSH0 PUSH1 0x20 DUP3 DUP5 SUB SLT ISZERO PUSH2 0x2BB JUMPI PUSH2 0x2BA PUSH2 0x218 JUMP JUMPDEST JUMPDEST PUSH0 PUSH2 0x2C8 DUP5 DUP3 DUP6 ADD PUSH2 0x292 JUMP JUMPDEST SWAP2 POP POP SWAP3 SWAP2 POP POP JUMP JUMPDEST PUSH2 0x2DA DUP2 PUSH2 0x21C JUMP JUMPDEST DUP3 MSTORE POP POP JUMP JUMPDEST PUSH0 PUSH1 0x20 DUP3 ADD SWAP1 POP PUSH2 0x2F3 PUSH0 DUP4 ADD DUP5 PUSH2 0x2D1 JUMP JUMPDEST SWAP3 SWAP2 POP POP JUMP JUMPDEST PUSH32 0x4E487B7100000000000000000000000000000000000000000000000000000000 PUSH0 MSTORE PUSH1 0x11 PUSH1 0x4 MSTORE PUSH1 0x24 PUSH0 REVERT JUMPDEST PUSH0 PUSH2 0x330 DUP3 PUSH2 0x1E7 JUMP JUMPDEST SWAP2 POP PUSH2 0x33B DUP4 PUSH2 0x1E7 JUMP JUMPDEST SWAP3 POP DUP3 DUP3 ADD SWAP1 POP DUP1 DUP3 GT ISZERO PUSH2 0x353 JUMPI PUSH2 0x352 PUSH2 0x2F9 JUMP JUMPDEST JUMPDEST SWAP3 SWAP2 POP POP JUMP JUMPDEST PUSH0 PUSH2 0x363 DUP3 PUSH2 0x1E7 JUMP JUMPDEST SWAP2 POP PUSH32 0xFFFFFFFFFFFFFFFFFFFFFFFFFFFFFFFFFFFFFFFFFFFFFFFFFFFFFFFFFFFFFFFF DUP3 SUB PUSH2 0x395 JUMPI PUSH2 0x394 PUSH2 0x2F9 JUMP JUMPDEST JUMPDEST PUSH1 0x1 DUP3 ADD SWAP1 POP SWAP2 SWAP1 POP JUMP INVALID LOG2 PUSH5 0x6970667358 0x22 SLT KECCAK256 0xE1 0xC6 0xAF PUSH5 0x23B358D4DE BYTE 0x2B 0xAA SWAP7 ADDRESS SMOD PUSH22 0xEE722ABC5FB473EA84C6DFCD531C702B64736F6C6343 STOP ADDMOD NOT STOP CALLER "
				},
				"gasEstimates": {
					"creation": {
						"codeDepositCost": "196400",
						"executionCost": "236",
						"totalCost": "196636"
					},
					"external": {
						"doWhileTest()": "infinite",
						"forTest()": "infinite",
						"ifTest(uint256)": "677",
						"ternaryTest(bool)": "655",
						"whileTest()": "infinite"
					}
				},
				"methodIdentifiers": {
					"doWhileTest()": "2bbacaaa",
					"forTest()": "de152f8d",
					"ifTest(uint256)": "8ab605e5",
					"ternaryTest(bool)": "689daefd",
					"whileTest()": "5d14639d"
				}
			},
			"storageLayout": {
				"storage": [],
				"types": null
			},
			"userdoc": {
				"kind": "user",
				"methods": {},
				"version": 1
			}
		}
	}
}