{
	"CallContract.sol": {
		"CallContract": {
			"abi": [
				{
					"inputs": [
						{
							"internalType": "contract OtherContract",
							"name": "addr",
							"type": "address"
						}
					],
					"name": "callGetXByName",
					"outputs": [
						{
							"internalType": "uint256",
							"name": "",
							"type": "uint256"
						}
					],
					"stateMutability": "view",
					"type": "function"
				},
				{
					"inputs": [
						{
							"internalType": "address",
							"name": "addr",
							"type": "address"
						},
						{
							"internalType": "uint256",
							"name": "x",
							"type": "uint256"
						}
					],
					"name": "callSetXByAddr",
					"outputs": [
						{
							"internalType": "uint256",
							"name": "",
							"type": "uint256"
						}
					],
					"stateMutability": "nonpayable",
					"type": "function"
				},
				{
					"inputs": [
						{
							"internalType": "address",
							"name": "addr",
							"type": "address"
						},
						{
							"internalType": "uint256",
							"name": "x",
							"type": "uint256"
						}
					],
					"name": "callSetXWithTransfer",
					"outputs": [],
					"stateMutability": "payable",
					"type": "function"
				}
			],
			"devdoc": {
				"kind": "dev",
				"methods": {},
				"version": 1
			},
			"evm": {
				"assembly": "    /* \"CallContract.sol\":595:1879  contract CallContract {... */\n  mstore(0x40, 0x80)\n  callvalue\n  dup1\n  iszero\n  tag_1\n  jumpi\n  0x00\n  dup1\n  revert\ntag_1:\n  pop\n  dataSize(sub_0)\n  dup1\n  dataOffset(sub_0)\n  0x00\n  codecopy\n  0x00\n  return\nstop\n\nsub_0: assembly {\n        /* \"CallContract.sol\":595:1879  contract CallContract {... */\n      mstore(0x40, 0x80)\n      jumpi(tag_1, lt(calldatasize, 0x04))\n      shr(0xe0, calldataload(0x00))\n      dup1\n      0x70f4e4\n      eq\n      tag_2\n      jumpi\n      dup1\n      0x6b13cbaa\n      eq\n      tag_3\n      jumpi\n      dup1\n      0x84fc125f\n      eq\n      tag_4\n      jumpi\n    tag_1:\n      0x00\n      dup1\n      revert\n        /* \"CallContract.sol\":1686:1877  function callSetXWithTransfer(address addr, uint256 x) external payable {... */\n    tag_2:\n      tag_5\n      0x04\n      dup1\n      calldatasize\n      sub\n      dup2\n      add\n      swap1\n      tag_6\n      swap2\n      swap1\n      tag_7\n      jump\t// in\n    tag_6:\n      tag_8\n      jump\t// in\n    tag_5:\n      stop\n        /* \"CallContract.sol\":623:1364  function callSetXByAddr(address addr, uint256 x) external returns(uint) {... */\n    tag_3:\n      callvalue\n      dup1\n      iszero\n      tag_9\n      jumpi\n      0x00\n      dup1\n      revert\n    tag_9:\n      pop\n      tag_10\n      0x04\n      dup1\n      calldatasize\n      sub\n      dup2\n      add\n      swap1\n      tag_11\n      swap2\n      swap1\n      tag_7\n      jump\t// in\n    tag_11:\n      tag_12\n      jump\t// in\n    tag_10:\n      mload(0x40)\n      tag_13\n      swap2\n      swap1\n      tag_14\n      jump\t// in\n    tag_13:\n      mload(0x40)\n      dup1\n      swap2\n      sub\n      swap1\n      return\n        /* \"CallContract.sol\":1540:1680  function callGetXByName(OtherContract addr) external view returns(uint) {... */\n    tag_4:\n      callvalue\n      dup1\n      iszero\n      tag_15\n      jumpi\n      0x00\n      dup1\n      revert\n    tag_15:\n      pop\n      tag_16\n      0x04\n      dup1\n      calldatasize\n      sub\n      dup2\n      add\n      swap1\n      tag_17\n      swap2\n      swap1\n      tag_18\n      jump\t// in\n    tag_17:\n      tag_19\n      jump\t// in\n    tag_16:\n      mload(0x40)\n      tag_20\n      swap2\n      swap1\n      tag_14\n      jump\t// in\n    tag_20:\n      mload(0x40)\n      dup1\n      swap2\n      sub\n      swap1\n      return\n        /* \"CallContract.sol\":1686:1877  function callSetXWithTransfer(address addr, uint256 x) external payable {... */\n    tag_8:\n        /* \"CallContract.sol\":1839:1843  addr */\n      dup2\n        /* \"CallContract.sol\":1825:1849  OtherContract(addr).setX */\n      0xffffffffffffffffffffffffffffffffffffffff\n      and\n      0x4018d9aa\n        /* \"CallContract.sol\":1857:1866  msg.value */\n      callvalue\n        /* \"CallContract.sol\":1868:1869  x */\n      dup4\n        /* \"CallContract.sol\":1825:1870  OtherContract(addr).setX{value: msg.value}(x) */\n      mload(0x40)\n      dup4\n      0xffffffff\n      and\n      0xe0\n      shl\n      dup2\n      mstore\n      0x04\n      add\n      tag_22\n      swap2\n      swap1\n      tag_14\n      jump\t// in\n    tag_22:\n      0x00\n      mload(0x40)\n      dup1\n      dup4\n      sub\n      dup2\n      dup6\n      dup9\n      dup1\n      extcodesize\n      iszero\n      dup1\n      iszero\n      tag_23\n      jumpi\n      0x00\n      dup1\n      revert\n    tag_23:\n      pop\n      gas\n      call\n      iszero\n      dup1\n      iszero\n      tag_25\n      jumpi\n      returndatasize\n      0x00\n      dup1\n      returndatacopy\n      revert(0x00, returndatasize)\n    tag_25:\n      pop\n      pop\n      pop\n      pop\n      pop\n        /* \"CallContract.sol\":1686:1877  function callSetXWithTransfer(address addr, uint256 x) external payable {... */\n      pop\n      pop\n      jump\t// out\n        /* \"CallContract.sol\":623:1364  function callSetXByAddr(address addr, uint256 x) external returns(uint) {... */\n    tag_12:\n        /* \"CallContract.sol\":689:693  uint */\n      0x00\n        /* \"CallContract.sol\":1023:1027  addr */\n      dup3\n        /* \"CallContract.sol\":1009:1033  OtherContract(addr).setX */\n      0xffffffffffffffffffffffffffffffffffffffff\n      and\n      0x4018d9aa\n        /* \"CallContract.sol\":1034:1035  x */\n      dup4\n        /* \"CallContract.sol\":1009:1036  OtherContract(addr).setX(x) */\n      mload(0x40)\n      dup3\n      0xffffffff\n      and\n      0xe0\n      shl\n      dup2\n      mstore\n      0x04\n      add\n      tag_27\n      swap2\n      swap1\n      tag_14\n      jump\t// in\n    tag_27:\n      0x00\n      mload(0x40)\n      dup1\n      dup4\n      sub\n      dup2\n      0x00\n      dup8\n      dup1\n      extcodesize\n      iszero\n      dup1\n      iszero\n      tag_28\n      jumpi\n      0x00\n      dup1\n      revert\n    tag_28:\n      pop\n      gas\n      call\n      iszero\n      dup1\n      iszero\n      tag_30\n      jumpi\n      returndatasize\n      0x00\n      dup1\n      returndatacopy\n      revert(0x00, returndatasize)\n    tag_30:\n      pop\n      pop\n      pop\n      pop\n        /* \"CallContract.sol\":1293:1309  OtherContract oc */\n      0x00\n        /* \"CallContract.sol\":1326:1330  addr */\n      dup4\n        /* \"CallContract.sol\":1293:1331  OtherContract oc = OtherContract(addr) */\n      swap1\n      pop\n        /* \"CallContract.sol\":1348:1350  oc */\n      dup1\n        /* \"CallContract.sol\":1348:1355  oc.getX */\n      0xffffffffffffffffffffffffffffffffffffffff\n      and\n      0x5197c7aa\n        /* \"CallContract.sol\":1348:1357  oc.getX() */\n      mload(0x40)\n      dup2\n      0xffffffff\n      and\n      0xe0\n      shl\n      dup2\n      mstore\n      0x04\n      add\n      0x20\n      mload(0x40)\n      dup1\n      dup4\n      sub\n      dup2\n      dup7\n      gas\n      staticcall\n      iszero\n      dup1\n      iszero\n      tag_32\n      jumpi\n      returndatasize\n      0x00\n      dup1\n      returndatacopy\n      revert(0x00, returndatasize)\n    tag_32:\n      pop\n      pop\n      pop\n      pop\n      mload(0x40)\n      returndatasize\n      not(0x1f)\n      0x1f\n      dup3\n      add\n      and\n      dup3\n      add\n      dup1\n      0x40\n      mstore\n      pop\n      dup2\n      add\n      swap1\n      tag_33\n      swap2\n      swap1\n      tag_34\n      jump\t// in\n    tag_33:\n        /* \"CallContract.sol\":1341:1357  return oc.getX() */\n      swap2\n      pop\n      pop\n        /* \"CallContract.sol\":623:1364  function callSetXByAddr(address addr, uint256 x) external returns(uint) {... */\n      swap3\n      swap2\n      pop\n      pop\n      jump\t// out\n        /* \"CallContract.sol\":1540:1680  function callGetXByName(OtherContract addr) external view returns(uint) {... */\n    tag_19:\n        /* \"CallContract.sol\":1606:1610  uint */\n      0x00\n        /* \"CallContract.sol\":1662:1666  addr */\n      dup2\n        /* \"CallContract.sol\":1662:1671  addr.getX */\n      0xffffffffffffffffffffffffffffffffffffffff\n      and\n      0x5197c7aa\n        /* \"CallContract.sol\":1662:1673  addr.getX() */\n      mload(0x40)\n      dup2\n      0xffffffff\n      and\n      0xe0\n      shl\n      dup2\n      mstore\n      0x04\n      add\n      0x20\n      mload(0x40)\n      dup1\n      dup4\n      sub\n      dup2\n      dup7\n      gas\n      staticcall\n      iszero\n      dup1\n      iszero\n      tag_37\n      jumpi\n      returndatasize\n      0x00\n      dup1\n      returndatacopy\n      revert(0x00, returndatasize)\n    tag_37:\n      pop\n      pop\n      pop\n      pop\n      mload(0x40)\n      returndatasize\n      not(0x1f)\n      0x1f\n      dup3\n      add\n      and\n      dup3\n      add\n      dup1\n      0x40\n      mstore\n      pop\n      dup2\n      add\n      swap1\n      tag_38\n      swap2\n      swap1\n      tag_34\n      jump\t// in\n    tag_38:\n        /* \"CallContract.sol\":1655:1673  return addr.getX() */\n      swap1\n      pop\n        /* \"CallContract.sol\":1540:1680  function callGetXByName(OtherContract addr) external view returns(uint) {... */\n      swap2\n      swap1\n      pop\n      jump\t// out\n        /* \"#utility.yul\":88:205   */\n    tag_40:\n        /* \"#utility.yul\":197:198   */\n      0x00\n        /* \"#utility.yul\":194:195   */\n      dup1\n        /* \"#utility.yul\":187:199   */\n      revert\n        /* \"#utility.yul\":334:460   */\n    tag_42:\n        /* \"#utility.yul\":371:378   */\n      0x00\n        /* \"#utility.yul\":411:453   */\n      0xffffffffffffffffffffffffffffffffffffffff\n        /* \"#utility.yul\":404:409   */\n      dup3\n        /* \"#utility.yul\":400:454   */\n      and\n        /* \"#utility.yul\":389:454   */\n      swap1\n      pop\n        /* \"#utility.yul\":334:460   */\n      swap2\n      swap1\n      pop\n      jump\t// out\n        /* \"#utility.yul\":466:562   */\n    tag_43:\n        /* \"#utility.yul\":503:510   */\n      0x00\n        /* \"#utility.yul\":532:556   */\n      tag_60\n        /* \"#utility.yul\":550:555   */\n      dup3\n        /* \"#utility.yul\":532:556   */\n      tag_42\n      jump\t// in\n    tag_60:\n        /* \"#utility.yul\":521:556   */\n      swap1\n      pop\n        /* \"#utility.yul\":466:562   */\n      swap2\n      swap1\n      pop\n      jump\t// out\n        /* \"#utility.yul\":568:690   */\n    tag_44:\n        /* \"#utility.yul\":641:665   */\n      tag_62\n        /* \"#utility.yul\":659:664   */\n      dup2\n        /* \"#utility.yul\":641:665   */\n      tag_43\n      jump\t// in\n    tag_62:\n        /* \"#utility.yul\":634:639   */\n      dup2\n        /* \"#utility.yul\":631:666   */\n      eq\n        /* \"#utility.yul\":621:684   */\n      tag_63\n      jumpi\n        /* \"#utility.yul\":680:681   */\n      0x00\n        /* \"#utility.yul\":677:678   */\n      dup1\n        /* \"#utility.yul\":670:682   */\n      revert\n        /* \"#utility.yul\":621:684   */\n    tag_63:\n        /* \"#utility.yul\":568:690   */\n      pop\n      jump\t// out\n        /* \"#utility.yul\":696:835   */\n    tag_45:\n        /* \"#utility.yul\":742:747   */\n      0x00\n        /* \"#utility.yul\":780:786   */\n      dup2\n        /* \"#utility.yul\":767:787   */\n      calldataload\n        /* \"#utility.yul\":758:787   */\n      swap1\n      pop\n        /* \"#utility.yul\":796:829   */\n      tag_65\n        /* \"#utility.yul\":823:828   */\n      dup2\n        /* \"#utility.yul\":796:829   */\n      tag_44\n      jump\t// in\n    tag_65:\n        /* \"#utility.yul\":696:835   */\n      swap3\n      swap2\n      pop\n      pop\n      jump\t// out\n        /* \"#utility.yul\":841:918   */\n    tag_46:\n        /* \"#utility.yul\":878:885   */\n      0x00\n        /* \"#utility.yul\":907:912   */\n      dup2\n        /* \"#utility.yul\":896:912   */\n      swap1\n      pop\n        /* \"#utility.yul\":841:918   */\n      swap2\n      swap1\n      pop\n      jump\t// out\n        /* \"#utility.yul\":924:1046   */\n    tag_47:\n        /* \"#utility.yul\":997:1021   */\n      tag_68\n        /* \"#utility.yul\":1015:1020   */\n      dup2\n        /* \"#utility.yul\":997:1021   */\n      tag_46\n      jump\t// in\n    tag_68:\n        /* \"#utility.yul\":990:995   */\n      dup2\n        /* \"#utility.yul\":987:1022   */\n      eq\n        /* \"#utility.yul\":977:1040   */\n      tag_69\n      jumpi\n        /* \"#utility.yul\":1036:1037   */\n      0x00\n        /* \"#utility.yul\":1033:1034   */\n      dup1\n        /* \"#utility.yul\":1026:1038   */\n      revert\n        /* \"#utility.yul\":977:1040   */\n    tag_69:\n        /* \"#utility.yul\":924:1046   */\n      pop\n      jump\t// out\n        /* \"#utility.yul\":1052:1191   */\n    tag_48:\n        /* \"#utility.yul\":1098:1103   */\n      0x00\n        /* \"#utility.yul\":1136:1142   */\n      dup2\n        /* \"#utility.yul\":1123:1143   */\n      calldataload\n        /* \"#utility.yul\":1114:1143   */\n      swap1\n      pop\n        /* \"#utility.yul\":1152:1185   */\n      tag_71\n        /* \"#utility.yul\":1179:1184   */\n      dup2\n        /* \"#utility.yul\":1152:1185   */\n      tag_47\n      jump\t// in\n    tag_71:\n        /* \"#utility.yul\":1052:1191   */\n      swap3\n      swap2\n      pop\n      pop\n      jump\t// out\n        /* \"#utility.yul\":1197:1671   */\n    tag_7:\n        /* \"#utility.yul\":1265:1271   */\n      0x00\n        /* \"#utility.yul\":1273:1279   */\n      dup1\n        /* \"#utility.yul\":1322:1324   */\n      0x40\n        /* \"#utility.yul\":1310:1319   */\n      dup4\n        /* \"#utility.yul\":1301:1308   */\n      dup6\n        /* \"#utility.yul\":1297:1320   */\n      sub\n        /* \"#utility.yul\":1293:1325   */\n      slt\n        /* \"#utility.yul\":1290:1409   */\n      iszero\n      tag_73\n      jumpi\n        /* \"#utility.yul\":1328:1407   */\n      tag_74\n      tag_40\n      jump\t// in\n    tag_74:\n        /* \"#utility.yul\":1290:1409   */\n    tag_73:\n        /* \"#utility.yul\":1448:1449   */\n      0x00\n        /* \"#utility.yul\":1473:1526   */\n      tag_75\n        /* \"#utility.yul\":1518:1525   */\n      dup6\n        /* \"#utility.yul\":1509:1515   */\n      dup3\n        /* \"#utility.yul\":1498:1507   */\n      dup7\n        /* \"#utility.yul\":1494:1516   */\n      add\n        /* \"#utility.yul\":1473:1526   */\n      tag_45\n      jump\t// in\n    tag_75:\n        /* \"#utility.yul\":1463:1526   */\n      swap3\n      pop\n        /* \"#utility.yul\":1419:1536   */\n      pop\n        /* \"#utility.yul\":1575:1577   */\n      0x20\n        /* \"#utility.yul\":1601:1654   */\n      tag_76\n        /* \"#utility.yul\":1646:1653   */\n      dup6\n        /* \"#utility.yul\":1637:1643   */\n      dup3\n        /* \"#utility.yul\":1626:1635   */\n      dup7\n        /* \"#utility.yul\":1622:1644   */\n      add\n        /* \"#utility.yul\":1601:1654   */\n      tag_48\n      jump\t// in\n    tag_76:\n        /* \"#utility.yul\":1591:1654   */\n      swap2\n      pop\n        /* \"#utility.yul\":1546:1664   */\n      pop\n        /* \"#utility.yul\":1197:1671   */\n      swap3\n      pop\n      swap3\n      swap1\n      pop\n      jump\t// out\n        /* \"#utility.yul\":1677:1795   */\n    tag_49:\n        /* \"#utility.yul\":1764:1788   */\n      tag_78\n        /* \"#utility.yul\":1782:1787   */\n      dup2\n        /* \"#utility.yul\":1764:1788   */\n      tag_46\n      jump\t// in\n    tag_78:\n        /* \"#utility.yul\":1759:1762   */\n      dup3\n        /* \"#utility.yul\":1752:1789   */\n      mstore\n        /* \"#utility.yul\":1677:1795   */\n      pop\n      pop\n      jump\t// out\n        /* \"#utility.yul\":1801:2023   */\n    tag_14:\n        /* \"#utility.yul\":1894:1898   */\n      0x00\n        /* \"#utility.yul\":1932:1934   */\n      0x20\n        /* \"#utility.yul\":1921:1930   */\n      dup3\n        /* \"#utility.yul\":1917:1935   */\n      add\n        /* \"#utility.yul\":1909:1935   */\n      swap1\n      pop\n        /* \"#utility.yul\":1945:2016   */\n      tag_80\n        /* \"#utility.yul\":2013:2014   */\n      0x00\n        /* \"#utility.yul\":2002:2011   */\n      dup4\n        /* \"#utility.yul\":1998:2015   */\n      add\n        /* \"#utility.yul\":1989:1995   */\n      dup5\n        /* \"#utility.yul\":1945:2016   */\n      tag_49\n      jump\t// in\n    tag_80:\n        /* \"#utility.yul\":1801:2023   */\n      swap3\n      swap2\n      pop\n      pop\n      jump\t// out\n        /* \"#utility.yul\":2029:2145   */\n    tag_50:\n        /* \"#utility.yul\":2086:2093   */\n      0x00\n        /* \"#utility.yul\":2115:2139   */\n      tag_82\n        /* \"#utility.yul\":2133:2138   */\n      dup3\n        /* \"#utility.yul\":2115:2139   */\n      tag_43\n      jump\t// in\n    tag_82:\n        /* \"#utility.yul\":2104:2139   */\n      swap1\n      pop\n        /* \"#utility.yul\":2029:2145   */\n      swap2\n      swap1\n      pop\n      jump\t// out\n        /* \"#utility.yul\":2151:2313   */\n    tag_51:\n        /* \"#utility.yul\":2244:2288   */\n      tag_84\n        /* \"#utility.yul\":2282:2287   */\n      dup2\n        /* \"#utility.yul\":2244:2288   */\n      tag_50\n      jump\t// in\n    tag_84:\n        /* \"#utility.yul\":2237:2242   */\n      dup2\n        /* \"#utility.yul\":2234:2289   */\n      eq\n        /* \"#utility.yul\":2224:2307   */\n      tag_85\n      jumpi\n        /* \"#utility.yul\":2303:2304   */\n      0x00\n        /* \"#utility.yul\":2300:2301   */\n      dup1\n        /* \"#utility.yul\":2293:2305   */\n      revert\n        /* \"#utility.yul\":2224:2307   */\n    tag_85:\n        /* \"#utility.yul\":2151:2313   */\n      pop\n      jump\t// out\n        /* \"#utility.yul\":2319:2498   */\n    tag_52:\n        /* \"#utility.yul\":2385:2390   */\n      0x00\n        /* \"#utility.yul\":2423:2429   */\n      dup2\n        /* \"#utility.yul\":2410:2430   */\n      calldataload\n        /* \"#utility.yul\":2401:2430   */\n      swap1\n      pop\n        /* \"#utility.yul\":2439:2492   */\n      tag_87\n        /* \"#utility.yul\":2486:2491   */\n      dup2\n        /* \"#utility.yul\":2439:2492   */\n      tag_51\n      jump\t// in\n    tag_87:\n        /* \"#utility.yul\":2319:2498   */\n      swap3\n      swap2\n      pop\n      pop\n      jump\t// out\n        /* \"#utility.yul\":2504:2873   */\n    tag_18:\n        /* \"#utility.yul\":2583:2589   */\n      0x00\n        /* \"#utility.yul\":2632:2634   */\n      0x20\n        /* \"#utility.yul\":2620:2629   */\n      dup3\n        /* \"#utility.yul\":2611:2618   */\n      dup5\n        /* \"#utility.yul\":2607:2630   */\n      sub\n        /* \"#utility.yul\":2603:2635   */\n      slt\n        /* \"#utility.yul\":2600:2719   */\n      iszero\n      tag_89\n      jumpi\n        /* \"#utility.yul\":2638:2717   */\n      tag_90\n      tag_40\n      jump\t// in\n    tag_90:\n        /* \"#utility.yul\":2600:2719   */\n    tag_89:\n        /* \"#utility.yul\":2758:2759   */\n      0x00\n        /* \"#utility.yul\":2783:2856   */\n      tag_91\n        /* \"#utility.yul\":2848:2855   */\n      dup5\n        /* \"#utility.yul\":2839:2845   */\n      dup3\n        /* \"#utility.yul\":2828:2837   */\n      dup6\n        /* \"#utility.yul\":2824:2846   */\n      add\n        /* \"#utility.yul\":2783:2856   */\n      tag_52\n      jump\t// in\n    tag_91:\n        /* \"#utility.yul\":2773:2856   */\n      swap2\n      pop\n        /* \"#utility.yul\":2729:2866   */\n      pop\n        /* \"#utility.yul\":2504:2873   */\n      swap3\n      swap2\n      pop\n      pop\n      jump\t// out\n        /* \"#utility.yul\":2879:3022   */\n    tag_53:\n        /* \"#utility.yul\":2936:2941   */\n      0x00\n        /* \"#utility.yul\":2967:2973   */\n      dup2\n        /* \"#utility.yul\":2961:2974   */\n      mload\n        /* \"#utility.yul\":2952:2974   */\n      swap1\n      pop\n        /* \"#utility.yul\":2983:3016   */\n      tag_93\n        /* \"#utility.yul\":3010:3015   */\n      dup2\n        /* \"#utility.yul\":2983:3016   */\n      tag_47\n      jump\t// in\n    tag_93:\n        /* \"#utility.yul\":2879:3022   */\n      swap3\n      swap2\n      pop\n      pop\n      jump\t// out\n        /* \"#utility.yul\":3028:3379   */\n    tag_34:\n        /* \"#utility.yul\":3098:3104   */\n      0x00\n        /* \"#utility.yul\":3147:3149   */\n      0x20\n        /* \"#utility.yul\":3135:3144   */\n      dup3\n        /* \"#utility.yul\":3126:3133   */\n      dup5\n        /* \"#utility.yul\":3122:3145   */\n      sub\n        /* \"#utility.yul\":3118:3150   */\n      slt\n        /* \"#utility.yul\":3115:3234   */\n      iszero\n      tag_95\n      jumpi\n        /* \"#utility.yul\":3153:3232   */\n      tag_96\n      tag_40\n      jump\t// in\n    tag_96:\n        /* \"#utility.yul\":3115:3234   */\n    tag_95:\n        /* \"#utility.yul\":3273:3274   */\n      0x00\n        /* \"#utility.yul\":3298:3362   */\n      tag_97\n        /* \"#utility.yul\":3354:3361   */\n      dup5\n        /* \"#utility.yul\":3345:3351   */\n      dup3\n        /* \"#utility.yul\":3334:3343   */\n      dup6\n        /* \"#utility.yul\":3330:3352   */\n      add\n        /* \"#utility.yul\":3298:3362   */\n      tag_53\n      jump\t// in\n    tag_97:\n        /* \"#utility.yul\":3288:3362   */\n      swap2\n      pop\n        /* \"#utility.yul\":3244:3372   */\n      pop\n        /* \"#utility.yul\":3028:3379   */\n      swap3\n      swap2\n      pop\n      pop\n      jump\t// out\n\n    auxdata: 0xa26469706673582212206674703bf288a102ccc83c40cbd3a5ee697475e36147420aad26b3870d4fe34864736f6c63430008190033\n}\n",
				"bytecode": {
					"linkReferences": {},
					"object": "6080604052348015600e575f80fd5b5061045e8061001c5f395ff3fe608060405260043610610032575f3560e01c806270f4e4146100365780636b13cbaa1461005257806384fc125f1461008e575b5f80fd5b610050600480360381019061004b919061031d565b6100ca565b005b34801561005d575f80fd5b506100786004803603810190610073919061031d565b610136565b604051610085919061036a565b60405180910390f35b348015610099575f80fd5b506100b460048036038101906100af91906103be565b610217565b6040516100c1919061036a565b60405180910390f35b8173ffffffffffffffffffffffffffffffffffffffff16634018d9aa34836040518363ffffffff1660e01b8152600401610104919061036a565b5f604051808303818588803b15801561011b575f80fd5b505af115801561012d573d5f803e3d5ffd5b50505050505050565b5f8273ffffffffffffffffffffffffffffffffffffffff16634018d9aa836040518263ffffffff1660e01b8152600401610170919061036a565b5f604051808303815f87803b158015610187575f80fd5b505af1158015610199573d5f803e3d5ffd5b505050505f8390508073ffffffffffffffffffffffffffffffffffffffff16635197c7aa6040518163ffffffff1660e01b8152600401602060405180830381865afa1580156101ea573d5f803e3d5ffd5b505050506040513d601f19601f8201168201806040525081019061020e91906103fd565b91505092915050565b5f8173ffffffffffffffffffffffffffffffffffffffff16635197c7aa6040518163ffffffff1660e01b8152600401602060405180830381865afa158015610261573d5f803e3d5ffd5b505050506040513d601f19601f8201168201806040525081019061028591906103fd565b9050919050565b5f80fd5b5f73ffffffffffffffffffffffffffffffffffffffff82169050919050565b5f6102b982610290565b9050919050565b6102c9816102af565b81146102d3575f80fd5b50565b5f813590506102e4816102c0565b92915050565b5f819050919050565b6102fc816102ea565b8114610306575f80fd5b50565b5f81359050610317816102f3565b92915050565b5f80604083850312156103335761033261028c565b5b5f610340858286016102d6565b925050602061035185828601610309565b9150509250929050565b610364816102ea565b82525050565b5f60208201905061037d5f83018461035b565b92915050565b5f61038d826102af565b9050919050565b61039d81610383565b81146103a7575f80fd5b50565b5f813590506103b881610394565b92915050565b5f602082840312156103d3576103d261028c565b5b5f6103e0848285016103aa565b91505092915050565b5f815190506103f7816102f3565b92915050565b5f602082840312156104125761041161028c565b5b5f61041f848285016103e9565b9150509291505056fea26469706673582212206674703bf288a102ccc83c40cbd3a5ee697475e36147420aad26b3870d4fe34864736f6c63430008190033",
					"opcodes": "PUSH1 0x80 PUSH1 0x40 MSTORE CALLVALUE DUP1 ISZERO PUSH1 0xE JUMPI PUSH0 DUP1 REVERT JUMPDEST POP PUSH2 0x45E DUP1 PUSH2 0x1C PUSH0 CODECOPY PUSH0 RETURN INVALID PUSH1 0x80 PUSH1 0x40 MSTORE PUSH1 0x4 CALLDATASIZE LT PUSH2 0x32 JUMPI PUSH0 CALLDATALOAD PUSH1 0xE0 SHR DUP1 PUSH3 0x70F4E4 EQ PUSH2 0x36 JUMPI DUP1 PUSH4 0x6B13CBAA EQ PUSH2 0x52 JUMPI DUP1 PUSH4 0x84FC125F EQ PUSH2 0x8E JUMPI JUMPDEST PUSH0 DUP1 REVERT JUMPDEST PUSH2 0x50 PUSH1 0x4 DUP1 CALLDATASIZE SUB DUP2 ADD SWAP1 PUSH2 0x4B SWAP2 SWAP1 PUSH2 0x31D JUMP JUMPDEST PUSH2 0xCA JUMP JUMPDEST STOP JUMPDEST CALLVALUE DUP1 ISZERO PUSH2 0x5D JUMPI PUSH0 DUP1 REVERT JUMPDEST POP PUSH2 0x78 PUSH1 0x4 DUP1 CALLDATASIZE SUB DUP2 ADD SWAP1 PUSH2 0x73 SWAP2 SWAP1 PUSH2 0x31D JUMP JUMPDEST PUSH2 0x136 JUMP JUMPDEST PUSH1 0x40 MLOAD PUSH2 0x85 SWAP2 SWAP1 PUSH2 0x36A JUMP JUMPDEST PUSH1 0x40 MLOAD DUP1 SWAP2 SUB SWAP1 RETURN JUMPDEST CALLVALUE DUP1 ISZERO PUSH2 0x99 JUMPI PUSH0 DUP1 REVERT JUMPDEST POP PUSH2 0xB4 PUSH1 0x4 DUP1 CALLDATASIZE SUB DUP2 ADD SWAP1 PUSH2 0xAF SWAP2 SWAP1 PUSH2 0x3BE JUMP JUMPDEST PUSH2 0x217 JUMP JUMPDEST PUSH1 0x40 MLOAD PUSH2 0xC1 SWAP2 SWAP1 PUSH2 0x36A JUMP JUMPDEST PUSH1 0x40 MLOAD DUP1 SWAP2 SUB SWAP1 RETURN JUMPDEST DUP2 PUSH20 0xFFFFFFFFFFFFFFFFFFFFFFFFFFFFFFFFFFFFFFFF AND PUSH4 0x4018D9AA CALLVALUE DUP4 PUSH1 0x40 MLOAD DUP4 PUSH4 0xFFFFFFFF AND PUSH1 0xE0 SHL DUP2 MSTORE PUSH1 0x4 ADD PUSH2 0x104 SWAP2 SWAP1 PUSH2 0x36A JUMP JUMPDEST PUSH0 PUSH1 0x40 MLOAD DUP1 DUP4 SUB DUP2 DUP6 DUP9 DUP1 EXTCODESIZE ISZERO DUP1 ISZERO PUSH2 0x11B JUMPI PUSH0 DUP1 REVERT JUMPDEST POP GAS CALL ISZERO DUP1 ISZERO PUSH2 0x12D JUMPI RETURNDATASIZE PUSH0 DUP1 RETURNDATACOPY RETURNDATASIZE PUSH0 REVERT JUMPDEST POP POP POP POP POP POP POP JUMP JUMPDEST PUSH0 DUP3 PUSH20 0xFFFFFFFFFFFFFFFFFFFFFFFFFFFFFFFFFFFFFFFF AND PUSH4 0x4018D9AA DUP4 PUSH1 0x40 MLOAD DUP3 PUSH4 0xFFFFFFFF AND PUSH1 0xE0 SHL DUP2 MSTORE PUSH1 0x4 ADD PUSH2 0x170 SWAP2 SWAP1 PUSH2 0x36A JUMP JUMPDEST PUSH0 PUSH1 0x40 MLOAD DUP1 DUP4 SUB DUP2 PUSH0 DUP8 DUP1 EXTCODESIZE ISZERO DUP1 ISZERO PUSH2 0x187 JUMPI PUSH0 DUP1 REVERT JUMPDEST POP GAS CALL ISZERO DUP1 ISZERO PUSH2 0x199 JUMPI RETURNDATASIZE PUSH0 DUP1 RETURNDATACOPY RETURNDATASIZE PUSH0 REVERT JUMPDEST POP POP POP POP PUSH0 DUP4 SWAP1 POP DUP1 PUSH20 0xFFFFFFFFFFFFFFFFFFFFFFFFFFFFFFFFFFFFFFFF AND PUSH4 0x5197C7AA PUSH1 0x40 MLOAD DUP2 PUSH4 0xFFFFFFFF AND PUSH1 0xE0 SHL DUP2 MSTORE PUSH1 0x4 ADD PUSH1 0x20 PUSH1 0x40 MLOAD DUP1 DUP4 SUB DUP2 DUP7 GAS STATICCALL ISZERO DUP1 ISZERO PUSH2 0x1EA JUMPI RETURNDATASIZE PUSH0 DUP1 RETURNDATACOPY RETURNDATASIZE PUSH0 REVERT JUMPDEST POP POP POP POP PUSH1 0x40 MLOAD RETURNDATASIZE PUSH1 0x1F NOT PUSH1 0x1F DUP3 ADD AND DUP3 ADD DUP1 PUSH1 0x40 MSTORE POP DUP2 ADD SWAP1 PUSH2 0x20E SWAP2 SWAP1 PUSH2 0x3FD JUMP JUMPDEST SWAP2 POP POP SWAP3 SWAP2 POP POP JUMP JUMPDEST PUSH0 DUP2 PUSH20 0xFFFFFFFFFFFFFFFFFFFFFFFFFFFFFFFFFFFFFFFF AND PUSH4 0x5197C7AA PUSH1 0x40 MLOAD DUP2 PUSH4 0xFFFFFFFF AND PUSH1 0xE0 SHL DUP2 MSTORE PUSH1 0x4 ADD PUSH1 0x20 PUSH1 0x40 MLOAD DUP1 DUP4 SUB DUP2 DUP7 GAS STATICCALL ISZERO DUP1 ISZERO PUSH2 0x261 JUMPI RETURNDATASIZE PUSH0 DUP1 RETURNDATACOPY RETURNDATASIZE PUSH0 REVERT JUMPDEST POP POP POP POP PUSH1 0x40 MLOAD RETURNDATASIZE PUSH1 0x1F NOT PUSH1 0x1F DUP3 ADD AND DUP3 ADD DUP1 PUSH1 0x40 MSTORE POP DUP2 ADD SWAP1 PUSH2 0x285 SWAP2 SWAP1 PUSH2 0x3FD JUMP JUMPDEST SWAP1 POP SWAP2 SWAP1 POP JUMP JUMPDEST PUSH0 DUP1 REVERT JUMPDEST PUSH0 PUSH20 0xFFFFFFFFFFFFFFFFFFFFFFFFFFFFFFFFFFFFFFFF DUP3 AND SWAP1 POP SWAP2 SWAP1 POP JUMP JUMPDEST PUSH0 PUSH2 0x2B9 DUP3 PUSH2 0x290 JUMP JUMPDEST SWAP1 POP SWAP2 SWAP1 POP JUMP JUMPDEST PUSH2 0x2C9 DUP2 PUSH2 0x2AF JUMP JUMPDEST DUP2 EQ PUSH2 0x2D3 JUMPI PUSH0 DUP1 REVERT JUMPDEST POP JUMP JUMPDEST PUSH0 DUP2 CALLDATALOAD SWAP1 POP PUSH2 0x2E4 DUP2 PUSH2 0x2C0 JUMP JUMPDEST SWAP3 SWAP2 POP POP JUMP JUMPDEST PUSH0 DUP2 SWAP1 POP SWAP2 SWAP1 POP JUMP JUMPDEST PUSH2 0x2FC DUP2 PUSH2 0x2EA JUMP JUMPDEST DUP2 EQ PUSH2 0x306 JUMPI PUSH0 DUP1 REVERT JUMPDEST POP JUMP JUMPDEST PUSH0 DUP2 CALLDATALOAD SWAP1 POP PUSH2 0x317 DUP2 PUSH2 0x2F3 JUMP JUMPDEST SWAP3 SWAP2 POP POP JUMP JUMPDEST PUSH0 DUP1 PUSH1 0x40 DUP4 DUP6 SUB SLT ISZERO PUSH2 0x333 JUMPI PUSH2 0x332 PUSH2 0x28C JUMP JUMPDEST JUMPDEST PUSH0 PUSH2 0x340 DUP6 DUP3 DUP7 ADD PUSH2 0x2D6 JUMP JUMPDEST SWAP3 POP POP PUSH1 0x20 PUSH2 0x351 DUP6 DUP3 DUP7 ADD PUSH2 0x309 JUMP JUMPDEST SWAP2 POP POP SWAP3 POP SWAP3 SWAP1 POP JUMP JUMPDEST PUSH2 0x364 DUP2 PUSH2 0x2EA JUMP JUMPDEST DUP3 MSTORE POP POP JUMP JUMPDEST PUSH0 PUSH1 0x20 DUP3 ADD SWAP1 POP PUSH2 0x37D PUSH0 DUP4 ADD DUP5 PUSH2 0x35B JUMP JUMPDEST SWAP3 SWAP2 POP POP JUMP JUMPDEST PUSH0 PUSH2 0x38D DUP3 PUSH2 0x2AF JUMP JUMPDEST SWAP1 POP SWAP2 SWAP1 POP JUMP JUMPDEST PUSH2 0x39D DUP2 PUSH2 0x383 JUMP JUMPDEST DUP2 EQ PUSH2 0x3A7 JUMPI PUSH0 DUP1 REVERT JUMPDEST POP JUMP JUMPDEST PUSH0 DUP2 CALLDATALOAD SWAP1 POP PUSH2 0x3B8 DUP2 PUSH2 0x394 JUMP JUMPDEST SWAP3 SWAP2 POP POP JUMP JUMPDEST PUSH0 PUSH1 0x20 DUP3 DUP5 SUB SLT ISZERO PUSH2 0x3D3 JUMPI PUSH2 0x3D2 PUSH2 0x28C JUMP JUMPDEST JUMPDEST PUSH0 PUSH2 0x3E0 DUP5 DUP3 DUP6 ADD PUSH2 0x3AA JUMP JUMPDEST SWAP2 POP POP SWAP3 SWAP2 POP POP JUMP JUMPDEST PUSH0 DUP2 MLOAD SWAP1 POP PUSH2 0x3F7 DUP2 PUSH2 0x2F3 JUMP JUMPDEST SWAP3 SWAP2 POP POP JUMP JUMPDEST PUSH0 PUSH1 0x20 DUP3 DUP5 SUB SLT ISZERO PUSH2 0x412 JUMPI PUSH2 0x411 PUSH2 0x28C JUMP JUMPDEST JUMPDEST PUSH0 PUSH2 0x41F DUP5 DUP3 DUP6 ADD PUSH2 0x3E9 JUMP JUMPDEST SWAP2 POP POP SWAP3 SWAP2 POP POP JUMP INVALID LOG2 PUSH5 0x6970667358 0x22 SLT KECCAK256 PUSH7 0x74703BF288A102 0xCC 0xC8 EXTCODECOPY BLOCKHASH 0xCB 0xD3 0xA5 0xEE PUSH10 0x7475E36147420AAD26B3 DUP8 0xD 0x4F 0xE3 BASEFEE PUSH5 0x736F6C6343 STOP ADDMOD NOT STOP CALLER "
				},
				"gasEstimates": {
					"creation": {
						"codeDepositCost": "223600",
						"executionCost": "261",
						"totalCost": "223861"
					},
					"external": {
						"callGetXByName(address)": "infinite",
						"callSetXByAddr(address,uint256)": "infinite",
						"callSetXWithTransfer(address,uint256)": "infinite"
					}
				},
				"methodIdentifiers": {
					"callGetXByName(address)": "84fc125f",
					"callSetXByAddr(address,uint256)": "6b13cbaa",
					"callSetXWithTransfer(address,uint256)": "0070f4e4"
				}
			},
			"storageLayout": {
				"storage": [],
				"types": null
			},
			"userdoc": {
				"kind": "user",
				"methods": {},
				"version": 1
			}
		}
	}
}