{
	"Inheritance.sol": {
		"Yeye": {
			"abi": [
				{
					"anonymous": false,
					"inputs": [
						{
							"indexed": false,
							"internalType": "string",
							"name": "msg",
							"type": "string"
						}
					],
					"name": "Log",
					"type": "event"
				},
				{
					"inputs": [],
					"name": "callYeye",
					"outputs": [],
					"stateMutability": "nonpayable",
					"type": "function"
				},
				{
					"inputs": [],
					"name": "hip",
					"outputs": [],
					"stateMutability": "nonpayable",
					"type": "function"
				},
				{
					"inputs": [],
					"name": "hop",
					"outputs": [],
					"stateMutability": "nonpayable",
					"type": "function"
				},
				{
					"inputs": [],
					"name": "yeye",
					"outputs": [],
					"stateMutability": "nonpayable",
					"type": "function"
				}
			],
			"devdoc": {
				"kind": "dev",
				"methods": {},
				"version": 1
			},
			"evm": {
				"assembly": "    /* \"Inheritance.sol\":57:442  contract Yeye {... */\n  mstore(0x40, 0x80)\n  callvalue\n  dup1\n  iszero\n  tag_1\n  jumpi\n  0x00\n  dup1\n  revert\ntag_1:\n  pop\n  dataSize(sub_0)\n  dup1\n  dataOffset(sub_0)\n  0x00\n  codecopy\n  0x00\n  return\nstop\n\nsub_0: assembly {\n        /* \"Inheritance.sol\":57:442  contract Yeye {... */\n      mstore(0x40, 0x80)\n      callvalue\n      dup1\n      iszero\n      tag_1\n      jumpi\n      0x00\n      dup1\n      revert\n    tag_1:\n      pop\n      jumpi(tag_2, lt(calldatasize, 0x04))\n      shr(0xe0, calldataload(0x00))\n      dup1\n      0x0ca21e9c\n      eq\n      tag_3\n      jumpi\n      dup1\n      0x370ea142\n      eq\n      tag_4\n      jumpi\n      dup1\n      0x7bcae55d\n      eq\n      tag_5\n      jumpi\n      dup1\n      0xb0b8579b\n      eq\n      tag_6\n      jumpi\n    tag_2:\n      0x00\n      dup1\n      revert\n        /* \"Inheritance.sol\":310:374  function yeye() public virtual {... */\n    tag_3:\n      tag_7\n      tag_8\n      jump\t// in\n    tag_7:\n      stop\n        /* \"Inheritance.sol\":168:231  function hip() public virtual {... */\n    tag_4:\n      tag_9\n      tag_10\n      jump\t// in\n    tag_9:\n      stop\n        /* \"Inheritance.sol\":380:440  function callYeye() public {... */\n    tag_5:\n      tag_11\n      tag_12\n      jump\t// in\n    tag_11:\n      stop\n        /* \"Inheritance.sol\":241:304  function hop() public virtual {... */\n    tag_6:\n      tag_13\n      tag_14\n      jump\t// in\n    tag_13:\n      stop\n        /* \"Inheritance.sol\":310:374  function yeye() public virtual {... */\n    tag_8:\n        /* \"Inheritance.sol\":356:367  Log(\"Yeye\") */\n      0xcf34ef537ac33ee1ac626ca1587a0a7e8e51561e5514f8cb36afa1c5102b3bab\n      mload(0x40)\n      tag_16\n      swap1\n      tag_17\n      jump\t// in\n    tag_16:\n      mload(0x40)\n      dup1\n      swap2\n      sub\n      swap1\n      log1\n        /* \"Inheritance.sol\":310:374  function yeye() public virtual {... */\n      jump\t// out\n        /* \"Inheritance.sol\":168:231  function hip() public virtual {... */\n    tag_10:\n        /* \"Inheritance.sol\":213:224  Log(\"Yeye\") */\n      0xcf34ef537ac33ee1ac626ca1587a0a7e8e51561e5514f8cb36afa1c5102b3bab\n      mload(0x40)\n      tag_19\n      swap1\n      tag_17\n      jump\t// in\n    tag_19:\n      mload(0x40)\n      dup1\n      swap2\n      sub\n      swap1\n      log1\n        /* \"Inheritance.sol\":168:231  function hip() public virtual {... */\n      jump\t// out\n        /* \"Inheritance.sol\":380:440  function callYeye() public {... */\n    tag_12:\n        /* \"Inheritance.sol\":422:433  Log(\"Yeye\") */\n      0xcf34ef537ac33ee1ac626ca1587a0a7e8e51561e5514f8cb36afa1c5102b3bab\n      mload(0x40)\n      tag_21\n      swap1\n      tag_17\n      jump\t// in\n    tag_21:\n      mload(0x40)\n      dup1\n      swap2\n      sub\n      swap1\n      log1\n        /* \"Inheritance.sol\":380:440  function callYeye() public {... */\n      jump\t// out\n        /* \"Inheritance.sol\":241:304  function hop() public virtual {... */\n    tag_14:\n        /* \"Inheritance.sol\":286:297  Log(\"Yeye\") */\n      0xcf34ef537ac33ee1ac626ca1587a0a7e8e51561e5514f8cb36afa1c5102b3bab\n      mload(0x40)\n      tag_23\n      swap1\n      tag_17\n      jump\t// in\n    tag_23:\n      mload(0x40)\n      dup1\n      swap2\n      sub\n      swap1\n      log1\n        /* \"Inheritance.sol\":241:304  function hop() public virtual {... */\n      jump\t// out\n        /* \"#utility.yul\":7:176   */\n    tag_24:\n        /* \"#utility.yul\":91:102   */\n      0x00\n        /* \"#utility.yul\":125:131   */\n      dup3\n        /* \"#utility.yul\":120:123   */\n      dup3\n        /* \"#utility.yul\":113:132   */\n      mstore\n        /* \"#utility.yul\":165:169   */\n      0x20\n        /* \"#utility.yul\":160:163   */\n      dup3\n        /* \"#utility.yul\":156:170   */\n      add\n        /* \"#utility.yul\":141:170   */\n      swap1\n      pop\n        /* \"#utility.yul\":7:176   */\n      swap3\n      swap2\n      pop\n      pop\n      jump\t// out\n        /* \"#utility.yul\":182:336   */\n    tag_25:\n        /* \"#utility.yul\":322:328   */\n      0x5965796500000000000000000000000000000000000000000000000000000000\n        /* \"#utility.yul\":318:319   */\n      0x00\n        /* \"#utility.yul\":310:316   */\n      dup3\n        /* \"#utility.yul\":306:320   */\n      add\n        /* \"#utility.yul\":299:329   */\n      mstore\n        /* \"#utility.yul\":182:336   */\n      pop\n      jump\t// out\n        /* \"#utility.yul\":342:707   */\n    tag_26:\n        /* \"#utility.yul\":484:487   */\n      0x00\n        /* \"#utility.yul\":505:571   */\n      tag_31\n        /* \"#utility.yul\":569:570   */\n      0x04\n        /* \"#utility.yul\":564:567   */\n      dup4\n        /* \"#utility.yul\":505:571   */\n      tag_24\n      jump\t// in\n    tag_31:\n        /* \"#utility.yul\":498:571   */\n      swap2\n      pop\n        /* \"#utility.yul\":580:673   */\n      tag_32\n        /* \"#utility.yul\":669:672   */\n      dup3\n        /* \"#utility.yul\":580:673   */\n      tag_25\n      jump\t// in\n    tag_32:\n        /* \"#utility.yul\":698:700   */\n      0x20\n        /* \"#utility.yul\":693:696   */\n      dup3\n        /* \"#utility.yul\":689:701   */\n      add\n        /* \"#utility.yul\":682:701   */\n      swap1\n      pop\n        /* \"#utility.yul\":342:707   */\n      swap2\n      swap1\n      pop\n      jump\t// out\n        /* \"#utility.yul\":713:1132   */\n    tag_17:\n        /* \"#utility.yul\":879:883   */\n      0x00\n        /* \"#utility.yul\":917:919   */\n      0x20\n        /* \"#utility.yul\":906:915   */\n      dup3\n        /* \"#utility.yul\":902:920   */\n      add\n        /* \"#utility.yul\":894:920   */\n      swap1\n      pop\n        /* \"#utility.yul\":966:975   */\n      dup2\n        /* \"#utility.yul\":960:964   */\n      dup2\n        /* \"#utility.yul\":956:976   */\n      sub\n        /* \"#utility.yul\":952:953   */\n      0x00\n        /* \"#utility.yul\":941:950   */\n      dup4\n        /* \"#utility.yul\":937:954   */\n      add\n        /* \"#utility.yul\":930:977   */\n      mstore\n        /* \"#utility.yul\":994:1125   */\n      tag_34\n        /* \"#utility.yul\":1120:1124   */\n      dup2\n        /* \"#utility.yul\":994:1125   */\n      tag_26\n      jump\t// in\n    tag_34:\n        /* \"#utility.yul\":986:1125   */\n      swap1\n      pop\n        /* \"#utility.yul\":713:1132   */\n      swap2\n      swap1\n      pop\n      jump\t// out\n\n    auxdata: 0xa26469706673582212201a1139ed93bd315304b11cc600a7de2f51b2f01384e0e86ee297553fa43e85af64736f6c63430008190033\n}\n",
				"bytecode": {
					"linkReferences": {},
					"object": "6080604052348015600e575f80fd5b506102008061001c5f395ff3fe608060405234801561000f575f80fd5b506004361061004a575f3560e01c80630ca21e9c1461004e578063370ea142146100585780637bcae55d14610062578063b0b8579b1461006c575b5f80fd5b610056610076565b005b6100606100ad565b005b61006a6100e4565b005b61007461011b565b005b7fcf34ef537ac33ee1ac626ca1587a0a7e8e51561e5514f8cb36afa1c5102b3bab6040516100a3906101ac565b60405180910390a1565b7fcf34ef537ac33ee1ac626ca1587a0a7e8e51561e5514f8cb36afa1c5102b3bab6040516100da906101ac565b60405180910390a1565b7fcf34ef537ac33ee1ac626ca1587a0a7e8e51561e5514f8cb36afa1c5102b3bab604051610111906101ac565b60405180910390a1565b7fcf34ef537ac33ee1ac626ca1587a0a7e8e51561e5514f8cb36afa1c5102b3bab604051610148906101ac565b60405180910390a1565b5f82825260208201905092915050565b7f59657965000000000000000000000000000000000000000000000000000000005f82015250565b5f610196600483610152565b91506101a182610162565b602082019050919050565b5f6020820190508181035f8301526101c38161018a565b905091905056fea26469706673582212201a1139ed93bd315304b11cc600a7de2f51b2f01384e0e86ee297553fa43e85af64736f6c63430008190033",
					"opcodes": "PUSH1 0x80 PUSH1 0x40 MSTORE CALLVALUE DUP1 ISZERO PUSH1 0xE JUMPI PUSH0 DUP1 REVERT JUMPDEST POP PUSH2 0x200 DUP1 PUSH2 0x1C PUSH0 CODECOPY PUSH0 RETURN INVALID PUSH1 0x80 PUSH1 0x40 MSTORE CALLVALUE DUP1 ISZERO PUSH2 0xF JUMPI PUSH0 DUP1 REVERT JUMPDEST POP PUSH1 0x4 CALLDATASIZE LT PUSH2 0x4A JUMPI PUSH0 CALLDATALOAD PUSH1 0xE0 SHR DUP1 PUSH4 0xCA21E9C EQ PUSH2 0x4E JUMPI DUP1 PUSH4 0x370EA142 EQ PUSH2 0x58 JUMPI DUP1 PUSH4 0x7BCAE55D EQ PUSH2 0x62 JUMPI DUP1 PUSH4 0xB0B8579B EQ PUSH2 0x6C JUMPI JUMPDEST PUSH0 DUP1 REVERT JUMPDEST PUSH2 0x56 PUSH2 0x76 JUMP JUMPDEST STOP JUMPDEST PUSH2 0x60 PUSH2 0xAD JUMP JUMPDEST STOP JUMPDEST PUSH2 0x6A PUSH2 0xE4 JUMP JUMPDEST STOP JUMPDEST PUSH2 0x74 PUSH2 0x11B JUMP JUMPDEST STOP JUMPDEST PUSH32 0xCF34EF537AC33EE1AC626CA1587A0A7E8E51561E5514F8CB36AFA1C5102B3BAB PUSH1 0x40 MLOAD PUSH2 0xA3 SWAP1 PUSH2 0x1AC JUMP JUMPDEST PUSH1 0x40 MLOAD DUP1 SWAP2 SUB SWAP1 LOG1 JUMP JUMPDEST PUSH32 0xCF34EF537AC33EE1AC626CA1587A0A7E8E51561E5514F8CB36AFA1C5102B3BAB PUSH1 0x40 MLOAD PUSH2 0xDA SWAP1 PUSH2 0x1AC JUMP JUMPDEST PUSH1 0x40 MLOAD DUP1 SWAP2 SUB SWAP1 LOG1 JUMP JUMPDEST PUSH32 0xCF34EF537AC33EE1AC626CA1587A0A7E8E51561E5514F8CB36AFA1C5102B3BAB PUSH1 0x40 MLOAD PUSH2 0x111 SWAP1 PUSH2 0x1AC JUMP JUMPDEST PUSH1 0x40 MLOAD DUP1 SWAP2 SUB SWAP1 LOG1 JUMP JUMPDEST PUSH32 0xCF34EF537AC33EE1AC626CA1587A0A7E8E51561E5514F8CB36AFA1C5102B3BAB PUSH1 0x40 MLOAD PUSH2 0x148 SWAP1 PUSH2 0x1AC JUMP JUMPDEST PUSH1 0x40 MLOAD DUP1 SWAP2 SUB SWAP1 LOG1 JUMP JUMPDEST PUSH0 DUP3 DUP3 MSTORE PUSH1 0x20 DUP3 ADD SWAP1 POP SWAP3 SWAP2 POP POP JUMP JUMPDEST PUSH32 0x5965796500000000000000000000000000000000000000000000000000000000 PUSH0 DUP3 ADD MSTORE POP JUMP JUMPDEST PUSH0 PUSH2 0x196 PUSH1 0x4 DUP4 PUSH2 0x152 JUMP JUMPDEST SWAP2 POP PUSH2 0x1A1 DUP3 PUSH2 0x162 JUMP JUMPDEST PUSH1 0x20 DUP3 ADD SWAP1 POP SWAP2 SWAP1 POP JUMP JUMPDEST PUSH0 PUSH1 0x20 DUP3 ADD SWAP1 POP DUP2 DUP2 SUB PUSH0 DUP4 ADD MSTORE PUSH2 0x1C3 DUP2 PUSH2 0x18A JUMP JUMPDEST SWAP1 POP SWAP2 SWAP1 POP JUMP INVALID LOG2 PUSH5 0x6970667358 0x22 SLT KECCAK256 BYTE GT CODECOPY 0xED SWAP4 0xBD BALANCE MSTORE8 DIV 0xB1 SHR 0xC6 STOP 0xA7 0xDE 0x2F MLOAD 0xB2 CREATE SGT DUP5 0xE0 0xE8 PUSH15 0xE297553FA43E85AF64736F6C634300 ADDMOD NOT STOP CALLER "
				},
				"gasEstimates": {
					"creation": {
						"codeDepositCost": "102400",
						"executionCost": "145",
						"totalCost": "102545"
					},
					"external": {
						"callYeye()": "1962",
						"hip()": "1940",
						"hop()": "1984",
						"yeye()": "1918"
					}
				},
				"methodIdentifiers": {
					"callYeye()": "7bcae55d",
					"hip()": "370ea142",
					"hop()": "b0b8579b",
					"yeye()": "0ca21e9c"
				}
			},
			"storageLayout": {
				"storage": [],
				"types": null
			},
			"userdoc": {
				"kind": "user",
				"methods": {},
				"version": 1
			}
		}
	}
}