{
	"Inheritance.sol": {
		"Erzi": {
			"abi": [
				{
					"anonymous": false,
					"inputs": [
						{
							"indexed": false,
							"internalType": "string",
							"name": "msg",
							"type": "string"
						}
					],
					"name": "Log",
					"type": "event"
				},
				{
					"inputs": [],
					"name": "baba",
					"outputs": [],
					"stateMutability": "nonpayable",
					"type": "function"
				},
				{
					"inputs": [],
					"name": "callBaba",
					"outputs": [],
					"stateMutability": "nonpayable",
					"type": "function"
				},
				{
					"inputs": [],
					"name": "callYeye",
					"outputs": [],
					"stateMutability": "nonpayable",
					"type": "function"
				},
				{
					"inputs": [],
					"name": "erzi",
					"outputs": [],
					"stateMutability": "nonpayable",
					"type": "function"
				},
				{
					"inputs": [],
					"name": "hip",
					"outputs": [],
					"stateMutability": "nonpayable",
					"type": "function"
				},
				{
					"inputs": [],
					"name": "hop",
					"outputs": [],
					"stateMutability": "nonpayable",
					"type": "function"
				},
				{
					"inputs": [],
					"name": "say",
					"outputs": [],
					"stateMutability": "nonpayable",
					"type": "function"
				},
				{
					"inputs": [],
					"name": "yeye",
					"outputs": [],
					"stateMutability": "nonpayable",
					"type": "function"
				}
			],
			"devdoc": {
				"kind": "dev",
				"methods": {},
				"version": 1
			},
			"evm": {
				"assembly": "    /* \"Inheritance.sol\":1127:1719  contract Erzi is Yeye, Baba {... */\n  mstore(0x40, 0x80)\n  callvalue\n  dup1\n  iszero\n  tag_1\n  jumpi\n  0x00\n  dup1\n  revert\ntag_1:\n  pop\n  dataSize(sub_0)\n  dup1\n  dataOffset(sub_0)\n  0x00\n  codecopy\n  0x00\n  return\nstop\n\nsub_0: assembly {\n        /* \"Inheritance.sol\":1127:1719  contract Erzi is Yeye, Baba {... */\n      mstore(0x40, 0x80)\n      callvalue\n      dup1\n      iszero\n      tag_1\n      jumpi\n      0x00\n      dup1\n      revert\n    tag_1:\n      pop\n      jumpi(tag_2, lt(calldatasize, 0x04))\n      shr(0xe0, calldataload(0x00))\n      dup1\n      0xa566f3db\n      gt\n      tag_11\n      jumpi\n      dup1\n      0xa566f3db\n      eq\n      tag_7\n      jumpi\n      dup1\n      0xb0b8579b\n      eq\n      tag_8\n      jumpi\n      dup1\n      0xf44cf061\n      eq\n      tag_9\n      jumpi\n      dup1\n      0xfa030ef1\n      eq\n      tag_10\n      jumpi\n      jump(tag_2)\n    tag_11:\n      dup1\n      0x0ca21e9c\n      eq\n      tag_3\n      jumpi\n      dup1\n      0x370ea142\n      eq\n      tag_4\n      jumpi\n      dup1\n      0x7bcae55d\n      eq\n      tag_5\n      jumpi\n      dup1\n      0x954ab4b2\n      eq\n      tag_6\n      jumpi\n    tag_2:\n      0x00\n      dup1\n      revert\n        /* \"Inheritance.sol\":310:374  function yeye() public virtual {... */\n    tag_3:\n      tag_12\n      tag_13\n      jump\t// in\n    tag_12:\n      stop\n        /* \"Inheritance.sol\":1252:1336  function hip() public virtual override(Yeye, Baba) {... */\n    tag_4:\n      tag_14\n      tag_15\n      jump\t// in\n    tag_14:\n      stop\n        /* \"Inheritance.sol\":380:440  function callYeye() public {... */\n    tag_5:\n      tag_16\n      tag_17\n      jump\t// in\n    tag_16:\n      stop\n        /* \"Inheritance.sol\":1503:1717  function say() public {... */\n    tag_6:\n      tag_18\n      tag_19\n      jump\t// in\n    tag_18:\n      stop\n        /* \"Inheritance.sol\":868:928  function callBaba() public {... */\n    tag_7:\n      tag_20\n      tag_21\n      jump\t// in\n    tag_20:\n      stop\n        /* \"Inheritance.sol\":1342:1427  function hop() public virtual override(Baba, Yeye ) {... */\n    tag_8:\n      tag_22\n      tag_23\n      jump\t// in\n    tag_22:\n      stop\n        /* \"Inheritance.sol\":1433:1497  function erzi() public virtual {... */\n    tag_9:\n      tag_24\n      tag_25\n      jump\t// in\n    tag_24:\n      stop\n        /* \"Inheritance.sol\":798:862  function baba() public virtual {... */\n    tag_10:\n      tag_26\n      tag_27\n      jump\t// in\n    tag_26:\n      stop\n        /* \"Inheritance.sol\":310:374  function yeye() public virtual {... */\n    tag_13:\n        /* \"Inheritance.sol\":356:367  Log(\"Yeye\") */\n      0xcf34ef537ac33ee1ac626ca1587a0a7e8e51561e5514f8cb36afa1c5102b3bab\n      mload(0x40)\n      tag_29\n      swap1\n      tag_30\n      jump\t// in\n    tag_29:\n      mload(0x40)\n      dup1\n      swap2\n      sub\n      swap1\n      log1\n        /* \"Inheritance.sol\":310:374  function yeye() public virtual {... */\n      jump\t// out\n        /* \"Inheritance.sol\":1252:1336  function hip() public virtual override(Yeye, Baba) {... */\n    tag_15:\n        /* \"Inheritance.sol\":1318:1329  Log(\"Erzi\") */\n      0xcf34ef537ac33ee1ac626ca1587a0a7e8e51561e5514f8cb36afa1c5102b3bab\n      mload(0x40)\n      tag_32\n      swap1\n      tag_33\n      jump\t// in\n    tag_32:\n      mload(0x40)\n      dup1\n      swap2\n      sub\n      swap1\n      log1\n        /* \"Inheritance.sol\":1252:1336  function hip() public virtual override(Yeye, Baba) {... */\n      jump\t// out\n        /* \"Inheritance.sol\":380:440  function callYeye() public {... */\n    tag_17:\n        /* \"Inheritance.sol\":422:433  Log(\"Yeye\") */\n      0xcf34ef537ac33ee1ac626ca1587a0a7e8e51561e5514f8cb36afa1c5102b3bab\n      mload(0x40)\n      tag_35\n      swap1\n      tag_30\n      jump\t// in\n    tag_35:\n      mload(0x40)\n      dup1\n      swap2\n      sub\n      swap1\n      log1\n        /* \"Inheritance.sol\":380:440  function callYeye() public {... */\n      jump\t// out\n        /* \"Inheritance.sol\":1503:1717  function say() public {... */\n    tag_19:\n        /* \"Inheritance.sol\":1589:1604  Yeye.callYeye() */\n      tag_37\n        /* \"Inheritance.sol\":1589:1602  Yeye.callYeye */\n      tag_17\n        /* \"Inheritance.sol\":1589:1604  Yeye.callYeye() */\n      jump\t// in\n    tag_37:\n        /* \"Inheritance.sol\":1691:1702  super.hip() */\n      tag_38\n        /* \"Inheritance.sol\":1691:1700  super.hip */\n      tag_39\n        /* \"Inheritance.sol\":1691:1702  super.hip() */\n      jump\t// in\n    tag_38:\n        /* \"Inheritance.sol\":1503:1717  function say() public {... */\n      jump\t// out\n        /* \"Inheritance.sol\":868:928  function callBaba() public {... */\n    tag_21:\n        /* \"Inheritance.sol\":910:921  Log(\"Baba\") */\n      0xcf34ef537ac33ee1ac626ca1587a0a7e8e51561e5514f8cb36afa1c5102b3bab\n      mload(0x40)\n      tag_41\n      swap1\n      tag_42\n      jump\t// in\n    tag_41:\n      mload(0x40)\n      dup1\n      swap2\n      sub\n      swap1\n      log1\n        /* \"Inheritance.sol\":868:928  function callBaba() public {... */\n      jump\t// out\n        /* \"Inheritance.sol\":1342:1427  function hop() public virtual override(Baba, Yeye ) {... */\n    tag_23:\n        /* \"Inheritance.sol\":1409:1420  Log(\"Erzi\") */\n      0xcf34ef537ac33ee1ac626ca1587a0a7e8e51561e5514f8cb36afa1c5102b3bab\n      mload(0x40)\n      tag_44\n      swap1\n      tag_33\n      jump\t// in\n    tag_44:\n      mload(0x40)\n      dup1\n      swap2\n      sub\n      swap1\n      log1\n        /* \"Inheritance.sol\":1342:1427  function hop() public virtual override(Baba, Yeye ) {... */\n      jump\t// out\n        /* \"Inheritance.sol\":1433:1497  function erzi() public virtual {... */\n    tag_25:\n        /* \"Inheritance.sol\":1479:1490  Log(\"Erzi\") */\n      0xcf34ef537ac33ee1ac626ca1587a0a7e8e51561e5514f8cb36afa1c5102b3bab\n      mload(0x40)\n      tag_46\n      swap1\n      tag_33\n      jump\t// in\n    tag_46:\n      mload(0x40)\n      dup1\n      swap2\n      sub\n      swap1\n      log1\n        /* \"Inheritance.sol\":1433:1497  function erzi() public virtual {... */\n      jump\t// out\n        /* \"Inheritance.sol\":798:862  function baba() public virtual {... */\n    tag_27:\n        /* \"Inheritance.sol\":844:855  Log(\"Baba\") */\n      0xcf34ef537ac33ee1ac626ca1587a0a7e8e51561e5514f8cb36afa1c5102b3bab\n      mload(0x40)\n      tag_48\n      swap1\n      tag_42\n      jump\t// in\n    tag_48:\n      mload(0x40)\n      dup1\n      swap2\n      sub\n      swap1\n      log1\n        /* \"Inheritance.sol\":798:862  function baba() public virtual {... */\n      jump\t// out\n        /* \"Inheritance.sol\":642:714  function hip() public virtual override {... */\n    tag_39:\n        /* \"Inheritance.sol\":696:707  Log(\"Baba\") */\n      0xcf34ef537ac33ee1ac626ca1587a0a7e8e51561e5514f8cb36afa1c5102b3bab\n      mload(0x40)\n      tag_50\n      swap1\n      tag_42\n      jump\t// in\n    tag_50:\n      mload(0x40)\n      dup1\n      swap2\n      sub\n      swap1\n      log1\n        /* \"Inheritance.sol\":642:714  function hip() public virtual override {... */\n      jump\t// out\n        /* \"#utility.yul\":7:176   */\n    tag_51:\n        /* \"#utility.yul\":91:102   */\n      0x00\n        /* \"#utility.yul\":125:131   */\n      dup3\n        /* \"#utility.yul\":120:123   */\n      dup3\n        /* \"#utility.yul\":113:132   */\n      mstore\n        /* \"#utility.yul\":165:169   */\n      0x20\n        /* \"#utility.yul\":160:163   */\n      dup3\n        /* \"#utility.yul\":156:170   */\n      add\n        /* \"#utility.yul\":141:170   */\n      swap1\n      pop\n        /* \"#utility.yul\":7:176   */\n      swap3\n      swap2\n      pop\n      pop\n      jump\t// out\n        /* \"#utility.yul\":182:336   */\n    tag_52:\n        /* \"#utility.yul\":322:328   */\n      0x5965796500000000000000000000000000000000000000000000000000000000\n        /* \"#utility.yul\":318:319   */\n      0x00\n        /* \"#utility.yul\":310:316   */\n      dup3\n        /* \"#utility.yul\":306:320   */\n      add\n        /* \"#utility.yul\":299:329   */\n      mstore\n        /* \"#utility.yul\":182:336   */\n      pop\n      jump\t// out\n        /* \"#utility.yul\":342:707   */\n    tag_53:\n        /* \"#utility.yul\":484:487   */\n      0x00\n        /* \"#utility.yul\":505:571   */\n      tag_62\n        /* \"#utility.yul\":569:570   */\n      0x04\n        /* \"#utility.yul\":564:567   */\n      dup4\n        /* \"#utility.yul\":505:571   */\n      tag_51\n      jump\t// in\n    tag_62:\n        /* \"#utility.yul\":498:571   */\n      swap2\n      pop\n        /* \"#utility.yul\":580:673   */\n      tag_63\n        /* \"#utility.yul\":669:672   */\n      dup3\n        /* \"#utility.yul\":580:673   */\n      tag_52\n      jump\t// in\n    tag_63:\n        /* \"#utility.yul\":698:700   */\n      0x20\n        /* \"#utility.yul\":693:696   */\n      dup3\n        /* \"#utility.yul\":689:701   */\n      add\n        /* \"#utility.yul\":682:701   */\n      swap1\n      pop\n        /* \"#utility.yul\":342:707   */\n      swap2\n      swap1\n      pop\n      jump\t// out\n        /* \"#utility.yul\":713:1132   */\n    tag_30:\n        /* \"#utility.yul\":879:883   */\n      0x00\n        /* \"#utility.yul\":917:919   */\n      0x20\n        /* \"#utility.yul\":906:915   */\n      dup3\n        /* \"#utility.yul\":902:920   */\n      add\n        /* \"#utility.yul\":894:920   */\n      swap1\n      pop\n        /* \"#utility.yul\":966:975   */\n      dup2\n        /* \"#utility.yul\":960:964   */\n      dup2\n        /* \"#utility.yul\":956:976   */\n      sub\n        /* \"#utility.yul\":952:953   */\n      0x00\n        /* \"#utility.yul\":941:950   */\n      dup4\n        /* \"#utility.yul\":937:954   */\n      add\n        /* \"#utility.yul\":930:977   */\n      mstore\n        /* \"#utility.yul\":994:1125   */\n      tag_65\n        /* \"#utility.yul\":1120:1124   */\n      dup2\n        /* \"#utility.yul\":994:1125   */\n      tag_53\n      jump\t// in\n    tag_65:\n        /* \"#utility.yul\":986:1125   */\n      swap1\n      pop\n        /* \"#utility.yul\":713:1132   */\n      swap2\n      swap1\n      pop\n      jump\t// out\n        /* \"#utility.yul\":1138:1292   */\n    tag_54:\n        /* \"#utility.yul\":1278:1284   */\n      0x45727a6900000000000000000000000000000000000000000000000000000000\n        /* \"#utility.yul\":1274:1275   */\n      0x00\n        /* \"#utility.yul\":1266:1272   */\n      dup3\n        /* \"#utility.yul\":1262:1276   */\n      add\n        /* \"#utility.yul\":1255:1285   */\n      mstore\n        /* \"#utility.yul\":1138:1292   */\n      pop\n      jump\t// out\n        /* \"#utility.yul\":1298:1663   */\n    tag_55:\n        /* \"#utility.yul\":1440:1443   */\n      0x00\n        /* \"#utility.yul\":1461:1527   */\n      tag_68\n        /* \"#utility.yul\":1525:1526   */\n      0x04\n        /* \"#utility.yul\":1520:1523   */\n      dup4\n        /* \"#utility.yul\":1461:1527   */\n      tag_51\n      jump\t// in\n    tag_68:\n        /* \"#utility.yul\":1454:1527   */\n      swap2\n      pop\n        /* \"#utility.yul\":1536:1629   */\n      tag_69\n        /* \"#utility.yul\":1625:1628   */\n      dup3\n        /* \"#utility.yul\":1536:1629   */\n      tag_54\n      jump\t// in\n    tag_69:\n        /* \"#utility.yul\":1654:1656   */\n      0x20\n        /* \"#utility.yul\":1649:1652   */\n      dup3\n        /* \"#utility.yul\":1645:1657   */\n      add\n        /* \"#utility.yul\":1638:1657   */\n      swap1\n      pop\n        /* \"#utility.yul\":1298:1663   */\n      swap2\n      swap1\n      pop\n      jump\t// out\n        /* \"#utility.yul\":1669:2088   */\n    tag_33:\n        /* \"#utility.yul\":1835:1839   */\n      0x00\n        /* \"#utility.yul\":1873:1875   */\n      0x20\n        /* \"#utility.yul\":1862:1871   */\n      dup3\n        /* \"#utility.yul\":1858:1876   */\n      add\n        /* \"#utility.yul\":1850:1876   */\n      swap1\n      pop\n        /* \"#utility.yul\":1922:1931   */\n      dup2\n        /* \"#utility.yul\":1916:1920   */\n      dup2\n        /* \"#utility.yul\":1912:1932   */\n      sub\n        /* \"#utility.yul\":1908:1909   */\n      0x00\n        /* \"#utility.yul\":1897:1906   */\n      dup4\n        /* \"#utility.yul\":1893:1910   */\n      add\n        /* \"#utility.yul\":1886:1933   */\n      mstore\n        /* \"#utility.yul\":1950:2081   */\n      tag_71\n        /* \"#utility.yul\":2076:2080   */\n      dup2\n        /* \"#utility.yul\":1950:2081   */\n      tag_55\n      jump\t// in\n    tag_71:\n        /* \"#utility.yul\":1942:2081   */\n      swap1\n      pop\n        /* \"#utility.yul\":1669:2088   */\n      swap2\n      swap1\n      pop\n      jump\t// out\n        /* \"#utility.yul\":2094:2248   */\n    tag_56:\n        /* \"#utility.yul\":2234:2240   */\n      0x4261626100000000000000000000000000000000000000000000000000000000\n        /* \"#utility.yul\":2230:2231   */\n      0x00\n        /* \"#utility.yul\":2222:2228   */\n      dup3\n        /* \"#utility.yul\":2218:2232   */\n      add\n        /* \"#utility.yul\":2211:2241   */\n      mstore\n        /* \"#utility.yul\":2094:2248   */\n      pop\n      jump\t// out\n        /* \"#utility.yul\":2254:2619   */\n    tag_57:\n        /* \"#utility.yul\":2396:2399   */\n      0x00\n        /* \"#utility.yul\":2417:2483   */\n      tag_74\n        /* \"#utility.yul\":2481:2482   */\n      0x04\n        /* \"#utility.yul\":2476:2479   */\n      dup4\n        /* \"#utility.yul\":2417:2483   */\n      tag_51\n      jump\t// in\n    tag_74:\n        /* \"#utility.yul\":2410:2483   */\n      swap2\n      pop\n        /* \"#utility.yul\":2492:2585   */\n      tag_75\n        /* \"#utility.yul\":2581:2584   */\n      dup3\n        /* \"#utility.yul\":2492:2585   */\n      tag_56\n      jump\t// in\n    tag_75:\n        /* \"#utility.yul\":2610:2612   */\n      0x20\n        /* \"#utility.yul\":2605:2608   */\n      dup3\n        /* \"#utility.yul\":2601:2613   */\n      add\n        /* \"#utility.yul\":2594:2613   */\n      swap1\n      pop\n        /* \"#utility.yul\":2254:2619   */\n      swap2\n      swap1\n      pop\n      jump\t// out\n        /* \"#utility.yul\":2625:3044   */\n    tag_42:\n        /* \"#utility.yul\":2791:2795   */\n      0x00\n        /* \"#utility.yul\":2829:2831   */\n      0x20\n        /* \"#utility.yul\":2818:2827   */\n      dup3\n        /* \"#utility.yul\":2814:2832   */\n      add\n        /* \"#utility.yul\":2806:2832   */\n      swap1\n      pop\n        /* \"#utility.yul\":2878:2887   */\n      dup2\n        /* \"#utility.yul\":2872:2876   */\n      dup2\n        /* \"#utility.yul\":2868:2888   */\n      sub\n        /* \"#utility.yul\":2864:2865   */\n      0x00\n        /* \"#utility.yul\":2853:2862   */\n      dup4\n        /* \"#utility.yul\":2849:2866   */\n      add\n        /* \"#utility.yul\":2842:2889   */\n      mstore\n        /* \"#utility.yul\":2906:3037   */\n      tag_77\n        /* \"#utility.yul\":3032:3036   */\n      dup2\n        /* \"#utility.yul\":2906:3037   */\n      tag_57\n      jump\t// in\n    tag_77:\n        /* \"#utility.yul\":2898:3037   */\n      swap1\n      pop\n        /* \"#utility.yul\":2625:3044   */\n      swap2\n      swap1\n      pop\n      jump\t// out\n\n    auxdata: 0xa2646970667358221220c35417fd8bf43e73a77cb49cdbc3ed0c72c8fe7e964bcc0d385abcd4107e750564736f6c63430008190033\n}\n",
				"bytecode": {
					"linkReferences": {},
					"object": "6080604052348015600e575f80fd5b506104228061001c5f395ff3fe608060405234801561000f575f80fd5b5060043610610086575f3560e01c8063a566f3db11610059578063a566f3db146100b2578063b0b8579b146100bc578063f44cf061146100c6578063fa030ef1146100d057610086565b80630ca21e9c1461008a578063370ea142146100945780637bcae55d1461009e578063954ab4b2146100a8575b5f80fd5b6100926100da565b005b61009c610111565b005b6100a6610148565b005b6100b061017f565b005b6100ba610191565b005b6100c46101c8565b005b6100ce6101ff565b005b6100d8610236565b005b7fcf34ef537ac33ee1ac626ca1587a0a7e8e51561e5514f8cb36afa1c5102b3bab604051610107906102fe565b60405180910390a1565b7fcf34ef537ac33ee1ac626ca1587a0a7e8e51561e5514f8cb36afa1c5102b3bab60405161013e90610366565b60405180910390a1565b7fcf34ef537ac33ee1ac626ca1587a0a7e8e51561e5514f8cb36afa1c5102b3bab604051610175906102fe565b60405180910390a1565b610187610148565b61018f61026d565b565b7fcf34ef537ac33ee1ac626ca1587a0a7e8e51561e5514f8cb36afa1c5102b3bab6040516101be906103ce565b60405180910390a1565b7fcf34ef537ac33ee1ac626ca1587a0a7e8e51561e5514f8cb36afa1c5102b3bab6040516101f590610366565b60405180910390a1565b7fcf34ef537ac33ee1ac626ca1587a0a7e8e51561e5514f8cb36afa1c5102b3bab60405161022c90610366565b60405180910390a1565b7fcf34ef537ac33ee1ac626ca1587a0a7e8e51561e5514f8cb36afa1c5102b3bab604051610263906103ce565b60405180910390a1565b7fcf34ef537ac33ee1ac626ca1587a0a7e8e51561e5514f8cb36afa1c5102b3bab60405161029a906103ce565b60405180910390a1565b5f82825260208201905092915050565b7f59657965000000000000000000000000000000000000000000000000000000005f82015250565b5f6102e86004836102a4565b91506102f3826102b4565b602082019050919050565b5f6020820190508181035f830152610315816102dc565b9050919050565b7f45727a69000000000000000000000000000000000000000000000000000000005f82015250565b5f6103506004836102a4565b915061035b8261031c565b602082019050919050565b5f6020820190508181035f83015261037d81610344565b9050919050565b7f42616261000000000000000000000000000000000000000000000000000000005f82015250565b5f6103b86004836102a4565b91506103c382610384565b602082019050919050565b5f6020820190508181035f8301526103e5816103ac565b905091905056fea2646970667358221220c35417fd8bf43e73a77cb49cdbc3ed0c72c8fe7e964bcc0d385abcd4107e750564736f6c63430008190033",
					"opcodes": "PUSH1 0x80 PUSH1 0x40 MSTORE CALLVALUE DUP1 ISZERO PUSH1 0xE JUMPI PUSH0 DUP1 REVERT JUMPDEST POP PUSH2 0x422 DUP1 PUSH2 0x1C PUSH0 CODECOPY PUSH0 RETURN INVALID PUSH1 0x80 PUSH1 0x40 MSTORE CALLVALUE DUP1 ISZERO PUSH2 0xF JUMPI PUSH0 DUP1 REVERT JUMPDEST POP PUSH1 0x4 CALLDATASIZE LT PUSH2 0x86 JUMPI PUSH0 CALLDATALOAD PUSH1 0xE0 SHR DUP1 PUSH4 0xA566F3DB GT PUSH2 0x59 JUMPI DUP1 PUSH4 0xA566F3DB EQ PUSH2 0xB2 JUMPI DUP1 PUSH4 0xB0B8579B EQ PUSH2 0xBC JUMPI DUP1 PUSH4 0xF44CF061 EQ PUSH2 0xC6 JUMPI DUP1 PUSH4 0xFA030EF1 EQ PUSH2 0xD0 JUMPI PUSH2 0x86 JUMP JUMPDEST DUP1 PUSH4 0xCA21E9C EQ PUSH2 0x8A JUMPI DUP1 PUSH4 0x370EA142 EQ PUSH2 0x94 JUMPI DUP1 PUSH4 0x7BCAE55D EQ PUSH2 0x9E JUMPI DUP1 PUSH4 0x954AB4B2 EQ PUSH2 0xA8 JUMPI JUMPDEST PUSH0 DUP1 REVERT JUMPDEST PUSH2 0x92 PUSH2 0xDA JUMP JUMPDEST STOP JUMPDEST PUSH2 0x9C PUSH2 0x111 JUMP JUMPDEST STOP JUMPDEST PUSH2 0xA6 PUSH2 0x148 JUMP JUMPDEST STOP JUMPDEST PUSH2 0xB0 PUSH2 0x17F JUMP JUMPDEST STOP JUMPDEST PUSH2 0xBA PUSH2 0x191 JUMP JUMPDEST STOP JUMPDEST PUSH2 0xC4 PUSH2 0x1C8 JUMP JUMPDEST STOP JUMPDEST PUSH2 0xCE PUSH2 0x1FF JUMP JUMPDEST STOP JUMPDEST PUSH2 0xD8 PUSH2 0x236 JUMP JUMPDEST STOP JUMPDEST PUSH32 0xCF34EF537AC33EE1AC626CA1587A0A7E8E51561E5514F8CB36AFA1C5102B3BAB PUSH1 0x40 MLOAD PUSH2 0x107 SWAP1 PUSH2 0x2FE JUMP JUMPDEST PUSH1 0x40 MLOAD DUP1 SWAP2 SUB SWAP1 LOG1 JUMP JUMPDEST PUSH32 0xCF34EF537AC33EE1AC626CA1587A0A7E8E51561E5514F8CB36AFA1C5102B3BAB PUSH1 0x40 MLOAD PUSH2 0x13E SWAP1 PUSH2 0x366 JUMP JUMPDEST PUSH1 0x40 MLOAD DUP1 SWAP2 SUB SWAP1 LOG1 JUMP JUMPDEST PUSH32 0xCF34EF537AC33EE1AC626CA1587A0A7E8E51561E5514F8CB36AFA1C5102B3BAB PUSH1 0x40 MLOAD PUSH2 0x175 SWAP1 PUSH2 0x2FE JUMP JUMPDEST PUSH1 0x40 MLOAD DUP1 SWAP2 SUB SWAP1 LOG1 JUMP JUMPDEST PUSH2 0x187 PUSH2 0x148 JUMP JUMPDEST PUSH2 0x18F PUSH2 0x26D JUMP JUMPDEST JUMP JUMPDEST PUSH32 0xCF34EF537AC33EE1AC626CA1587A0A7E8E51561E5514F8CB36AFA1C5102B3BAB PUSH1 0x40 MLOAD PUSH2 0x1BE SWAP1 PUSH2 0x3CE JUMP JUMPDEST PUSH1 0x40 MLOAD DUP1 SWAP2 SUB SWAP1 LOG1 JUMP JUMPDEST PUSH32 0xCF34EF537AC33EE1AC626CA1587A0A7E8E51561E5514F8CB36AFA1C5102B3BAB PUSH1 0x40 MLOAD PUSH2 0x1F5 SWAP1 PUSH2 0x366 JUMP JUMPDEST PUSH1 0x40 MLOAD DUP1 SWAP2 SUB SWAP1 LOG1 JUMP JUMPDEST PUSH32 0xCF34EF537AC33EE1AC626CA1587A0A7E8E51561E5514F8CB36AFA1C5102B3BAB PUSH1 0x40 MLOAD PUSH2 0x22C SWAP1 PUSH2 0x366 JUMP JUMPDEST PUSH1 0x40 MLOAD DUP1 SWAP2 SUB SWAP1 LOG1 JUMP JUMPDEST PUSH32 0xCF34EF537AC33EE1AC626CA1587A0A7E8E51561E5514F8CB36AFA1C5102B3BAB PUSH1 0x40 MLOAD PUSH2 0x263 SWAP1 PUSH2 0x3CE JUMP JUMPDEST PUSH1 0x40 MLOAD DUP1 SWAP2 SUB SWAP1 LOG1 JUMP JUMPDEST PUSH32 0xCF34EF537AC33EE1AC626CA1587A0A7E8E51561E5514F8CB36AFA1C5102B3BAB PUSH1 0x40 MLOAD PUSH2 0x29A SWAP1 PUSH2 0x3CE JUMP JUMPDEST PUSH1 0x40 MLOAD DUP1 SWAP2 SUB SWAP1 LOG1 JUMP JUMPDEST PUSH0 DUP3 DUP3 MSTORE PUSH1 0x20 DUP3 ADD SWAP1 POP SWAP3 SWAP2 POP POP JUMP JUMPDEST PUSH32 0x5965796500000000000000000000000000000000000000000000000000000000 PUSH0 DUP3 ADD MSTORE POP JUMP JUMPDEST PUSH0 PUSH2 0x2E8 PUSH1 0x4 DUP4 PUSH2 0x2A4 JUMP JUMPDEST SWAP2 POP PUSH2 0x2F3 DUP3 PUSH2 0x2B4 JUMP JUMPDEST PUSH1 0x20 DUP3 ADD SWAP1 POP SWAP2 SWAP1 POP JUMP JUMPDEST PUSH0 PUSH1 0x20 DUP3 ADD SWAP1 POP DUP2 DUP2 SUB PUSH0 DUP4 ADD MSTORE PUSH2 0x315 DUP2 PUSH2 0x2DC JUMP JUMPDEST SWAP1 POP SWAP2 SWAP1 POP JUMP JUMPDEST PUSH32 0x45727A6900000000000000000000000000000000000000000000000000000000 PUSH0 DUP3 ADD MSTORE POP JUMP JUMPDEST PUSH0 PUSH2 0x350 PUSH1 0x4 DUP4 PUSH2 0x2A4 JUMP JUMPDEST SWAP2 POP PUSH2 0x35B DUP3 PUSH2 0x31C JUMP JUMPDEST PUSH1 0x20 DUP3 ADD SWAP1 POP SWAP2 SWAP1 POP JUMP JUMPDEST PUSH0 PUSH1 0x20 DUP3 ADD SWAP1 POP DUP2 DUP2 SUB PUSH0 DUP4 ADD MSTORE PUSH2 0x37D DUP2 PUSH2 0x344 JUMP JUMPDEST SWAP1 POP SWAP2 SWAP1 POP JUMP JUMPDEST PUSH32 0x4261626100000000000000000000000000000000000000000000000000000000 PUSH0 DUP3 ADD MSTORE POP JUMP JUMPDEST PUSH0 PUSH2 0x3B8 PUSH1 0x4 DUP4 PUSH2 0x2A4 JUMP JUMPDEST SWAP2 POP PUSH2 0x3C3 DUP3 PUSH2 0x384 JUMP JUMPDEST PUSH1 0x20 DUP3 ADD SWAP1 POP SWAP2 SWAP1 POP JUMP JUMPDEST PUSH0 PUSH1 0x20 DUP3 ADD SWAP1 POP DUP2 DUP2 SUB PUSH0 DUP4 ADD MSTORE PUSH2 0x3E5 DUP2 PUSH2 0x3AC JUMP JUMPDEST SWAP1 POP SWAP2 SWAP1 POP JUMP INVALID LOG2 PUSH5 0x6970667358 0x22 SLT KECCAK256 0xC3 SLOAD OR REVERT DUP12 DELEGATECALL RETURNDATACOPY PUSH20 0xA77CB49CDBC3ED0C72C8FE7E964BCC0D385ABCD4 LT PUSH31 0x750564736F6C63430008190033000000000000000000000000000000000000 "
				},
				"gasEstimates": {
					"creation": {
						"codeDepositCost": "211600",
						"executionCost": "255",
						"totalCost": "211855"
					},
					"external": {
						"baba()": "2006",
						"callBaba()": "1940",
						"callYeye()": "1985",
						"erzi()": "1984",
						"hip()": "1963",
						"hop()": "1962",
						"say()": "infinite",
						"yeye()": "1941"
					}
				},
				"methodIdentifiers": {
					"baba()": "fa030ef1",
					"callBaba()": "a566f3db",
					"callYeye()": "7bcae55d",
					"erzi()": "f44cf061",
					"hip()": "370ea142",
					"hop()": "b0b8579b",
					"say()": "954ab4b2",
					"yeye()": "0ca21e9c"
				}
			},
			"storageLayout": {
				"storage": [],
				"types": null
			},
			"userdoc": {
				"kind": "user",
				"methods": {},
				"version": 1
			}
		}
	}
}