{
	"ValueTypes.sol": {
		"ValueTypes": {
			"abi": [
				{
					"inputs": [],
					"name": "_address",
					"outputs": [
						{
							"internalType": "address",
							"name": "",
							"type": "address"
						}
					],
					"stateMutability": "view",
					"type": "function"
				},
				{
					"inputs": [],
					"name": "_bool",
					"outputs": [
						{
							"internalType": "bool",
							"name": "",
							"type": "bool"
						}
					],
					"stateMutability": "view",
					"type": "function"
				},
				{
					"inputs": [],
					"name": "_byte",
					"outputs": [
						{
							"internalType": "bytes1",
							"name": "",
							"type": "bytes1"
						}
					],
					"stateMutability": "view",
					"type": "function"
				},
				{
					"inputs": [],
					"name": "_bytes32",
					"outputs": [
						{
							"internalType": "bytes32",
							"name": "",
							"type": "bytes32"
						}
					],
					"stateMutability": "view",
					"type": "function"
				},
				{
					"inputs": [],
					"name": "_int",
					"outputs": [
						{
							"internalType": "int256",
							"name": "",
							"type": "int256"
						}
					],
					"stateMutability": "view",
					"type": "function"
				},
				{
					"inputs": [],
					"name": "_number",
					"outputs": [
						{
							"internalType": "uint256",
							"name": "",
							"type": "uint256"
						}
					],
					"stateMutability": "view",
					"type": "function"
				},
				{
					"inputs": [],
					"name": "_uint",
					"outputs": [
						{
							"internalType": "uint256",
							"name": "",
							"type": "uint256"
						}
					],
					"stateMutability": "view",
					"type": "function"
				},
				{
					"inputs": [],
					"name": "balance",
					"outputs": [
						{
							"internalType": "uint256",
							"name": "",
							"type": "uint256"
						}
					],
					"stateMutability": "view",
					"type": "function"
				},
				{
					"inputs": [],
					"name": "enum2Uint",
					"outputs": [
						{
							"internalType": "uint256",
							"name": "",
							"type": "uint256"
						}
					],
					"stateMutability": "view",
					"type": "function"
				}
			],
			"devdoc": {
				"kind": "dev",
				"methods": {},
				"version": 1
			},
			"evm": {
				"assembly": "    /* \"ValueTypes.sol\":57:1242  contract ValueTypes {... */\n  mstore(0x40, 0x80)\n    /* \"ValueTypes.sol\":103:107  true */\n  0x01\n    /* \"ValueTypes.sol\":83:107  bool public _bool = true */\n  0x00\n  dup1\n  0x0100\n  exp\n  dup2\n  sload\n  dup2\n  0xff\n  mul\n  not\n  and\n  swap1\n  dup4\n  iszero\n  iszero\n  mul\n  or\n  swap1\n  sstore\n  pop\n    /* \"ValueTypes.sol\":193:195  -1 */\n  0xffffffffffffffffffffffffffffffffffffffffffffffffffffffffffffffff\n    /* \"ValueTypes.sol\":175:195  int public _int = -1 */\n  0x01\n  sstore\n    /* \"ValueTypes.sol\":247:248  1 */\n  0x01\n    /* \"ValueTypes.sol\":227:248  uint public _uint = 1 */\n  0x02\n  sstore\n    /* \"ValueTypes.sol\":292:298  292929 */\n  0x047841\n    /* \"ValueTypes.sol\":267:298  uint256 public _number = 292929 */\n  0x03\n  sstore\n    /* \"ValueTypes.sol\":471:513  0x7A58c0Be72BE218B41C608b7Fe7C5bB630736C71 */\n  0x7a58c0be72be218b41c608b7fe7c5bb630736c71\n    /* \"ValueTypes.sol\":445:513  address public _address = 0x7A58c0Be72BE218B41C608b7Fe7C5bB630736C71 */\n  0x04\n  exp(0x0100, 0x00)\n  dup2\n  sload\n  dup2\n  0xffffffffffffffffffffffffffffffffffffffff\n  mul\n  not\n  and\n  swap1\n  dup4\n  0xffffffffffffffffffffffffffffffffffffffff\n  and\n  mul\n  or\n  swap1\n  sstore\n  pop\n    /* \"ValueTypes.sol\":574:582  _address */\n  0x04\n  0x00\n  swap1\n  sload\n  swap1\n  0x0100\n  exp\n  swap1\n  div\n  0xffffffffffffffffffffffffffffffffffffffff\n  and\n    /* \"ValueTypes.sol\":538:583  address payable _address1 = payable(_address) */\n  0x05\n  exp(0x0100, 0x00)\n  dup2\n  sload\n  dup2\n  0xffffffffffffffffffffffffffffffffffffffff\n  mul\n  not\n  and\n  swap1\n  dup4\n  0xffffffffffffffffffffffffffffffffffffffff\n  and\n  mul\n  or\n  swap1\n  sstore\n  pop\n    /* \"ValueTypes.sol\":693:702  _address1 */\n  0x05\n  0x00\n  swap1\n  sload\n  swap1\n  0x0100\n  exp\n  swap1\n  div\n  0xffffffffffffffffffffffffffffffffffffffff\n  and\n    /* \"ValueTypes.sol\":693:710  _address1.balance */\n  0xffffffffffffffffffffffffffffffffffffffff\n  and\n  balance\n    /* \"ValueTypes.sol\":668:710  uint256 public balance = _address1.balance */\n  0x06\n  sstore\n    /* \"ValueTypes.sol\":821:861  bytes32 public _bytes32 = \"MiniSolidity\" */\n  sstore(0x07, 0x4d696e69536f6c69646974790000000000000000000000000000000000000000)\n    /* \"ValueTypes.sol\":917:925  _bytes32 */\n  sload(0x07)\n    /* \"ValueTypes.sol\":926:927  0 */\n  0x00\n    /* \"ValueTypes.sol\":917:928  _bytes32[0] */\n  0x20\n  dup2\n  lt\n  tag_1\n  jumpi\n  tag_2\n  tag_3\n  jump\t// in\ntag_2:\ntag_1:\n  byte\n  0xf8\n  shl\n    /* \"ValueTypes.sol\":895:928  bytes1 public _byte = _bytes32[0] */\n  0x08\n  exp(0x0100, 0x00)\n  dup2\n  sload\n  dup2\n  0xff\n  mul\n  not\n  and\n  swap1\n  dup4\n  0xf8\n  shr\n  mul\n  or\n  swap1\n  sstore\n  pop\n    /* \"ValueTypes.sol\":1095:1108  ActionSet.Buy */\n  0x00\n    /* \"ValueTypes.sol\":1076:1108  ActionSet action = ActionSet.Buy */\n  0x08\n  exp(0x0100, 0x01)\n  dup2\n  sload\n  dup2\n  0xff\n  mul\n  not\n  and\n  swap1\n  dup4\n  0x02\n  dup2\n  gt\n  iszero\n  tag_4\n  jumpi\n  tag_5\n  tag_6\n  jump\t// in\ntag_5:\ntag_4:\n  mul\n  or\n  swap1\n  sstore\n  pop\n    /* \"ValueTypes.sol\":57:1242  contract ValueTypes {... */\n  callvalue\n  dup1\n  iszero\n  tag_7\n  jumpi\n  0x00\n  dup1\n  revert\ntag_7:\n  pop\n  jump(tag_8)\n    /* \"#utility.yul\":7:187   */\ntag_3:\n    /* \"#utility.yul\":55:132   */\n  0x4e487b7100000000000000000000000000000000000000000000000000000000\n    /* \"#utility.yul\":52:53   */\n  0x00\n    /* \"#utility.yul\":45:133   */\n  mstore\n    /* \"#utility.yul\":152:156   */\n  0x32\n    /* \"#utility.yul\":149:150   */\n  0x04\n    /* \"#utility.yul\":142:157   */\n  mstore\n    /* \"#utility.yul\":176:180   */\n  0x24\n    /* \"#utility.yul\":173:174   */\n  0x00\n    /* \"#utility.yul\":166:181   */\n  revert\n    /* \"#utility.yul\":193:373   */\ntag_6:\n    /* \"#utility.yul\":241:318   */\n  0x4e487b7100000000000000000000000000000000000000000000000000000000\n    /* \"#utility.yul\":238:239   */\n  0x00\n    /* \"#utility.yul\":231:319   */\n  mstore\n    /* \"#utility.yul\":338:342   */\n  0x21\n    /* \"#utility.yul\":335:336   */\n  0x04\n    /* \"#utility.yul\":328:343   */\n  mstore\n    /* \"#utility.yul\":362:366   */\n  0x24\n    /* \"#utility.yul\":359:360   */\n  0x00\n    /* \"#utility.yul\":352:367   */\n  revert\n    /* \"ValueTypes.sol\":57:1242  contract ValueTypes {... */\ntag_8:\n  dataSize(sub_0)\n  dup1\n  dataOffset(sub_0)\n  0x00\n  codecopy\n  0x00\n  return\nstop\n\nsub_0: assembly {\n        /* \"ValueTypes.sol\":57:1242  contract ValueTypes {... */\n      mstore(0x40, 0x80)\n      callvalue\n      dup1\n      iszero\n      tag_1\n      jumpi\n      0x00\n      dup1\n      revert\n    tag_1:\n      pop\n      jumpi(tag_2, lt(calldatasize, 0x04))\n      shr(0xe0, calldataload(0x00))\n      dup1\n      0x9e6ba9c2\n      gt\n      tag_12\n      jumpi\n      dup1\n      0x9e6ba9c2\n      eq\n      tag_7\n      jumpi\n      dup1\n      0xaeb6f292\n      eq\n      tag_8\n      jumpi\n      dup1\n      0xaf45869e\n      eq\n      tag_9\n      jumpi\n      dup1\n      0xb69ef8a8\n      eq\n      tag_10\n      jumpi\n      dup1\n      0xf9bd55cc\n      eq\n      tag_11\n      jumpi\n      jump(tag_2)\n    tag_12:\n      dup1\n      0x18bad217\n      eq\n      tag_3\n      jumpi\n      dup1\n      0x2543135b\n      eq\n      tag_4\n      jumpi\n      dup1\n      0x4d7fe787\n      eq\n      tag_5\n      jumpi\n      dup1\n      0x93f2b398\n      eq\n      tag_6\n      jumpi\n    tag_2:\n      0x00\n      dup1\n      revert\n        /* \"ValueTypes.sol\":445:513  address public _address = 0x7A58c0Be72BE218B41C608b7Fe7C5bB630736C71 */\n    tag_3:\n      tag_13\n      tag_14\n      jump\t// in\n    tag_13:\n      mload(0x40)\n      tag_15\n      swap2\n      swap1\n      tag_16\n      jump\t// in\n    tag_15:\n      mload(0x40)\n      dup1\n      swap2\n      sub\n      swap1\n      return\n        /* \"ValueTypes.sol\":227:248  uint public _uint = 1 */\n    tag_4:\n      tag_17\n      tag_18\n      jump\t// in\n    tag_17:\n      mload(0x40)\n      tag_19\n      swap2\n      swap1\n      tag_20\n      jump\t// in\n    tag_19:\n      mload(0x40)\n      dup1\n      swap2\n      sub\n      swap1\n      return\n        /* \"ValueTypes.sol\":1155:1240  function enum2Uint() external view returns(uint) {... */\n    tag_5:\n      tag_21\n      tag_22\n      jump\t// in\n    tag_21:\n      mload(0x40)\n      tag_23\n      swap2\n      swap1\n      tag_20\n      jump\t// in\n    tag_23:\n      mload(0x40)\n      dup1\n      swap2\n      sub\n      swap1\n      return\n        /* \"ValueTypes.sol\":821:861  bytes32 public _bytes32 = \"MiniSolidity\" */\n    tag_6:\n      tag_24\n      tag_25\n      jump\t// in\n    tag_24:\n      mload(0x40)\n      tag_26\n      swap2\n      swap1\n      tag_27\n      jump\t// in\n    tag_26:\n      mload(0x40)\n      dup1\n      swap2\n      sub\n      swap1\n      return\n        /* \"ValueTypes.sol\":83:107  bool public _bool = true */\n    tag_7:\n      tag_28\n      tag_29\n      jump\t// in\n    tag_28:\n      mload(0x40)\n      tag_30\n      swap2\n      swap1\n      tag_31\n      jump\t// in\n    tag_30:\n      mload(0x40)\n      dup1\n      swap2\n      sub\n      swap1\n      return\n        /* \"ValueTypes.sol\":895:928  bytes1 public _byte = _bytes32[0] */\n    tag_8:\n      tag_32\n      tag_33\n      jump\t// in\n    tag_32:\n      mload(0x40)\n      tag_34\n      swap2\n      swap1\n      tag_35\n      jump\t// in\n    tag_34:\n      mload(0x40)\n      dup1\n      swap2\n      sub\n      swap1\n      return\n        /* \"ValueTypes.sol\":175:195  int public _int = -1 */\n    tag_9:\n      tag_36\n      tag_37\n      jump\t// in\n    tag_36:\n      mload(0x40)\n      tag_38\n      swap2\n      swap1\n      tag_39\n      jump\t// in\n    tag_38:\n      mload(0x40)\n      dup1\n      swap2\n      sub\n      swap1\n      return\n        /* \"ValueTypes.sol\":668:710  uint256 public balance = _address1.balance */\n    tag_10:\n      tag_40\n      tag_41\n      jump\t// in\n    tag_40:\n      mload(0x40)\n      tag_42\n      swap2\n      swap1\n      tag_20\n      jump\t// in\n    tag_42:\n      mload(0x40)\n      dup1\n      swap2\n      sub\n      swap1\n      return\n        /* \"ValueTypes.sol\":267:298  uint256 public _number = 292929 */\n    tag_11:\n      tag_43\n      tag_44\n      jump\t// in\n    tag_43:\n      mload(0x40)\n      tag_45\n      swap2\n      swap1\n      tag_20\n      jump\t// in\n    tag_45:\n      mload(0x40)\n      dup1\n      swap2\n      sub\n      swap1\n      return\n        /* \"ValueTypes.sol\":445:513  address public _address = 0x7A58c0Be72BE218B41C608b7Fe7C5bB630736C71 */\n    tag_14:\n      0x04\n      0x00\n      swap1\n      sload\n      swap1\n      0x0100\n      exp\n      swap1\n      div\n      0xffffffffffffffffffffffffffffffffffffffff\n      and\n      dup2\n      jump\t// out\n        /* \"ValueTypes.sol\":227:248  uint public _uint = 1 */\n    tag_18:\n      sload(0x02)\n      dup2\n      jump\t// out\n        /* \"ValueTypes.sol\":1155:1240  function enum2Uint() external view returns(uint) {... */\n    tag_22:\n        /* \"ValueTypes.sol\":1198:1202  uint */\n      0x00\n        /* \"ValueTypes.sol\":1226:1232  action */\n      0x08\n      0x01\n      swap1\n      sload\n      swap1\n      0x0100\n      exp\n      swap1\n      div\n      0xff\n      and\n        /* \"ValueTypes.sol\":1221:1233  uint(action) */\n      0x02\n      dup2\n      gt\n      iszero\n      tag_47\n      jumpi\n      tag_48\n      tag_49\n      jump\t// in\n    tag_48:\n    tag_47:\n        /* \"ValueTypes.sol\":1214:1233  return uint(action) */\n      swap1\n      pop\n        /* \"ValueTypes.sol\":1155:1240  function enum2Uint() external view returns(uint) {... */\n      swap1\n      jump\t// out\n        /* \"ValueTypes.sol\":821:861  bytes32 public _bytes32 = \"MiniSolidity\" */\n    tag_25:\n      sload(0x07)\n      dup2\n      jump\t// out\n        /* \"ValueTypes.sol\":83:107  bool public _bool = true */\n    tag_29:\n      0x00\n      dup1\n      sload\n      swap1\n      0x0100\n      exp\n      swap1\n      div\n      0xff\n      and\n      dup2\n      jump\t// out\n        /* \"ValueTypes.sol\":895:928  bytes1 public _byte = _bytes32[0] */\n    tag_33:\n      0x08\n      0x00\n      swap1\n      sload\n      swap1\n      0x0100\n      exp\n      swap1\n      div\n      0xf8\n      shl\n      dup2\n      jump\t// out\n        /* \"ValueTypes.sol\":175:195  int public _int = -1 */\n    tag_37:\n      sload(0x01)\n      dup2\n      jump\t// out\n        /* \"ValueTypes.sol\":668:710  uint256 public balance = _address1.balance */\n    tag_41:\n      sload(0x06)\n      dup2\n      jump\t// out\n        /* \"ValueTypes.sol\":267:298  uint256 public _number = 292929 */\n    tag_44:\n      sload(0x03)\n      dup2\n      jump\t// out\n        /* \"#utility.yul\":7:133   */\n    tag_50:\n        /* \"#utility.yul\":44:51   */\n      0x00\n        /* \"#utility.yul\":84:126   */\n      0xffffffffffffffffffffffffffffffffffffffff\n        /* \"#utility.yul\":77:82   */\n      dup3\n        /* \"#utility.yul\":73:127   */\n      and\n        /* \"#utility.yul\":62:127   */\n      swap1\n      pop\n        /* \"#utility.yul\":7:133   */\n      swap2\n      swap1\n      pop\n      jump\t// out\n        /* \"#utility.yul\":139:235   */\n    tag_51:\n        /* \"#utility.yul\":176:183   */\n      0x00\n        /* \"#utility.yul\":205:229   */\n      tag_66\n        /* \"#utility.yul\":223:228   */\n      dup3\n        /* \"#utility.yul\":205:229   */\n      tag_50\n      jump\t// in\n    tag_66:\n        /* \"#utility.yul\":194:229   */\n      swap1\n      pop\n        /* \"#utility.yul\":139:235   */\n      swap2\n      swap1\n      pop\n      jump\t// out\n        /* \"#utility.yul\":241:359   */\n    tag_52:\n        /* \"#utility.yul\":328:352   */\n      tag_68\n        /* \"#utility.yul\":346:351   */\n      dup2\n        /* \"#utility.yul\":328:352   */\n      tag_51\n      jump\t// in\n    tag_68:\n        /* \"#utility.yul\":323:326   */\n      dup3\n        /* \"#utility.yul\":316:353   */\n      mstore\n        /* \"#utility.yul\":241:359   */\n      pop\n      pop\n      jump\t// out\n        /* \"#utility.yul\":365:587   */\n    tag_16:\n        /* \"#utility.yul\":458:462   */\n      0x00\n        /* \"#utility.yul\":496:498   */\n      0x20\n        /* \"#utility.yul\":485:494   */\n      dup3\n        /* \"#utility.yul\":481:499   */\n      add\n        /* \"#utility.yul\":473:499   */\n      swap1\n      pop\n        /* \"#utility.yul\":509:580   */\n      tag_70\n        /* \"#utility.yul\":577:578   */\n      0x00\n        /* \"#utility.yul\":566:575   */\n      dup4\n        /* \"#utility.yul\":562:579   */\n      add\n        /* \"#utility.yul\":553:559   */\n      dup5\n        /* \"#utility.yul\":509:580   */\n      tag_52\n      jump\t// in\n    tag_70:\n        /* \"#utility.yul\":365:587   */\n      swap3\n      swap2\n      pop\n      pop\n      jump\t// out\n        /* \"#utility.yul\":593:670   */\n    tag_53:\n        /* \"#utility.yul\":630:637   */\n      0x00\n        /* \"#utility.yul\":659:664   */\n      dup2\n        /* \"#utility.yul\":648:664   */\n      swap1\n      pop\n        /* \"#utility.yul\":593:670   */\n      swap2\n      swap1\n      pop\n      jump\t// out\n        /* \"#utility.yul\":676:794   */\n    tag_54:\n        /* \"#utility.yul\":763:787   */\n      tag_73\n        /* \"#utility.yul\":781:786   */\n      dup2\n        /* \"#utility.yul\":763:787   */\n      tag_53\n      jump\t// in\n    tag_73:\n        /* \"#utility.yul\":758:761   */\n      dup3\n        /* \"#utility.yul\":751:788   */\n      mstore\n        /* \"#utility.yul\":676:794   */\n      pop\n      pop\n      jump\t// out\n        /* \"#utility.yul\":800:1022   */\n    tag_20:\n        /* \"#utility.yul\":893:897   */\n      0x00\n        /* \"#utility.yul\":931:933   */\n      0x20\n        /* \"#utility.yul\":920:929   */\n      dup3\n        /* \"#utility.yul\":916:934   */\n      add\n        /* \"#utility.yul\":908:934   */\n      swap1\n      pop\n        /* \"#utility.yul\":944:1015   */\n      tag_75\n        /* \"#utility.yul\":1012:1013   */\n      0x00\n        /* \"#utility.yul\":1001:1010   */\n      dup4\n        /* \"#utility.yul\":997:1014   */\n      add\n        /* \"#utility.yul\":988:994   */\n      dup5\n        /* \"#utility.yul\":944:1015   */\n      tag_54\n      jump\t// in\n    tag_75:\n        /* \"#utility.yul\":800:1022   */\n      swap3\n      swap2\n      pop\n      pop\n      jump\t// out\n        /* \"#utility.yul\":1028:1105   */\n    tag_55:\n        /* \"#utility.yul\":1065:1072   */\n      0x00\n        /* \"#utility.yul\":1094:1099   */\n      dup2\n        /* \"#utility.yul\":1083:1099   */\n      swap1\n      pop\n        /* \"#utility.yul\":1028:1105   */\n      swap2\n      swap1\n      pop\n      jump\t// out\n        /* \"#utility.yul\":1111:1229   */\n    tag_56:\n        /* \"#utility.yul\":1198:1222   */\n      tag_78\n        /* \"#utility.yul\":1216:1221   */\n      dup2\n        /* \"#utility.yul\":1198:1222   */\n      tag_55\n      jump\t// in\n    tag_78:\n        /* \"#utility.yul\":1193:1196   */\n      dup3\n        /* \"#utility.yul\":1186:1223   */\n      mstore\n        /* \"#utility.yul\":1111:1229   */\n      pop\n      pop\n      jump\t// out\n        /* \"#utility.yul\":1235:1457   */\n    tag_27:\n        /* \"#utility.yul\":1328:1332   */\n      0x00\n        /* \"#utility.yul\":1366:1368   */\n      0x20\n        /* \"#utility.yul\":1355:1364   */\n      dup3\n        /* \"#utility.yul\":1351:1369   */\n      add\n        /* \"#utility.yul\":1343:1369   */\n      swap1\n      pop\n        /* \"#utility.yul\":1379:1450   */\n      tag_80\n        /* \"#utility.yul\":1447:1448   */\n      0x00\n        /* \"#utility.yul\":1436:1445   */\n      dup4\n        /* \"#utility.yul\":1432:1449   */\n      add\n        /* \"#utility.yul\":1423:1429   */\n      dup5\n        /* \"#utility.yul\":1379:1450   */\n      tag_56\n      jump\t// in\n    tag_80:\n        /* \"#utility.yul\":1235:1457   */\n      swap3\n      swap2\n      pop\n      pop\n      jump\t// out\n        /* \"#utility.yul\":1463:1553   */\n    tag_57:\n        /* \"#utility.yul\":1497:1504   */\n      0x00\n        /* \"#utility.yul\":1540:1545   */\n      dup2\n        /* \"#utility.yul\":1533:1546   */\n      iszero\n        /* \"#utility.yul\":1526:1547   */\n      iszero\n        /* \"#utility.yul\":1515:1547   */\n      swap1\n      pop\n        /* \"#utility.yul\":1463:1553   */\n      swap2\n      swap1\n      pop\n      jump\t// out\n        /* \"#utility.yul\":1559:1668   */\n    tag_58:\n        /* \"#utility.yul\":1640:1661   */\n      tag_83\n        /* \"#utility.yul\":1655:1660   */\n      dup2\n        /* \"#utility.yul\":1640:1661   */\n      tag_57\n      jump\t// in\n    tag_83:\n        /* \"#utility.yul\":1635:1638   */\n      dup3\n        /* \"#utility.yul\":1628:1662   */\n      mstore\n        /* \"#utility.yul\":1559:1668   */\n      pop\n      pop\n      jump\t// out\n        /* \"#utility.yul\":1674:1884   */\n    tag_31:\n        /* \"#utility.yul\":1761:1765   */\n      0x00\n        /* \"#utility.yul\":1799:1801   */\n      0x20\n        /* \"#utility.yul\":1788:1797   */\n      dup3\n        /* \"#utility.yul\":1784:1802   */\n      add\n        /* \"#utility.yul\":1776:1802   */\n      swap1\n      pop\n        /* \"#utility.yul\":1812:1877   */\n      tag_85\n        /* \"#utility.yul\":1874:1875   */\n      0x00\n        /* \"#utility.yul\":1863:1872   */\n      dup4\n        /* \"#utility.yul\":1859:1876   */\n      add\n        /* \"#utility.yul\":1850:1856   */\n      dup5\n        /* \"#utility.yul\":1812:1877   */\n      tag_58\n      jump\t// in\n    tag_85:\n        /* \"#utility.yul\":1674:1884   */\n      swap3\n      swap2\n      pop\n      pop\n      jump\t// out\n        /* \"#utility.yul\":1890:2039   */\n    tag_59:\n        /* \"#utility.yul\":1926:1933   */\n      0x00\n        /* \"#utility.yul\":1966:2032   */\n      0xff00000000000000000000000000000000000000000000000000000000000000\n        /* \"#utility.yul\":1959:1964   */\n      dup3\n        /* \"#utility.yul\":1955:2033   */\n      and\n        /* \"#utility.yul\":1944:2033   */\n      swap1\n      pop\n        /* \"#utility.yul\":1890:2039   */\n      swap2\n      swap1\n      pop\n      jump\t// out\n        /* \"#utility.yul\":2045:2160   */\n    tag_60:\n        /* \"#utility.yul\":2130:2153   */\n      tag_88\n        /* \"#utility.yul\":2147:2152   */\n      dup2\n        /* \"#utility.yul\":2130:2153   */\n      tag_59\n      jump\t// in\n    tag_88:\n        /* \"#utility.yul\":2125:2128   */\n      dup3\n        /* \"#utility.yul\":2118:2154   */\n      mstore\n        /* \"#utility.yul\":2045:2160   */\n      pop\n      pop\n      jump\t// out\n        /* \"#utility.yul\":2166:2384   */\n    tag_35:\n        /* \"#utility.yul\":2257:2261   */\n      0x00\n        /* \"#utility.yul\":2295:2297   */\n      0x20\n        /* \"#utility.yul\":2284:2293   */\n      dup3\n        /* \"#utility.yul\":2280:2298   */\n      add\n        /* \"#utility.yul\":2272:2298   */\n      swap1\n      pop\n        /* \"#utility.yul\":2308:2377   */\n      tag_90\n        /* \"#utility.yul\":2374:2375   */\n      0x00\n        /* \"#utility.yul\":2363:2372   */\n      dup4\n        /* \"#utility.yul\":2359:2376   */\n      add\n        /* \"#utility.yul\":2350:2356   */\n      dup5\n        /* \"#utility.yul\":2308:2377   */\n      tag_60\n      jump\t// in\n    tag_90:\n        /* \"#utility.yul\":2166:2384   */\n      swap3\n      swap2\n      pop\n      pop\n      jump\t// out\n        /* \"#utility.yul\":2390:2466   */\n    tag_61:\n        /* \"#utility.yul\":2426:2433   */\n      0x00\n        /* \"#utility.yul\":2455:2460   */\n      dup2\n        /* \"#utility.yul\":2444:2460   */\n      swap1\n      pop\n        /* \"#utility.yul\":2390:2466   */\n      swap2\n      swap1\n      pop\n      jump\t// out\n        /* \"#utility.yul\":2472:2587   */\n    tag_62:\n        /* \"#utility.yul\":2557:2580   */\n      tag_93\n        /* \"#utility.yul\":2574:2579   */\n      dup2\n        /* \"#utility.yul\":2557:2580   */\n      tag_61\n      jump\t// in\n    tag_93:\n        /* \"#utility.yul\":2552:2555   */\n      dup3\n        /* \"#utility.yul\":2545:2581   */\n      mstore\n        /* \"#utility.yul\":2472:2587   */\n      pop\n      pop\n      jump\t// out\n        /* \"#utility.yul\":2593:2811   */\n    tag_39:\n        /* \"#utility.yul\":2684:2688   */\n      0x00\n        /* \"#utility.yul\":2722:2724   */\n      0x20\n        /* \"#utility.yul\":2711:2720   */\n      dup3\n        /* \"#utility.yul\":2707:2725   */\n      add\n        /* \"#utility.yul\":2699:2725   */\n      swap1\n      pop\n        /* \"#utility.yul\":2735:2804   */\n      tag_95\n        /* \"#utility.yul\":2801:2802   */\n      0x00\n        /* \"#utility.yul\":2790:2799   */\n      dup4\n        /* \"#utility.yul\":2786:2803   */\n      add\n        /* \"#utility.yul\":2777:2783   */\n      dup5\n        /* \"#utility.yul\":2735:2804   */\n      tag_62\n      jump\t// in\n    tag_95:\n        /* \"#utility.yul\":2593:2811   */\n      swap3\n      swap2\n      pop\n      pop\n      jump\t// out\n        /* \"#utility.yul\":2817:2997   */\n    tag_49:\n        /* \"#utility.yul\":2865:2942   */\n      0x4e487b7100000000000000000000000000000000000000000000000000000000\n        /* \"#utility.yul\":2862:2863   */\n      0x00\n        /* \"#utility.yul\":2855:2943   */\n      mstore\n        /* \"#utility.yul\":2962:2966   */\n      0x21\n        /* \"#utility.yul\":2959:2960   */\n      0x04\n        /* \"#utility.yul\":2952:2967   */\n      mstore\n        /* \"#utility.yul\":2986:2990   */\n      0x24\n        /* \"#utility.yul\":2983:2984   */\n      0x00\n        /* \"#utility.yul\":2976:2991   */\n      revert\n\n    auxdata: 0xa264697066735822122036ee38b62676d94a21dc3f9ae1858414b013d73e0f85c8a162f8fec48ae2314e64736f6c63430008190033\n}\n",
				"bytecode": {
					"linkReferences": {},
					"object": "608060405260015f806101000a81548160ff0219169083151502179055507fffffffffffffffffffffffffffffffffffffffffffffffffffffffffffffffff600155600160025562047841600355737a58c0be72be218b41c608b7fe7c5bb630736c7160045f6101000a81548173ffffffffffffffffffffffffffffffffffffffff021916908373ffffffffffffffffffffffffffffffffffffffff16021790555060045f9054906101000a900473ffffffffffffffffffffffffffffffffffffffff1660055f6101000a81548173ffffffffffffffffffffffffffffffffffffffff021916908373ffffffffffffffffffffffffffffffffffffffff16021790555060055f9054906101000a900473ffffffffffffffffffffffffffffffffffffffff1673ffffffffffffffffffffffffffffffffffffffff16316006557f4d696e69536f6c696469747900000000000000000000000000000000000000006007556007545f60208110610177576101766101cf565b5b1a60f81b60085f6101000a81548160ff021916908360f81c02179055505f600860016101000a81548160ff021916908360028111156101b9576101b86101fc565b5b02179055503480156101c9575f80fd5b50610229565b7f4e487b71000000000000000000000000000000000000000000000000000000005f52603260045260245ffd5b7f4e487b71000000000000000000000000000000000000000000000000000000005f52602160045260245ffd5b610404806102365f395ff3fe608060405234801561000f575f80fd5b5060043610610091575f3560e01c80639e6ba9c2116100645780639e6ba9c21461010d578063aeb6f2921461012b578063af45869e14610149578063b69ef8a814610167578063f9bd55cc1461018557610091565b806318bad217146100955780632543135b146100b35780634d7fe787146100d157806393f2b398146100ef575b5f80fd5b61009d6101a3565b6040516100aa919061026f565b60405180910390f35b6100bb6101c8565b6040516100c891906102a0565b60405180910390f35b6100d96101ce565b6040516100e691906102a0565b60405180910390f35b6100f76101f6565b60405161010491906102d1565b60405180910390f35b6101156101fc565b6040516101229190610304565b60405180910390f35b61013361020c565b6040516101409190610357565b60405180910390f35b61015161021e565b60405161015e9190610388565b60405180910390f35b61016f610224565b60405161017c91906102a0565b60405180910390f35b61018d61022a565b60405161019a91906102a0565b60405180910390f35b60045f9054906101000a900473ffffffffffffffffffffffffffffffffffffffff1681565b60025481565b5f600860019054906101000a900460ff1660028111156101f1576101f06103a1565b5b905090565b60075481565b5f8054906101000a900460ff1681565b60085f9054906101000a900460f81b81565b60015481565b60065481565b60035481565b5f73ffffffffffffffffffffffffffffffffffffffff82169050919050565b5f61025982610230565b9050919050565b6102698161024f565b82525050565b5f6020820190506102825f830184610260565b92915050565b5f819050919050565b61029a81610288565b82525050565b5f6020820190506102b35f830184610291565b92915050565b5f819050919050565b6102cb816102b9565b82525050565b5f6020820190506102e45f8301846102c2565b92915050565b5f8115159050919050565b6102fe816102ea565b82525050565b5f6020820190506103175f8301846102f5565b92915050565b5f7fff0000000000000000000000000000000000000000000000000000000000000082169050919050565b6103518161031d565b82525050565b5f60208201905061036a5f830184610348565b92915050565b5f819050919050565b61038281610370565b82525050565b5f60208201905061039b5f830184610379565b92915050565b7f4e487b71000000000000000000000000000000000000000000000000000000005f52602160045260245ffdfea264697066735822122036ee38b62676d94a21dc3f9ae1858414b013d73e0f85c8a162f8fec48ae2314e64736f6c63430008190033",
					"opcodes": "PUSH1 0x80 PUSH1 0x40 MSTORE PUSH1 0x1 PUSH0 DUP1 PUSH2 0x100 EXP DUP2 SLOAD DUP2 PUSH1 0xFF MUL NOT AND SWAP1 DUP4 ISZERO ISZERO MUL OR SWAP1 SSTORE POP PUSH32 0xFFFFFFFFFFFFFFFFFFFFFFFFFFFFFFFFFFFFFFFFFFFFFFFFFFFFFFFFFFFFFFFF PUSH1 0x1 SSTORE PUSH1 0x1 PUSH1 0x2 SSTORE PUSH3 0x47841 PUSH1 0x3 SSTORE PUSH20 0x7A58C0BE72BE218B41C608B7FE7C5BB630736C71 PUSH1 0x4 PUSH0 PUSH2 0x100 EXP DUP2 SLOAD DUP2 PUSH20 0xFFFFFFFFFFFFFFFFFFFFFFFFFFFFFFFFFFFFFFFF MUL NOT AND SWAP1 DUP4 PUSH20 0xFFFFFFFFFFFFFFFFFFFFFFFFFFFFFFFFFFFFFFFF AND MUL OR SWAP1 SSTORE POP PUSH1 0x4 PUSH0 SWAP1 SLOAD SWAP1 PUSH2 0x100 EXP SWAP1 DIV PUSH20 0xFFFFFFFFFFFFFFFFFFFFFFFFFFFFFFFFFFFFFFFF AND PUSH1 0x5 PUSH0 PUSH2 0x100 EXP DUP2 SLOAD DUP2 PUSH20 0xFFFFFFFFFFFFFFFFFFFFFFFFFFFFFFFFFFFFFFFF MUL NOT AND SWAP1 DUP4 PUSH20 0xFFFFFFFFFFFFFFFFFFFFFFFFFFFFFFFFFFFFFFFF AND MUL OR SWAP1 SSTORE POP PUSH1 0x5 PUSH0 SWAP1 SLOAD SWAP1 PUSH2 0x100 EXP SWAP1 DIV PUSH20 0xFFFFFFFFFFFFFFFFFFFFFFFFFFFFFFFFFFFFFFFF AND PUSH20 0xFFFFFFFFFFFFFFFFFFFFFFFFFFFFFFFFFFFFFFFF AND BALANCE PUSH1 0x6 SSTORE PUSH32 0x4D696E69536F6C69646974790000000000000000000000000000000000000000 PUSH1 0x7 SSTORE PUSH1 0x7 SLOAD PUSH0 PUSH1 0x20 DUP2 LT PUSH2 0x177 JUMPI PUSH2 0x176 PUSH2 0x1CF JUMP JUMPDEST JUMPDEST BYTE PUSH1 0xF8 SHL PUSH1 0x8 PUSH0 PUSH2 0x100 EXP DUP2 SLOAD DUP2 PUSH1 0xFF MUL NOT AND SWAP1 DUP4 PUSH1 0xF8 SHR MUL OR SWAP1 SSTORE POP PUSH0 PUSH1 0x8 PUSH1 0x1 PUSH2 0x100 EXP DUP2 SLOAD DUP2 PUSH1 0xFF MUL NOT AND SWAP1 DUP4 PUSH1 0x2 DUP2 GT ISZERO PUSH2 0x1B9 JUMPI PUSH2 0x1B8 PUSH2 0x1FC JUMP JUMPDEST JUMPDEST MUL OR SWAP1 SSTORE POP CALLVALUE DUP1 ISZERO PUSH2 0x1C9 JUMPI PUSH0 DUP1 REVERT JUMPDEST POP PUSH2 0x229 JUMP JUMPDEST PUSH32 0x4E487B7100000000000000000000000000000000000000000000000000000000 PUSH0 MSTORE PUSH1 0x32 PUSH1 0x4 MSTORE PUSH1 0x24 PUSH0 REVERT JUMPDEST PUSH32 0x4E487B7100000000000000000000000000000000000000000000000000000000 PUSH0 MSTORE PUSH1 0x21 PUSH1 0x4 MSTORE PUSH1 0x24 PUSH0 REVERT JUMPDEST PUSH2 0x404 DUP1 PUSH2 0x236 PUSH0 CODECOPY PUSH0 RETURN INVALID PUSH1 0x80 PUSH1 0x40 MSTORE CALLVALUE DUP1 ISZERO PUSH2 0xF JUMPI PUSH0 DUP1 REVERT JUMPDEST POP PUSH1 0x4 CALLDATASIZE LT PUSH2 0x91 JUMPI PUSH0 CALLDATALOAD PUSH1 0xE0 SHR DUP1 PUSH4 0x9E6BA9C2 GT PUSH2 0x64 JUMPI DUP1 PUSH4 0x9E6BA9C2 EQ PUSH2 0x10D JUMPI DUP1 PUSH4 0xAEB6F292 EQ PUSH2 0x12B JUMPI DUP1 PUSH4 0xAF45869E EQ PUSH2 0x149 JUMPI DUP1 PUSH4 0xB69EF8A8 EQ PUSH2 0x167 JUMPI DUP1 PUSH4 0xF9BD55CC EQ PUSH2 0x185 JUMPI PUSH2 0x91 JUMP JUMPDEST DUP1 PUSH4 0x18BAD217 EQ PUSH2 0x95 JUMPI DUP1 PUSH4 0x2543135B EQ PUSH2 0xB3 JUMPI DUP1 PUSH4 0x4D7FE787 EQ PUSH2 0xD1 JUMPI DUP1 PUSH4 0x93F2B398 EQ PUSH2 0xEF JUMPI JUMPDEST PUSH0 DUP1 REVERT JUMPDEST PUSH2 0x9D PUSH2 0x1A3 JUMP JUMPDEST PUSH1 0x40 MLOAD PUSH2 0xAA SWAP2 SWAP1 PUSH2 0x26F JUMP JUMPDEST PUSH1 0x40 MLOAD DUP1 SWAP2 SUB SWAP1 RETURN JUMPDEST PUSH2 0xBB PUSH2 0x1C8 JUMP JUMPDEST PUSH1 0x40 MLOAD PUSH2 0xC8 SWAP2 SWAP1 PUSH2 0x2A0 JUMP JUMPDEST PUSH1 0x40 MLOAD DUP1 SWAP2 SUB SWAP1 RETURN JUMPDEST PUSH2 0xD9 PUSH2 0x1CE JUMP JUMPDEST PUSH1 0x40 MLOAD PUSH2 0xE6 SWAP2 SWAP1 PUSH2 0x2A0 JUMP JUMPDEST PUSH1 0x40 MLOAD DUP1 SWAP2 SUB SWAP1 RETURN JUMPDEST PUSH2 0xF7 PUSH2 0x1F6 JUMP JUMPDEST PUSH1 0x40 MLOAD PUSH2 0x104 SWAP2 SWAP1 PUSH2 0x2D1 JUMP JUMPDEST PUSH1 0x40 MLOAD DUP1 SWAP2 SUB SWAP1 RETURN JUMPDEST PUSH2 0x115 PUSH2 0x1FC JUMP JUMPDEST PUSH1 0x40 MLOAD PUSH2 0x122 SWAP2 SWAP1 PUSH2 0x304 JUMP JUMPDEST PUSH1 0x40 MLOAD DUP1 SWAP2 SUB SWAP1 RETURN JUMPDEST PUSH2 0x133 PUSH2 0x20C JUMP JUMPDEST PUSH1 0x40 MLOAD PUSH2 0x140 SWAP2 SWAP1 PUSH2 0x357 JUMP JUMPDEST PUSH1 0x40 MLOAD DUP1 SWAP2 SUB SWAP1 RETURN JUMPDEST PUSH2 0x151 PUSH2 0x21E JUMP JUMPDEST PUSH1 0x40 MLOAD PUSH2 0x15E SWAP2 SWAP1 PUSH2 0x388 JUMP JUMPDEST PUSH1 0x40 MLOAD DUP1 SWAP2 SUB SWAP1 RETURN JUMPDEST PUSH2 0x16F PUSH2 0x224 JUMP JUMPDEST PUSH1 0x40 MLOAD PUSH2 0x17C SWAP2 SWAP1 PUSH2 0x2A0 JUMP JUMPDEST PUSH1 0x40 MLOAD DUP1 SWAP2 SUB SWAP1 RETURN JUMPDEST PUSH2 0x18D PUSH2 0x22A JUMP JUMPDEST PUSH1 0x40 MLOAD PUSH2 0x19A SWAP2 SWAP1 PUSH2 0x2A0 JUMP JUMPDEST PUSH1 0x40 MLOAD DUP1 SWAP2 SUB SWAP1 RETURN JUMPDEST PUSH1 0x4 PUSH0 SWAP1 SLOAD SWAP1 PUSH2 0x100 EXP SWAP1 DIV PUSH20 0xFFFFFFFFFFFFFFFFFFFFFFFFFFFFFFFFFFFFFFFF AND DUP2 JUMP JUMPDEST PUSH1 0x2 SLOAD DUP2 JUMP JUMPDEST PUSH0 PUSH1 0x8 PUSH1 0x1 SWAP1 SLOAD SWAP1 PUSH2 0x100 EXP SWAP1 DIV PUSH1 0xFF AND PUSH1 0x2 DUP2 GT ISZERO PUSH2 0x1F1 JUMPI PUSH2 0x1F0 PUSH2 0x3A1 JUMP JUMPDEST JUMPDEST SWAP1 POP SWAP1 JUMP JUMPDEST PUSH1 0x7 SLOAD DUP2 JUMP JUMPDEST PUSH0 DUP1 SLOAD SWAP1 PUSH2 0x100 EXP SWAP1 DIV PUSH1 0xFF AND DUP2 JUMP JUMPDEST PUSH1 0x8 PUSH0 SWAP1 SLOAD SWAP1 PUSH2 0x100 EXP SWAP1 DIV PUSH1 0xF8 SHL DUP2 JUMP JUMPDEST PUSH1 0x1 SLOAD DUP2 JUMP JUMPDEST PUSH1 0x6 SLOAD DUP2 JUMP JUMPDEST PUSH1 0x3 SLOAD DUP2 JUMP JUMPDEST PUSH0 PUSH20 0xFFFFFFFFFFFFFFFFFFFFFFFFFFFFFFFFFFFFFFFF DUP3 AND SWAP1 POP SWAP2 SWAP1 POP JUMP JUMPDEST PUSH0 PUSH2 0x259 DUP3 PUSH2 0x230 JUMP JUMPDEST SWAP1 POP SWAP2 SWAP1 POP JUMP JUMPDEST PUSH2 0x269 DUP2 PUSH2 0x24F JUMP JUMPDEST DUP3 MSTORE POP POP JUMP JUMPDEST PUSH0 PUSH1 0x20 DUP3 ADD SWAP1 POP PUSH2 0x282 PUSH0 DUP4 ADD DUP5 PUSH2 0x260 JUMP JUMPDEST SWAP3 SWAP2 POP POP JUMP JUMPDEST PUSH0 DUP2 SWAP1 POP SWAP2 SWAP1 POP JUMP JUMPDEST PUSH2 0x29A DUP2 PUSH2 0x288 JUMP JUMPDEST DUP3 MSTORE POP POP JUMP JUMPDEST PUSH0 PUSH1 0x20 DUP3 ADD SWAP1 POP PUSH2 0x2B3 PUSH0 DUP4 ADD DUP5 PUSH2 0x291 JUMP JUMPDEST SWAP3 SWAP2 POP POP JUMP JUMPDEST PUSH0 DUP2 SWAP1 POP SWAP2 SWAP1 POP JUMP JUMPDEST PUSH2 0x2CB DUP2 PUSH2 0x2B9 JUMP JUMPDEST DUP3 MSTORE POP POP JUMP JUMPDEST PUSH0 PUSH1 0x20 DUP3 ADD SWAP1 POP PUSH2 0x2E4 PUSH0 DUP4 ADD DUP5 PUSH2 0x2C2 JUMP JUMPDEST SWAP3 SWAP2 POP POP JUMP JUMPDEST PUSH0 DUP2 ISZERO ISZERO SWAP1 POP SWAP2 SWAP1 POP JUMP JUMPDEST PUSH2 0x2FE DUP2 PUSH2 0x2EA JUMP JUMPDEST DUP3 MSTORE POP POP JUMP JUMPDEST PUSH0 PUSH1 0x20 DUP3 ADD SWAP1 POP PUSH2 0x317 PUSH0 DUP4 ADD DUP5 PUSH2 0x2F5 JUMP JUMPDEST SWAP3 SWAP2 POP POP JUMP JUMPDEST PUSH0 PUSH32 0xFF00000000000000000000000000000000000000000000000000000000000000 DUP3 AND SWAP1 POP SWAP2 SWAP1 POP JUMP JUMPDEST PUSH2 0x351 DUP2 PUSH2 0x31D JUMP JUMPDEST DUP3 MSTORE POP POP JUMP JUMPDEST PUSH0 PUSH1 0x20 DUP3 ADD SWAP1 POP PUSH2 0x36A PUSH0 DUP4 ADD DUP5 PUSH2 0x348 JUMP JUMPDEST SWAP3 SWAP2 POP POP JUMP JUMPDEST PUSH0 DUP2 SWAP1 POP SWAP2 SWAP1 POP JUMP JUMPDEST PUSH2 0x382 DUP2 PUSH2 0x370 JUMP JUMPDEST DUP3 MSTORE POP POP JUMP JUMPDEST PUSH0 PUSH1 0x20 DUP3 ADD SWAP1 POP PUSH2 0x39B PUSH0 DUP4 ADD DUP5 PUSH2 0x379 JUMP JUMPDEST SWAP3 SWAP2 POP POP JUMP JUMPDEST PUSH32 0x4E487B7100000000000000000000000000000000000000000000000000000000 PUSH0 MSTORE PUSH1 0x21 PUSH1 0x4 MSTORE PUSH1 0x24 PUSH0 REVERT INVALID LOG2 PUSH5 0x6970667358 0x22 SLT KECCAK256 CALLDATASIZE 0xEE CODESIZE 0xB6 0x26 PUSH23 0xD94A21DC3F9AE1858414B013D73E0F85C8A162F8FEC48A 0xE2 BALANCE 0x4E PUSH5 0x736F6C6343 STOP ADDMOD NOT STOP CALLER "
				},
				"gasEstimates": {
					"creation": {
						"codeDepositCost": "205600",
						"executionCost": "241201",
						"totalCost": "446801"
					},
					"external": {
						"_address()": "2509",
						"_bool()": "2463",
						"_byte()": "2488",
						"_bytes32()": "2492",
						"_int()": "2469",
						"_number()": "2513",
						"_uint()": "2448",
						"balance()": "2491",
						"enum2Uint()": "2589"
					}
				},
				"methodIdentifiers": {
					"_address()": "18bad217",
					"_bool()": "9e6ba9c2",
					"_byte()": "aeb6f292",
					"_bytes32()": "93f2b398",
					"_int()": "af45869e",
					"_number()": "f9bd55cc",
					"_uint()": "2543135b",
					"balance()": "b69ef8a8",
					"enum2Uint()": "4d7fe787"
				}
			},
			"storageLayout": {
				"storage": [
					{
						"astId": 4,
						"contract": "ValueTypes.sol:ValueTypes",
						"label": "_bool",
						"offset": 0,
						"slot": "0",
						"type": "t_bool"
					},
					{
						"astId": 8,
						"contract": "ValueTypes.sol:ValueTypes",
						"label": "_int",
						"offset": 0,
						"slot": "1",
						"type": "t_int256"
					},
					{
						"astId": 11,
						"contract": "ValueTypes.sol:ValueTypes",
						"label": "_uint",
						"offset": 0,
						"slot": "2",
						"type": "t_uint256"
					},
					{
						"astId": 14,
						"contract": "ValueTypes.sol:ValueTypes",
						"label": "_number",
						"offset": 0,
						"slot": "3",
						"type": "t_uint256"
					},
					{
						"astId": 17,
						"contract": "ValueTypes.sol:ValueTypes",
						"label": "_address",
						"offset": 0,
						"slot": "4",
						"type": "t_address"
					},
					{
						"astId": 23,
						"contract": "ValueTypes.sol:ValueTypes",
						"label": "_address1",
						"offset": 0,
						"slot": "5",
						"type": "t_address_payable"
					},
					{
						"astId": 27,
						"contract": "ValueTypes.sol:ValueTypes",
						"label": "balance",
						"offset": 0,
						"slot": "6",
						"type": "t_uint256"
					},
					{
						"astId": 30,
						"contract": "ValueTypes.sol:ValueTypes",
						"label": "_bytes32",
						"offset": 0,
						"slot": "7",
						"type": "t_bytes32"
					},
					{
						"astId": 35,
						"contract": "ValueTypes.sol:ValueTypes",
						"label": "_byte",
						"offset": 0,
						"slot": "8",
						"type": "t_bytes1"
					},
					{
						"astId": 44,
						"contract": "ValueTypes.sol:ValueTypes",
						"label": "action",
						"offset": 1,
						"slot": "8",
						"type": "t_enum(ActionSet)39"
					}
				],
				"types": {
					"t_address": {
						"encoding": "inplace",
						"label": "address",
						"numberOfBytes": "20"
					},
					"t_address_payable": {
						"encoding": "inplace",
						"label": "address payable",
						"numberOfBytes": "20"
					},
					"t_bool": {
						"encoding": "inplace",
						"label": "bool",
						"numberOfBytes": "1"
					},
					"t_bytes1": {
						"encoding": "inplace",
						"label": "bytes1",
						"numberOfBytes": "1"
					},
					"t_bytes32": {
						"encoding": "inplace",
						"label": "bytes32",
						"numberOfBytes": "32"
					},
					"t_enum(ActionSet)39": {
						"encoding": "inplace",
						"label": "enum ValueTypes.ActionSet",
						"numberOfBytes": "1"
					},
					"t_int256": {
						"encoding": "inplace",
						"label": "int256",
						"numberOfBytes": "32"
					},
					"t_uint256": {
						"encoding": "inplace",
						"label": "uint256",
						"numberOfBytes": "32"
					}
				}
			},
			"userdoc": {
				"kind": "user",
				"methods": {},
				"version": 1
			}
		}
	}
}