{
	"data": {
		"bytecode": {
			"linkReferences": {},
			"object": "6080604052348015600e575f80fd5b506105c08061001c5f395ff3fe60806040526004361061003e575f3560e01c80630c55699c14610042578063561d0f181461006c578063767800de14610088578063b0b2a6b3146100b2575b5f80fd5b34801561004d575f80fd5b506100566100ce565b604051610063919061037b565b60405180910390f35b6100866004803603810190610081919061041c565b6100d3565b005b348015610093575f80fd5b5061009c610208565b6040516100a99190610469565b60405180910390f35b6100cc60048036038101906100c7919061041c565b61022d565b005b5f5481565b5f808373ffffffffffffffffffffffffffffffffffffffff16836040516024016100fd919061037b565b6040516020818303038152906040527f3a885d79000000000000000000000000000000000000000000000000000000007bffffffffffffffffffffffffffffffffffffffffffffffffffffffff19166020820180517bffffffffffffffffffffffffffffffffffffffffffffffffffffffff838183161783525050505060405161018791906104d4565b5f60405180830381855af49150503d805f81146101bf576040519150601f19603f3d011682016040523d82523d5f602084013e6101c4565b606091505b50915091507f138eba290365ed63784a3b85ff5ccb9a818dc0cc4fbab4fccaa244345f0c6c3882826040516101fa92919061055c565b60405180910390a150505050565b60015f9054906101000a900473ffffffffffffffffffffffffffffffffffffffff1681565b5f808373ffffffffffffffffffffffffffffffffffffffff1683604051602401610257919061037b565b6040516020818303038152906040527f3a885d79000000000000000000000000000000000000000000000000000000007bffffffffffffffffffffffffffffffffffffffffffffffffffffffff19166020820180517bffffffffffffffffffffffffffffffffffffffffffffffffffffffff83818316178352505050506040516102e191906104d4565b5f604051808303815f865af19150503d805f811461031a576040519150601f19603f3d011682016040523d82523d5f602084013e61031f565b606091505b50915091507f138eba290365ed63784a3b85ff5ccb9a818dc0cc4fbab4fccaa244345f0c6c38828260405161035592919061055c565b60405180910390a150505050565b5f819050919050565b61037581610363565b82525050565b5f60208201905061038e5f83018461036c565b92915050565b5f80fd5b5f73ffffffffffffffffffffffffffffffffffffffff82169050919050565b5f6103c182610398565b9050919050565b6103d1816103b7565b81146103db575f80fd5b50565b5f813590506103ec816103c8565b92915050565b6103fb81610363565b8114610405575f80fd5b50565b5f81359050610416816103f2565b92915050565b5f806040838503121561043257610431610394565b5b5f61043f858286016103de565b925050602061045085828601610408565b9150509250929050565b610463816103b7565b82525050565b5f60208201905061047c5f83018461045a565b92915050565b5f81519050919050565b5f81905092915050565b8281835e5f83830152505050565b5f6104ae82610482565b6104b8818561048c565b93506104c8818560208601610496565b80840191505092915050565b5f6104df82846104a4565b915081905092915050565b5f8115159050919050565b6104fe816104ea565b82525050565b5f82825260208201905092915050565b5f601f19601f8301169050919050565b5f61052e82610482565b6105388185610504565b9350610548818560208601610496565b61055181610514565b840191505092915050565b5f60408201905061056f5f8301856104f5565b81810360208301526105818184610524565b9050939250505056fea2646970667358221220ee8b7089922d1e22aa16acdbdaf3417d0874669737dea4901d2d3f0f648584b264736f6c63430008190033",
			"opcodes": "PUSH1 0x80 PUSH1 0x40 MSTORE CALLVALUE DUP1 ISZERO PUSH1 0xE JUMPI PUSH0 DUP1 REVERT JUMPDEST POP PUSH2 0x5C0 DUP1 PUSH2 0x1C PUSH0 CODECOPY PUSH0 RETURN INVALID PUSH1 0x80 PUSH1 0x40 MSTORE PUSH1 0x4 CALLDATASIZE LT PUSH2 0x3E JUMPI PUSH0 CALLDATALOAD PUSH1 0xE0 SHR DUP1 PUSH4 0xC55699C EQ PUSH2 0x42 JUMPI DUP1 PUSH4 0x561D0F18 EQ PUSH2 0x6C JUMPI DUP1 PUSH4 0x767800DE EQ PUSH2 0x88 JUMPI DUP1 PUSH4 0xB0B2A6B3 EQ PUSH2 0xB2 JUMPI JUMPDEST PUSH0 DUP1 REVERT JUMPDEST CALLVALUE DUP1 ISZERO PUSH2 0x4D JUMPI PUSH0 DUP1 REVERT JUMPDEST POP PUSH2 0x56 PUSH2 0xCE JUMP JUMPDEST PUSH1 0x40 MLOAD PUSH2 0x63 SWAP2 SWAP1 PUSH2 0x37B JUMP JUMPDEST PUSH1 0x40 MLOAD DUP1 SWAP2 SUB SWAP1 RETURN JUMPDEST PUSH2 0x86 PUSH1 0x4 DUP1 CALLDATASIZE SUB DUP2 ADD SWAP1 PUSH2 0x81 SWAP2 SWAP1 PUSH2 0x41C JUMP JUMPDEST PUSH2 0xD3 JUMP JUMPDEST STOP JUMPDEST CALLVALUE DUP1 ISZERO PUSH2 0x93 JUMPI PUSH0 DUP1 REVERT JUMPDEST POP PUSH2 0x9C PUSH2 0x208 JUMP JUMPDEST PUSH1 0x40 MLOAD PUSH2 0xA9 SWAP2 SWAP1 PUSH2 0x469 JUMP JUMPDEST PUSH1 0x40 MLOAD DUP1 SWAP2 SUB SWAP1 RETURN JUMPDEST PUSH2 0xCC PUSH1 0x4 DUP1 CALLDATASIZE SUB DUP2 ADD SWAP1 PUSH2 0xC7 SWAP2 SWAP1 PUSH2 0x41C JUMP JUMPDEST PUSH2 0x22D JUMP JUMPDEST STOP JUMPDEST PUSH0 SLOAD DUP2 JUMP JUMPDEST PUSH0 DUP1 DUP4 PUSH20 0xFFFFFFFFFFFFFFFFFFFFFFFFFFFFFFFFFFFFFFFF AND DUP4 PUSH1 0x40 MLOAD PUSH1 0x24 ADD PUSH2 0xFD SWAP2 SWAP1 PUSH2 0x37B JUMP JUMPDEST PUSH1 0x40 MLOAD PUSH1 0x20 DUP2 DUP4 SUB SUB DUP2 MSTORE SWAP1 PUSH1 0x40 MSTORE PUSH32 0x3A885D7900000000000000000000000000000000000000000000000000000000 PUSH28 0xFFFFFFFFFFFFFFFFFFFFFFFFFFFFFFFFFFFFFFFFFFFFFFFFFFFFFFFF NOT AND PUSH1 0x20 DUP3 ADD DUP1 MLOAD PUSH28 0xFFFFFFFFFFFFFFFFFFFFFFFFFFFFFFFFFFFFFFFFFFFFFFFFFFFFFFFF DUP4 DUP2 DUP4 AND OR DUP4 MSTORE POP POP POP POP PUSH1 0x40 MLOAD PUSH2 0x187 SWAP2 SWAP1 PUSH2 0x4D4 JUMP JUMPDEST PUSH0 PUSH1 0x40 MLOAD DUP1 DUP4 SUB DUP2 DUP6 GAS DELEGATECALL SWAP2 POP POP RETURNDATASIZE DUP1 PUSH0 DUP2 EQ PUSH2 0x1BF JUMPI PUSH1 0x40 MLOAD SWAP2 POP PUSH1 0x1F NOT PUSH1 0x3F RETURNDATASIZE ADD AND DUP3 ADD PUSH1 0x40 MSTORE RETURNDATASIZE DUP3 MSTORE RETURNDATASIZE PUSH0 PUSH1 0x20 DUP5 ADD RETURNDATACOPY PUSH2 0x1C4 JUMP JUMPDEST PUSH1 0x60 SWAP2 POP JUMPDEST POP SWAP2 POP SWAP2 POP PUSH32 0x138EBA290365ED63784A3B85FF5CCB9A818DC0CC4FBAB4FCCAA244345F0C6C38 DUP3 DUP3 PUSH1 0x40 MLOAD PUSH2 0x1FA SWAP3 SWAP2 SWAP1 PUSH2 0x55C JUMP JUMPDEST PUSH1 0x40 MLOAD DUP1 SWAP2 SUB SWAP1 LOG1 POP POP POP POP JUMP JUMPDEST PUSH1 0x1 PUSH0 SWAP1 SLOAD SWAP1 PUSH2 0x100 EXP SWAP1 DIV PUSH20 0xFFFFFFFFFFFFFFFFFFFFFFFFFFFFFFFFFFFFFFFF AND DUP2 JUMP JUMPDEST PUSH0 DUP1 DUP4 PUSH20 0xFFFFFFFFFFFFFFFFFFFFFFFFFFFFFFFFFFFFFFFF AND DUP4 PUSH1 0x40 MLOAD PUSH1 0x24 ADD PUSH2 0x257 SWAP2 SWAP1 PUSH2 0x37B JUMP JUMPDEST PUSH1 0x40 MLOAD PUSH1 0x20 DUP2 DUP4 SUB SUB DUP2 MSTORE SWAP1 PUSH1 0x40 MSTORE PUSH32 0x3A885D7900000000000000000000000000000000000000000000000000000000 PUSH28 0xFFFFFFFFFFFFFFFFFFFFFFFFFFFFFFFFFFFFFFFFFFFFFFFFFFFFFFFF NOT AND PUSH1 0x20 DUP3 ADD DUP1 MLOAD PUSH28 0xFFFFFFFFFFFFFFFFFFFFFFFFFFFFFFFFFFFFFFFFFFFFFFFFFFFFFFFF DUP4 DUP2 DUP4 AND OR DUP4 MSTORE POP POP POP POP PUSH1 0x40 MLOAD PUSH2 0x2E1 SWAP2 SWAP1 PUSH2 0x4D4 JUMP JUMPDEST PUSH0 PUSH1 0x40 MLOAD DUP1 DUP4 SUB DUP2 PUSH0 DUP7 GAS CALL SWAP2 POP POP RETURNDATASIZE DUP1 PUSH0 DUP2 EQ PUSH2 0x31A JUMPI PUSH1 0x40 MLOAD SWAP2 POP PUSH1 0x1F NOT PUSH1 0x3F RETURNDATASIZE ADD AND DUP3 ADD PUSH1 0x40 MSTORE RETURNDATASIZE DUP3 MSTORE RETURNDATASIZE PUSH0 PUSH1 0x20 DUP5 ADD RETURNDATACOPY PUSH2 0x31F JUMP JUMPDEST PUSH1 0x60 SWAP2 POP JUMPDEST POP SWAP2 POP SWAP2 POP PUSH32 0x138EBA290365ED63784A3B85FF5CCB9A818DC0CC4FBAB4FCCAA244345F0C6C38 DUP3 DUP3 PUSH1 0x40 MLOAD PUSH2 0x355 SWAP3 SWAP2 SWAP1 PUSH2 0x55C JUMP JUMPDEST PUSH1 0x40 MLOAD DUP1 SWAP2 SUB SWAP1 LOG1 POP POP POP POP JUMP JUMPDEST PUSH0 DUP2 SWAP1 POP SWAP2 SWAP1 POP JUMP JUMPDEST PUSH2 0x375 DUP2 PUSH2 0x363 JUMP JUMPDEST DUP3 MSTORE POP POP JUMP JUMPDEST PUSH0 PUSH1 0x20 DUP3 ADD SWAP1 POP PUSH2 0x38E PUSH0 DUP4 ADD DUP5 PUSH2 0x36C JUMP JUMPDEST SWAP3 SWAP2 POP POP JUMP JUMPDEST PUSH0 DUP1 REVERT JUMPDEST PUSH0 PUSH20 0xFFFFFFFFFFFFFFFFFFFFFFFFFFFFFFFFFFFFFFFF DUP3 AND SWAP1 POP SWAP2 SWAP1 POP JUMP JUMPDEST PUSH0 PUSH2 0x3C1 DUP3 PUSH2 0x398 JUMP JUMPDEST SWAP1 POP SWAP2 SWAP1 POP JUMP JUMPDEST PUSH2 0x3D1 DUP2 PUSH2 0x3B7 JUMP JUMPDEST DUP2 EQ PUSH2 0x3DB JUMPI PUSH0 DUP1 REVERT JUMPDEST POP JUMP JUMPDEST PUSH0 DUP2 CALLDATALOAD SWAP1 POP PUSH2 0x3EC DUP2 PUSH2 0x3C8 JUMP JUMPDEST SWAP3 SWAP2 POP POP JUMP JUMPDEST PUSH2 0x3FB DUP2 PUSH2 0x363 JUMP JUMPDEST DUP2 EQ PUSH2 0x405 JUMPI PUSH0 DUP1 REVERT JUMPDEST POP JUMP JUMPDEST PUSH0 DUP2 CALLDATALOAD SWAP1 POP PUSH2 0x416 DUP2 PUSH2 0x3F2 JUMP JUMPDEST SWAP3 SWAP2 POP POP JUMP JUMPDEST PUSH0 DUP1 PUSH1 0x40 DUP4 DUP6 SUB SLT ISZERO PUSH2 0x432 JUMPI PUSH2 0x431 PUSH2 0x394 JUMP JUMPDEST JUMPDEST PUSH0 PUSH2 0x43F DUP6 DUP3 DUP7 ADD PUSH2 0x3DE JUMP JUMPDEST SWAP3 POP POP PUSH1 0x20 PUSH2 0x450 DUP6 DUP3 DUP7 ADD PUSH2 0x408 JUMP JUMPDEST SWAP2 POP POP SWAP3 POP SWAP3 SWAP1 POP JUMP JUMPDEST PUSH2 0x463 DUP2 PUSH2 0x3B7 JUMP JUMPDEST DUP3 MSTORE POP POP JUMP JUMPDEST PUSH0 PUSH1 0x20 DUP3 ADD SWAP1 POP PUSH2 0x47C PUSH0 DUP4 ADD DUP5 PUSH2 0x45A JUMP JUMPDEST SWAP3 SWAP2 POP POP JUMP JUMPDEST PUSH0 DUP2 MLOAD SWAP1 POP SWAP2 SWAP1 POP JUMP JUMPDEST PUSH0 DUP2 SWAP1 POP SWAP3 SWAP2 POP POP JUMP JUMPDEST DUP3 DUP2 DUP4 MCOPY PUSH0 DUP4 DUP4 ADD MSTORE POP POP POP JUMP JUMPDEST PUSH0 PUSH2 0x4AE DUP3 PUSH2 0x482 JUMP JUMPDEST PUSH2 0x4B8 DUP2 DUP6 PUSH2 0x48C JUMP JUMPDEST SWAP4 POP PUSH2 0x4C8 DUP2 DUP6 PUSH1 0x20 DUP7 ADD PUSH2 0x496 JUMP JUMPDEST DUP1 DUP5 ADD SWAP2 POP POP SWAP3 SWAP2 POP POP JUMP JUMPDEST PUSH0 PUSH2 0x4DF DUP3 DUP5 PUSH2 0x4A4 JUMP JUMPDEST SWAP2 POP DUP2 SWAP1 POP SWAP3 SWAP2 POP POP JUMP JUMPDEST PUSH0 DUP2 ISZERO ISZERO SWAP1 POP SWAP2 SWAP1 POP JUMP JUMPDEST PUSH2 0x4FE DUP2 PUSH2 0x4EA JUMP JUMPDEST DUP3 MSTORE POP POP JUMP JUMPDEST PUSH0 DUP3 DUP3 MSTORE PUSH1 0x20 DUP3 ADD SWAP1 POP SWAP3 SWAP2 POP POP JUMP JUMPDEST PUSH0 PUSH1 0x1F NOT PUSH1 0x1F DUP4 ADD AND SWAP1 POP SWAP2 SWAP1 POP JUMP JUMPDEST PUSH0 PUSH2 0x52E DUP3 PUSH2 0x482 JUMP JUMPDEST PUSH2 0x538 DUP2 DUP6 PUSH2 0x504 JUMP JUMPDEST SWAP4 POP PUSH2 0x548 DUP2 DUP6 PUSH1 0x20 DUP7 ADD PUSH2 0x496 JUMP JUMPDEST PUSH2 0x551 DUP2 PUSH2 0x514 JUMP JUMPDEST DUP5 ADD SWAP2 POP POP SWAP3 SWAP2 POP POP JUMP JUMPDEST PUSH0 PUSH1 0x40 DUP3 ADD SWAP1 POP PUSH2 0x56F PUSH0 DUP4 ADD DUP6 PUSH2 0x4F5 JUMP JUMPDEST DUP2 DUP2 SUB PUSH1 0x20 DUP4 ADD MSTORE PUSH2 0x581 DUP2 DUP5 PUSH2 0x524 JUMP JUMPDEST SWAP1 POP SWAP4 SWAP3 POP POP POP JUMP INVALID LOG2 PUSH5 0x6970667358 0x22 SLT KECCAK256 0xEE DUP12 PUSH17 0x89922D1E22AA16ACDBDAF3417D08746697 CALLDATACOPY 0xDE LOG4 SWAP1 SAR 0x2D EXTCODEHASH 0xF PUSH5 0x8584B26473 PUSH16 0x6C634300081900330000000000000000 "
		},
		"gasEstimates": {
			"creation": {
				"codeDepositCost": "294400",
				"executionCost": "329",
				"totalCost": "294729"
			},
			"external": {
				"addr()": "2530",
				"callSetVar(address,uint256)": "infinite",
				"delegatecallSetVar(address,uint256)": "infinite",
				"x()": "2402"
			}
		},
		"methodIdentifiers": {
			"addr()": "767800de",
			"callSetVar(address,uint256)": "b0b2a6b3",
			"delegatecallSetVar(address,uint256)": "561d0f18",
			"x()": "0c55699c"
		}
	},
	"abi": [
		{
			"anonymous": false,
			"inputs": [
				{
					"indexed": false,
					"internalType": "bool",
					"name": "success",
					"type": "bool"
				},
				{
					"indexed": false,
					"internalType": "bytes",
					"name": "data",
					"type": "bytes"
				}
			],
			"name": "Log",
			"type": "event"
		},
		{
			"inputs": [],
			"name": "addr",
			"outputs": [
				{
					"internalType": "address",
					"name": "",
					"type": "address"
				}
			],
			"stateMutability": "view",
			"type": "function"
		},
		{
			"inputs": [
				{
					"internalType": "address",
					"name": "_addr",
					"type": "address"
				},
				{
					"internalType": "uint256",
					"name": "_x",
					"type": "uint256"
				}
			],
			"name": "callSetVar",
			"outputs": [],
			"stateMutability": "payable",
			"type": "function"
		},
		{
			"inputs": [
				{
					"internalType": "address",
					"name": "_addr",
					"type": "address"
				},
				{
					"internalType": "uint256",
					"name": "_x",
					"type": "uint256"
				}
			],
			"name": "delegatecallSetVar",
			"outputs": [],
			"stateMutability": "payable",
			"type": "function"
		},
		{
			"inputs": [],
			"name": "x",
			"outputs": [
				{
					"internalType": "uint256",
					"name": "",
					"type": "uint256"
				}
			],
			"stateMutability": "view",
			"type": "function"
		}
	]
}