{
	"data": {
		"bytecode": {
			"linkReferences": {},
			"object": "6080604052348015600e575f80fd5b506102748061001c5f395ff3fe608060405234801561000f575f80fd5b506004361061003f575f3560e01c80630180389714610043578063879a7f191461005f578063d84827501461007b575b5f80fd5b61005d6004803603810190610058919061016e565b610097565b005b6100796004803603810190610074919061016e565b6100ab565b005b6100956004803603810190610090919061016e565b6100f1565b005b600181146100a8576100a7610199565b5b50565b600181146100ee576040517f08c379a00000000000000000000000000000000000000000000000000000000081526004016100e590610220565b60405180910390fd5b50565b60018114610134576040517fffbd2bf900000000000000000000000000000000000000000000000000000000815260040161012b90610220565b60405180910390fd5b50565b5f80fd5b5f819050919050565b61014d8161013b565b8114610157575f80fd5b50565b5f8135905061016881610144565b92915050565b5f6020828403121561018357610182610137565b5b5f6101908482850161015a565b91505092915050565b7f4e487b71000000000000000000000000000000000000000000000000000000005f52600160045260245ffd5b5f82825260208201905092915050565b7f6ee4b88de7ad89e4ba8e310000000000000000000000000000000000000000005f82015250565b5f61020a600b836101c6565b9150610215826101d6565b602082019050919050565b5f6020820190508181035f830152610237816101fe565b905091905056fea2646970667358221220b13844a1c9169673ff874ff821dfec48ca5730a3e5a997df0ab40adf73820a9d64736f6c63430008190033",
			"opcodes": "PUSH1 0x80 PUSH1 0x40 MSTORE CALLVALUE DUP1 ISZERO PUSH1 0xE JUMPI PUSH0 DUP1 REVERT JUMPDEST POP PUSH2 0x274 DUP1 PUSH2 0x1C PUSH0 CODECOPY PUSH0 RETURN INVALID PUSH1 0x80 PUSH1 0x40 MSTORE CALLVALUE DUP1 ISZERO PUSH2 0xF JUMPI PUSH0 DUP1 REVERT JUMPDEST POP PUSH1 0x4 CALLDATASIZE LT PUSH2 0x3F JUMPI PUSH0 CALLDATALOAD PUSH1 0xE0 SHR DUP1 PUSH4 0x1803897 EQ PUSH2 0x43 JUMPI DUP1 PUSH4 0x879A7F19 EQ PUSH2 0x5F JUMPI DUP1 PUSH4 0xD8482750 EQ PUSH2 0x7B JUMPI JUMPDEST PUSH0 DUP1 REVERT JUMPDEST PUSH2 0x5D PUSH1 0x4 DUP1 CALLDATASIZE SUB DUP2 ADD SWAP1 PUSH2 0x58 SWAP2 SWAP1 PUSH2 0x16E JUMP JUMPDEST PUSH2 0x97 JUMP JUMPDEST STOP JUMPDEST PUSH2 0x79 PUSH1 0x4 DUP1 CALLDATASIZE SUB DUP2 ADD SWAP1 PUSH2 0x74 SWAP2 SWAP1 PUSH2 0x16E JUMP JUMPDEST PUSH2 0xAB JUMP JUMPDEST STOP JUMPDEST PUSH2 0x95 PUSH1 0x4 DUP1 CALLDATASIZE SUB DUP2 ADD SWAP1 PUSH2 0x90 SWAP2 SWAP1 PUSH2 0x16E JUMP JUMPDEST PUSH2 0xF1 JUMP JUMPDEST STOP JUMPDEST PUSH1 0x1 DUP2 EQ PUSH2 0xA8 JUMPI PUSH2 0xA7 PUSH2 0x199 JUMP JUMPDEST JUMPDEST POP JUMP JUMPDEST PUSH1 0x1 DUP2 EQ PUSH2 0xEE JUMPI PUSH1 0x40 MLOAD PUSH32 0x8C379A000000000000000000000000000000000000000000000000000000000 DUP2 MSTORE PUSH1 0x4 ADD PUSH2 0xE5 SWAP1 PUSH2 0x220 JUMP JUMPDEST PUSH1 0x40 MLOAD DUP1 SWAP2 SUB SWAP1 REVERT JUMPDEST POP JUMP JUMPDEST PUSH1 0x1 DUP2 EQ PUSH2 0x134 JUMPI PUSH1 0x40 MLOAD PUSH32 0xFFBD2BF900000000000000000000000000000000000000000000000000000000 DUP2 MSTORE PUSH1 0x4 ADD PUSH2 0x12B SWAP1 PUSH2 0x220 JUMP JUMPDEST PUSH1 0x40 MLOAD DUP1 SWAP2 SUB SWAP1 REVERT JUMPDEST POP JUMP JUMPDEST PUSH0 DUP1 REVERT JUMPDEST PUSH0 DUP2 SWAP1 POP SWAP2 SWAP1 POP JUMP JUMPDEST PUSH2 0x14D DUP2 PUSH2 0x13B JUMP JUMPDEST DUP2 EQ PUSH2 0x157 JUMPI PUSH0 DUP1 REVERT JUMPDEST POP JUMP JUMPDEST PUSH0 DUP2 CALLDATALOAD SWAP1 POP PUSH2 0x168 DUP2 PUSH2 0x144 JUMP JUMPDEST SWAP3 SWAP2 POP POP JUMP JUMPDEST PUSH0 PUSH1 0x20 DUP3 DUP5 SUB SLT ISZERO PUSH2 0x183 JUMPI PUSH2 0x182 PUSH2 0x137 JUMP JUMPDEST JUMPDEST PUSH0 PUSH2 0x190 DUP5 DUP3 DUP6 ADD PUSH2 0x15A JUMP JUMPDEST SWAP2 POP POP SWAP3 SWAP2 POP POP JUMP JUMPDEST PUSH32 0x4E487B7100000000000000000000000000000000000000000000000000000000 PUSH0 MSTORE PUSH1 0x1 PUSH1 0x4 MSTORE PUSH1 0x24 PUSH0 REVERT JUMPDEST PUSH0 DUP3 DUP3 MSTORE PUSH1 0x20 DUP3 ADD SWAP1 POP SWAP3 SWAP2 POP POP JUMP JUMPDEST PUSH32 0x6EE4B88DE7AD89E4BA8E31000000000000000000000000000000000000000000 PUSH0 DUP3 ADD MSTORE POP JUMP JUMPDEST PUSH0 PUSH2 0x20A PUSH1 0xB DUP4 PUSH2 0x1C6 JUMP JUMPDEST SWAP2 POP PUSH2 0x215 DUP3 PUSH2 0x1D6 JUMP JUMPDEST PUSH1 0x20 DUP3 ADD SWAP1 POP SWAP2 SWAP1 POP JUMP JUMPDEST PUSH0 PUSH1 0x20 DUP3 ADD SWAP1 POP DUP2 DUP2 SUB PUSH0 DUP4 ADD MSTORE PUSH2 0x237 DUP2 PUSH2 0x1FE JUMP JUMPDEST SWAP1 POP SWAP2 SWAP1 POP JUMP INVALID LOG2 PUSH5 0x6970667358 0x22 SLT KECCAK256 0xB1 CODESIZE PREVRANDAO LOG1 0xC9 AND SWAP7 PUSH20 0xFF874FF821DFEC48CA5730A3E5A997DF0AB40ADF PUSH20 0x820A9D64736F6C63430008190033000000000000 "
		},
		"gasEstimates": {
			"creation": {
				"codeDepositCost": "125600",
				"executionCost": "169",
				"totalCost": "125769"
			},
			"external": {
				"throwAssert(uint256)": "427",
				"throwError(uint256)": "728",
				"throwRequire(uint256)": "706"
			}
		},
		"methodIdentifiers": {
			"throwAssert(uint256)": "01803897",
			"throwError(uint256)": "d8482750",
			"throwRequire(uint256)": "879a7f19"
		}
	},
	"abi": [
		{
			"inputs": [
				{
					"internalType": "string",
					"name": "msg",
					"type": "string"
				}
			],
			"name": "Error1",
			"type": "error"
		},
		{
			"inputs": [
				{
					"internalType": "string",
					"name": "msg",
					"type": "string"
				}
			],
			"name": "Error2",
			"type": "error"
		},
		{
			"inputs": [
				{
					"internalType": "uint256",
					"name": "n",
					"type": "uint256"
				}
			],
			"name": "throwAssert",
			"outputs": [],
			"stateMutability": "pure",
			"type": "function"
		},
		{
			"inputs": [
				{
					"internalType": "uint256",
					"name": "n",
					"type": "uint256"
				}
			],
			"name": "throwError",
			"outputs": [],
			"stateMutability": "pure",
			"type": "function"
		},
		{
			"inputs": [
				{
					"internalType": "uint256",
					"name": "n",
					"type": "uint256"
				}
			],
			"name": "throwRequire",
			"outputs": [],
			"stateMutability": "pure",
			"type": "function"
		}
	]
}