{
	"data": {
		"bytecode": {
			"linkReferences": {},
			"object": "608060405260015f553480156012575f80fd5b50610387806100205f395ff3fe608060405234801561000f575f80fd5b5060043610610086575f3560e01c8063b262eb7f11610059578063b262eb7f146100ed578063c9d3c6a61461010b578063d71fcfc41461012a578063f9bd55cc1461014957610086565b80634341ecdd1461008a5780634f2be91f146100ba5780636f590330146100c45780638bcc457f146100e3575b5f80fd5b6100a4600480360381019061009f9190610237565b610167565b6040516100b19190610271565b60405180910390f35b6100c261017c565b005b6100cc610196565b6040516100da9291906102bc565b60405180910390f35b6100eb6101ac565b005b6100f56101b6565b6040516101029190610271565b60405180910390f35b6101136101ca565b6040516101219291906102bc565b60405180910390f35b6101326101d8565b6040516101409291906102bc565b60405180910390f35b6101516101e6565b60405161015e9190610271565b60405180910390f35b5f6005826101759190610310565b9050919050565b60015f8082825461018d9190610310565b92505081905550565b5f806101a06101ca565b80925081935050509091565b6101b46101eb565b565b5f60055f546101c59190610310565b905090565b5f8060089150600190509091565b5f8060096001915091509091565b5f5481565b60015f546101f99190610310565b5f81905550565b5f80fd5b5f819050919050565b61021681610204565b8114610220575f80fd5b50565b5f813590506102318161020d565b92915050565b5f6020828403121561024c5761024b610200565b5b5f61025984828501610223565b91505092915050565b61026b81610204565b82525050565b5f6020820190506102845f830184610262565b92915050565b5f819050919050565b61029c8161028a565b82525050565b5f8115159050919050565b6102b6816102a2565b82525050565b5f6040820190506102cf5f830185610293565b6102dc60208301846102ad565b9392505050565b7f4e487b71000000000000000000000000000000000000000000000000000000005f52601160045260245ffd5b5f61031a82610204565b915061032583610204565b92508282019050828112155f8312168382125f84121516171561034b5761034a6102e3565b5b9291505056fea2646970667358221220037cb43770b22976124c5bb33df0839bcd8d17b326b07be9d7f56a7872a9b4d564736f6c63430008190033",
			"opcodes": "PUSH1 0x80 PUSH1 0x40 MSTORE PUSH1 0x1 PUSH0 SSTORE CALLVALUE DUP1 ISZERO PUSH1 0x12 JUMPI PUSH0 DUP1 REVERT JUMPDEST POP PUSH2 0x387 DUP1 PUSH2 0x20 PUSH0 CODECOPY PUSH0 RETURN INVALID PUSH1 0x80 PUSH1 0x40 MSTORE CALLVALUE DUP1 ISZERO PUSH2 0xF JUMPI PUSH0 DUP1 REVERT JUMPDEST POP PUSH1 0x4 CALLDATASIZE LT PUSH2 0x86 JUMPI PUSH0 CALLDATALOAD PUSH1 0xE0 SHR DUP1 PUSH4 0xB262EB7F GT PUSH2 0x59 JUMPI DUP1 PUSH4 0xB262EB7F EQ PUSH2 0xED JUMPI DUP1 PUSH4 0xC9D3C6A6 EQ PUSH2 0x10B JUMPI DUP1 PUSH4 0xD71FCFC4 EQ PUSH2 0x12A JUMPI DUP1 PUSH4 0xF9BD55CC EQ PUSH2 0x149 JUMPI PUSH2 0x86 JUMP JUMPDEST DUP1 PUSH4 0x4341ECDD EQ PUSH2 0x8A JUMPI DUP1 PUSH4 0x4F2BE91F EQ PUSH2 0xBA JUMPI DUP1 PUSH4 0x6F590330 EQ PUSH2 0xC4 JUMPI DUP1 PUSH4 0x8BCC457F EQ PUSH2 0xE3 JUMPI JUMPDEST PUSH0 DUP1 REVERT JUMPDEST PUSH2 0xA4 PUSH1 0x4 DUP1 CALLDATASIZE SUB DUP2 ADD SWAP1 PUSH2 0x9F SWAP2 SWAP1 PUSH2 0x237 JUMP JUMPDEST PUSH2 0x167 JUMP JUMPDEST PUSH1 0x40 MLOAD PUSH2 0xB1 SWAP2 SWAP1 PUSH2 0x271 JUMP JUMPDEST PUSH1 0x40 MLOAD DUP1 SWAP2 SUB SWAP1 RETURN JUMPDEST PUSH2 0xC2 PUSH2 0x17C JUMP JUMPDEST STOP JUMPDEST PUSH2 0xCC PUSH2 0x196 JUMP JUMPDEST PUSH1 0x40 MLOAD PUSH2 0xDA SWAP3 SWAP2 SWAP1 PUSH2 0x2BC JUMP JUMPDEST PUSH1 0x40 MLOAD DUP1 SWAP2 SUB SWAP1 RETURN JUMPDEST PUSH2 0xEB PUSH2 0x1AC JUMP JUMPDEST STOP JUMPDEST PUSH2 0xF5 PUSH2 0x1B6 JUMP JUMPDEST PUSH1 0x40 MLOAD PUSH2 0x102 SWAP2 SWAP1 PUSH2 0x271 JUMP JUMPDEST PUSH1 0x40 MLOAD DUP1 SWAP2 SUB SWAP1 RETURN JUMPDEST PUSH2 0x113 PUSH2 0x1CA JUMP JUMPDEST PUSH1 0x40 MLOAD PUSH2 0x121 SWAP3 SWAP2 SWAP1 PUSH2 0x2BC JUMP JUMPDEST PUSH1 0x40 MLOAD DUP1 SWAP2 SUB SWAP1 RETURN JUMPDEST PUSH2 0x132 PUSH2 0x1D8 JUMP JUMPDEST PUSH1 0x40 MLOAD PUSH2 0x140 SWAP3 SWAP2 SWAP1 PUSH2 0x2BC JUMP JUMPDEST PUSH1 0x40 MLOAD DUP1 SWAP2 SUB SWAP1 RETURN JUMPDEST PUSH2 0x151 PUSH2 0x1E6 JUMP JUMPDEST PUSH1 0x40 MLOAD PUSH2 0x15E SWAP2 SWAP1 PUSH2 0x271 JUMP JUMPDEST PUSH1 0x40 MLOAD DUP1 SWAP2 SUB SWAP1 RETURN JUMPDEST PUSH0 PUSH1 0x5 DUP3 PUSH2 0x175 SWAP2 SWAP1 PUSH2 0x310 JUMP JUMPDEST SWAP1 POP SWAP2 SWAP1 POP JUMP JUMPDEST PUSH1 0x1 PUSH0 DUP1 DUP3 DUP3 SLOAD PUSH2 0x18D SWAP2 SWAP1 PUSH2 0x310 JUMP JUMPDEST SWAP3 POP POP DUP2 SWAP1 SSTORE POP JUMP JUMPDEST PUSH0 DUP1 PUSH2 0x1A0 PUSH2 0x1CA JUMP JUMPDEST DUP1 SWAP3 POP DUP2 SWAP4 POP POP POP SWAP1 SWAP2 JUMP JUMPDEST PUSH2 0x1B4 PUSH2 0x1EB JUMP JUMPDEST JUMP JUMPDEST PUSH0 PUSH1 0x5 PUSH0 SLOAD PUSH2 0x1C5 SWAP2 SWAP1 PUSH2 0x310 JUMP JUMPDEST SWAP1 POP SWAP1 JUMP JUMPDEST PUSH0 DUP1 PUSH1 0x8 SWAP2 POP PUSH1 0x1 SWAP1 POP SWAP1 SWAP2 JUMP JUMPDEST PUSH0 DUP1 PUSH1 0x9 PUSH1 0x1 SWAP2 POP SWAP2 POP SWAP1 SWAP2 JUMP JUMPDEST PUSH0 SLOAD DUP2 JUMP JUMPDEST PUSH1 0x1 PUSH0 SLOAD PUSH2 0x1F9 SWAP2 SWAP1 PUSH2 0x310 JUMP JUMPDEST PUSH0 DUP2 SWAP1 SSTORE POP JUMP JUMPDEST PUSH0 DUP1 REVERT JUMPDEST PUSH0 DUP2 SWAP1 POP SWAP2 SWAP1 POP JUMP JUMPDEST PUSH2 0x216 DUP2 PUSH2 0x204 JUMP JUMPDEST DUP2 EQ PUSH2 0x220 JUMPI PUSH0 DUP1 REVERT JUMPDEST POP JUMP JUMPDEST PUSH0 DUP2 CALLDATALOAD SWAP1 POP PUSH2 0x231 DUP2 PUSH2 0x20D JUMP JUMPDEST SWAP3 SWAP2 POP POP JUMP JUMPDEST PUSH0 PUSH1 0x20 DUP3 DUP5 SUB SLT ISZERO PUSH2 0x24C JUMPI PUSH2 0x24B PUSH2 0x200 JUMP JUMPDEST JUMPDEST PUSH0 PUSH2 0x259 DUP5 DUP3 DUP6 ADD PUSH2 0x223 JUMP JUMPDEST SWAP2 POP POP SWAP3 SWAP2 POP POP JUMP JUMPDEST PUSH2 0x26B DUP2 PUSH2 0x204 JUMP JUMPDEST DUP3 MSTORE POP POP JUMP JUMPDEST PUSH0 PUSH1 0x20 DUP3 ADD SWAP1 POP PUSH2 0x284 PUSH0 DUP4 ADD DUP5 PUSH2 0x262 JUMP JUMPDEST SWAP3 SWAP2 POP POP JUMP JUMPDEST PUSH0 DUP2 SWAP1 POP SWAP2 SWAP1 POP JUMP JUMPDEST PUSH2 0x29C DUP2 PUSH2 0x28A JUMP JUMPDEST DUP3 MSTORE POP POP JUMP JUMPDEST PUSH0 DUP2 ISZERO ISZERO SWAP1 POP SWAP2 SWAP1 POP JUMP JUMPDEST PUSH2 0x2B6 DUP2 PUSH2 0x2A2 JUMP JUMPDEST DUP3 MSTORE POP POP JUMP JUMPDEST PUSH0 PUSH1 0x40 DUP3 ADD SWAP1 POP PUSH2 0x2CF PUSH0 DUP4 ADD DUP6 PUSH2 0x293 JUMP JUMPDEST PUSH2 0x2DC PUSH1 0x20 DUP4 ADD DUP5 PUSH2 0x2AD JUMP JUMPDEST SWAP4 SWAP3 POP POP POP JUMP JUMPDEST PUSH32 0x4E487B7100000000000000000000000000000000000000000000000000000000 PUSH0 MSTORE PUSH1 0x11 PUSH1 0x4 MSTORE PUSH1 0x24 PUSH0 REVERT JUMPDEST PUSH0 PUSH2 0x31A DUP3 PUSH2 0x204 JUMP JUMPDEST SWAP2 POP PUSH2 0x325 DUP4 PUSH2 0x204 JUMP JUMPDEST SWAP3 POP DUP3 DUP3 ADD SWAP1 POP DUP3 DUP2 SLT ISZERO PUSH0 DUP4 SLT AND DUP4 DUP3 SLT PUSH0 DUP5 SLT ISZERO AND OR ISZERO PUSH2 0x34B JUMPI PUSH2 0x34A PUSH2 0x2E3 JUMP JUMPDEST JUMPDEST SWAP3 SWAP2 POP POP JUMP INVALID LOG2 PUSH5 0x6970667358 0x22 SLT KECCAK256 SUB PUSH29 0xB43770B22976124C5BB33DF0839BCD8D17B326B07BE9D7F56A7872A9B4 0xD5 PUSH5 0x736F6C6343 STOP ADDMOD NOT STOP CALLER "
		},
		"gasEstimates": {
			"creation": {
				"codeDepositCost": "180600",
				"executionCost": "22329",
				"totalCost": "202929"
			},
			"external": {
				"_number()": "2490",
				"add()": "infinite",
				"addCall()": "infinite",
				"addPure(int256)": "infinite",
				"addView()": "infinite",
				"readReturn()": "551",
				"return1()": "473",
				"return2()": "495"
			},
			"internal": {
				"addInternal()": "infinite"
			}
		},
		"methodIdentifiers": {
			"_number()": "f9bd55cc",
			"add()": "4f2be91f",
			"addCall()": "8bcc457f",
			"addPure(int256)": "4341ecdd",
			"addView()": "b262eb7f",
			"readReturn()": "6f590330",
			"return1()": "c9d3c6a6",
			"return2()": "d71fcfc4"
		}
	},
	"abi": [
		{
			"inputs": [],
			"name": "_number",
			"outputs": [
				{
					"internalType": "int256",
					"name": "",
					"type": "int256"
				}
			],
			"stateMutability": "view",
			"type": "function"
		},
		{
			"inputs": [],
			"name": "add",
			"outputs": [],
			"stateMutability": "nonpayable",
			"type": "function"
		},
		{
			"inputs": [],
			"name": "addCall",
			"outputs": [],
			"stateMutability": "nonpayable",
			"type": "function"
		},
		{
			"inputs": [
				{
					"internalType": "int256",
					"name": "_n",
					"type": "int256"
				}
			],
			"name": "addPure",
			"outputs": [
				{
					"internalType": "int256",
					"name": "new_number",
					"type": "int256"
				}
			],
			"stateMutability": "pure",
			"type": "function"
		},
		{
			"inputs": [],
			"name": "addView",
			"outputs": [
				{
					"internalType": "int256",
					"name": "new_number",
					"type": "int256"
				}
			],
			"stateMutability": "view",
			"type": "function"
		},
		{
			"inputs": [],
			"name": "readReturn",
			"outputs": [
				{
					"internalType": "uint256",
					"name": "_uint",
					"type": "uint256"
				},
				{
					"internalType": "bool",
					"name": "_bool",
					"type": "bool"
				}
			],
			"stateMutability": "pure",
			"type": "function"
		},
		{
			"inputs": [],
			"name": "return1",
			"outputs": [
				{
					"internalType": "uint256",
					"name": "_uint",
					"type": "uint256"
				},
				{
					"internalType": "bool",
					"name": "_bool",
					"type": "bool"
				}
			],
			"stateMutability": "pure",
			"type": "function"
		},
		{
			"inputs": [],
			"name": "return2",
			"outputs": [
				{
					"internalType": "uint256",
					"name": "_uint",
					"type": "uint256"
				},
				{
					"internalType": "bool",
					"name": "_bool",
					"type": "bool"
				}
			],
			"stateMutability": "pure",
			"type": "function"
		}
	]
}