{
	"data": {
		"bytecode": {
			"linkReferences": {},
			"object": "608060405260015f806101000a81548160ff0219169083151502179055503480156027575f80fd5b50610283806100355f395ff3fe608060405234801561000f575f80fd5b506004361061004a575f3560e01c80636ebcf6071461004e5780637c0001381461007e5780638a054ac21461009c5780639e6ba9c2146100a6575b5f80fd5b6100686004803603810190610063919061016b565b6100c4565b60405161007591906101ae565b60405180910390f35b6100866100d9565b6040516100939190610201565b60405180910390f35b6100a46100eb565b005b6100ae6100fd565b6040516100bb9190610234565b60405180910390f35b6001602052805f5260405f205f915090505481565b5f60019054906101000a900460f81b81565b5f806101000a81549060ff0219169055565b5f8054906101000a900460ff1681565b5f80fd5b5f73ffffffffffffffffffffffffffffffffffffffff82169050919050565b5f61013a82610111565b9050919050565b61014a81610130565b8114610154575f80fd5b50565b5f8135905061016581610141565b92915050565b5f602082840312156101805761017f61010d565b5b5f61018d84828501610157565b91505092915050565b5f819050919050565b6101a881610196565b82525050565b5f6020820190506101c15f83018461019f565b92915050565b5f7fff0000000000000000000000000000000000000000000000000000000000000082169050919050565b6101fb816101c7565b82525050565b5f6020820190506102145f8301846101f2565b92915050565b5f8115159050919050565b61022e8161021a565b82525050565b5f6020820190506102475f830184610225565b9291505056fea2646970667358221220bc561c9d2ee840330b666298b47173a35c362c845ffae51e5b20ee5b27bcfa4b64736f6c63430008190033",
			"opcodes": "PUSH1 0x80 PUSH1 0x40 MSTORE PUSH1 0x1 PUSH0 DUP1 PUSH2 0x100 EXP DUP2 SLOAD DUP2 PUSH1 0xFF MUL NOT AND SWAP1 DUP4 ISZERO ISZERO MUL OR SWAP1 SSTORE POP CALLVALUE DUP1 ISZERO PUSH1 0x27 JUMPI PUSH0 DUP1 REVERT JUMPDEST POP PUSH2 0x283 DUP1 PUSH2 0x35 PUSH0 CODECOPY PUSH0 RETURN INVALID PUSH1 0x80 PUSH1 0x40 MSTORE CALLVALUE DUP1 ISZERO PUSH2 0xF JUMPI PUSH0 DUP1 REVERT JUMPDEST POP PUSH1 0x4 CALLDATASIZE LT PUSH2 0x4A JUMPI PUSH0 CALLDATALOAD PUSH1 0xE0 SHR DUP1 PUSH4 0x6EBCF607 EQ PUSH2 0x4E JUMPI DUP1 PUSH4 0x7C000138 EQ PUSH2 0x7E JUMPI DUP1 PUSH4 0x8A054AC2 EQ PUSH2 0x9C JUMPI DUP1 PUSH4 0x9E6BA9C2 EQ PUSH2 0xA6 JUMPI JUMPDEST PUSH0 DUP1 REVERT JUMPDEST PUSH2 0x68 PUSH1 0x4 DUP1 CALLDATASIZE SUB DUP2 ADD SWAP1 PUSH2 0x63 SWAP2 SWAP1 PUSH2 0x16B JUMP JUMPDEST PUSH2 0xC4 JUMP JUMPDEST PUSH1 0x40 MLOAD PUSH2 0x75 SWAP2 SWAP1 PUSH2 0x1AE JUMP JUMPDEST PUSH1 0x40 MLOAD DUP1 SWAP2 SUB SWAP1 RETURN JUMPDEST PUSH2 0x86 PUSH2 0xD9 JUMP JUMPDEST PUSH1 0x40 MLOAD PUSH2 0x93 SWAP2 SWAP1 PUSH2 0x201 JUMP JUMPDEST PUSH1 0x40 MLOAD DUP1 SWAP2 SUB SWAP1 RETURN JUMPDEST PUSH2 0xA4 PUSH2 0xEB JUMP JUMPDEST STOP JUMPDEST PUSH2 0xAE PUSH2 0xFD JUMP JUMPDEST PUSH1 0x40 MLOAD PUSH2 0xBB SWAP2 SWAP1 PUSH2 0x234 JUMP JUMPDEST PUSH1 0x40 MLOAD DUP1 SWAP2 SUB SWAP1 RETURN JUMPDEST PUSH1 0x1 PUSH1 0x20 MSTORE DUP1 PUSH0 MSTORE PUSH1 0x40 PUSH0 KECCAK256 PUSH0 SWAP2 POP SWAP1 POP SLOAD DUP2 JUMP JUMPDEST PUSH0 PUSH1 0x1 SWAP1 SLOAD SWAP1 PUSH2 0x100 EXP SWAP1 DIV PUSH1 0xF8 SHL DUP2 JUMP JUMPDEST PUSH0 DUP1 PUSH2 0x100 EXP DUP2 SLOAD SWAP1 PUSH1 0xFF MUL NOT AND SWAP1 SSTORE JUMP JUMPDEST PUSH0 DUP1 SLOAD SWAP1 PUSH2 0x100 EXP SWAP1 DIV PUSH1 0xFF AND DUP2 JUMP JUMPDEST PUSH0 DUP1 REVERT JUMPDEST PUSH0 PUSH20 0xFFFFFFFFFFFFFFFFFFFFFFFFFFFFFFFFFFFFFFFF DUP3 AND SWAP1 POP SWAP2 SWAP1 POP JUMP JUMPDEST PUSH0 PUSH2 0x13A DUP3 PUSH2 0x111 JUMP JUMPDEST SWAP1 POP SWAP2 SWAP1 POP JUMP JUMPDEST PUSH2 0x14A DUP2 PUSH2 0x130 JUMP JUMPDEST DUP2 EQ PUSH2 0x154 JUMPI PUSH0 DUP1 REVERT JUMPDEST POP JUMP JUMPDEST PUSH0 DUP2 CALLDATALOAD SWAP1 POP PUSH2 0x165 DUP2 PUSH2 0x141 JUMP JUMPDEST SWAP3 SWAP2 POP POP JUMP JUMPDEST PUSH0 PUSH1 0x20 DUP3 DUP5 SUB SLT ISZERO PUSH2 0x180 JUMPI PUSH2 0x17F PUSH2 0x10D JUMP JUMPDEST JUMPDEST PUSH0 PUSH2 0x18D DUP5 DUP3 DUP6 ADD PUSH2 0x157 JUMP JUMPDEST SWAP2 POP POP SWAP3 SWAP2 POP POP JUMP JUMPDEST PUSH0 DUP2 SWAP1 POP SWAP2 SWAP1 POP JUMP JUMPDEST PUSH2 0x1A8 DUP2 PUSH2 0x196 JUMP JUMPDEST DUP3 MSTORE POP POP JUMP JUMPDEST PUSH0 PUSH1 0x20 DUP3 ADD SWAP1 POP PUSH2 0x1C1 PUSH0 DUP4 ADD DUP5 PUSH2 0x19F JUMP JUMPDEST SWAP3 SWAP2 POP POP JUMP JUMPDEST PUSH0 PUSH32 0xFF00000000000000000000000000000000000000000000000000000000000000 DUP3 AND SWAP1 POP SWAP2 SWAP1 POP JUMP JUMPDEST PUSH2 0x1FB DUP2 PUSH2 0x1C7 JUMP JUMPDEST DUP3 MSTORE POP POP JUMP JUMPDEST PUSH0 PUSH1 0x20 DUP3 ADD SWAP1 POP PUSH2 0x214 PUSH0 DUP4 ADD DUP5 PUSH2 0x1F2 JUMP JUMPDEST SWAP3 SWAP2 POP POP JUMP JUMPDEST PUSH0 DUP2 ISZERO ISZERO SWAP1 POP SWAP2 SWAP1 POP JUMP JUMPDEST PUSH2 0x22E DUP2 PUSH2 0x21A JUMP JUMPDEST DUP3 MSTORE POP POP JUMP JUMPDEST PUSH0 PUSH1 0x20 DUP3 ADD SWAP1 POP PUSH2 0x247 PUSH0 DUP4 ADD DUP5 PUSH2 0x225 JUMP JUMPDEST SWAP3 SWAP2 POP POP JUMP INVALID LOG2 PUSH5 0x6970667358 0x22 SLT KECCAK256 0xBC JUMP SHR SWAP14 0x2E 0xE8 BLOCKHASH CALLER SIGNEXTEND PUSH7 0x6298B47173A35C CALLDATASIZE 0x2C DUP5 PUSH0 STATICCALL 0xE5 0x1E JUMPDEST KECCAK256 0xEE JUMPDEST 0x27 0xBC STATICCALL 0x4B PUSH5 0x736F6C6343 STOP ADDMOD NOT STOP CALLER "
		},
		"gasEstimates": {
			"creation": {
				"codeDepositCost": "128600",
				"executionCost": "24441",
				"totalCost": "153041"
			},
			"external": {
				"_balances(address)": "2780",
				"_bool()": "2507",
				"by()": "2516",
				"d()": "24406"
			}
		},
		"methodIdentifiers": {
			"_balances(address)": "6ebcf607",
			"_bool()": "9e6ba9c2",
			"by()": "7c000138",
			"d()": "8a054ac2"
		}
	},
	"abi": [
		{
			"inputs": [
				{
					"internalType": "address",
					"name": "",
					"type": "address"
				}
			],
			"name": "_balances",
			"outputs": [
				{
					"internalType": "uint256",
					"name": "",
					"type": "uint256"
				}
			],
			"stateMutability": "view",
			"type": "function"
		},
		{
			"inputs": [],
			"name": "_bool",
			"outputs": [
				{
					"internalType": "bool",
					"name": "",
					"type": "bool"
				}
			],
			"stateMutability": "view",
			"type": "function"
		},
		{
			"inputs": [],
			"name": "by",
			"outputs": [
				{
					"internalType": "bytes1",
					"name": "",
					"type": "bytes1"
				}
			],
			"stateMutability": "view",
			"type": "function"
		},
		{
			"inputs": [],
			"name": "d",
			"outputs": [],
			"stateMutability": "nonpayable",
			"type": "function"
		}
	]
}