{
	"data": {
		"bytecode": {
			"linkReferences": {},
			"object": "6080604052348015600e575f80fd5b5061035d8061001c5f395ff3fe608060405234801561000f575f80fd5b506004361061003f575f3560e01c806326121ff014610043578063d14d385d1461004d578063f8a8fd6d14610069575b5f80fd5b61004b610073565b005b610067600480360381019061006291906102cf565b61009a565b005b61007161009d565b005b61009860405180606001604052805f815260200160018152602001600281525061009a565b565b50565b5f600367ffffffffffffffff8111156100b9576100b8610172565b5b6040519080825280602002602001820160405280156100e75781602001602082028036833780820191505090505b5090505f815f815181106100fe576100fd6102fa565b5b6020026020010181815250506001816001815181106101205761011f6102fa565b5b602002602001018181525050600281600281518110610142576101416102fa565b5b60200260200101818152505050565b5f604051905090565b5f80fd5b5f80fd5b5f601f19601f8301169050919050565b7f4e487b71000000000000000000000000000000000000000000000000000000005f52604160045260245ffd5b6101a882610162565b810181811067ffffffffffffffff821117156101c7576101c6610172565b5b80604052505050565b5f6101d9610151565b90506101e5828261019f565b919050565b5f67ffffffffffffffff82111561020457610203610172565b5b602082029050919050565b5f80fd5b5f819050919050565b61022581610213565b811461022f575f80fd5b50565b5f813590506102408161021c565b92915050565b5f610258610253846101ea565b6101d0565b905080602084028301858111156102725761027161020f565b5b835b8181101561029b57806102878882610232565b845260208401935050602081019050610274565b5050509392505050565b5f82601f8301126102b9576102b861015e565b5b60036102c6848285610246565b91505092915050565b5f606082840312156102e4576102e361015a565b5b5f6102f1848285016102a5565b91505092915050565b7f4e487b71000000000000000000000000000000000000000000000000000000005f52603260045260245ffdfea2646970667358221220b01a78e729451d768f90771f632cddd4c92b4a558af3cb2b8b8ebcc88443507c64736f6c63430008190033",
			"opcodes": "PUSH1 0x80 PUSH1 0x40 MSTORE CALLVALUE DUP1 ISZERO PUSH1 0xE JUMPI PUSH0 DUP1 REVERT JUMPDEST POP PUSH2 0x35D DUP1 PUSH2 0x1C PUSH0 CODECOPY PUSH0 RETURN INVALID PUSH1 0x80 PUSH1 0x40 MSTORE CALLVALUE DUP1 ISZERO PUSH2 0xF JUMPI PUSH0 DUP1 REVERT JUMPDEST POP PUSH1 0x4 CALLDATASIZE LT PUSH2 0x3F JUMPI PUSH0 CALLDATALOAD PUSH1 0xE0 SHR DUP1 PUSH4 0x26121FF0 EQ PUSH2 0x43 JUMPI DUP1 PUSH4 0xD14D385D EQ PUSH2 0x4D JUMPI DUP1 PUSH4 0xF8A8FD6D EQ PUSH2 0x69 JUMPI JUMPDEST PUSH0 DUP1 REVERT JUMPDEST PUSH2 0x4B PUSH2 0x73 JUMP JUMPDEST STOP JUMPDEST PUSH2 0x67 PUSH1 0x4 DUP1 CALLDATASIZE SUB DUP2 ADD SWAP1 PUSH2 0x62 SWAP2 SWAP1 PUSH2 0x2CF JUMP JUMPDEST PUSH2 0x9A JUMP JUMPDEST STOP JUMPDEST PUSH2 0x71 PUSH2 0x9D JUMP JUMPDEST STOP JUMPDEST PUSH2 0x98 PUSH1 0x40 MLOAD DUP1 PUSH1 0x60 ADD PUSH1 0x40 MSTORE DUP1 PUSH0 DUP2 MSTORE PUSH1 0x20 ADD PUSH1 0x1 DUP2 MSTORE PUSH1 0x20 ADD PUSH1 0x2 DUP2 MSTORE POP PUSH2 0x9A JUMP JUMPDEST JUMP JUMPDEST POP JUMP JUMPDEST PUSH0 PUSH1 0x3 PUSH8 0xFFFFFFFFFFFFFFFF DUP2 GT ISZERO PUSH2 0xB9 JUMPI PUSH2 0xB8 PUSH2 0x172 JUMP JUMPDEST JUMPDEST PUSH1 0x40 MLOAD SWAP1 DUP1 DUP3 MSTORE DUP1 PUSH1 0x20 MUL PUSH1 0x20 ADD DUP3 ADD PUSH1 0x40 MSTORE DUP1 ISZERO PUSH2 0xE7 JUMPI DUP2 PUSH1 0x20 ADD PUSH1 0x20 DUP3 MUL DUP1 CALLDATASIZE DUP4 CALLDATACOPY DUP1 DUP3 ADD SWAP2 POP POP SWAP1 POP JUMPDEST POP SWAP1 POP PUSH0 DUP2 PUSH0 DUP2 MLOAD DUP2 LT PUSH2 0xFE JUMPI PUSH2 0xFD PUSH2 0x2FA JUMP JUMPDEST JUMPDEST PUSH1 0x20 MUL PUSH1 0x20 ADD ADD DUP2 DUP2 MSTORE POP POP PUSH1 0x1 DUP2 PUSH1 0x1 DUP2 MLOAD DUP2 LT PUSH2 0x120 JUMPI PUSH2 0x11F PUSH2 0x2FA JUMP JUMPDEST JUMPDEST PUSH1 0x20 MUL PUSH1 0x20 ADD ADD DUP2 DUP2 MSTORE POP POP PUSH1 0x2 DUP2 PUSH1 0x2 DUP2 MLOAD DUP2 LT PUSH2 0x142 JUMPI PUSH2 0x141 PUSH2 0x2FA JUMP JUMPDEST JUMPDEST PUSH1 0x20 MUL PUSH1 0x20 ADD ADD DUP2 DUP2 MSTORE POP POP POP JUMP JUMPDEST PUSH0 PUSH1 0x40 MLOAD SWAP1 POP SWAP1 JUMP JUMPDEST PUSH0 DUP1 REVERT JUMPDEST PUSH0 DUP1 REVERT JUMPDEST PUSH0 PUSH1 0x1F NOT PUSH1 0x1F DUP4 ADD AND SWAP1 POP SWAP2 SWAP1 POP JUMP JUMPDEST PUSH32 0x4E487B7100000000000000000000000000000000000000000000000000000000 PUSH0 MSTORE PUSH1 0x41 PUSH1 0x4 MSTORE PUSH1 0x24 PUSH0 REVERT JUMPDEST PUSH2 0x1A8 DUP3 PUSH2 0x162 JUMP JUMPDEST DUP2 ADD DUP2 DUP2 LT PUSH8 0xFFFFFFFFFFFFFFFF DUP3 GT OR ISZERO PUSH2 0x1C7 JUMPI PUSH2 0x1C6 PUSH2 0x172 JUMP JUMPDEST JUMPDEST DUP1 PUSH1 0x40 MSTORE POP POP POP JUMP JUMPDEST PUSH0 PUSH2 0x1D9 PUSH2 0x151 JUMP JUMPDEST SWAP1 POP PUSH2 0x1E5 DUP3 DUP3 PUSH2 0x19F JUMP JUMPDEST SWAP2 SWAP1 POP JUMP JUMPDEST PUSH0 PUSH8 0xFFFFFFFFFFFFFFFF DUP3 GT ISZERO PUSH2 0x204 JUMPI PUSH2 0x203 PUSH2 0x172 JUMP JUMPDEST JUMPDEST PUSH1 0x20 DUP3 MUL SWAP1 POP SWAP2 SWAP1 POP JUMP JUMPDEST PUSH0 DUP1 REVERT JUMPDEST PUSH0 DUP2 SWAP1 POP SWAP2 SWAP1 POP JUMP JUMPDEST PUSH2 0x225 DUP2 PUSH2 0x213 JUMP JUMPDEST DUP2 EQ PUSH2 0x22F JUMPI PUSH0 DUP1 REVERT JUMPDEST POP JUMP JUMPDEST PUSH0 DUP2 CALLDATALOAD SWAP1 POP PUSH2 0x240 DUP2 PUSH2 0x21C JUMP JUMPDEST SWAP3 SWAP2 POP POP JUMP JUMPDEST PUSH0 PUSH2 0x258 PUSH2 0x253 DUP5 PUSH2 0x1EA JUMP JUMPDEST PUSH2 0x1D0 JUMP JUMPDEST SWAP1 POP DUP1 PUSH1 0x20 DUP5 MUL DUP4 ADD DUP6 DUP2 GT ISZERO PUSH2 0x272 JUMPI PUSH2 0x271 PUSH2 0x20F JUMP JUMPDEST JUMPDEST DUP4 JUMPDEST DUP2 DUP2 LT ISZERO PUSH2 0x29B JUMPI DUP1 PUSH2 0x287 DUP9 DUP3 PUSH2 0x232 JUMP JUMPDEST DUP5 MSTORE PUSH1 0x20 DUP5 ADD SWAP4 POP POP PUSH1 0x20 DUP2 ADD SWAP1 POP PUSH2 0x274 JUMP JUMPDEST POP POP POP SWAP4 SWAP3 POP POP POP JUMP JUMPDEST PUSH0 DUP3 PUSH1 0x1F DUP4 ADD SLT PUSH2 0x2B9 JUMPI PUSH2 0x2B8 PUSH2 0x15E JUMP JUMPDEST JUMPDEST PUSH1 0x3 PUSH2 0x2C6 DUP5 DUP3 DUP6 PUSH2 0x246 JUMP JUMPDEST SWAP2 POP POP SWAP3 SWAP2 POP POP JUMP JUMPDEST PUSH0 PUSH1 0x60 DUP3 DUP5 SUB SLT ISZERO PUSH2 0x2E4 JUMPI PUSH2 0x2E3 PUSH2 0x15A JUMP JUMPDEST JUMPDEST PUSH0 PUSH2 0x2F1 DUP5 DUP3 DUP6 ADD PUSH2 0x2A5 JUMP JUMPDEST SWAP2 POP POP SWAP3 SWAP2 POP POP JUMP JUMPDEST PUSH32 0x4E487B7100000000000000000000000000000000000000000000000000000000 PUSH0 MSTORE PUSH1 0x32 PUSH1 0x4 MSTORE PUSH1 0x24 PUSH0 REVERT INVALID LOG2 PUSH5 0x6970667358 0x22 SLT KECCAK256 0xB0 BYTE PUSH25 0xE729451D768F90771F632CDDD4C92B4A558AF3CB2B8B8EBCC8 DUP5 NUMBER POP PUSH29 0x64736F6C63430008190033000000000000000000000000000000000000 "
		},
		"gasEstimates": {
			"creation": {
				"codeDepositCost": "172200",
				"executionCost": "212",
				"totalCost": "172412"
			},
			"external": {
				"f()": "223",
				"g(uint256[3])": "infinite",
				"test()": "541"
			}
		},
		"methodIdentifiers": {
			"f()": "26121ff0",
			"g(uint256[3])": "d14d385d",
			"test()": "f8a8fd6d"
		}
	},
	"abi": [
		{
			"inputs": [],
			"name": "f",
			"outputs": [],
			"stateMutability": "pure",
			"type": "function"
		},
		{
			"inputs": [
				{
					"internalType": "uint256[3]",
					"name": "x2",
					"type": "uint256[3]"
				}
			],
			"name": "g",
			"outputs": [],
			"stateMutability": "pure",
			"type": "function"
		},
		{
			"inputs": [],
			"name": "test",
			"outputs": [],
			"stateMutability": "pure",
			"type": "function"
		}
	]
}